{
  "_format": "hh-sol-artifact-1",
  "contractName": "FundingPool",
  "sourceName": "contracts/FundingPool.sol",
  "abi": [
    {
      "anonymous": false,
      "inputs": [
        {
          "indexed": false,
          "internalType": "address",
          "name": "reciever",
          "type": "address"
        },
        {
          "indexed": false,
          "internalType": "uint256",
          "name": "BidId",
          "type": "uint256"
        },
        {
          "indexed": false,
          "internalType": "uint256",
          "name": "PoolId",
          "type": "uint256"
        },
        {
          "indexed": false,
          "internalType": "uint256",
          "name": "Amount",
          "type": "uint256"
        },
        {
          "indexed": false,
          "internalType": "uint256",
          "name": "paymentCycleAmount",
          "type": "uint256"
        }
      ],
      "name": "AcceptedBid",
      "type": "event"
    },
    {
      "anonymous": false,
      "inputs": [
        {
          "indexed": true,
          "internalType": "uint256",
          "name": "bidId",
          "type": "uint256"
        },
        {
          "indexed": false,
          "internalType": "uint256",
          "name": "PaidAmount",
          "type": "uint256"
        }
      ],
      "name": "BidRepaid",
      "type": "event"
    },
    {
      "anonymous": false,
      "inputs": [
        {
          "indexed": true,
          "internalType": "uint256",
          "name": "bidId",
          "type": "uint256"
        },
        {
          "indexed": false,
          "internalType": "uint256",
          "name": "PaidAmount",
          "type": "uint256"
        }
      ],
      "name": "BidRepayment",
      "type": "event"
    },
    {
      "anonymous": false,
      "inputs": [
        {
          "indexed": false,
          "internalType": "uint8",
          "name": "version",
          "type": "uint8"
        }
      ],
      "name": "Initialized",
      "type": "event"
    },
    {
      "anonymous": false,
      "inputs": [
        {
          "indexed": true,
          "internalType": "address",
          "name": "lender",
          "type": "address"
        },
        {
          "indexed": true,
          "internalType": "uint256",
          "name": "poolId",
          "type": "uint256"
        },
        {
          "indexed": false,
          "internalType": "uint256",
          "name": "BidId",
          "type": "uint256"
        },
        {
          "indexed": true,
          "internalType": "address",
          "name": "ERC20Token",
          "type": "address"
        },
        {
          "indexed": false,
          "internalType": "uint256",
          "name": "tokenAmount",
          "type": "uint256"
        }
      ],
      "name": "SupplyToPool",
      "type": "event"
    },
    {
      "anonymous": false,
      "inputs": [
        {
          "indexed": false,
          "internalType": "address",
          "name": "reciever",
          "type": "address"
        },
        {
          "indexed": false,
          "internalType": "uint256",
          "name": "BidId",
          "type": "uint256"
        },
        {
          "indexed": false,
          "internalType": "uint256",
          "name": "PoolId",
          "type": "uint256"
        },
        {
          "indexed": false,
          "internalType": "uint256",
          "name": "Amount",
          "type": "uint256"
        }
      ],
      "name": "Withdrawn",
      "type": "event"
    },
    {
      "anonymous": false,
      "inputs": [
        {
          "indexed": false,
          "internalType": "uint256",
          "name": "Amount",
          "type": "uint256"
        },
        {
          "indexed": false,
          "internalType": "uint256",
          "name": "interest",
          "type": "uint256"
        }
      ],
      "name": "paidAmount",
      "type": "event"
    },
    {
      "anonymous": false,
      "inputs": [
        {
          "indexed": false,
          "internalType": "uint256",
          "name": "owedAmount",
          "type": "uint256"
        },
        {
          "indexed": false,
          "internalType": "uint256",
          "name": "dueAmount",
          "type": "uint256"
        },
        {
          "indexed": false,
          "internalType": "uint256",
          "name": "interest",
          "type": "uint256"
        }
      ],
      "name": "repaidAmounts",
      "type": "event"
    },
    {
      "inputs": [
        {
          "internalType": "uint256",
          "name": "_poolId",
          "type": "uint256"
        },
        {
          "internalType": "address",
          "name": "_ERC20Address",
          "type": "address"
        },
        {
          "internalType": "uint256",
          "name": "_bidId",
          "type": "uint256"
        },
        {
          "internalType": "address",
          "name": "_lender",
          "type": "address"
        },
        {
          "internalType": "address",
          "name": "_receiver",
          "type": "address"
        }
      ],
      "name": "AcceptBid",
      "outputs": [],
      "stateMutability": "nonpayable",
      "type": "function"
    },
    {
      "inputs": [
        {
          "internalType": "uint256",
          "name": "_poolId",
          "type": "uint256"
        },
        {
          "internalType": "address",
          "name": "_ERC20Address",
          "type": "address"
        },
        {
          "internalType": "uint256",
          "name": "_bidId",
          "type": "uint256"
        },
        {
          "internalType": "address",
          "name": "_lender",
          "type": "address"
        }
      ],
      "name": "RepayFullAmount",
      "outputs": [],
      "stateMutability": "nonpayable",
      "type": "function"
    },
    {
      "inputs": [
        {
          "internalType": "uint256",
          "name": "_poolId",
          "type": "uint256"
        },
        {
          "internalType": "address",
          "name": "_ERC20Address",
          "type": "address"
        },
        {
          "internalType": "uint256",
          "name": "_bidId",
          "type": "uint256"
        },
        {
          "internalType": "address",
          "name": "_lender",
          "type": "address"
        }
      ],
      "name": "RepayInstallment",
      "outputs": [],
      "stateMutability": "nonpayable",
      "type": "function"
    },
    {
      "inputs": [
        {
          "internalType": "uint256",
          "name": "_poolId",
          "type": "uint256"
        },
        {
          "internalType": "address",
          "name": "_ERC20Address",
          "type": "address"
        },
        {
          "internalType": "uint256",
          "name": "_bidId",
          "type": "uint256"
        },
        {
          "internalType": "address",
          "name": "_lender",
          "type": "address"
        }
      ],
      "name": "Withdraw",
      "outputs": [],
      "stateMutability": "nonpayable",
      "type": "function"
    },
    {
      "inputs": [],
      "name": "bidId",
      "outputs": [
        {
          "internalType": "uint256",
          "name": "",
          "type": "uint256"
        }
      ],
      "stateMutability": "view",
      "type": "function"
    },
    {
      "inputs": [
        {
          "internalType": "address",
          "name": "_poolOwner",
          "type": "address"
        },
        {
          "internalType": "address",
          "name": "_poolRegistry",
          "type": "address"
        }
      ],
      "name": "initialize",
      "outputs": [],
      "stateMutability": "nonpayable",
      "type": "function"
    },
    {
      "inputs": [
        {
          "internalType": "address",
          "name": "",
          "type": "address"
        },
        {
          "internalType": "uint256",
          "name": "",
          "type": "uint256"
        },
        {
          "internalType": "address",
          "name": "",
          "type": "address"
        },
        {
          "internalType": "uint256",
          "name": "",
          "type": "uint256"
        }
      ],
      "name": "lenderPoolFundDetails",
      "outputs": [
        {
          "internalType": "uint256",
          "name": "amount",
          "type": "uint256"
        },
        {
          "internalType": "uint256",
          "name": "expiration",
          "type": "uint256"
        },
        {
          "internalType": "uint32",
          "name": "maxDuration",
          "type": "uint32"
        },
        {
          "internalType": "uint16",
          "name": "interestRate",
          "type": "uint16"
        },
        {
          "internalType": "enum FundingPool.BidState",
          "name": "state",
          "type": "uint8"
        },
        {
          "internalType": "uint32",
          "name": "bidTimestamp",
          "type": "uint32"
        },
        {
          "internalType": "uint32",
          "name": "acceptBidTimestamp",
          "type": "uint32"
        },
        {
          "internalType": "uint256",
          "name": "paymentCycleAmount",
          "type": "uint256"
        },
        {
          "internalType": "uint256",
          "name": "totalRepaidPrincipal",
          "type": "uint256"
        },
        {
          "internalType": "uint32",
          "name": "lastRepaidTimestamp",
          "type": "uint32"
        },
        {
          "components": [
            {
              "internalType": "uint256",
              "name": "amount",
              "type": "uint256"
            },
            {
              "internalType": "uint256",
              "name": "interest",
              "type": "uint256"
            }
          ],
          "internalType": "struct FundingPool.RePayment",
          "name": "Repaid",
          "type": "tuple"
        }
      ],
      "stateMutability": "view",
      "type": "function"
    },
    {
      "inputs": [
        {
          "internalType": "uint256",
          "name": "_poolId",
          "type": "uint256"
        },
        {
          "internalType": "address",
          "name": "_ERC20Address",
          "type": "address"
        },
        {
          "internalType": "uint256",
          "name": "_amount",
          "type": "uint256"
        },
        {
          "internalType": "uint32",
          "name": "_maxLoanDuration",
          "type": "uint32"
        },
        {
          "internalType": "uint16",
          "name": "_interestRate",
          "type": "uint16"
        },
        {
          "internalType": "uint256",
          "name": "_expiration",
          "type": "uint256"
        }
      ],
      "name": "supplyToPool",
      "outputs": [],
      "stateMutability": "nonpayable",
      "type": "function"
    },
    {
      "inputs": [
        {
          "internalType": "uint256",
          "name": "_poolId",
          "type": "uint256"
        },
        {
          "internalType": "address",
          "name": "_ERC20Address",
          "type": "address"
        },
        {
          "internalType": "uint256",
          "name": "_bidId",
          "type": "uint256"
        },
        {
          "internalType": "address",
          "name": "_lender",
          "type": "address"
        }
      ],
      "name": "viewFullRepayAmount",
      "outputs": [
        {
          "internalType": "uint256",
          "name": "",
          "type": "uint256"
        }
      ],
      "stateMutability": "view",
      "type": "function"
    },
    {
      "inputs": [
        {
          "internalType": "uint256",
          "name": "_poolId",
          "type": "uint256"
        },
        {
          "internalType": "address",
          "name": "_ERC20Address",
          "type": "address"
        },
        {
          "internalType": "uint256",
          "name": "_bidId",
          "type": "uint256"
        },
        {
          "internalType": "address",
          "name": "_lender",
          "type": "address"
        }
      ],
      "name": "viewInstallmentAmount",
      "outputs": [
        {
          "internalType": "uint256",
          "name": "",
          "type": "uint256"
        }
      ],
      "stateMutability": "view",
      "type": "function"
    }
  ],
  "bytecode": "0x6080604052600060355534801561001557600080fd5b5061388b806100256000396000f3fe608060405234801561001057600080fd5b506004361061009e5760003560e01c80638ac47319116100665780638ac47319146101435780639080e562146101615780639f8e66ee1461019b578063b74e6733146101b7578063bd0ea7f5146101d35761009e565b8063297d7cb4146100a3578063465d00b1146100bf578063485cc955146100ef5780635645483b1461010b5780637c24977e14610127575b600080fd5b6100bd60048036038101906100b89190612465565b610203565b005b6100d960048036038101906100d49190612465565b610542565b6040516100e691906124db565b60405180910390f35b610109600480360381019061010491906124f6565b6107a5565b005b61012560048036038101906101209190612536565b61095f565b005b610141600480360381019061013c9190612465565b611042565b005b61014b611387565b60405161015891906124db565b60405180910390f35b61017b600480360381019061017691906125b1565b61138d565b6040516101929b9a99989796959493929190612709565b60405180910390f35b6101b560048036038101906101b0919061280c565b611487565b005b6101d160048036038101906101cc9190612465565b6119b2565b005b6101ed60048036038101906101e89190612465565b611ccc565b6040516101fa91906124db565b60405180910390f35b61020b611f2f565b3373ffffffffffffffffffffffffffffffffffffffff16603360009054906101000a900473ffffffffffffffffffffffffffffffffffffffff1673ffffffffffffffffffffffffffffffffffffffff161461029b576040517f08c379a0000000000000000000000000000000000000000000000000000000008152600401610292906128f6565b60405180910390fd5b6000603660008373ffffffffffffffffffffffffffffffffffffffff1673ffffffffffffffffffffffffffffffffffffffff168152602001908152602001600020600086815260200190815260200160002060008573ffffffffffffffffffffffffffffffffffffffff1673ffffffffffffffffffffffffffffffffffffffff168152602001908152602001600020600084815260200190815260200160002090506002600481111561035157610350612654565b5b8160020160069054906101000a900460ff16600481111561037557610374612654565b5b146103b5576040517f08c379a00000000000000000000000000000000000000000000000000000000081526004016103ac90612962565b60405180910390fd5b6000603460009054906101000a900473ffffffffffffffffffffffffffffffffffffffff1673ffffffffffffffffffffffffffffffffffffffff1663805deb53876040518263ffffffff1660e01b815260040161041291906124db565b602060405180830381865afa15801561042f573d6000803e3d6000fd5b505050506040513d601f19601f820116820180604052508101906104539190612997565b90506000806104d8846000015485600601600001548660020160049054906101000a900461ffff1687600301548763ffffffff168960050160009054906101000a900463ffffffff16428b600201600b9054906101000a900463ffffffff1663ffffffff168c60020160009054906101000a900463ffffffff1663ffffffff16611f7f565b92505091506104f788888888868687896104f291906129f3565b611fb0565b7f5fea702eef28f016f331b310c5891ae3d4ba1869e502b9e70fc2e36562950c918282604051610528929190612a49565b60405180910390a15050505061053c612238565b50505050565b600080603660008473ffffffffffffffffffffffffffffffffffffffff1673ffffffffffffffffffffffffffffffffffffffff168152602001908152602001600020600087815260200190815260200160002060008673ffffffffffffffffffffffffffffffffffffffff1673ffffffffffffffffffffffffffffffffffffffff16815260200190815260200160002060008581526020019081526020016000209050600260048111156105f9576105f8612654565b5b8160020160069054906101000a900460ff16600481111561061d5761061c612654565b5b1461065d576040517f08c379a000000000000000000000000000000000000000000000000000000000815260040161065490612abe565b60405180910390fd5b6000603460009054906101000a900473ffffffffffffffffffffffffffffffffffffffff1673ffffffffffffffffffffffffffffffffffffffff1663805deb53886040518263ffffffff1660e01b81526004016106ba91906124db565b602060405180830381865afa1580156106d7573d6000803e3d6000fd5b505050506040513d601f19601f820116820180604052508101906106fb9190612997565b9050600080610780846000015485600601600001548660020160049054906101000a900461ffff1687600301548763ffffffff168960050160009054906101000a900463ffffffff16428b600201600b9054906101000a900463ffffffff1663ffffffff168c60020160009054906101000a900463ffffffff1663ffffffff16611f7f565b92509250506000818361079391906129f3565b90508095505050505050949350505050565b60008060019054906101000a900460ff161590508080156107d65750600160008054906101000a900460ff1660ff16105b8061080357506107e530612241565b1580156108025750600160008054906101000a900460ff1660ff16145b5b610842576040517f08c379a000000000000000000000000000000000000000000000000000000000815260040161083990612b50565b60405180910390fd5b60016000806101000a81548160ff021916908360ff160217905550801561087f576001600060016101000a81548160ff0219169083151502179055505b82603360006101000a81548173ffffffffffffffffffffffffffffffffffffffff021916908373ffffffffffffffffffffffffffffffffffffffff16021790555081603460006101000a81548173ffffffffffffffffffffffffffffffffffffffff021916908373ffffffffffffffffffffffffffffffffffffffff160217905550801561095a5760008060016101000a81548160ff0219169083151502179055507f7f26b83ff96e1f2b6a682f133852f6798a09c465da95921460cefb384740249860016040516109519190612bc2565b60405180910390a15b505050565b610967611f2f565b3373ffffffffffffffffffffffffffffffffffffffff16603360009054906101000a900473ffffffffffffffffffffffffffffffffffffffff1673ffffffffffffffffffffffffffffffffffffffff16146109f7576040517f08c379a00000000000000000000000000000000000000000000000000000000081526004016109ee906128f6565b60405180910390fd5b6000603660008473ffffffffffffffffffffffffffffffffffffffff1673ffffffffffffffffffffffffffffffffffffffff168152602001908152602001600020600087815260200190815260200160002060008673ffffffffffffffffffffffffffffffffffffffff1673ffffffffffffffffffffffffffffffffffffffff1681526020019081526020016000206000858152602001908152602001600020905060006004811115610aad57610aac612654565b5b8160020160069054906101000a900460ff166004811115610ad157610ad0612654565b5b14610b11576040517f08c379a0000000000000000000000000000000000000000000000000000000008152600401610b0890612962565b60405180910390fd5b4281600201600b6101000a81548163ffffffff021916908363ffffffff16021790555060008160000154905060028260020160066101000a81548160ff02191690836004811115610b6557610b64612654565b5b02179055506000603460009054906101000a900473ffffffffffffffffffffffffffffffffffffffff1673ffffffffffffffffffffffffffffffffffffffff1663805deb53896040518263ffffffff1660e01b8152600401610bc791906124db565b602060405180830381865afa158015610be4573d6000803e3d6000fd5b505050506040513d601f19601f82011682018060405250810190610c089190612997565b905073__$61c3dbfad47bb5d5260aee114f5f9d6488$__632872a887838560020160009054906101000a900463ffffffff16848760020160049054906101000a900461ffff166040518563ffffffff1660e01b8152600401610c6d9493929190612c0a565b602060405180830381865af4158015610c8a573d6000803e3d6000fd5b505050506040513d601f19601f82011682018060405250810190610cae9190612c64565b83600301819055506000603460009054906101000a900473ffffffffffffffffffffffffffffffffffffffff1673ffffffffffffffffffffffffffffffffffffffff1663fa9fe9166040518163ffffffff1660e01b8152600401602060405180830381865afa158015610d25573d6000803e3d6000fd5b505050506040513d601f19601f82011682018060405250810190610d499190612ca6565b9050600073__$61c3dbfad47bb5d5260aee114f5f9d6488$__633fb340038660000154603460009054906101000a900473ffffffffffffffffffffffffffffffffffffffff1673ffffffffffffffffffffffffffffffffffffffff1663911347156040518163ffffffff1660e01b8152600401602060405180830381865afa158015610dd9573d6000803e3d6000fd5b505050506040513d601f19601f82011682018060405250810190610dfd9190612ce8565b6040518363ffffffff1660e01b8152600401610e1a929190612d15565b602060405180830381865af4158015610e37573d6000803e3d6000fd5b505050506040513d601f19601f82011682018060405250810190610e5b9190612c64565b90508873ffffffffffffffffffffffffffffffffffffffff1663a9059cbb878387610e869190612d3e565b6040518363ffffffff1660e01b8152600401610ea3929190612d81565b6020604051808303816000875af1158015610ec2573d6000803e3d6000fd5b505050506040513d601f19601f82011682018060405250810190610ee69190612de2565b610f25576040517f08c379a0000000000000000000000000000000000000000000000000000000008152600401610f1c90612e5b565b60405180910390fd5b60008114610feb578873ffffffffffffffffffffffffffffffffffffffff1663a9059cbb83836040518363ffffffff1660e01b8152600401610f68929190612d81565b6020604051808303816000875af1158015610f87573d6000803e3d6000fd5b505050506040513d601f19601f82011682018060405250810190610fab9190612de2565b610fea576040517f08c379a0000000000000000000000000000000000000000000000000000000008152600401610fe190612eed565b60405180910390fd5b5b7f0c59092e68c08f10cb23a788fdb39228e729651e761cc393a9a0cb11be6ed63586898c878960030154604051611026959493929190612f0d565b60405180910390a1505050505061103b612238565b5050505050565b61104a611f2f565b3373ffffffffffffffffffffffffffffffffffffffff16603360009054906101000a900473ffffffffffffffffffffffffffffffffffffffff1673ffffffffffffffffffffffffffffffffffffffff16146110da576040517f08c379a00000000000000000000000000000000000000000000000000000000081526004016110d1906128f6565b60405180910390fd5b6000603660008373ffffffffffffffffffffffffffffffffffffffff1673ffffffffffffffffffffffffffffffffffffffff168152602001908152602001600020600086815260200190815260200160002060008573ffffffffffffffffffffffffffffffffffffffff1673ffffffffffffffffffffffffffffffffffffffff16815260200190815260200160002060008481526020019081526020016000209050600260048111156111905761118f612654565b5b8160020160069054906101000a900460ff1660048111156111b4576111b3612654565b5b146111f4576040517f08c379a00000000000000000000000000000000000000000000000000000000081526004016111eb90612962565b60405180910390fd5b6000603460009054906101000a900473ffffffffffffffffffffffffffffffffffffffff1673ffffffffffffffffffffffffffffffffffffffff1663805deb53876040518263ffffffff1660e01b815260040161125191906124db565b602060405180830381865afa15801561126e573d6000803e3d6000fd5b505050506040513d601f19601f820116820180604052508101906112929190612997565b90506000806000611319856000015486600601600001548760020160049054906101000a900461ffff1688600301548863ffffffff168a60050160009054906101000a900463ffffffff16428c600201600b9054906101000a900463ffffffff1663ffffffff168d60020160009054906101000a900463ffffffff1663ffffffff16611f7f565b925092509250611339898989898686878a61133491906129f3565b611fb0565b7f193d98b28f4db3258b9a6bc3f7270c0ea85e0a520b3dc0daad9acc7136703d0f83838360405161136c93929190612f60565b60405180910390a15050505050611381612238565b50505050565b60355481565b60366020528360005260406000206020528260005260406000206020528160005260406000206020528060005260406000206000935093505050508060000154908060010154908060020160009054906101000a900463ffffffff16908060020160049054906101000a900461ffff16908060020160069054906101000a900460ff16908060020160079054906101000a900463ffffffff169080600201600b9054906101000a900463ffffffff16908060030154908060040154908060050160009054906101000a900463ffffffff1690806006016040518060400160405290816000820154815260200160018201548152505090508b565b61148f611f2f565b6000603460009054906101000a900473ffffffffffffffffffffffffffffffffffffffff1673ffffffffffffffffffffffffffffffffffffffff1663da5de1a288336040518363ffffffff1660e01b81526004016114ee929190612f97565b6040805180830381865afa15801561150a573d6000803e3d6000fd5b505050506040513d601f19601f8201168201806040525081019061152e9190612ff6565b50905080611571576040517f08c379a000000000000000000000000000000000000000000000000000000000815260040161156890613082565b60405180910390fd5b600073ffffffffffffffffffffffffffffffffffffffff168673ffffffffffffffffffffffffffffffffffffffff1614156115e1576040517f08c379a00000000000000000000000000000000000000000000000000000000081526004016115d890613114565b60405180910390fd5b6000851415611625576040517f08c379a000000000000000000000000000000000000000000000000000000000815260040161161c906131a6565b60405180910390fd5b60003390504263ffffffff168311611672576040517f08c379a000000000000000000000000000000000000000000000000000000000815260040161166990613212565b60405180910390fd5b600060355490506000603660008473ffffffffffffffffffffffffffffffffffffffff1673ffffffffffffffffffffffffffffffffffffffff16815260200190815260200160002060008b815260200190815260200160002060008a73ffffffffffffffffffffffffffffffffffffffff1673ffffffffffffffffffffffffffffffffffffffff16815260200190815260200160002060008381526020019081526020016000209050878160000181905550848160010181905550868160020160006101000a81548163ffffffff021916908363ffffffff160217905550858160020160046101000a81548161ffff021916908361ffff160217905550428160020160076101000a81548163ffffffff021916908363ffffffff16021790555060008160020160066101000a81548160ff021916908360048111156117ba576117b9612654565b5b02179055506000603460009054906101000a900473ffffffffffffffffffffffffffffffffffffffff1673ffffffffffffffffffffffffffffffffffffffff1662a5ae218c6040518263ffffffff1660e01b815260040161181b91906124db565b602060405180830381865afa158015611838573d6000803e3d6000fd5b505050506040513d601f19601f8201168201806040525081019061185c9190612ca6565b90508973ffffffffffffffffffffffffffffffffffffffff166323b872dd85838c6040518463ffffffff1660e01b815260040161189b93929190613232565b6020604051808303816000875af11580156118ba573d6000803e3d6000fd5b505050506040513d601f19601f820116820180604052508101906118de9190612de2565b61191d576040517f08c379a0000000000000000000000000000000000000000000000000000000008152600401611914906132b5565b60405180910390fd5b60356000815480929190611930906132d5565b91905055508973ffffffffffffffffffffffffffffffffffffffff168b8573ffffffffffffffffffffffffffffffffffffffff167fdc518e49f7c1b433956bb608271b1e22669d38bcd1c7bba0712e96b324499bdf868d604051611995929190612a49565b60405180910390a450505050506119aa612238565b505050505050565b6119ba611f2f565b6000603660008373ffffffffffffffffffffffffffffffffffffffff1673ffffffffffffffffffffffffffffffffffffffff168152602001908152602001600020600086815260200190815260200160002060008573ffffffffffffffffffffffffffffffffffffffff1673ffffffffffffffffffffffffffffffffffffffff1681526020019081526020016000206000848152602001908152602001600020905060006004811115611a7057611a6f612654565b5b8160020160069054906101000a900460ff166004811115611a9457611a93612654565b5b14611ad4576040517f08c379a0000000000000000000000000000000000000000000000000000000008152600401611acb90612962565b60405180910390fd5b3373ffffffffffffffffffffffffffffffffffffffff168273ffffffffffffffffffffffffffffffffffffffff1614611b42576040517f08c379a0000000000000000000000000000000000000000000000000000000008152600401611b399061336a565b60405180910390fd5b4263ffffffff16816001015410611b8e576040517f08c379a0000000000000000000000000000000000000000000000000000000008152600401611b85906133d6565b60405180910390fd5b8373ffffffffffffffffffffffffffffffffffffffff1663a9059cbb8383600001546040518363ffffffff1660e01b8152600401611bcd929190612d81565b6020604051808303816000875af1158015611bec573d6000803e3d6000fd5b505050506040513d601f19601f82011682018060405250810190611c109190612de2565b611c4f576040517f08c379a0000000000000000000000000000000000000000000000000000000008152600401611c4690613442565b60405180910390fd5b60048160020160066101000a81548160ff02191690836004811115611c7757611c76612654565b5b02179055507f75e161b3e824b114fc1a33274bd7091918dd4e639cede50b78b15a4eea956a218284878460000154604051611cb59493929190613462565b60405180910390a150611cc6612238565b50505050565b600080603660008473ffffffffffffffffffffffffffffffffffffffff1673ffffffffffffffffffffffffffffffffffffffff168152602001908152602001600020600087815260200190815260200160002060008673ffffffffffffffffffffffffffffffffffffffff1673ffffffffffffffffffffffffffffffffffffffff1681526020019081526020016000206000858152602001908152602001600020905060026004811115611d8357611d82612654565b5b8160020160069054906101000a900460ff166004811115611da757611da6612654565b5b14611de7576040517f08c379a0000000000000000000000000000000000000000000000000000000008152600401611dde90612962565b60405180910390fd5b6000603460009054906101000a900473ffffffffffffffffffffffffffffffffffffffff1673ffffffffffffffffffffffffffffffffffffffff1663805deb53886040518263ffffffff1660e01b8152600401611e4491906124db565b602060405180830381865afa158015611e61573d6000803e3d6000fd5b505050506040513d601f19601f82011682018060405250810190611e859190612997565b9050600080611f0a846000015485600601600001548660020160049054906101000a900461ffff1687600301548763ffffffff168960050160009054906101000a900463ffffffff16428b600201600b9054906101000a900463ffffffff1663ffffffff168c60020160009054906101000a900463ffffffff1663ffffffff16611f7f565b925050915060008183611f1d91906129f3565b90508095505050505050949350505050565b60026001541415611f75576040517f08c379a0000000000000000000000000000000000000000000000000000000008152600401611f6c906134f3565b60405180910390fd5b6002600181905550565b6000806000611f9b8c8c8c8c8c8c63ffffffff168c8c8c612264565b92509250925099509950999650505050505050565b6000603660008673ffffffffffffffffffffffffffffffffffffffff1673ffffffffffffffffffffffffffffffffffffffff168152602001908152602001600020600089815260200190815260200160002060008873ffffffffffffffffffffffffffffffffffffffff1673ffffffffffffffffffffffffffffffffffffffff168152602001908152602001600020600087815260200190815260200160002090506000838561206091906129f3565b90508281106120d65782905060038260020160066101000a81548160ff0219169083600481111561209457612093612654565b5b0217905550867f044e4ffaa963a008234a0fb6594c50a05f7b446bfe5b006fc943d89a21a9d3cc826040516120c991906124db565b60405180910390a261210f565b867f5cbcbe20d8ea4a0298a26fcffbb0f0b5ad3b5d8544bf621810bea582e40b539d8260405161210691906124db565b60405180910390a25b8773ffffffffffffffffffffffffffffffffffffffff166323b872dd3388846040518463ffffffff1660e01b815260040161214c93929190613232565b6020604051808303816000875af115801561216b573d6000803e3d6000fd5b505050506040513d601f19601f8201168201806040525081019061218f9190612de2565b6121ce576040517f08c379a00000000000000000000000000000000000000000000000000000000081526004016121c59061355f565b60405180910390fd5b848260060160000160008282546121e591906129f3565b925050819055508382600601600101600082825461220391906129f3565b92505081905550428260050160006101000a81548163ffffffff021916908363ffffffff160217905550505050505050505050565b60018081905550565b6000808273ffffffffffffffffffffffffffffffffffffffff163b119050919050565b60008060008a8c6122759190612d3e565b92506000612283848c61234d565b9050600088886122939190612d3e565b90506301e1338081836122a6919061357f565b6122b09190613608565b9250600087896122c09190613643565b876122cb9190613643565b905060008b8212806122e857508c85886122e591906129f3565b11155b90506000816122f7578d612304565b858861230391906129f3565b5b905060008d8583612315919061357f565b61231f9190613608565b905061233687826123309190612d3e565b8a612367565b975050505050505099509950999650505050505050565b600061235f838361ffff166002612380565b905092915050565b60008183106123765781612378565b825b905092915050565b600061238b826123aa565b8385612397919061357f565b6123a19190613608565b90509392505050565b600081600a6123b9919061380a565b60646123c5919061357f565b9050919050565b600080fd5b6000819050919050565b6123e4816123d1565b81146123ef57600080fd5b50565b600081359050612401816123db565b92915050565b600073ffffffffffffffffffffffffffffffffffffffff82169050919050565b600061243282612407565b9050919050565b61244281612427565b811461244d57600080fd5b50565b60008135905061245f81612439565b92915050565b6000806000806080858703121561247f5761247e6123cc565b5b600061248d878288016123f2565b945050602061249e87828801612450565b93505060406124af878288016123f2565b92505060606124c087828801612450565b91505092959194509250565b6124d5816123d1565b82525050565b60006020820190506124f060008301846124cc565b92915050565b6000806040838503121561250d5761250c6123cc565b5b600061251b85828601612450565b925050602061252c85828601612450565b9150509250929050565b600080600080600060a08688031215612552576125516123cc565b5b6000612560888289016123f2565b955050602061257188828901612450565b9450506040612582888289016123f2565b935050606061259388828901612450565b92505060806125a488828901612450565b9150509295509295909350565b600080600080608085870312156125cb576125ca6123cc565b5b60006125d987828801612450565b94505060206125ea878288016123f2565b93505060406125fb87828801612450565b925050606061260c878288016123f2565b91505092959194509250565b600063ffffffff82169050919050565b61263181612618565b82525050565b600061ffff82169050919050565b61264e81612637565b82525050565b7f4e487b7100000000000000000000000000000000000000000000000000000000600052602160045260246000fd5b6005811061269457612693612654565b5b50565b60008190506126a582612683565b919050565b60006126b582612697565b9050919050565b6126c5816126aa565b82525050565b6126d4816123d1565b82525050565b6040820160008201516126f060008501826126cb565b50602082015161270360208501826126cb565b50505050565b60006101808201905061271f600083018e6124cc565b61272c602083018d6124cc565b612739604083018c612628565b612746606083018b612645565b612753608083018a6126bc565b61276060a0830189612628565b61276d60c0830188612628565b61277a60e08301876124cc565b6127886101008301866124cc565b612796610120830185612628565b6127a46101408301846126da565b9c9b505050505050505050505050565b6127bd81612618565b81146127c857600080fd5b50565b6000813590506127da816127b4565b92915050565b6127e981612637565b81146127f457600080fd5b50565b600081359050612806816127e0565b92915050565b60008060008060008060c08789031215612829576128286123cc565b5b600061283789828a016123f2565b965050602061284889828a01612450565b955050604061285989828a016123f2565b945050606061286a89828a016127cb565b935050608061287b89828a016127f7565b92505060a061288c89828a016123f2565b9150509295509295509295565b600082825260208201905092915050565b7f596f7520617265206e6f742074686520506f6f6c204f776e6572000000000000600082015250565b60006128e0601a83612899565b91506128eb826128aa565b602082019050919050565b6000602082019050818103600083015261290f816128d3565b9050919050565b7f426964206d7573742062652070656e64696e6700000000000000000000000000600082015250565b600061294c601383612899565b915061295782612916565b602082019050919050565b6000602082019050818103600083015261297b8161293f565b9050919050565b600081519050612991816127b4565b92915050565b6000602082840312156129ad576129ac6123cc565b5b60006129bb84828501612982565b91505092915050565b7f4e487b7100000000000000000000000000000000000000000000000000000000600052601160045260246000fd5b60006129fe826123d1565b9150612a09836123d1565b9250827fffffffffffffffffffffffffffffffffffffffffffffffffffffffffffffffff03821115612a3e57612a3d6129c4565b5b828201905092915050565b6000604082019050612a5e60008301856124cc565b612a6b60208301846124cc565b9392505050565b7f426964206d757374206265206163636570746564000000000000000000000000600082015250565b6000612aa8601483612899565b9150612ab382612a72565b602082019050919050565b60006020820190508181036000830152612ad781612a9b565b9050919050565b7f496e697469616c697a61626c653a20636f6e747261637420697320616c72656160008201527f647920696e697469616c697a6564000000000000000000000000000000000000602082015250565b6000612b3a602e83612899565b9150612b4582612ade565b604082019050919050565b60006020820190508181036000830152612b6981612b2d565b9050919050565b6000819050919050565b600060ff82169050919050565b6000819050919050565b6000612bac612ba7612ba284612b70565b612b87565b612b7a565b9050919050565b612bbc81612b91565b82525050565b6000602082019050612bd76000830184612bb3565b92915050565b612be6816123d1565b82525050565b612bf581612618565b82525050565b612c0481612637565b82525050565b6000608082019050612c1f6000830187612bdd565b612c2c6020830186612bec565b612c396040830185612bec565b612c466060830184612bfb565b95945050505050565b600081519050612c5e816123db565b92915050565b600060208284031215612c7a57612c796123cc565b5b6000612c8884828501612c4f565b91505092915050565b600081519050612ca081612439565b92915050565b600060208284031215612cbc57612cbb6123cc565b5b6000612cca84828501612c91565b91505092915050565b600081519050612ce2816127e0565b92915050565b600060208284031215612cfe57612cfd6123cc565b5b6000612d0c84828501612cd3565b91505092915050565b6000604082019050612d2a6000830185612bdd565b612d376020830184612bfb565b9392505050565b6000612d49826123d1565b9150612d54836123d1565b925082821015612d6757612d666129c4565b5b828203905092915050565b612d7b81612427565b82525050565b6000604082019050612d966000830185612d72565b612da360208301846124cc565b9392505050565b60008115159050919050565b612dbf81612daa565b8114612dca57600080fd5b50565b600081519050612ddc81612db6565b92915050565b600060208284031215612df857612df76123cc565b5b6000612e0684828501612dcd565b91505092915050565b7f756e61626c6520746f207472616e7366657220746f2072656365697665720000600082015250565b6000612e45601e83612899565b9150612e5082612e0f565b602082019050919050565b60006020820190508181036000830152612e7481612e38565b9050919050565b7f556e61626c6520746f207472616e7366657220746f2041636f6e6f6d794f776e60008201527f6572000000000000000000000000000000000000000000000000000000000000602082015250565b6000612ed7602283612899565b9150612ee282612e7b565b604082019050919050565b60006020820190508181036000830152612f0681612eca565b9050919050565b600060a082019050612f226000830188612d72565b612f2f60208301876124cc565b612f3c60408301866124cc565b612f4960608301856124cc565b612f5660808301846124cc565b9695505050505050565b6000606082019050612f7560008301866124cc565b612f8260208301856124cc565b612f8f60408301846124cc565b949350505050565b6000604082019050612fac60008301856124cc565b612fb96020830184612d72565b9392505050565b6000819050919050565b612fd381612fc0565b8114612fde57600080fd5b50565b600081519050612ff081612fca565b92915050565b6000806040838503121561300d5761300c6123cc565b5b600061301b85828601612dcd565b925050602061302c85828601612fe1565b9150509250929050565b7f4e6f74207665726966696564206c656e64657200000000000000000000000000600082015250565b600061306c601383612899565b915061307782613036565b602082019050919050565b6000602082019050818103600083015261309b8161305f565b9050919050565b7f796f752063616e277420646f20746869732077697468207a65726f206164647260008201527f6573730000000000000000000000000000000000000000000000000000000000602082015250565b60006130fe602383612899565b9150613109826130a2565b604082019050919050565b6000602082019050818103600083015261312d816130f1565b9050919050565b7f596f752063616e277420737570706c792077697468207a65726f20616d6f756e60008201527f7400000000000000000000000000000000000000000000000000000000000000602082015250565b6000613190602183612899565b915061319b82613134565b604082019050919050565b600060208201905081810360008301526131bf81613183565b9050919050565b7f77726f6e672074696d657374616d700000000000000000000000000000000000600082015250565b60006131fc600f83612899565b9150613207826131c6565b602082019050919050565b6000602082019050818103600083015261322b816131ef565b9050919050565b60006060820190506132476000830186612d72565b6132546020830185612d72565b61326160408301846124cc565b949350505050565b7f556e61626c6520746f2074616e7366657220746f20706f6f6c41646472657373600082015250565b600061329f602083612899565b91506132aa82613269565b602082019050919050565b600060208201905081810360008301526132ce81613292565b9050919050565b60006132e0826123d1565b91507fffffffffffffffffffffffffffffffffffffffffffffffffffffffffffffffff821415613313576133126129c4565b5b600182019050919050565b7f596f7520617265206e6f742061204c656e646572000000000000000000000000600082015250565b6000613354601483612899565b915061335f8261331e565b602082019050919050565b6000602082019050818103600083015261338381613347565b9050919050565b7f596f752063616e27742057697468647261770000000000000000000000000000600082015250565b60006133c0601283612899565b91506133cb8261338a565b602082019050919050565b600060208201905081810360008301526133ef816133b3565b9050919050565b7f556e61626c6520746f207472616e7366657220746f206c656e64657200000000600082015250565b600061342c601c83612899565b9150613437826133f6565b602082019050919050565b6000602082019050818103600083015261345b8161341f565b9050919050565b60006080820190506134776000830187612d72565b61348460208301866124cc565b61349160408301856124cc565b61349e60608301846124cc565b95945050505050565b7f5265656e7472616e637947756172643a207265656e7472616e742063616c6c00600082015250565b60006134dd601f83612899565b91506134e8826134a7565b602082019050919050565b6000602082019050818103600083015261350c816134d0565b9050919050565b7f756e61626c6520746f207472616e7366657220746f206c656e64657200000000600082015250565b6000613549601c83612899565b915061355482613513565b602082019050919050565b600060208201905081810360008301526135788161353c565b9050919050565b600061358a826123d1565b9150613595836123d1565b9250817fffffffffffffffffffffffffffffffffffffffffffffffffffffffffffffffff04831182151516156135ce576135cd6129c4565b5b828202905092915050565b7f4e487b7100000000000000000000000000000000000000000000000000000000600052601260045260246000fd5b6000613613826123d1565b915061361e836123d1565b92508261362e5761362d6135d9565b5b828204905092915050565b6000819050919050565b600061364e82613639565b915061365983613639565b9250827f800000000000000000000000000000000000000000000000000000000000000001821260008412151615613694576136936129c4565b5b827f7fffffffffffffffffffffffffffffffffffffffffffffffffffffffffffffff0182136000841216156136cc576136cb6129c4565b5b828203905092915050565b60008160011c9050919050565b6000808291508390505b600185111561372e5780860481111561370a576137096129c4565b5b60018516156137195780820291505b8081029050613727856136d7565b94506136ee565b94509492505050565b6000826137475760019050613803565b816137555760009050613803565b816001811461376b5760028114613775576137a4565b6001915050613803565b60ff841115613787576137866129c4565b5b8360020a91508482111561379e5761379d6129c4565b5b50613803565b5060208310610133831016604e8410600b84101617156137d95782820a9050838111156137d4576137d36129c4565b5b613803565b6137e684848460016136e4565b925090508184048111156137fd576137fc6129c4565b5b81810290505b9392505050565b6000613815826123d1565b9150613820836123d1565b925061384d7fffffffffffffffffffffffffffffffffffffffffffffffffffffffffffffffff8484613737565b90509291505056fea2646970667358221220326df7afab2d7c6bf638224a577b99024ff136f06a93e5afe247efe3513e26df64736f6c634300080a0033",
  "linkReferences": {
    "contracts/Libraries/LibCalculations.sol": {
      "LibCalculations": [
        {
          "length": 20,
          "start": 3121
        },
        {
          "length": 20,
          "start": 3444
        }
      ]
    }
  },
  "deployedLinkReferences": {
    "contracts/Libraries/LibCalculations.sol": {
      "LibCalculations": [
        {
          "length": 20,
          "start": 3084
        },
        {
          "length": 20,
          "start": 3407
        }
      ]
    }
  }
}