{
  "_format": "hh-sol-artifact-1",
  "contractName": "FundingPool",
  "sourceName": "contracts/FundingPool.sol",
  "abi": [
    {
      "inputs": [
        {
          "internalType": "address",
          "name": "_poolOwner",
          "type": "address"
        },
        {
          "internalType": "address",
          "name": "_poolRegistry",
          "type": "address"
        }
      ],
      "stateMutability": "nonpayable",
      "type": "constructor"
    },
    {
      "anonymous": false,
      "inputs": [
        {
          "indexed": false,
          "internalType": "address",
          "name": "reciever",
          "type": "address"
        },
        {
          "indexed": false,
          "internalType": "uint256",
          "name": "BidId",
          "type": "uint256"
        },
        {
          "indexed": false,
          "internalType": "uint256",
          "name": "PoolId",
          "type": "uint256"
        },
        {
          "indexed": false,
          "internalType": "uint256",
          "name": "Amount",
          "type": "uint256"
        },
        {
          "indexed": false,
          "internalType": "uint256",
          "name": "paymentCycleAmount",
          "type": "uint256"
        }
      ],
      "name": "AcceptedBid",
      "type": "event"
    },
    {
      "anonymous": false,
      "inputs": [
        {
          "indexed": true,
          "internalType": "uint256",
          "name": "bidId",
          "type": "uint256"
        },
        {
          "indexed": false,
          "internalType": "uint256",
          "name": "PaidAmount",
          "type": "uint256"
        }
      ],
      "name": "BidRepaid",
      "type": "event"
    },
    {
      "anonymous": false,
      "inputs": [
        {
          "indexed": true,
          "internalType": "uint256",
          "name": "bidId",
          "type": "uint256"
        },
        {
          "indexed": false,
          "internalType": "uint256",
          "name": "PaidAmount",
          "type": "uint256"
        }
      ],
      "name": "BidRepayment",
      "type": "event"
    },
    {
      "anonymous": false,
      "inputs": [
        {
          "indexed": true,
          "internalType": "address",
          "name": "lender",
          "type": "address"
        },
        {
          "indexed": true,
          "internalType": "uint256",
          "name": "poolId",
          "type": "uint256"
        },
        {
          "indexed": false,
          "internalType": "uint256",
          "name": "BidId",
          "type": "uint256"
        },
        {
          "indexed": true,
          "internalType": "address",
          "name": "ERC20Token",
          "type": "address"
        },
        {
          "indexed": false,
          "internalType": "uint256",
          "name": "tokenAmount",
          "type": "uint256"
        }
      ],
      "name": "SupplyToPool",
      "type": "event"
    },
    {
      "anonymous": false,
      "inputs": [
        {
          "indexed": false,
          "internalType": "address",
          "name": "reciever",
          "type": "address"
        },
        {
          "indexed": false,
          "internalType": "uint256",
          "name": "BidId",
          "type": "uint256"
        },
        {
          "indexed": false,
          "internalType": "uint256",
          "name": "PoolId",
          "type": "uint256"
        },
        {
          "indexed": false,
          "internalType": "uint256",
          "name": "Amount",
          "type": "uint256"
        }
      ],
      "name": "Withdrawn",
      "type": "event"
    },
    {
      "anonymous": false,
      "inputs": [
        {
          "indexed": false,
          "internalType": "uint256",
          "name": "Amount",
          "type": "uint256"
        },
        {
          "indexed": false,
          "internalType": "uint256",
          "name": "interest",
          "type": "uint256"
        }
      ],
      "name": "paidAmount",
      "type": "event"
    },
    {
      "anonymous": false,
      "inputs": [
        {
          "indexed": false,
          "internalType": "uint256",
          "name": "owedAmount",
          "type": "uint256"
        },
        {
          "indexed": false,
          "internalType": "uint256",
          "name": "dueAmount",
          "type": "uint256"
        },
        {
          "indexed": false,
          "internalType": "uint256",
          "name": "interest",
          "type": "uint256"
        }
      ],
      "name": "repaidAmounts",
      "type": "event"
    },
    {
      "inputs": [
        {
          "internalType": "uint256",
          "name": "_poolId",
          "type": "uint256"
        },
        {
          "internalType": "address",
          "name": "_ERC20Address",
          "type": "address"
        },
        {
          "internalType": "uint256",
          "name": "_bidId",
          "type": "uint256"
        },
        {
          "internalType": "address",
          "name": "_lender",
          "type": "address"
        },
        {
          "internalType": "address",
          "name": "_receiver",
          "type": "address"
        }
      ],
      "name": "AcceptBid",
      "outputs": [],
      "stateMutability": "nonpayable",
      "type": "function"
    },
    {
      "inputs": [
        {
          "internalType": "uint256",
          "name": "_poolId",
          "type": "uint256"
        },
        {
          "internalType": "address",
          "name": "_ERC20Address",
          "type": "address"
        },
        {
          "internalType": "uint256",
          "name": "_bidId",
          "type": "uint256"
        },
        {
          "internalType": "address",
          "name": "_lender",
          "type": "address"
        }
      ],
      "name": "RepayFullAmount",
      "outputs": [],
      "stateMutability": "nonpayable",
      "type": "function"
    },
    {
      "inputs": [
        {
          "internalType": "uint256",
          "name": "_poolId",
          "type": "uint256"
        },
        {
          "internalType": "address",
          "name": "_ERC20Address",
          "type": "address"
        },
        {
          "internalType": "uint256",
          "name": "_bidId",
          "type": "uint256"
        },
        {
          "internalType": "address",
          "name": "_lender",
          "type": "address"
        }
      ],
      "name": "RepayInstallment",
      "outputs": [],
      "stateMutability": "nonpayable",
      "type": "function"
    },
    {
      "inputs": [
        {
          "internalType": "uint256",
          "name": "_poolId",
          "type": "uint256"
        },
        {
          "internalType": "address",
          "name": "_ERC20Address",
          "type": "address"
        },
        {
          "internalType": "uint256",
          "name": "_bidId",
          "type": "uint256"
        },
        {
          "internalType": "address",
          "name": "_lender",
          "type": "address"
        }
      ],
      "name": "Withdraw",
      "outputs": [],
      "stateMutability": "nonpayable",
      "type": "function"
    },
    {
      "inputs": [],
      "name": "bidId",
      "outputs": [
        {
          "internalType": "uint256",
          "name": "",
          "type": "uint256"
        }
      ],
      "stateMutability": "view",
      "type": "function"
    },
    {
      "inputs": [
        {
          "internalType": "address",
          "name": "",
          "type": "address"
        },
        {
          "internalType": "uint256",
          "name": "",
          "type": "uint256"
        },
        {
          "internalType": "address",
          "name": "",
          "type": "address"
        },
        {
          "internalType": "uint256",
          "name": "",
          "type": "uint256"
        }
      ],
      "name": "lenderPoolFundDetails",
      "outputs": [
        {
          "internalType": "uint256",
          "name": "amount",
          "type": "uint256"
        },
        {
          "internalType": "uint256",
          "name": "expiration",
          "type": "uint256"
        },
        {
          "internalType": "uint32",
          "name": "maxDuration",
          "type": "uint32"
        },
        {
          "internalType": "uint16",
          "name": "interestRate",
          "type": "uint16"
        },
        {
          "internalType": "enum FundingPool.BidState",
          "name": "state",
          "type": "uint8"
        },
        {
          "internalType": "uint32",
          "name": "bidTimestamp",
          "type": "uint32"
        },
        {
          "internalType": "uint32",
          "name": "acceptBidTimestamp",
          "type": "uint32"
        },
        {
          "internalType": "uint256",
          "name": "paymentCycleAmount",
          "type": "uint256"
        },
        {
          "internalType": "uint256",
          "name": "totalRepaidPrincipal",
          "type": "uint256"
        },
        {
          "internalType": "uint32",
          "name": "lastRepaidTimestamp",
          "type": "uint32"
        },
        {
          "components": [
            {
              "internalType": "uint256",
              "name": "amount",
              "type": "uint256"
            },
            {
              "internalType": "uint256",
              "name": "interest",
              "type": "uint256"
            }
          ],
          "internalType": "struct FundingPool.RePayment",
          "name": "Repaid",
          "type": "tuple"
        }
      ],
      "stateMutability": "view",
      "type": "function"
    },
    {
      "inputs": [
        {
          "internalType": "uint256",
          "name": "_poolId",
          "type": "uint256"
        },
        {
          "internalType": "address",
          "name": "_ERC20Address",
          "type": "address"
        },
        {
          "internalType": "uint256",
          "name": "_amount",
          "type": "uint256"
        },
        {
          "internalType": "uint32",
          "name": "_maxLoanDuration",
          "type": "uint32"
        },
        {
          "internalType": "uint16",
          "name": "_interestRate",
          "type": "uint16"
        },
        {
          "internalType": "uint256",
          "name": "_expiration",
          "type": "uint256"
        }
      ],
      "name": "supplyToPool",
      "outputs": [],
      "stateMutability": "nonpayable",
      "type": "function"
    },
    {
      "inputs": [
        {
          "internalType": "uint256",
          "name": "_poolId",
          "type": "uint256"
        },
        {
          "internalType": "address",
          "name": "_ERC20Address",
          "type": "address"
        },
        {
          "internalType": "uint256",
          "name": "_bidId",
          "type": "uint256"
        },
        {
          "internalType": "address",
          "name": "_lender",
          "type": "address"
        }
      ],
      "name": "viewFullRepayAmount",
      "outputs": [
        {
          "internalType": "uint256",
          "name": "",
          "type": "uint256"
        }
      ],
      "stateMutability": "view",
      "type": "function"
    },
    {
      "inputs": [
        {
          "internalType": "uint256",
          "name": "_poolId",
          "type": "uint256"
        },
        {
          "internalType": "address",
          "name": "_ERC20Address",
          "type": "address"
        },
        {
          "internalType": "uint256",
          "name": "_bidId",
          "type": "uint256"
        },
        {
          "internalType": "address",
          "name": "_lender",
          "type": "address"
        }
      ],
      "name": "viewInstallmentAmount",
      "outputs": [
        {
          "internalType": "uint256",
          "name": "",
          "type": "uint256"
        }
      ],
      "stateMutability": "view",
      "type": "function"
    }
  ],
  "bytecode": "0x608060405260006003553480156200001657600080fd5b506040516200366c3803806200366c83398181016040528101906200003c919062000138565b600160008190555081600160006101000a81548173ffffffffffffffffffffffffffffffffffffffff021916908373ffffffffffffffffffffffffffffffffffffffff16021790555080600260006101000a81548173ffffffffffffffffffffffffffffffffffffffff021916908373ffffffffffffffffffffffffffffffffffffffff16021790555050506200017f565b600080fd5b600073ffffffffffffffffffffffffffffffffffffffff82169050919050565b60006200010082620000d3565b9050919050565b6200011281620000f3565b81146200011e57600080fd5b50565b600081519050620001328162000107565b92915050565b60008060408385031215620001525762000151620000ce565b5b6000620001628582860162000121565b9250506020620001758582860162000121565b9150509250929050565b6134dd806200018f6000396000f3fe608060405234801561001057600080fd5b50600436106100935760003560e01c80638ac47319116100665780638ac473191461011c5780639080e5621461013a5780639f8e66ee14610174578063b74e673314610190578063bd0ea7f5146101ac57610093565b8063297d7cb414610098578063465d00b1146100b45780635645483b146100e45780637c24977e14610100575b600080fd5b6100b260048036038101906100ad9190612262565b6101dc565b005b6100ce60048036038101906100c99190612262565b61051b565b6040516100db91906122d8565b60405180910390f35b6100fe60048036038101906100f991906122f3565b61077e565b005b61011a60048036038101906101159190612262565b610e61565b005b6101246111a6565b60405161013191906122d8565b60405180910390f35b610154600480360381019061014f919061236e565b6111ac565b60405161016b9b9a999897969594939291906124c6565b60405180910390f35b61018e600480360381019061018991906125c9565b6112a6565b005b6101aa60048036038101906101a59190612262565b6117d1565b005b6101c660048036038101906101c19190612262565b611aeb565b6040516101d391906122d8565b60405180910390f35b6101e4611d4e565b3373ffffffffffffffffffffffffffffffffffffffff16600160009054906101000a900473ffffffffffffffffffffffffffffffffffffffff1673ffffffffffffffffffffffffffffffffffffffff1614610274576040517f08c379a000000000000000000000000000000000000000000000000000000000815260040161026b906126b3565b60405180910390fd5b6000600460008373ffffffffffffffffffffffffffffffffffffffff1673ffffffffffffffffffffffffffffffffffffffff168152602001908152602001600020600086815260200190815260200160002060008573ffffffffffffffffffffffffffffffffffffffff1673ffffffffffffffffffffffffffffffffffffffff168152602001908152602001600020600084815260200190815260200160002090506002600481111561032a57610329612411565b5b8160020160069054906101000a900460ff16600481111561034e5761034d612411565b5b1461038e576040517f08c379a00000000000000000000000000000000000000000000000000000000081526004016103859061271f565b60405180910390fd5b6000600260009054906101000a900473ffffffffffffffffffffffffffffffffffffffff1673ffffffffffffffffffffffffffffffffffffffff1663805deb53876040518263ffffffff1660e01b81526004016103eb91906122d8565b602060405180830381865afa158015610408573d6000803e3d6000fd5b505050506040513d601f19601f8201168201806040525081019061042c9190612754565b90506000806104b1846000015485600601600001548660020160049054906101000a900461ffff1687600301548763ffffffff168960050160009054906101000a900463ffffffff16428b600201600b9054906101000a900463ffffffff1663ffffffff168c60020160009054906101000a900463ffffffff1663ffffffff16611d9e565b92505091506104d088888888868687896104cb91906127b0565b611dcf565b7f5fea702eef28f016f331b310c5891ae3d4ba1869e502b9e70fc2e36562950c918282604051610501929190612806565b60405180910390a150505050610515612057565b50505050565b600080600460008473ffffffffffffffffffffffffffffffffffffffff1673ffffffffffffffffffffffffffffffffffffffff168152602001908152602001600020600087815260200190815260200160002060008673ffffffffffffffffffffffffffffffffffffffff1673ffffffffffffffffffffffffffffffffffffffff16815260200190815260200160002060008581526020019081526020016000209050600260048111156105d2576105d1612411565b5b8160020160069054906101000a900460ff1660048111156105f6576105f5612411565b5b14610636576040517f08c379a000000000000000000000000000000000000000000000000000000000815260040161062d9061271f565b60405180910390fd5b6000600260009054906101000a900473ffffffffffffffffffffffffffffffffffffffff1673ffffffffffffffffffffffffffffffffffffffff1663805deb53886040518263ffffffff1660e01b815260040161069391906122d8565b602060405180830381865afa1580156106b0573d6000803e3d6000fd5b505050506040513d601f19601f820116820180604052508101906106d49190612754565b9050600080610759846000015485600601600001548660020160049054906101000a900461ffff1687600301548763ffffffff168960050160009054906101000a900463ffffffff16428b600201600b9054906101000a900463ffffffff1663ffffffff168c60020160009054906101000a900463ffffffff1663ffffffff16611d9e565b92509250506000818361076c91906127b0565b90508095505050505050949350505050565b610786611d4e565b3373ffffffffffffffffffffffffffffffffffffffff16600160009054906101000a900473ffffffffffffffffffffffffffffffffffffffff1673ffffffffffffffffffffffffffffffffffffffff1614610816576040517f08c379a000000000000000000000000000000000000000000000000000000000815260040161080d906126b3565b60405180910390fd5b6000600460008473ffffffffffffffffffffffffffffffffffffffff1673ffffffffffffffffffffffffffffffffffffffff168152602001908152602001600020600087815260200190815260200160002060008673ffffffffffffffffffffffffffffffffffffffff1673ffffffffffffffffffffffffffffffffffffffff16815260200190815260200160002060008581526020019081526020016000209050600060048111156108cc576108cb612411565b5b8160020160069054906101000a900460ff1660048111156108f0576108ef612411565b5b14610930576040517f08c379a00000000000000000000000000000000000000000000000000000000081526004016109279061271f565b60405180910390fd5b4281600201600b6101000a81548163ffffffff021916908363ffffffff16021790555060008160000154905060028260020160066101000a81548160ff0219169083600481111561098457610983612411565b5b02179055506000600260009054906101000a900473ffffffffffffffffffffffffffffffffffffffff1673ffffffffffffffffffffffffffffffffffffffff1663805deb53896040518263ffffffff1660e01b81526004016109e691906122d8565b602060405180830381865afa158015610a03573d6000803e3d6000fd5b505050506040513d601f19601f82011682018060405250810190610a279190612754565b905073__$61c3dbfad47bb5d5260aee114f5f9d6488$__632872a887838560020160009054906101000a900463ffffffff16848760020160049054906101000a900461ffff166040518563ffffffff1660e01b8152600401610a8c949392919061285c565b602060405180830381865af4158015610aa9573d6000803e3d6000fd5b505050506040513d601f19601f82011682018060405250810190610acd91906128b6565b83600301819055506000600260009054906101000a900473ffffffffffffffffffffffffffffffffffffffff1673ffffffffffffffffffffffffffffffffffffffff1663fa9fe9166040518163ffffffff1660e01b8152600401602060405180830381865afa158015610b44573d6000803e3d6000fd5b505050506040513d601f19601f82011682018060405250810190610b6891906128f8565b9050600073__$61c3dbfad47bb5d5260aee114f5f9d6488$__633fb340038660000154600260009054906101000a900473ffffffffffffffffffffffffffffffffffffffff1673ffffffffffffffffffffffffffffffffffffffff1663911347156040518163ffffffff1660e01b8152600401602060405180830381865afa158015610bf8573d6000803e3d6000fd5b505050506040513d601f19601f82011682018060405250810190610c1c919061293a565b6040518363ffffffff1660e01b8152600401610c39929190612967565b602060405180830381865af4158015610c56573d6000803e3d6000fd5b505050506040513d601f19601f82011682018060405250810190610c7a91906128b6565b90508873ffffffffffffffffffffffffffffffffffffffff1663a9059cbb878387610ca59190612990565b6040518363ffffffff1660e01b8152600401610cc29291906129d3565b6020604051808303816000875af1158015610ce1573d6000803e3d6000fd5b505050506040513d601f19601f82011682018060405250810190610d059190612a34565b610d44576040517f08c379a0000000000000000000000000000000000000000000000000000000008152600401610d3b90612aad565b60405180910390fd5b60008114610e0a578873ffffffffffffffffffffffffffffffffffffffff1663a9059cbb83836040518363ffffffff1660e01b8152600401610d879291906129d3565b6020604051808303816000875af1158015610da6573d6000803e3d6000fd5b505050506040513d601f19601f82011682018060405250810190610dca9190612a34565b610e09576040517f08c379a0000000000000000000000000000000000000000000000000000000008152600401610e0090612b3f565b60405180910390fd5b5b7f0c59092e68c08f10cb23a788fdb39228e729651e761cc393a9a0cb11be6ed63586898c878960030154604051610e45959493929190612b5f565b60405180910390a15050505050610e5a612057565b5050505050565b610e69611d4e565b3373ffffffffffffffffffffffffffffffffffffffff16600160009054906101000a900473ffffffffffffffffffffffffffffffffffffffff1673ffffffffffffffffffffffffffffffffffffffff1614610ef9576040517f08c379a0000000000000000000000000000000000000000000000000000000008152600401610ef0906126b3565b60405180910390fd5b6000600460008373ffffffffffffffffffffffffffffffffffffffff1673ffffffffffffffffffffffffffffffffffffffff168152602001908152602001600020600086815260200190815260200160002060008573ffffffffffffffffffffffffffffffffffffffff1673ffffffffffffffffffffffffffffffffffffffff1681526020019081526020016000206000848152602001908152602001600020905060026004811115610faf57610fae612411565b5b8160020160069054906101000a900460ff166004811115610fd357610fd2612411565b5b14611013576040517f08c379a000000000000000000000000000000000000000000000000000000000815260040161100a9061271f565b60405180910390fd5b6000600260009054906101000a900473ffffffffffffffffffffffffffffffffffffffff1673ffffffffffffffffffffffffffffffffffffffff1663805deb53876040518263ffffffff1660e01b815260040161107091906122d8565b602060405180830381865afa15801561108d573d6000803e3d6000fd5b505050506040513d601f19601f820116820180604052508101906110b19190612754565b90506000806000611138856000015486600601600001548760020160049054906101000a900461ffff1688600301548863ffffffff168a60050160009054906101000a900463ffffffff16428c600201600b9054906101000a900463ffffffff1663ffffffff168d60020160009054906101000a900463ffffffff1663ffffffff16611d9e565b925092509250611158898989898686878a61115391906127b0565b611dcf565b7f193d98b28f4db3258b9a6bc3f7270c0ea85e0a520b3dc0daad9acc7136703d0f83838360405161118b93929190612bb2565b60405180910390a150505050506111a0612057565b50505050565b60035481565b60046020528360005260406000206020528260005260406000206020528160005260406000206020528060005260406000206000935093505050508060000154908060010154908060020160009054906101000a900463ffffffff16908060020160049054906101000a900461ffff16908060020160069054906101000a900460ff16908060020160079054906101000a900463ffffffff169080600201600b9054906101000a900463ffffffff16908060030154908060040154908060050160009054906101000a900463ffffffff1690806006016040518060400160405290816000820154815260200160018201548152505090508b565b6112ae611d4e565b6000600260009054906101000a900473ffffffffffffffffffffffffffffffffffffffff1673ffffffffffffffffffffffffffffffffffffffff1663da5de1a288336040518363ffffffff1660e01b815260040161130d929190612be9565b6040805180830381865afa158015611329573d6000803e3d6000fd5b505050506040513d601f19601f8201168201806040525081019061134d9190612c48565b50905080611390576040517f08c379a000000000000000000000000000000000000000000000000000000000815260040161138790612cd4565b60405180910390fd5b600073ffffffffffffffffffffffffffffffffffffffff168673ffffffffffffffffffffffffffffffffffffffff161415611400576040517f08c379a00000000000000000000000000000000000000000000000000000000081526004016113f790612d66565b60405180910390fd5b6000851415611444576040517f08c379a000000000000000000000000000000000000000000000000000000000815260040161143b90612df8565b60405180910390fd5b60003390504263ffffffff168311611491576040517f08c379a000000000000000000000000000000000000000000000000000000000815260040161148890612e64565b60405180910390fd5b600060035490506000600460008473ffffffffffffffffffffffffffffffffffffffff1673ffffffffffffffffffffffffffffffffffffffff16815260200190815260200160002060008b815260200190815260200160002060008a73ffffffffffffffffffffffffffffffffffffffff1673ffffffffffffffffffffffffffffffffffffffff16815260200190815260200160002060008381526020019081526020016000209050878160000181905550848160010181905550868160020160006101000a81548163ffffffff021916908363ffffffff160217905550858160020160046101000a81548161ffff021916908361ffff160217905550428160020160076101000a81548163ffffffff021916908363ffffffff16021790555060008160020160066101000a81548160ff021916908360048111156115d9576115d8612411565b5b02179055506000600260009054906101000a900473ffffffffffffffffffffffffffffffffffffffff1673ffffffffffffffffffffffffffffffffffffffff1662a5ae218c6040518263ffffffff1660e01b815260040161163a91906122d8565b602060405180830381865afa158015611657573d6000803e3d6000fd5b505050506040513d601f19601f8201168201806040525081019061167b91906128f8565b90508973ffffffffffffffffffffffffffffffffffffffff166323b872dd85838c6040518463ffffffff1660e01b81526004016116ba93929190612e84565b6020604051808303816000875af11580156116d9573d6000803e3d6000fd5b505050506040513d601f19601f820116820180604052508101906116fd9190612a34565b61173c576040517f08c379a000000000000000000000000000000000000000000000000000000000815260040161173390612f07565b60405180910390fd5b6003600081548092919061174f90612f27565b91905055508973ffffffffffffffffffffffffffffffffffffffff168b8573ffffffffffffffffffffffffffffffffffffffff167fdc518e49f7c1b433956bb608271b1e22669d38bcd1c7bba0712e96b324499bdf868d6040516117b4929190612806565b60405180910390a450505050506117c9612057565b505050505050565b6117d9611d4e565b6000600460008373ffffffffffffffffffffffffffffffffffffffff1673ffffffffffffffffffffffffffffffffffffffff168152602001908152602001600020600086815260200190815260200160002060008573ffffffffffffffffffffffffffffffffffffffff1673ffffffffffffffffffffffffffffffffffffffff168152602001908152602001600020600084815260200190815260200160002090506000600481111561188f5761188e612411565b5b8160020160069054906101000a900460ff1660048111156118b3576118b2612411565b5b146118f3576040517f08c379a00000000000000000000000000000000000000000000000000000000081526004016118ea9061271f565b60405180910390fd5b3373ffffffffffffffffffffffffffffffffffffffff168273ffffffffffffffffffffffffffffffffffffffff1614611961576040517f08c379a000000000000000000000000000000000000000000000000000000000815260040161195890612fbc565b60405180910390fd5b4263ffffffff168160010154106119ad576040517f08c379a00000000000000000000000000000000000000000000000000000000081526004016119a490613028565b60405180910390fd5b8373ffffffffffffffffffffffffffffffffffffffff1663a9059cbb8383600001546040518363ffffffff1660e01b81526004016119ec9291906129d3565b6020604051808303816000875af1158015611a0b573d6000803e3d6000fd5b505050506040513d601f19601f82011682018060405250810190611a2f9190612a34565b611a6e576040517f08c379a0000000000000000000000000000000000000000000000000000000008152600401611a6590613094565b60405180910390fd5b60048160020160066101000a81548160ff02191690836004811115611a9657611a95612411565b5b02179055507f75e161b3e824b114fc1a33274bd7091918dd4e639cede50b78b15a4eea956a218284878460000154604051611ad494939291906130b4565b60405180910390a150611ae5612057565b50505050565b600080600460008473ffffffffffffffffffffffffffffffffffffffff1673ffffffffffffffffffffffffffffffffffffffff168152602001908152602001600020600087815260200190815260200160002060008673ffffffffffffffffffffffffffffffffffffffff1673ffffffffffffffffffffffffffffffffffffffff1681526020019081526020016000206000858152602001908152602001600020905060026004811115611ba257611ba1612411565b5b8160020160069054906101000a900460ff166004811115611bc657611bc5612411565b5b14611c06576040517f08c379a0000000000000000000000000000000000000000000000000000000008152600401611bfd9061271f565b60405180910390fd5b6000600260009054906101000a900473ffffffffffffffffffffffffffffffffffffffff1673ffffffffffffffffffffffffffffffffffffffff1663805deb53886040518263ffffffff1660e01b8152600401611c6391906122d8565b602060405180830381865afa158015611c80573d6000803e3d6000fd5b505050506040513d601f19601f82011682018060405250810190611ca49190612754565b9050600080611d29846000015485600601600001548660020160049054906101000a900461ffff1687600301548763ffffffff168960050160009054906101000a900463ffffffff16428b600201600b9054906101000a900463ffffffff1663ffffffff168c60020160009054906101000a900463ffffffff1663ffffffff16611d9e565b925050915060008183611d3c91906127b0565b90508095505050505050949350505050565b60026000541415611d94576040517f08c379a0000000000000000000000000000000000000000000000000000000008152600401611d8b90613145565b60405180910390fd5b6002600081905550565b6000806000611dba8c8c8c8c8c8c63ffffffff168c8c8c612061565b92509250925099509950999650505050505050565b6000600460008673ffffffffffffffffffffffffffffffffffffffff1673ffffffffffffffffffffffffffffffffffffffff168152602001908152602001600020600089815260200190815260200160002060008873ffffffffffffffffffffffffffffffffffffffff1673ffffffffffffffffffffffffffffffffffffffff1681526020019081526020016000206000878152602001908152602001600020905060008385611e7f91906127b0565b9050828110611ef55782905060038260020160066101000a81548160ff02191690836004811115611eb357611eb2612411565b5b0217905550867f044e4ffaa963a008234a0fb6594c50a05f7b446bfe5b006fc943d89a21a9d3cc82604051611ee891906122d8565b60405180910390a2611f2e565b867f5cbcbe20d8ea4a0298a26fcffbb0f0b5ad3b5d8544bf621810bea582e40b539d82604051611f2591906122d8565b60405180910390a25b8773ffffffffffffffffffffffffffffffffffffffff166323b872dd3388846040518463ffffffff1660e01b8152600401611f6b93929190612e84565b6020604051808303816000875af1158015611f8a573d6000803e3d6000fd5b505050506040513d601f19601f82011682018060405250810190611fae9190612a34565b611fed576040517f08c379a0000000000000000000000000000000000000000000000000000000008152600401611fe4906131b1565b60405180910390fd5b8482600601600001600082825461200491906127b0565b925050819055508382600601600101600082825461202291906127b0565b92505081905550428260050160006101000a81548163ffffffff021916908363ffffffff160217905550505050505050505050565b6001600081905550565b60008060008a8c6120729190612990565b92506000612080848c61214a565b9050600088886120909190612990565b90506301e1338081836120a391906131d1565b6120ad919061325a565b9250600087896120bd9190613295565b876120c89190613295565b905060008b8212806120e557508c85886120e291906127b0565b11155b90506000816120f4578d612101565b858861210091906127b0565b5b905060008d858361211291906131d1565b61211c919061325a565b9050612133878261212d9190612990565b8a612164565b975050505050505099509950999650505050505050565b600061215c838361ffff16600261217d565b905092915050565b60008183106121735781612175565b825b905092915050565b6000612188826121a7565b838561219491906131d1565b61219e919061325a565b90509392505050565b600081600a6121b6919061345c565b60646121c291906131d1565b9050919050565b600080fd5b6000819050919050565b6121e1816121ce565b81146121ec57600080fd5b50565b6000813590506121fe816121d8565b92915050565b600073ffffffffffffffffffffffffffffffffffffffff82169050919050565b600061222f82612204565b9050919050565b61223f81612224565b811461224a57600080fd5b50565b60008135905061225c81612236565b92915050565b6000806000806080858703121561227c5761227b6121c9565b5b600061228a878288016121ef565b945050602061229b8782880161224d565b93505060406122ac878288016121ef565b92505060606122bd8782880161224d565b91505092959194509250565b6122d2816121ce565b82525050565b60006020820190506122ed60008301846122c9565b92915050565b600080600080600060a0868803121561230f5761230e6121c9565b5b600061231d888289016121ef565b955050602061232e8882890161224d565b945050604061233f888289016121ef565b93505060606123508882890161224d565b92505060806123618882890161224d565b9150509295509295909350565b60008060008060808587031215612388576123876121c9565b5b60006123968782880161224d565b94505060206123a7878288016121ef565b93505060406123b88782880161224d565b92505060606123c9878288016121ef565b91505092959194509250565b600063ffffffff82169050919050565b6123ee816123d5565b82525050565b600061ffff82169050919050565b61240b816123f4565b82525050565b7f4e487b7100000000000000000000000000000000000000000000000000000000600052602160045260246000fd5b6005811061245157612450612411565b5b50565b600081905061246282612440565b919050565b600061247282612454565b9050919050565b61248281612467565b82525050565b612491816121ce565b82525050565b6040820160008201516124ad6000850182612488565b5060208201516124c06020850182612488565b50505050565b6000610180820190506124dc600083018e6122c9565b6124e9602083018d6122c9565b6124f6604083018c6123e5565b612503606083018b612402565b612510608083018a612479565b61251d60a08301896123e5565b61252a60c08301886123e5565b61253760e08301876122c9565b6125456101008301866122c9565b6125536101208301856123e5565b612561610140830184612497565b9c9b505050505050505050505050565b61257a816123d5565b811461258557600080fd5b50565b60008135905061259781612571565b92915050565b6125a6816123f4565b81146125b157600080fd5b50565b6000813590506125c38161259d565b92915050565b60008060008060008060c087890312156125e6576125e56121c9565b5b60006125f489828a016121ef565b965050602061260589828a0161224d565b955050604061261689828a016121ef565b945050606061262789828a01612588565b935050608061263889828a016125b4565b92505060a061264989828a016121ef565b9150509295509295509295565b600082825260208201905092915050565b7f596f7520617265206e6f742074686520506f6f6c204f776e6572000000000000600082015250565b600061269d601a83612656565b91506126a882612667565b602082019050919050565b600060208201905081810360008301526126cc81612690565b9050919050565b7f426964206d7573742062652070656e64696e6700000000000000000000000000600082015250565b6000612709601383612656565b9150612714826126d3565b602082019050919050565b60006020820190508181036000830152612738816126fc565b9050919050565b60008151905061274e81612571565b92915050565b60006020828403121561276a576127696121c9565b5b60006127788482850161273f565b91505092915050565b7f4e487b7100000000000000000000000000000000000000000000000000000000600052601160045260246000fd5b60006127bb826121ce565b91506127c6836121ce565b9250827fffffffffffffffffffffffffffffffffffffffffffffffffffffffffffffffff038211156127fb576127fa612781565b5b828201905092915050565b600060408201905061281b60008301856122c9565b61282860208301846122c9565b9392505050565b612838816121ce565b82525050565b612847816123d5565b82525050565b612856816123f4565b82525050565b6000608082019050612871600083018761282f565b61287e602083018661283e565b61288b604083018561283e565b612898606083018461284d565b95945050505050565b6000815190506128b0816121d8565b92915050565b6000602082840312156128cc576128cb6121c9565b5b60006128da848285016128a1565b91505092915050565b6000815190506128f281612236565b92915050565b60006020828403121561290e5761290d6121c9565b5b600061291c848285016128e3565b91505092915050565b6000815190506129348161259d565b92915050565b6000602082840312156129505761294f6121c9565b5b600061295e84828501612925565b91505092915050565b600060408201905061297c600083018561282f565b612989602083018461284d565b9392505050565b600061299b826121ce565b91506129a6836121ce565b9250828210156129b9576129b8612781565b5b828203905092915050565b6129cd81612224565b82525050565b60006040820190506129e860008301856129c4565b6129f560208301846122c9565b9392505050565b60008115159050919050565b612a11816129fc565b8114612a1c57600080fd5b50565b600081519050612a2e81612a08565b92915050565b600060208284031215612a4a57612a496121c9565b5b6000612a5884828501612a1f565b91505092915050565b7f756e61626c6520746f207472616e7366657220746f2072656365697665720000600082015250565b6000612a97601e83612656565b9150612aa282612a61565b602082019050919050565b60006020820190508181036000830152612ac681612a8a565b9050919050565b7f556e61626c6520746f207472616e7366657220746f2041636f6e6f6d794f776e60008201527f6572000000000000000000000000000000000000000000000000000000000000602082015250565b6000612b29602283612656565b9150612b3482612acd565b604082019050919050565b60006020820190508181036000830152612b5881612b1c565b9050919050565b600060a082019050612b7460008301886129c4565b612b8160208301876122c9565b612b8e60408301866122c9565b612b9b60608301856122c9565b612ba860808301846122c9565b9695505050505050565b6000606082019050612bc760008301866122c9565b612bd460208301856122c9565b612be160408301846122c9565b949350505050565b6000604082019050612bfe60008301856122c9565b612c0b60208301846129c4565b9392505050565b6000819050919050565b612c2581612c12565b8114612c3057600080fd5b50565b600081519050612c4281612c1c565b92915050565b60008060408385031215612c5f57612c5e6121c9565b5b6000612c6d85828601612a1f565b9250506020612c7e85828601612c33565b9150509250929050565b7f4e6f74207665726966696564206c656e64657200000000000000000000000000600082015250565b6000612cbe601383612656565b9150612cc982612c88565b602082019050919050565b60006020820190508181036000830152612ced81612cb1565b9050919050565b7f796f752063616e277420646f20746869732077697468207a65726f206164647260008201527f6573730000000000000000000000000000000000000000000000000000000000602082015250565b6000612d50602383612656565b9150612d5b82612cf4565b604082019050919050565b60006020820190508181036000830152612d7f81612d43565b9050919050565b7f596f752063616e277420737570706c792077697468207a65726f20616d6f756e60008201527f7400000000000000000000000000000000000000000000000000000000000000602082015250565b6000612de2602183612656565b9150612ded82612d86565b604082019050919050565b60006020820190508181036000830152612e1181612dd5565b9050919050565b7f77726f6e672074696d657374616d700000000000000000000000000000000000600082015250565b6000612e4e600f83612656565b9150612e5982612e18565b602082019050919050565b60006020820190508181036000830152612e7d81612e41565b9050919050565b6000606082019050612e9960008301866129c4565b612ea660208301856129c4565b612eb360408301846122c9565b949350505050565b7f556e61626c6520746f2074616e7366657220746f20706f6f6c41646472657373600082015250565b6000612ef1602083612656565b9150612efc82612ebb565b602082019050919050565b60006020820190508181036000830152612f2081612ee4565b9050919050565b6000612f32826121ce565b91507fffffffffffffffffffffffffffffffffffffffffffffffffffffffffffffffff821415612f6557612f64612781565b5b600182019050919050565b7f596f7520617265206e6f742061204c656e646572000000000000000000000000600082015250565b6000612fa6601483612656565b9150612fb182612f70565b602082019050919050565b60006020820190508181036000830152612fd581612f99565b9050919050565b7f596f752063616e27742057697468647261770000000000000000000000000000600082015250565b6000613012601283612656565b915061301d82612fdc565b602082019050919050565b6000602082019050818103600083015261304181613005565b9050919050565b7f556e61626c6520746f207472616e7366657220746f206c656e64657200000000600082015250565b600061307e601c83612656565b915061308982613048565b602082019050919050565b600060208201905081810360008301526130ad81613071565b9050919050565b60006080820190506130c960008301876129c4565b6130d660208301866122c9565b6130e360408301856122c9565b6130f060608301846122c9565b95945050505050565b7f5265656e7472616e637947756172643a207265656e7472616e742063616c6c00600082015250565b600061312f601f83612656565b915061313a826130f9565b602082019050919050565b6000602082019050818103600083015261315e81613122565b9050919050565b7f756e61626c6520746f207472616e7366657220746f206c656e64657200000000600082015250565b600061319b601c83612656565b91506131a682613165565b602082019050919050565b600060208201905081810360008301526131ca8161318e565b9050919050565b60006131dc826121ce565b91506131e7836121ce565b9250817fffffffffffffffffffffffffffffffffffffffffffffffffffffffffffffffff04831182151516156132205761321f612781565b5b828202905092915050565b7f4e487b7100000000000000000000000000000000000000000000000000000000600052601260045260246000fd5b6000613265826121ce565b9150613270836121ce565b9250826132805761327f61322b565b5b828204905092915050565b6000819050919050565b60006132a08261328b565b91506132ab8361328b565b9250827f8000000000000000000000000000000000000000000000000000000000000000018212600084121516156132e6576132e5612781565b5b827f7fffffffffffffffffffffffffffffffffffffffffffffffffffffffffffffff01821360008412161561331e5761331d612781565b5b828203905092915050565b60008160011c9050919050565b6000808291508390505b60018511156133805780860481111561335c5761335b612781565b5b600185161561336b5780820291505b808102905061337985613329565b9450613340565b94509492505050565b6000826133995760019050613455565b816133a75760009050613455565b81600181146133bd57600281146133c7576133f6565b6001915050613455565b60ff8411156133d9576133d8612781565b5b8360020a9150848211156133f0576133ef612781565b5b50613455565b5060208310610133831016604e8410600b841016171561342b5782820a90508381111561342657613425612781565b5b613455565b6134388484846001613336565b9250905081840481111561344f5761344e612781565b5b81810290505b9392505050565b6000613467826121ce565b9150613472836121ce565b925061349f7fffffffffffffffffffffffffffffffffffffffffffffffffffffffffffffffff8484613389565b90509291505056fea26469706673582212206daad736b05473f5fc2fceb27406d6b110823c6415ce9f93ef3916217e0e7c1664736f6c634300080a0033",
  "linkReferences": {
    "contracts/Libraries/LibCalculations.sol": {
      "LibCalculations": [
        {
          "length": 20,
          "start": 3002
        },
        {
          "length": 20,
          "start": 3325
        }
      ]
    }
  },
  "deployedLinkReferences": {
    "contracts/Libraries/LibCalculations.sol": {
      "LibCalculations": [
        {
          "length": 20,
          "start": 2603
        },
        {
          "length": 20,
          "start": 2926
        }
      ]
    }
  }
}