{
  "_format": "hh-sol-artifact-1",
  "contractName": "AconomyFee",
  "sourceName": "contracts/AconomyFee.sol",
  "abi": [
    {
      "anonymous": false,
      "inputs": [
        {
          "indexed": true,
          "internalType": "address",
          "name": "previousOwner",
          "type": "address"
        },
        {
          "indexed": true,
          "internalType": "address",
          "name": "newOwner",
          "type": "address"
        }
      ],
      "name": "OwnershipTransferred",
      "type": "event"
    },
    {
      "anonymous": false,
      "inputs": [
        {
          "indexed": false,
          "internalType": "uint16",
          "name": "newFee",
          "type": "uint16"
        },
        {
          "indexed": false,
          "internalType": "uint16",
          "name": "oldFee",
          "type": "uint16"
        }
      ],
      "name": "SetAconomyFee",
      "type": "event"
    },
    {
      "inputs": [],
      "name": "_AconomyFee",
      "outputs": [
        {
          "internalType": "uint16",
          "name": "",
          "type": "uint16"
        }
      ],
      "stateMutability": "view",
      "type": "function"
    },
    {
      "inputs": [],
      "name": "getAconomyOwnerAddress",
      "outputs": [
        {
          "internalType": "address",
          "name": "",
          "type": "address"
        }
      ],
      "stateMutability": "view",
      "type": "function"
    },
    {
      "inputs": [],
      "name": "owner",
      "outputs": [
        {
          "internalType": "address",
          "name": "",
          "type": "address"
        }
      ],
      "stateMutability": "view",
      "type": "function"
    },
    {
      "inputs": [],
      "name": "protocolFee",
      "outputs": [
        {
          "internalType": "uint16",
          "name": "",
          "type": "uint16"
        }
      ],
      "stateMutability": "view",
      "type": "function"
    },
    {
      "inputs": [],
      "name": "renounceOwnership",
      "outputs": [],
      "stateMutability": "nonpayable",
      "type": "function"
    },
    {
      "inputs": [
        {
          "internalType": "uint16",
          "name": "newFee",
          "type": "uint16"
        }
      ],
      "name": "setProtocolFee",
      "outputs": [],
      "stateMutability": "nonpayable",
      "type": "function"
    },
    {
      "inputs": [
        {
          "internalType": "address",
          "name": "newOwner",
          "type": "address"
        }
      ],
      "name": "transferOwnership",
      "outputs": [],
      "stateMutability": "nonpayable",
      "type": "function"
    }
  ],
  "bytecode": "0x608060405234801561001057600080fd5b5061002d61002261003260201b60201c565b61003a60201b60201c565b6100fe565b600033905090565b60008060009054906101000a900473ffffffffffffffffffffffffffffffffffffffff169050816000806101000a81548173ffffffffffffffffffffffffffffffffffffffff021916908373ffffffffffffffffffffffffffffffffffffffff1602179055508173ffffffffffffffffffffffffffffffffffffffff168173ffffffffffffffffffffffffffffffffffffffff167f8be0079c531659141344cd1fd0a4f28419497f9722a3daafe3b4186f6b6457e060405160405180910390a35050565b6106d68061010d6000396000f3fe608060405234801561001057600080fd5b506004361061007d5760003560e01c80639a3d4ae61161005b5780639a3d4ae6146100c8578063b0e21e8a146100e6578063e4467f3514610104578063f2fde38b146101205761007d565b80634dd9ccb114610082578063715018a6146100a05780638da5cb5b146100aa575b600080fd5b61008a61013c565b604051610097919061045e565b60405180910390f35b6100a861014b565b005b6100b261015f565b6040516100bf919061045e565b60405180910390f35b6100d0610188565b6040516100dd9190610496565b60405180910390f35b6100ee61019c565b6040516100fb9190610496565b60405180910390f35b61011e600480360381019061011991906104e2565b6101b3565b005b61013a6004803603810190610135919061053b565b61024f565b005b600061014661015f565b905090565b6101536102d3565b61015d6000610351565b565b60008060009054906101000a900473ffffffffffffffffffffffffffffffffffffffff16905090565b600060149054906101000a900461ffff1681565b60008060149054906101000a900461ffff16905090565b6101bb6102d3565b600060149054906101000a900461ffff1661ffff168161ffff1614156101e05761024c565b60008060149054906101000a900461ffff16905081600060146101000a81548161ffff021916908361ffff1602179055507f42844807f1f2d558d424268b6755d861b25ada531856444ccd87f17e2c4273f78282604051610242929190610568565b60405180910390a1505b50565b6102576102d3565b600073ffffffffffffffffffffffffffffffffffffffff168173ffffffffffffffffffffffffffffffffffffffff1614156102c7576040517f08c379a00000000000000000000000000000000000000000000000000000000081526004016102be90610614565b60405180910390fd5b6102d081610351565b50565b6102db610415565b73ffffffffffffffffffffffffffffffffffffffff166102f961015f565b73ffffffffffffffffffffffffffffffffffffffff161461034f576040517f08c379a000000000000000000000000000000000000000000000000000000000815260040161034690610680565b60405180910390fd5b565b60008060009054906101000a900473ffffffffffffffffffffffffffffffffffffffff169050816000806101000a81548173ffffffffffffffffffffffffffffffffffffffff021916908373ffffffffffffffffffffffffffffffffffffffff1602179055508173ffffffffffffffffffffffffffffffffffffffff168173ffffffffffffffffffffffffffffffffffffffff167f8be0079c531659141344cd1fd0a4f28419497f9722a3daafe3b4186f6b6457e060405160405180910390a35050565b600033905090565b600073ffffffffffffffffffffffffffffffffffffffff82169050919050565b60006104488261041d565b9050919050565b6104588161043d565b82525050565b6000602082019050610473600083018461044f565b92915050565b600061ffff82169050919050565b61049081610479565b82525050565b60006020820190506104ab6000830184610487565b92915050565b600080fd5b6104bf81610479565b81146104ca57600080fd5b50565b6000813590506104dc816104b6565b92915050565b6000602082840312156104f8576104f76104b1565b5b6000610506848285016104cd565b91505092915050565b6105188161043d565b811461052357600080fd5b50565b6000813590506105358161050f565b92915050565b600060208284031215610551576105506104b1565b5b600061055f84828501610526565b91505092915050565b600060408201905061057d6000830185610487565b61058a6020830184610487565b9392505050565b600082825260208201905092915050565b7f4f776e61626c653a206e6577206f776e657220697320746865207a65726f206160008201527f6464726573730000000000000000000000000000000000000000000000000000602082015250565b60006105fe602683610591565b9150610609826105a2565b604082019050919050565b6000602082019050818103600083015261062d816105f1565b9050919050565b7f4f776e61626c653a2063616c6c6572206973206e6f7420746865206f776e6572600082015250565b600061066a602083610591565b915061067582610634565b602082019050919050565b600060208201905081810360008301526106998161065d565b905091905056fea264697066735822122048aeb19b42dd83a5c2899f8523597b73d741adf3edb28ffc0ab6e2261b061b6a64736f6c634300080a0033",
  "linkReferences": {},
  "deployedLinkReferences": {}
}