{
  "_format": "hh-sol-artifact-1",
  "contractName": "EscrowProxyFactory",
  "sourceName": "contracts/EscrowProxyFactory.sol",
  "abi": [
    {
      "inputs": [
        {
          "internalType": "address",
          "name": "_implementation",
          "type": "address"
        }
      ],
      "stateMutability": "nonpayable",
      "type": "constructor"
    },
    {
      "anonymous": false,
      "inputs": [
        {
          "indexed": false,
          "internalType": "address",
          "name": "_clone",
          "type": "address"
        }
      ],
      "name": "NewClone",
      "type": "event"
    },
    {
      "anonymous": false,
      "inputs": [
        {
          "indexed": true,
          "internalType": "address",
          "name": "previousOwner",
          "type": "address"
        },
        {
          "indexed": true,
          "internalType": "address",
          "name": "newOwner",
          "type": "address"
        }
      ],
      "name": "OwnershipTransferred",
      "type": "event"
    },
    {
      "inputs": [
        {
          "internalType": "uint256",
          "name": "",
          "type": "uint256"
        }
      ],
      "name": "allClones",
      "outputs": [
        {
          "internalType": "address",
          "name": "",
          "type": "address"
        }
      ],
      "stateMutability": "view",
      "type": "function"
    },
    {
      "inputs": [
        {
          "internalType": "address",
          "name": "_arbiter",
          "type": "address"
        },
        {
          "internalType": "address payable",
          "name": "_beneficiary",
          "type": "address"
        },
        {
          "internalType": "address",
          "name": "_depositor",
          "type": "address"
        }
      ],
      "name": "createNewEscrow",
      "outputs": [
        {
          "internalType": "address",
          "name": "instance",
          "type": "address"
        }
      ],
      "stateMutability": "payable",
      "type": "function"
    },
    {
      "inputs": [],
      "name": "implementationContract",
      "outputs": [
        {
          "internalType": "address",
          "name": "",
          "type": "address"
        }
      ],
      "stateMutability": "view",
      "type": "function"
    },
    {
      "inputs": [],
      "name": "owner",
      "outputs": [
        {
          "internalType": "address",
          "name": "",
          "type": "address"
        }
      ],
      "stateMutability": "view",
      "type": "function"
    },
    {
      "inputs": [],
      "name": "renounceOwnership",
      "outputs": [],
      "stateMutability": "nonpayable",
      "type": "function"
    },
    {
      "inputs": [
        {
          "internalType": "address",
          "name": "newOwner",
          "type": "address"
        }
      ],
      "name": "transferOwnership",
      "outputs": [],
      "stateMutability": "nonpayable",
      "type": "function"
    }
  ],
  "bytecode": "0x608060405234801561001057600080fd5b50604051610c8e380380610c8e833981810160405281019061003291906101c4565b61004e61004361009560201b60201c565b61009d60201b60201c565b80600160006101000a81548173ffffffffffffffffffffffffffffffffffffffff021916908373ffffffffffffffffffffffffffffffffffffffff160217905550506101f1565b600033905090565b60008060009054906101000a900473ffffffffffffffffffffffffffffffffffffffff169050816000806101000a81548173ffffffffffffffffffffffffffffffffffffffff021916908373ffffffffffffffffffffffffffffffffffffffff1602179055508173ffffffffffffffffffffffffffffffffffffffff168173ffffffffffffffffffffffffffffffffffffffff167f8be0079c531659141344cd1fd0a4f28419497f9722a3daafe3b4186f6b6457e060405160405180910390a35050565b600080fd5b600073ffffffffffffffffffffffffffffffffffffffff82169050919050565b600061019182610166565b9050919050565b6101a181610186565b81146101ac57600080fd5b50565b6000815190506101be81610198565b92915050565b6000602082840312156101da576101d9610161565b5b60006101e8848285016101af565b91505092915050565b610a8e806102006000396000f3fe6080604052600436106100555760003560e01c8063715018a61461005a5780638da5cb5b1461007157806399e7d0561461009c578063d7741cad146100c7578063e143b3a114610104578063f2fde38b14610134575b600080fd5b34801561006657600080fd5b5061006f61015d565b005b34801561007d57600080fd5b50610086610171565b6040516100939190610699565b60405180910390f35b3480156100a857600080fd5b506100b161019a565b6040516100be9190610699565b60405180910390f35b3480156100d357600080fd5b506100ee60048036038101906100e991906106ef565b6101c0565b6040516100fb9190610699565b60405180910390f35b61011e60048036038101906101199190610786565b6101ff565b60405161012b9190610699565b60405180910390f35b34801561014057600080fd5b5061015b600480360381019061015691906107d9565b6103cf565b005b610165610453565b61016f60006104d1565b565b60008060009054906101000a900473ffffffffffffffffffffffffffffffffffffffff16905090565b600160009054906101000a900473ffffffffffffffffffffffffffffffffffffffff1681565b600281815481106101d057600080fd5b906000526020600020016000915054906101000a900473ffffffffffffffffffffffffffffffffffffffff1681565b600061022c600160009054906101000a900473ffffffffffffffffffffffffffffffffffffffff16610595565b905060008173ffffffffffffffffffffffffffffffffffffffff163486868660405160240161025d93929190610815565b6040516020818303038152906040527fc0c53b8b000000000000000000000000000000000000000000000000000000007bffffffffffffffffffffffffffffffffffffffffffffffffffffffff19166020820180517bffffffffffffffffffffffffffffffffffffffffffffffffffffffff83818316178352505050506040516102e791906108c6565b60006040518083038185875af1925050503d8060008114610324576040519150601f19603f3d011682016040523d82523d6000602084013e610329565b606091505b505090506002829080600181540180825580915050600190039060005260206000200160009091909190916101000a81548173ffffffffffffffffffffffffffffffffffffffff021916908373ffffffffffffffffffffffffffffffffffffffff1602179055507fcc1e9c890bc4f4943c457abb8d17f97703b9f7144e1f4a69e50c6e4988ef38b7826040516103bf9190610699565b60405180910390a1509392505050565b6103d7610453565b600073ffffffffffffffffffffffffffffffffffffffff168173ffffffffffffffffffffffffffffffffffffffff161415610447576040517f08c379a000000000000000000000000000000000000000000000000000000000815260040161043e90610960565b60405180910390fd5b610450816104d1565b50565b61045b610650565b73ffffffffffffffffffffffffffffffffffffffff16610479610171565b73ffffffffffffffffffffffffffffffffffffffff16146104cf576040517f08c379a00000000000000000000000000000000000000000000000000000000081526004016104c6906109cc565b60405180910390fd5b565b60008060009054906101000a900473ffffffffffffffffffffffffffffffffffffffff169050816000806101000a81548173ffffffffffffffffffffffffffffffffffffffff021916908373ffffffffffffffffffffffffffffffffffffffff1602179055508173ffffffffffffffffffffffffffffffffffffffff168173ffffffffffffffffffffffffffffffffffffffff167f8be0079c531659141344cd1fd0a4f28419497f9722a3daafe3b4186f6b6457e060405160405180910390a35050565b6000763d602d80600a3d3981f3363d3d373d3d3d363d730000008260601b60e81c176000526e5af43d82803e903d91602b57fd5bf38260781b17602052603760096000f09050600073ffffffffffffffffffffffffffffffffffffffff168173ffffffffffffffffffffffffffffffffffffffff16141561064b576040517f08c379a000000000000000000000000000000000000000000000000000000000815260040161064290610a38565b60405180910390fd5b919050565b600033905090565b600073ffffffffffffffffffffffffffffffffffffffff82169050919050565b600061068382610658565b9050919050565b61069381610678565b82525050565b60006020820190506106ae600083018461068a565b92915050565b600080fd5b6000819050919050565b6106cc816106b9565b81146106d757600080fd5b50565b6000813590506106e9816106c3565b92915050565b600060208284031215610705576107046106b4565b5b6000610713848285016106da565b91505092915050565b61072581610678565b811461073057600080fd5b50565b6000813590506107428161071c565b92915050565b600061075382610658565b9050919050565b61076381610748565b811461076e57600080fd5b50565b6000813590506107808161075a565b92915050565b60008060006060848603121561079f5761079e6106b4565b5b60006107ad86828701610733565b93505060206107be86828701610771565b92505060406107cf86828701610733565b9150509250925092565b6000602082840312156107ef576107ee6106b4565b5b60006107fd84828501610733565b91505092915050565b61080f81610748565b82525050565b600060608201905061082a600083018661068a565b6108376020830185610806565b610844604083018461068a565b949350505050565b600081519050919050565b600081905092915050565b60005b83811015610880578082015181840152602081019050610865565b8381111561088f576000848401525b50505050565b60006108a08261084c565b6108aa8185610857565b93506108ba818560208601610862565b80840191505092915050565b60006108d28284610895565b915081905092915050565b600082825260208201905092915050565b7f4f776e61626c653a206e6577206f776e657220697320746865207a65726f206160008201527f6464726573730000000000000000000000000000000000000000000000000000602082015250565b600061094a6026836108dd565b9150610955826108ee565b604082019050919050565b600060208201905081810360008301526109798161093d565b9050919050565b7f4f776e61626c653a2063616c6c6572206973206e6f7420746865206f776e6572600082015250565b60006109b66020836108dd565b91506109c182610980565b602082019050919050565b600060208201905081810360008301526109e5816109a9565b9050919050565b7f455243313136373a20637265617465206661696c656400000000000000000000600082015250565b6000610a226016836108dd565b9150610a2d826109ec565b602082019050919050565b60006020820190508181036000830152610a5181610a15565b905091905056fea2646970667358221220af0301e2fb5c37e38a76534c9e3e0b0c2f14f2afa061241a803e06cafa4ef45e64736f6c634300080a0033",
  "linkReferences": {},
  "deployedLinkReferences": {}
}