{
  "_format": "hh-sol-artifact-1",
  "contractName": "LibCalculations",
  "sourceName": "contracts/Libraries/LibCalculations.sol",
  "abi": [
    {
      "inputs": [
        {
          "internalType": "uint256",
          "name": "principal",
          "type": "uint256"
        },
        {
          "internalType": "uint32",
          "name": "loanDuration",
          "type": "uint32"
        },
        {
          "internalType": "uint32",
          "name": "cycleDuration",
          "type": "uint32"
        },
        {
          "internalType": "uint16",
          "name": "apr",
          "type": "uint16"
        }
      ],
      "name": "payment",
      "outputs": [
        {
          "internalType": "uint256",
          "name": "",
          "type": "uint256"
        }
      ],
      "stateMutability": "pure",
      "type": "function"
    },
    {
      "inputs": [
        {
          "internalType": "uint256",
          "name": "self",
          "type": "uint256"
        },
        {
          "internalType": "uint16",
          "name": "percentage",
          "type": "uint16"
        }
      ],
      "name": "percent",
      "outputs": [
        {
          "internalType": "uint256",
          "name": "",
          "type": "uint256"
        }
      ],
      "stateMutability": "pure",
      "type": "function"
    }
  ],
  "bytecode": "0x610902610053600b82828239805160001a607314610046577f4e487b7100000000000000000000000000000000000000000000000000000000600052600060045260246000fd5b30600052607381538281f3fe73000000000000000000000000000000000000000030146080604052600436106100405760003560e01c80632872a887146100455780633fb3400314610075575b600080fd5b61005f600480360381019061005a91906104a8565b6100a5565b60405161006c919061051e565b60405180910390f35b61008f600480360381019061008a9190610539565b6101a3565b60405161009c919061051e565b60405180910390f35b60008083856100b491906105d7565b63ffffffff16905060008361ffff1614156100dd5780866100d59190610608565b91505061019b565b60006100e76101bd565b905060006101226301e133806101148863ffffffff16610106896101cd565b61020990919063ffffffff16565b61026690919063ffffffff16565b905060006101448483856101369190610639565b6102c090919063ffffffff16565b9050600061016d8261015f858d61020990919063ffffffff16565b61020990919063ffffffff16565b90506000848361017d919061068f565b9050610192818361026690919063ffffffff16565b96505050505050505b949350505050565b60006101b5838361ffff1660026102e0565b905092915050565b6000670de0b6b3a7640000905090565b60006102026127106101f4670de0b6b3a76400008561ffff1661030a90919063ffffffff16565b61032090919063ffffffff16565b9050919050565b600061025e670de0b6b3a764000061025061022d858761030a90919063ffffffff16565b6002670de0b6b3a76400006102429190610608565b61033690919063ffffffff16565b61032090919063ffffffff16565b905092915050565b6000806002836102769190610608565b90506102b7836102a961029a670de0b6b3a76400008861030a90919063ffffffff16565b8461033690919063ffffffff16565b61032090919063ffffffff16565b91505092915050565b60006102d88383670de0b6b3a764000061020961034c565b905092915050565b60006102eb826103d5565b83856102f791906106c3565b6103019190610608565b90509392505050565b6000818361031891906106c3565b905092915050565b6000818361032e9190610608565b905092915050565b600081836103449190610639565b905092915050565b60008060028561035c919061071d565b1415610368578261036a565b845b90506002846103799190610608565b93505b600084146103cd5761039285868463ffffffff16565b945060006002856103a3919061071d565b146103b9576103b681868463ffffffff16565b90505b6002846103c69190610608565b935061037c565b949350505050565b600081600a6103e49190610881565b60646103f091906106c3565b9050919050565b600080fd5b6000819050919050565b61040f816103fc565b811461041a57600080fd5b50565b60008135905061042c81610406565b92915050565b600063ffffffff82169050919050565b61044b81610432565b811461045657600080fd5b50565b60008135905061046881610442565b92915050565b600061ffff82169050919050565b6104858161046e565b811461049057600080fd5b50565b6000813590506104a28161047c565b92915050565b600080600080608085870312156104c2576104c16103f7565b5b60006104d08782880161041d565b94505060206104e187828801610459565b93505060406104f287828801610459565b925050606061050387828801610493565b91505092959194509250565b610518816103fc565b82525050565b6000602082019050610533600083018461050f565b92915050565b600080604083850312156105505761054f6103f7565b5b600061055e8582860161041d565b925050602061056f85828601610493565b9150509250929050565b7f4e487b7100000000000000000000000000000000000000000000000000000000600052601260045260246000fd5b7f4e487b7100000000000000000000000000000000000000000000000000000000600052601160045260246000fd5b60006105e282610432565b91506105ed83610432565b9250826105fd576105fc610579565b5b828204905092915050565b6000610613826103fc565b915061061e836103fc565b92508261062e5761062d610579565b5b828204905092915050565b6000610644826103fc565b915061064f836103fc565b9250827fffffffffffffffffffffffffffffffffffffffffffffffffffffffffffffffff03821115610684576106836105a8565b5b828201905092915050565b600061069a826103fc565b91506106a5836103fc565b9250828210156106b8576106b76105a8565b5b828203905092915050565b60006106ce826103fc565b91506106d9836103fc565b9250817fffffffffffffffffffffffffffffffffffffffffffffffffffffffffffffffff0483118215151615610712576107116105a8565b5b828202905092915050565b6000610728826103fc565b9150610733836103fc565b92508261074357610742610579565b5b828206905092915050565b60008160011c9050919050565b6000808291508390505b60018511156107a557808604811115610781576107806105a8565b5b60018516156107905780820291505b808102905061079e8561074e565b9450610765565b94509492505050565b6000826107be576001905061087a565b816107cc576000905061087a565b81600181146107e257600281146107ec5761081b565b600191505061087a565b60ff8411156107fe576107fd6105a8565b5b8360020a915084821115610815576108146105a8565b5b5061087a565b5060208310610133831016604e8410600b84101617156108505782820a90508381111561084b5761084a6105a8565b5b61087a565b61085d848484600161075b565b92509050818404811115610874576108736105a8565b5b81810290505b9392505050565b600061088c826103fc565b9150610897836103fc565b92506108c47fffffffffffffffffffffffffffffffffffffffffffffffffffffffffffffffff84846107ae565b90509291505056fea2646970667358221220d28f8136d12d625b5d40ab9681ed47e9d3fd895f5693673ccd1a68337cc5c77b64736f6c634300080a0033",
  "linkReferences": {},
  "deployedLinkReferences": {}
}