{
  "_format": "hh-sol-artifact-1",
  "contractName": "CollectionMethods",
  "sourceName": "contracts/CollectionMethods.sol",
  "abi": [
    {
      "anonymous": false,
      "inputs": [
        {
          "indexed": true,
          "internalType": "address",
          "name": "owner",
          "type": "address"
        },
        {
          "indexed": true,
          "internalType": "address",
          "name": "approved",
          "type": "address"
        },
        {
          "indexed": true,
          "internalType": "uint256",
          "name": "tokenId",
          "type": "uint256"
        }
      ],
      "name": "Approval",
      "type": "event"
    },
    {
      "anonymous": false,
      "inputs": [
        {
          "indexed": true,
          "internalType": "address",
          "name": "owner",
          "type": "address"
        },
        {
          "indexed": true,
          "internalType": "address",
          "name": "operator",
          "type": "address"
        },
        {
          "indexed": false,
          "internalType": "bool",
          "name": "approved",
          "type": "bool"
        }
      ],
      "name": "ApprovalForAll",
      "type": "event"
    },
    {
      "anonymous": false,
      "inputs": [
        {
          "indexed": false,
          "internalType": "uint8",
          "name": "version",
          "type": "uint8"
        }
      ],
      "name": "Initialized",
      "type": "event"
    },
    {
      "anonymous": false,
      "inputs": [
        {
          "indexed": true,
          "internalType": "address",
          "name": "_from",
          "type": "address"
        },
        {
          "indexed": true,
          "internalType": "uint256",
          "name": "_tokenId",
          "type": "uint256"
        },
        {
          "indexed": true,
          "internalType": "address",
          "name": "_erc20Contract",
          "type": "address"
        },
        {
          "indexed": false,
          "internalType": "uint256",
          "name": "_value",
          "type": "uint256"
        }
      ],
      "name": "ReceivedERC20",
      "type": "event"
    },
    {
      "anonymous": false,
      "inputs": [
        {
          "indexed": true,
          "internalType": "uint256",
          "name": "tokenId",
          "type": "uint256"
        },
        {
          "components": [
            {
              "internalType": "address payable",
              "name": "account",
              "type": "address"
            },
            {
              "internalType": "uint96",
              "name": "value",
              "type": "uint96"
            }
          ],
          "indexed": true,
          "internalType": "struct LibShare.Share[]",
          "name": "royalties",
          "type": "tuple[]"
        }
      ],
      "name": "Royalties",
      "type": "event"
    },
    {
      "anonymous": false,
      "inputs": [
        {
          "indexed": true,
          "internalType": "address",
          "name": "from",
          "type": "address"
        },
        {
          "indexed": true,
          "internalType": "address",
          "name": "to",
          "type": "address"
        },
        {
          "indexed": true,
          "internalType": "uint256",
          "name": "tokenId",
          "type": "uint256"
        }
      ],
      "name": "Transfer",
      "type": "event"
    },
    {
      "anonymous": false,
      "inputs": [
        {
          "indexed": true,
          "internalType": "uint256",
          "name": "_tokenId",
          "type": "uint256"
        },
        {
          "indexed": true,
          "internalType": "address",
          "name": "_to",
          "type": "address"
        },
        {
          "indexed": true,
          "internalType": "address",
          "name": "_erc20Contract",
          "type": "address"
        },
        {
          "indexed": false,
          "internalType": "uint256",
          "name": "_value",
          "type": "uint256"
        }
      ],
      "name": "TransferERC20",
      "type": "event"
    },
    {
      "inputs": [
        {
          "internalType": "uint256",
          "name": "_tokenId",
          "type": "uint256"
        },
        {
          "internalType": "address",
          "name": "_erc20Contract",
          "type": "address"
        },
        {
          "internalType": "uint256",
          "name": "_amount",
          "type": "uint256"
        }
      ],
      "name": "Repay",
      "outputs": [],
      "stateMutability": "nonpayable",
      "type": "function"
    },
    {
      "inputs": [
        {
          "internalType": "uint256",
          "name": "_tokenId",
          "type": "uint256"
        },
        {
          "internalType": "address",
          "name": "_erc20Contract",
          "type": "address"
        },
        {
          "internalType": "uint256",
          "name": "_value",
          "type": "uint256"
        },
        {
          "components": [
            {
              "internalType": "address payable",
              "name": "account",
              "type": "address"
            },
            {
              "internalType": "uint96",
              "name": "value",
              "type": "uint96"
            }
          ],
          "internalType": "struct LibShare.Share[]",
          "name": "royalties",
          "type": "tuple[]"
        }
      ],
      "name": "addERC20",
      "outputs": [],
      "stateMutability": "nonpayable",
      "type": "function"
    },
    {
      "inputs": [
        {
          "internalType": "address",
          "name": "to",
          "type": "address"
        },
        {
          "internalType": "uint256",
          "name": "tokenId",
          "type": "uint256"
        }
      ],
      "name": "approve",
      "outputs": [],
      "stateMutability": "nonpayable",
      "type": "function"
    },
    {
      "inputs": [
        {
          "internalType": "address",
          "name": "owner",
          "type": "address"
        }
      ],
      "name": "balanceOf",
      "outputs": [
        {
          "internalType": "uint256",
          "name": "",
          "type": "uint256"
        }
      ],
      "stateMutability": "view",
      "type": "function"
    },
    {
      "inputs": [
        {
          "internalType": "uint256",
          "name": "_tokenId",
          "type": "uint256"
        },
        {
          "internalType": "address",
          "name": "_nftReciever",
          "type": "address"
        },
        {
          "internalType": "address",
          "name": "_erc20Reciever",
          "type": "address"
        },
        {
          "internalType": "address",
          "name": "_erc20Contract",
          "type": "address"
        },
        {
          "internalType": "uint256",
          "name": "_value",
          "type": "uint256"
        }
      ],
      "name": "burnPiNFT",
      "outputs": [],
      "stateMutability": "nonpayable",
      "type": "function"
    },
    {
      "inputs": [
        {
          "internalType": "uint256",
          "name": "",
          "type": "uint256"
        },
        {
          "internalType": "uint256",
          "name": "",
          "type": "uint256"
        }
      ],
      "name": "cRoyaltiesForValidator",
      "outputs": [
        {
          "internalType": "address payable",
          "name": "account",
          "type": "address"
        },
        {
          "internalType": "uint96",
          "name": "value",
          "type": "uint96"
        }
      ],
      "stateMutability": "view",
      "type": "function"
    },
    {
      "inputs": [
        {
          "internalType": "uint256",
          "name": "tokenId",
          "type": "uint256"
        }
      ],
      "name": "getApproved",
      "outputs": [
        {
          "internalType": "address",
          "name": "",
          "type": "address"
        }
      ],
      "stateMutability": "view",
      "type": "function"
    },
    {
      "inputs": [
        {
          "internalType": "uint256",
          "name": "_tokenId",
          "type": "uint256"
        }
      ],
      "name": "getValidatorRoyalties",
      "outputs": [
        {
          "components": [
            {
              "internalType": "address payable",
              "name": "account",
              "type": "address"
            },
            {
              "internalType": "uint96",
              "name": "value",
              "type": "uint96"
            }
          ],
          "internalType": "struct LibShare.Share[]",
          "name": "",
          "type": "tuple[]"
        }
      ],
      "stateMutability": "view",
      "type": "function"
    },
    {
      "inputs": [
        {
          "internalType": "address",
          "name": "_poolOwner",
          "type": "address"
        },
        {
          "internalType": "address",
          "name": "_piNFTAddress",
          "type": "address"
        },
        {
          "internalType": "string",
          "name": "_name",
          "type": "string"
        },
        {
          "internalType": "string",
          "name": "_symbol",
          "type": "string"
        }
      ],
      "name": "initialize",
      "outputs": [],
      "stateMutability": "nonpayable",
      "type": "function"
    },
    {
      "inputs": [
        {
          "internalType": "address",
          "name": "owner",
          "type": "address"
        },
        {
          "internalType": "address",
          "name": "operator",
          "type": "address"
        }
      ],
      "name": "isApprovedForAll",
      "outputs": [
        {
          "internalType": "bool",
          "name": "",
          "type": "bool"
        }
      ],
      "stateMutability": "view",
      "type": "function"
    },
    {
      "inputs": [
        {
          "internalType": "address",
          "name": "_to",
          "type": "address"
        },
        {
          "internalType": "string",
          "name": "_uri",
          "type": "string"
        }
      ],
      "name": "mintNFT",
      "outputs": [
        {
          "internalType": "uint256",
          "name": "",
          "type": "uint256"
        }
      ],
      "stateMutability": "nonpayable",
      "type": "function"
    },
    {
      "inputs": [],
      "name": "name",
      "outputs": [
        {
          "internalType": "string",
          "name": "",
          "type": "string"
        }
      ],
      "stateMutability": "view",
      "type": "function"
    },
    {
      "inputs": [
        {
          "internalType": "uint256",
          "name": "tokenId",
          "type": "uint256"
        }
      ],
      "name": "ownerOf",
      "outputs": [
        {
          "internalType": "address",
          "name": "",
          "type": "address"
        }
      ],
      "stateMutability": "view",
      "type": "function"
    },
    {
      "inputs": [
        {
          "internalType": "uint256",
          "name": "_tokenId",
          "type": "uint256"
        },
        {
          "internalType": "address",
          "name": "_nftReciever",
          "type": "address"
        },
        {
          "internalType": "address",
          "name": "_validatorAddress",
          "type": "address"
        },
        {
          "internalType": "address",
          "name": "_erc20Contract",
          "type": "address"
        },
        {
          "internalType": "uint256",
          "name": "_value",
          "type": "uint256"
        }
      ],
      "name": "redeemPiNFT",
      "outputs": [],
      "stateMutability": "nonpayable",
      "type": "function"
    },
    {
      "inputs": [
        {
          "internalType": "address",
          "name": "from",
          "type": "address"
        },
        {
          "internalType": "address",
          "name": "to",
          "type": "address"
        },
        {
          "internalType": "uint256",
          "name": "tokenId",
          "type": "uint256"
        }
      ],
      "name": "safeTransferFrom",
      "outputs": [],
      "stateMutability": "nonpayable",
      "type": "function"
    },
    {
      "inputs": [
        {
          "internalType": "address",
          "name": "from",
          "type": "address"
        },
        {
          "internalType": "address",
          "name": "to",
          "type": "address"
        },
        {
          "internalType": "uint256",
          "name": "tokenId",
          "type": "uint256"
        },
        {
          "internalType": "bytes",
          "name": "data",
          "type": "bytes"
        }
      ],
      "name": "safeTransferFrom",
      "outputs": [],
      "stateMutability": "nonpayable",
      "type": "function"
    },
    {
      "inputs": [
        {
          "internalType": "address",
          "name": "operator",
          "type": "address"
        },
        {
          "internalType": "bool",
          "name": "approved",
          "type": "bool"
        }
      ],
      "name": "setApprovalForAll",
      "outputs": [],
      "stateMutability": "nonpayable",
      "type": "function"
    },
    {
      "inputs": [
        {
          "internalType": "bytes4",
          "name": "interfaceId",
          "type": "bytes4"
        }
      ],
      "name": "supportsInterface",
      "outputs": [
        {
          "internalType": "bool",
          "name": "",
          "type": "bool"
        }
      ],
      "stateMutability": "view",
      "type": "function"
    },
    {
      "inputs": [],
      "name": "symbol",
      "outputs": [
        {
          "internalType": "string",
          "name": "",
          "type": "string"
        }
      ],
      "stateMutability": "view",
      "type": "function"
    },
    {
      "inputs": [
        {
          "internalType": "uint256",
          "name": "tokenId",
          "type": "uint256"
        }
      ],
      "name": "tokenURI",
      "outputs": [
        {
          "internalType": "string",
          "name": "",
          "type": "string"
        }
      ],
      "stateMutability": "view",
      "type": "function"
    },
    {
      "inputs": [
        {
          "internalType": "address",
          "name": "from",
          "type": "address"
        },
        {
          "internalType": "address",
          "name": "to",
          "type": "address"
        },
        {
          "internalType": "uint256",
          "name": "tokenId",
          "type": "uint256"
        }
      ],
      "name": "transferFrom",
      "outputs": [],
      "stateMutability": "nonpayable",
      "type": "function"
    },
    {
      "inputs": [
        {
          "internalType": "uint256",
          "name": "_tokenId",
          "type": "uint256"
        },
        {
          "internalType": "address",
          "name": "_erc20Address",
          "type": "address"
        }
      ],
      "name": "viewBalance",
      "outputs": [
        {
          "internalType": "uint256",
          "name": "",
          "type": "uint256"
        }
      ],
      "stateMutability": "view",
      "type": "function"
    },
    {
      "inputs": [
        {
          "internalType": "uint256",
          "name": "_tokenId",
          "type": "uint256"
        }
      ],
      "name": "viewWithdrawnAmount",
      "outputs": [
        {
          "internalType": "uint256",
          "name": "",
          "type": "uint256"
        }
      ],
      "stateMutability": "view",
      "type": "function"
    }
  ],
  "bytecode": "0x608060405234801561001057600080fd5b50615500806100206000396000f3fe608060405234801561001057600080fd5b506004361061014d5760003560e01c8063726bb4cb116100c3578063c87b56dd1161007c578063c87b56dd14610396578063d51f299d146103c6578063da9699aa146103f6578063e985e9c514610426578063eacabe1414610456578063ecd6ab99146104865761014d565b8063726bb4cb146102ec57806395d89b4114610308578063a22cb46514610326578063b439fd2c14610342578063b88d4fde1461035e578063c030da261461037a5761014d565b806309d4470c1161011557806309d4470c1461021c5780632016a0d21461023857806323b872dd1461025457806342842e0e146102705780636352211e1461028c57806370a08231146102bc5761014d565b806301ffc9a71461015257806302b421411461018257806306fdde03146101b2578063081812fc146101d0578063095ea7b314610200575b600080fd5b61016c60048036038101906101679190613517565b6104b7565b604051610179919061355f565b60405180910390f35b61019c600480360381019061019791906135b0565b610599565b6040516101a99190613723565b60405180910390f35b6101ba61069b565b6040516101c791906137de565b60405180910390f35b6101ea60048036038101906101e591906135b0565b61072d565b6040516101f79190613821565b60405180910390f35b61021a60048036038101906102159190613868565b610773565b005b610236600480360381019061023191906138a8565b61088b565b005b610252600480360381019061024d9190613a58565b610a11565b005b61026e60048036038101906102699190613af7565b610bdf565b005b61028a60048036038101906102859190613af7565b610c3f565b005b6102a660048036038101906102a191906135b0565b610c5f565b6040516102b39190613821565b60405180910390f35b6102d660048036038101906102d19190613b4a565b610ce6565b6040516102e39190613b86565b60405180910390f35b610306600480360381019061030191906138a8565b610d9e565b005b610310610f24565b60405161031d91906137de565b60405180910390f35b610340600480360381019061033b9190613bcd565b610fb6565b005b61035c60048036038101906103579190613d82565b610fcc565b005b61037860048036038101906103739190613ea6565b611117565b005b610394600480360381019061038f9190613f29565b611179565b005b6103b060048036038101906103ab91906135b0565b611342565b6040516103bd91906137de565b60405180910390f35b6103e060048036038101906103db9190613f7c565b611455565b6040516103ed9190613b86565b60405180910390f35b610410600480360381019061040b91906135b0565b6114b0565b60405161041d9190613b86565b60405180910390f35b610440600480360381019061043b9190613fbc565b6114ce565b60405161044d919061355f565b60405180910390f35b610470600480360381019061046b9190613ffc565b611562565b60405161047d9190613b86565b60405180910390f35b6104a0600480360381019061049b9190614058565b61169a565b6040516104ae9291906140b6565b60405180910390f35b60007f80ac58cd000000000000000000000000000000000000000000000000000000007bffffffffffffffffffffffffffffffffffffffffffffffffffffffff1916827bffffffffffffffffffffffffffffffffffffffffffffffffffffffff1916148061058257507f5b5e139f000000000000000000000000000000000000000000000000000000007bffffffffffffffffffffffffffffffffffffffffffffffffffffffff1916827bffffffffffffffffffffffffffffffffffffffffffffffffffffffff1916145b8061059257506105918261170f565b5b9050919050565b606060fe6000838152602001908152602001600020805480602002602001604051908101604052809291908181526020016000905b82821015610690578382906000526020600020016040518060400160405290816000820160009054906101000a900473ffffffffffffffffffffffffffffffffffffffff1673ffffffffffffffffffffffffffffffffffffffff1673ffffffffffffffffffffffffffffffffffffffff1681526020016000820160149054906101000a90046bffffffffffffffffffffffff166bffffffffffffffffffffffff166bffffffffffffffffffffffff1681525050815260200190600101906105ce565b505050509050919050565b6060606580546106aa9061410e565b80601f01602080910402602001604051908101604052809291908181526020018280546106d69061410e565b80156107235780601f106106f857610100808354040283529160200191610723565b820191906000526020600020905b81548152906001019060200180831161070657829003601f168201915b5050505050905090565b600061073882611779565b6069600083815260200190815260200160002060009054906101000a900473ffffffffffffffffffffffffffffffffffffffff169050919050565b600061077e82610c5f565b90508073ffffffffffffffffffffffffffffffffffffffff168373ffffffffffffffffffffffffffffffffffffffff1614156107ef576040517f08c379a00000000000000000000000000000000000000000000000000000000081526004016107e6906141b2565b60405180910390fd5b8073ffffffffffffffffffffffffffffffffffffffff1661080e6117c4565b73ffffffffffffffffffffffffffffffffffffffff16148061083d575061083c816108376117c4565b6114ce565b5b61087c576040517f08c379a000000000000000000000000000000000000000000000000000000000815260040161087390614244565b60405180910390fd5b61088683836117cc565b505050565b8461089581610c5f565b73ffffffffffffffffffffffffffffffffffffffff163373ffffffffffffffffffffffffffffffffffffffff1614610902576040517f08c379a00000000000000000000000000000000000000000000000000000000081526004016108f9906142b0565b60405180910390fd5b61090a611885565b600073ffffffffffffffffffffffffffffffffffffffff168573ffffffffffffffffffffffffffffffffffffffff16141561097a576040517f08c379a00000000000000000000000000000000000000000000000000000000081526004016109719061431c565b60405180910390fd5b600073ffffffffffffffffffffffffffffffffffffffff168373ffffffffffffffffffffffffffffffffffffffff1614156109ea576040517f08c379a00000000000000000000000000000000000000000000000000000000081526004016109e1906143ae565b60405180910390fd5b6109f6868585856118d5565b610a01338688610c3f565b610a09611a79565b505050505050565b60008060019054906101000a900460ff16159050808015610a425750600160008054906101000a900460ff1660ff16105b80610a6f5750610a5130611a83565b158015610a6e5750600160008054906101000a900460ff1660ff16145b5b610aae576040517f08c379a0000000000000000000000000000000000000000000000000000000008152600401610aa590614440565b60405180910390fd5b60016000806101000a81548160ff021916908360ff1602179055508015610aeb576001600060016101000a81548160ff0219169083151502179055505b610af58383611aa6565b610afd611b03565b8460fc60006101000a81548173ffffffffffffffffffffffffffffffffffffffff021916908373ffffffffffffffffffffffffffffffffffffffff1602179055508360fd60006101000a81548173ffffffffffffffffffffffffffffffffffffffff021916908373ffffffffffffffffffffffffffffffffffffffff1602179055508015610bd85760008060016101000a81548160ff0219169083151502179055507f7f26b83ff96e1f2b6a682f133852f6798a09c465da95921460cefb38474024986001604051610bcf91906144b2565b60405180910390a15b5050505050565b610bf0610bea6117c4565b82611b54565b610c2f576040517f08c379a0000000000000000000000000000000000000000000000000000000008152600401610c269061453f565b60405180910390fd5b610c3a838383611be9565b505050565b610c5a83838360405180602001604052806000815250611117565b505050565b600080610c6b83611ee3565b9050600073ffffffffffffffffffffffffffffffffffffffff168173ffffffffffffffffffffffffffffffffffffffff161415610cdd576040517f08c379a0000000000000000000000000000000000000000000000000000000008152600401610cd4906145ab565b60405180910390fd5b80915050919050565b60008073ffffffffffffffffffffffffffffffffffffffff168273ffffffffffffffffffffffffffffffffffffffff161415610d57576040517f08c379a0000000000000000000000000000000000000000000000000000000008152600401610d4e9061463d565b60405180910390fd5b606860008373ffffffffffffffffffffffffffffffffffffffff1673ffffffffffffffffffffffffffffffffffffffff168152602001908152602001600020549050919050565b84610da881610c5f565b73ffffffffffffffffffffffffffffffffffffffff163373ffffffffffffffffffffffffffffffffffffffff1614610e15576040517f08c379a0000000000000000000000000000000000000000000000000000000008152600401610e0c906142b0565b60405180910390fd5b610e1d611885565b600073ffffffffffffffffffffffffffffffffffffffff168573ffffffffffffffffffffffffffffffffffffffff161415610e8d576040517f08c379a0000000000000000000000000000000000000000000000000000000008152600401610e849061431c565b60405180910390fd5b600073ffffffffffffffffffffffffffffffffffffffff168373ffffffffffffffffffffffffffffffffffffffff161415610efd576040517f08c379a0000000000000000000000000000000000000000000000000000000008152600401610ef4906143ae565b60405180910390fd5b610f09868585856118d5565b610f14338688610c3f565b610f1c611a79565b505050505050565b606060668054610f339061410e565b80601f0160208091040260200160405190810160405280929190818152602001828054610f5f9061410e565b8015610fac5780601f10610f8157610100808354040283529160200191610fac565b820191906000526020600020905b815481529060010190602001808311610f8f57829003601f168201915b5050505050905090565b610fc8610fc16117c4565b8383611f20565b5050565b600073ffffffffffffffffffffffffffffffffffffffff168373ffffffffffffffffffffffffffffffffffffffff16141561103c576040517f08c379a0000000000000000000000000000000000000000000000000000000008152600401611033906143ae565b60405180910390fd5b6110483385858561208d565b6110528482612329565b8273ffffffffffffffffffffffffffffffffffffffff166323b872dd3330856040518463ffffffff1660e01b815260040161108f9392919061465d565b6020604051808303816000875af11580156110ae573d6000803e3d6000fd5b505050506040513d601f19601f820116820180604052508101906110d291906146a9565b611111576040517f08c379a000000000000000000000000000000000000000000000000000000000815260040161110890614722565b60405180910390fd5b50505050565b6111286111226117c4565b83611b54565b611167576040517f08c379a000000000000000000000000000000000000000000000000000000000815260040161115e9061453f565b60405180910390fd5b61117384848484612645565b50505050565b611181611885565b3373ffffffffffffffffffffffffffffffffffffffff16610102600085815260200190815260200160002060009054906101000a900473ffffffffffffffffffffffffffffffffffffffff1673ffffffffffffffffffffffffffffffffffffffff1614611223576040517f08c379a000000000000000000000000000000000000000000000000000000000815260040161121a9061478e565b60405180910390fd5b8173ffffffffffffffffffffffffffffffffffffffff166323b872dd3330846040518463ffffffff1660e01b81526004016112609392919061465d565b6020604051808303816000875af115801561127f573d6000803e3d6000fd5b505050506040513d601f19601f820116820180604052508101906112a391906146a9565b6112e2576040517f08c379a00000000000000000000000000000000000000000000000000000000081526004016112d9906147fa565b60405180910390fd5b80610103600085815260200190815260200160002060008282546113069190614849565b9250508190555060006101036000858152602001908152602001600020541161133557611334303385610c3f565b5b61133d611a79565b505050565b606061134d82611779565b600060976000848152602001908152602001600020805461136d9061410e565b80601f01602080910402602001604051908101604052809291908181526020018280546113999061410e565b80156113e65780601f106113bb576101008083540402835291602001916113e6565b820191906000526020600020905b8154815290600101906020018083116113c957829003601f168201915b5050505050905060006113f76126a1565b905060008151141561140d578192505050611450565b60008251111561144257808260405160200161142a9291906148b9565b60405160208183030381529060405292505050611450565b61144b846126b8565b925050505b919050565b600060ff600084815260200190815260200160002060008373ffffffffffffffffffffffffffffffffffffffff1673ffffffffffffffffffffffffffffffffffffffff16815260200190815260200160002054905092915050565b60006101036000838152602001908152602001600020549050919050565b6000606a60008473ffffffffffffffffffffffffffffffffffffffff1673ffffffffffffffffffffffffffffffffffffffff16815260200190815260200160002060008373ffffffffffffffffffffffffffffffffffffffff1673ffffffffffffffffffffffffffffffffffffffff16815260200190815260200160002060009054906101000a900460ff16905092915050565b600060fc60009054906101000a900473ffffffffffffffffffffffffffffffffffffffff1673ffffffffffffffffffffffffffffffffffffffff163373ffffffffffffffffffffffffffffffffffffffff16146115f4576040517f08c379a00000000000000000000000000000000000000000000000000000000081526004016115eb90614929565b60405180910390fd5b600073ffffffffffffffffffffffffffffffffffffffff168373ffffffffffffffffffffffffffffffffffffffff161415611664576040517f08c379a000000000000000000000000000000000000000000000000000000000815260040161165b90614995565b60405180910390fd5b600061167060fb612720565b905061167c848261272e565b611686818461274c565b61169060fb6127c0565b8091505092915050565b60fe60205281600052604060002081815481106116b657600080fd5b90600052602060002001600091509150508060000160009054906101000a900473ffffffffffffffffffffffffffffffffffffffff16908060000160149054906101000a90046bffffffffffffffffffffffff16905082565b60007f01ffc9a7000000000000000000000000000000000000000000000000000000007bffffffffffffffffffffffffffffffffffffffffffffffffffffffff1916827bffffffffffffffffffffffffffffffffffffffffffffffffffffffff1916149050919050565b611782816127d6565b6117c1576040517f08c379a00000000000000000000000000000000000000000000000000000000081526004016117b8906145ab565b60405180910390fd5b50565b600033905090565b816069600083815260200190815260200160002060006101000a81548173ffffffffffffffffffffffffffffffffffffffff021916908373ffffffffffffffffffffffffffffffffffffffff160217905550808273ffffffffffffffffffffffffffffffffffffffff1661183f83610c5f565b73ffffffffffffffffffffffffffffffffffffffff167f8c5be1e5ebec7d5bd14f71427d1e84f3dd0314c0f7b2291e5b200ac8c7c3b92560405160405180910390a45050565b600260c95414156118cb576040517f08c379a00000000000000000000000000000000000000000000000000000000081526004016118c290614a01565b60405180910390fd5b600260c981905550565b600073ffffffffffffffffffffffffffffffffffffffff168373ffffffffffffffffffffffffffffffffffffffff161415611945576040517f08c379a000000000000000000000000000000000000000000000000000000000815260040161193c90614a6d565b60405180910390fd5b611950848383612817565b8173ffffffffffffffffffffffffffffffffffffffff1663a9059cbb84836040518363ffffffff1660e01b815260040161198b929190614a8d565b6020604051808303816000875af11580156119aa573d6000803e3d6000fd5b505050506040513d601f19601f820116820180604052508101906119ce91906146a9565b611a0d576040517f08c379a0000000000000000000000000000000000000000000000000000000008152600401611a0490614722565b60405180910390fd5b8173ffffffffffffffffffffffffffffffffffffffff168373ffffffffffffffffffffffffffffffffffffffff16857fa8352277873fc0d2b233b8127433da351a4164fa701ed6ff79655694222932c484604051611a6b9190613b86565b60405180910390a450505050565b600160c981905550565b6000808273ffffffffffffffffffffffffffffffffffffffff163b119050919050565b600060019054906101000a900460ff16611af5576040517f08c379a0000000000000000000000000000000000000000000000000000000008152600401611aec90614b28565b60405180910390fd5b611aff8282612bb1565b5050565b600060019054906101000a900460ff16611b52576040517f08c379a0000000000000000000000000000000000000000000000000000000008152600401611b4990614b28565b60405180910390fd5b565b600080611b6083610c5f565b90508073ffffffffffffffffffffffffffffffffffffffff168473ffffffffffffffffffffffffffffffffffffffff161480611ba25750611ba181856114ce565b5b80611be057508373ffffffffffffffffffffffffffffffffffffffff16611bc88461072d565b73ffffffffffffffffffffffffffffffffffffffff16145b91505092915050565b8273ffffffffffffffffffffffffffffffffffffffff16611c0982610c5f565b73ffffffffffffffffffffffffffffffffffffffff1614611c5f576040517f08c379a0000000000000000000000000000000000000000000000000000000008152600401611c5690614bba565b60405180910390fd5b600073ffffffffffffffffffffffffffffffffffffffff168273ffffffffffffffffffffffffffffffffffffffff161415611ccf576040517f08c379a0000000000000000000000000000000000000000000000000000000008152600401611cc690614c4c565b60405180910390fd5b611cdc8383836001612c32565b8273ffffffffffffffffffffffffffffffffffffffff16611cfc82610c5f565b73ffffffffffffffffffffffffffffffffffffffff1614611d52576040517f08c379a0000000000000000000000000000000000000000000000000000000008152600401611d4990614bba565b60405180910390fd5b6069600082815260200190815260200160002060006101000a81549073ffffffffffffffffffffffffffffffffffffffff02191690556001606860008573ffffffffffffffffffffffffffffffffffffffff1673ffffffffffffffffffffffffffffffffffffffff168152602001908152602001600020600082825403925050819055506001606860008473ffffffffffffffffffffffffffffffffffffffff1673ffffffffffffffffffffffffffffffffffffffff16815260200190815260200160002060008282540192505081905550816067600083815260200190815260200160002060006101000a81548173ffffffffffffffffffffffffffffffffffffffff021916908373ffffffffffffffffffffffffffffffffffffffff160217905550808273ffffffffffffffffffffffffffffffffffffffff168473ffffffffffffffffffffffffffffffffffffffff167fddf252ad1be2c89b69c2b068fc378daa952ba7f163c4a11628f55a4df523b3ef60405160405180910390a4611ede8383836001612d58565b505050565b60006067600083815260200190815260200160002060009054906101000a900473ffffffffffffffffffffffffffffffffffffffff169050919050565b8173ffffffffffffffffffffffffffffffffffffffff168373ffffffffffffffffffffffffffffffffffffffff161415611f8f576040517f08c379a0000000000000000000000000000000000000000000000000000000008152600401611f8690614cb8565b60405180910390fd5b80606a60008573ffffffffffffffffffffffffffffffffffffffff1673ffffffffffffffffffffffffffffffffffffffff16815260200190815260200160002060008473ffffffffffffffffffffffffffffffffffffffff1673ffffffffffffffffffffffffffffffffffffffff16815260200190815260200160002060006101000a81548160ff0219169083151502179055508173ffffffffffffffffffffffffffffffffffffffff168373ffffffffffffffffffffffffffffffffffffffff167f17307eab39ab6107e8899845ad3d59bd9653f200f220920489ca2b5937696c3183604051612080919061355f565b60405180910390a3505050565b600073ffffffffffffffffffffffffffffffffffffffff166120ae84610c5f565b73ffffffffffffffffffffffffffffffffffffffff161415612105576040517f08c379a00000000000000000000000000000000000000000000000000000000081526004016120fc90614d24565b60405180910390fd5b600081141561211357612323565b600060ff600085815260200190815260200160002060008473ffffffffffffffffffffffffffffffffffffffff1673ffffffffffffffffffffffffffffffffffffffff168152602001908152602001600020549050600081141561225457610100600085815260200190815260200160002080549050610101600086815260200190815260200160002060008573ffffffffffffffffffffffffffffffffffffffff1673ffffffffffffffffffffffffffffffffffffffff168152602001908152602001600020819055506101006000858152602001908152602001600020839080600181540180825580915050600190039060005260206000200160009091909190916101000a81548173ffffffffffffffffffffffffffffffffffffffff021916908373ffffffffffffffffffffffffffffffffffffffff1602179055505b8160ff600086815260200190815260200160002060008573ffffffffffffffffffffffffffffffffffffffff1673ffffffffffffffffffffffffffffffffffffffff16815260200190815260200160002060008282546122b49190614d44565b925050819055508273ffffffffffffffffffffffffffffffffffffffff16848673ffffffffffffffffffffffffffffffffffffffff167f684ce28ace37552c6bfb98b7cceda8ed55327078eafb5dfb31218e0856382763856040516123199190613b86565b60405180910390a4505b50505050565b600a8151111561236e576040517f08c379a000000000000000000000000000000000000000000000000000000000815260040161236590614de6565b60405180910390fd5b60fe6000838152602001908152602001600020600061238d919061338a565b6000805b82518110156125b857600073ffffffffffffffffffffffffffffffffffffffff168382815181106123c5576123c4614e06565b5b60200260200101516000015173ffffffffffffffffffffffffffffffffffffffff161415612428576040517f08c379a000000000000000000000000000000000000000000000000000000000815260040161241f90614ea7565b60405180910390fd5b600083828151811061243d5761243c614e06565b5b6020026020010151602001516bffffffffffffffffffffffff161415612498576040517f08c379a000000000000000000000000000000000000000000000000000000000815260040161248f90614f13565b60405180910390fd5b60fe60008581526020019081526020016000208382815181106124be576124bd614e06565b5b60200260200101519080600181540180825580915050600190039060005260206000200160009091909190915060008201518160000160006101000a81548173ffffffffffffffffffffffffffffffffffffffff021916908373ffffffffffffffffffffffffffffffffffffffff16021790555060208201518160000160146101000a8154816bffffffffffffffffffffffff02191690836bffffffffffffffffffffffff160217905550505082818151811061257e5761257d614e06565b5b6020026020010151602001516bffffffffffffffffffffffff16826125a39190614d44565b915080806125b090614f33565b915050612391565b5061271081106125fd576040517f08c379a00000000000000000000000000000000000000000000000000000000081526004016125f490614fc8565b60405180910390fd5b8160405161260b91906150e4565b6040518091039020837fbcc574f116b3d6f1bd03d06651a53025f963eb951ae262ee0211cd9cba05779f60405160405180910390a3505050565b612650848484611be9565b61265c84848484612d5e565b61269b576040517f08c379a00000000000000000000000000000000000000000000000000000000081526004016126929061516d565b60405180910390fd5b50505050565b606060405180602001604052806000815250905090565b60606126c382611779565b60006126cd6126a1565b905060008151116126ed5760405180602001604052806000815250612718565b806126f784612ee6565b6040516020016127089291906148b9565b6040516020818303038152906040525b915050919050565b600081600001549050919050565b612748828260405180602001604052806000815250612fbe565b5050565b612755826127d6565b612794576040517f08c379a000000000000000000000000000000000000000000000000000000000815260040161278b906151ff565b60405180910390fd5b806097600084815260200190815260200160002090805190602001906127bb9291906133ab565b505050565b6001816000016000828254019250508190555050565b60008073ffffffffffffffffffffffffffffffffffffffff166127f883611ee3565b73ffffffffffffffffffffffffffffffffffffffff1614159050919050565b600081141561282557612bac565b600060ff600085815260200190815260200160002060008473ffffffffffffffffffffffffffffffffffffffff1673ffffffffffffffffffffffffffffffffffffffff168152602001908152602001600020549050818110156128bd576040517f08c379a00000000000000000000000000000000000000000000000000000000081526004016128b490615291565b60405180910390fd5b600082826128cb9190614849565b90508060ff600087815260200190815260200160002060008673ffffffffffffffffffffffffffffffffffffffff1673ffffffffffffffffffffffffffffffffffffffff168152602001908152602001600020819055506000811415612ba957600060016101006000888152602001908152602001600020805490506129519190614849565b905060006101006000888152602001908152602001600020828154811061297b5761297a614e06565b5b9060005260206000200160009054906101000a900473ffffffffffffffffffffffffffffffffffffffff1690508073ffffffffffffffffffffffffffffffffffffffff168673ffffffffffffffffffffffffffffffffffffffff1614612af8576000610101600089815260200190815260200160002060008873ffffffffffffffffffffffffffffffffffffffff1673ffffffffffffffffffffffffffffffffffffffff1681526020019081526020016000205490508161010060008a81526020019081526020016000208281548110612a5857612a57614e06565b5b9060005260206000200160006101000a81548173ffffffffffffffffffffffffffffffffffffffff021916908373ffffffffffffffffffffffffffffffffffffffff1602179055508061010160008a815260200190815260200160002060008473ffffffffffffffffffffffffffffffffffffffff1673ffffffffffffffffffffffffffffffffffffffff16815260200190815260200160002081905550505b610101600088815260200190815260200160002060008773ffffffffffffffffffffffffffffffffffffffff1673ffffffffffffffffffffffffffffffffffffffff168152602001908152602001600020600090556101006000888152602001908152602001600020805480612b7157612b706152b1565b5b6001900381819060005260206000200160006101000a81549073ffffffffffffffffffffffffffffffffffffffff0219169055905550505b50505b505050565b600060019054906101000a900460ff16612c00576040517f08c379a0000000000000000000000000000000000000000000000000000000008152600401612bf790614b28565b60405180910390fd5b8160659080519060200190612c169291906133ab565b508060669080519060200190612c2d9291906133ab565b505050565b6001811115612d5257600073ffffffffffffffffffffffffffffffffffffffff168473ffffffffffffffffffffffffffffffffffffffff1614612cc65780606860008673ffffffffffffffffffffffffffffffffffffffff1673ffffffffffffffffffffffffffffffffffffffff1681526020019081526020016000206000828254612cbe9190614849565b925050819055505b600073ffffffffffffffffffffffffffffffffffffffff168373ffffffffffffffffffffffffffffffffffffffff1614612d515780606860008573ffffffffffffffffffffffffffffffffffffffff1673ffffffffffffffffffffffffffffffffffffffff1681526020019081526020016000206000828254612d499190614d44565b925050819055505b5b50505050565b50505050565b6000612d7f8473ffffffffffffffffffffffffffffffffffffffff16611a83565b15612ed9578373ffffffffffffffffffffffffffffffffffffffff1663150b7a02612da86117c4565b8786866040518563ffffffff1660e01b8152600401612dca9493929190615335565b6020604051808303816000875af1925050508015612e0657506040513d601f19601f82011682018060405250810190612e039190615396565b60015b612e89573d8060008114612e36576040519150601f19603f3d011682016040523d82523d6000602084013e612e3b565b606091505b50600081511415612e81576040517f08c379a0000000000000000000000000000000000000000000000000000000008152600401612e789061516d565b60405180910390fd5b805181602001fd5b63150b7a0260e01b7bffffffffffffffffffffffffffffffffffffffffffffffffffffffff1916817bffffffffffffffffffffffffffffffffffffffffffffffffffffffff191614915050612ede565b600190505b949350505050565b606060006001612ef584613019565b01905060008167ffffffffffffffff811115612f1457612f1361392d565b5b6040519080825280601f01601f191660200182016040528015612f465781602001600182028036833780820191505090505b509050600082602001820190505b600115612fb3578080600190039150507f3031323334353637383961626364656600000000000000000000000000000000600a86061a8153600a8581612f9d57612f9c6153c3565b5b0494506000851415612fae57612fb3565b612f54565b819350505050919050565b612fc8838361316c565b612fd56000848484612d5e565b613014576040517f08c379a000000000000000000000000000000000000000000000000000000000815260040161300b9061516d565b60405180910390fd5b505050565b600080600090507a184f03e93ff9f4daa797ed6e38ed64bf6a1f0100000000000000008310613077577a184f03e93ff9f4daa797ed6e38ed64bf6a1f010000000000000000838161306d5761306c6153c3565b5b0492506040810190505b6d04ee2d6d415b85acef810000000083106130b4576d04ee2d6d415b85acef810000000083816130aa576130a96153c3565b5b0492506020810190505b662386f26fc1000083106130e357662386f26fc1000083816130d9576130d86153c3565b5b0492506010810190505b6305f5e100831061310c576305f5e1008381613102576131016153c3565b5b0492506008810190505b6127108310613131576127108381613127576131266153c3565b5b0492506004810190505b60648310613154576064838161314a576131496153c3565b5b0492506002810190505b600a8310613163576001810190505b80915050919050565b600073ffffffffffffffffffffffffffffffffffffffff168273ffffffffffffffffffffffffffffffffffffffff1614156131dc576040517f08c379a00000000000000000000000000000000000000000000000000000000081526004016131d39061543e565b60405180910390fd5b6131e5816127d6565b15613225576040517f08c379a000000000000000000000000000000000000000000000000000000000815260040161321c906154aa565b60405180910390fd5b613233600083836001612c32565b61323c816127d6565b1561327c576040517f08c379a0000000000000000000000000000000000000000000000000000000008152600401613273906154aa565b60405180910390fd5b6001606860008473ffffffffffffffffffffffffffffffffffffffff1673ffffffffffffffffffffffffffffffffffffffff16815260200190815260200160002060008282540192505081905550816067600083815260200190815260200160002060006101000a81548173ffffffffffffffffffffffffffffffffffffffff021916908373ffffffffffffffffffffffffffffffffffffffff160217905550808273ffffffffffffffffffffffffffffffffffffffff16600073ffffffffffffffffffffffffffffffffffffffff167fddf252ad1be2c89b69c2b068fc378daa952ba7f163c4a11628f55a4df523b3ef60405160405180910390a4613386600083836001612d58565b5050565b50805460008255906000526020600020908101906133a89190613431565b50565b8280546133b79061410e565b90600052602060002090601f0160209004810192826133d95760008555613420565b82601f106133f257805160ff1916838001178555613420565b82800160010185558215613420579182015b8281111561341f578251825591602001919060010190613404565b5b50905061342d919061348e565b5090565b5b8082111561348a57600080820160006101000a81549073ffffffffffffffffffffffffffffffffffffffff02191690556000820160146101000a8154906bffffffffffffffffffffffff021916905550600101613432565b5090565b5b808211156134a757600081600090555060010161348f565b5090565b6000604051905090565b600080fd5b600080fd5b60007fffffffff0000000000000000000000000000000000000000000000000000000082169050919050565b6134f4816134bf565b81146134ff57600080fd5b50565b600081359050613511816134eb565b92915050565b60006020828403121561352d5761352c6134b5565b5b600061353b84828501613502565b91505092915050565b60008115159050919050565b61355981613544565b82525050565b60006020820190506135746000830184613550565b92915050565b6000819050919050565b61358d8161357a565b811461359857600080fd5b50565b6000813590506135aa81613584565b92915050565b6000602082840312156135c6576135c56134b5565b5b60006135d48482850161359b565b91505092915050565b600081519050919050565b600082825260208201905092915050565b6000819050602082019050919050565b600073ffffffffffffffffffffffffffffffffffffffff82169050919050565b600061363482613609565b9050919050565b61364481613629565b82525050565b60006bffffffffffffffffffffffff82169050919050565b61366b8161364a565b82525050565b604082016000820151613687600085018261363b565b50602082015161369a6020850182613662565b50505050565b60006136ac8383613671565b60408301905092915050565b6000602082019050919050565b60006136d0826135dd565b6136da81856135e8565b93506136e5836135f9565b8060005b838110156137165781516136fd88826136a0565b9750613708836136b8565b9250506001810190506136e9565b5085935050505092915050565b6000602082019050818103600083015261373d81846136c5565b905092915050565b600081519050919050565b600082825260208201905092915050565b60005b8381101561377f578082015181840152602081019050613764565b8381111561378e576000848401525b50505050565b6000601f19601f8301169050919050565b60006137b082613745565b6137ba8185613750565b93506137ca818560208601613761565b6137d381613794565b840191505092915050565b600060208201905081810360008301526137f881846137a5565b905092915050565b600061380b82613609565b9050919050565b61381b81613800565b82525050565b60006020820190506138366000830184613812565b92915050565b61384581613800565b811461385057600080fd5b50565b6000813590506138628161383c565b92915050565b6000806040838503121561387f5761387e6134b5565b5b600061388d85828601613853565b925050602061389e8582860161359b565b9150509250929050565b600080600080600060a086880312156138c4576138c36134b5565b5b60006138d28882890161359b565b95505060206138e388828901613853565b94505060406138f488828901613853565b935050606061390588828901613853565b92505060806139168882890161359b565b9150509295509295909350565b600080fd5b600080fd5b7f4e487b7100000000000000000000000000000000000000000000000000000000600052604160045260246000fd5b61396582613794565b810181811067ffffffffffffffff821117156139845761398361392d565b5b80604052505050565b60006139976134ab565b90506139a3828261395c565b919050565b600067ffffffffffffffff8211156139c3576139c261392d565b5b6139cc82613794565b9050602081019050919050565b82818337600083830152505050565b60006139fb6139f6846139a8565b61398d565b905082815260208101848484011115613a1757613a16613928565b5b613a228482856139d9565b509392505050565b600082601f830112613a3f57613a3e613923565b5b8135613a4f8482602086016139e8565b91505092915050565b60008060008060808587031215613a7257613a716134b5565b5b6000613a8087828801613853565b9450506020613a9187828801613853565b935050604085013567ffffffffffffffff811115613ab257613ab16134ba565b5b613abe87828801613a2a565b925050606085013567ffffffffffffffff811115613adf57613ade6134ba565b5b613aeb87828801613a2a565b91505092959194509250565b600080600060608486031215613b1057613b0f6134b5565b5b6000613b1e86828701613853565b9350506020613b2f86828701613853565b9250506040613b408682870161359b565b9150509250925092565b600060208284031215613b6057613b5f6134b5565b5b6000613b6e84828501613853565b91505092915050565b613b808161357a565b82525050565b6000602082019050613b9b6000830184613b77565b92915050565b613baa81613544565b8114613bb557600080fd5b50565b600081359050613bc781613ba1565b92915050565b60008060408385031215613be457613be36134b5565b5b6000613bf285828601613853565b9250506020613c0385828601613bb8565b9150509250929050565b600067ffffffffffffffff821115613c2857613c2761392d565b5b602082029050602081019050919050565b600080fd5b600080fd5b613c4c81613629565b8114613c5757600080fd5b50565b600081359050613c6981613c43565b92915050565b613c788161364a565b8114613c8357600080fd5b50565b600081359050613c9581613c6f565b92915050565b600060408284031215613cb157613cb0613c3e565b5b613cbb604061398d565b90506000613ccb84828501613c5a565b6000830152506020613cdf84828501613c86565b60208301525092915050565b6000613cfe613cf984613c0d565b61398d565b90508083825260208201905060408402830185811115613d2157613d20613c39565b5b835b81811015613d4a5780613d368882613c9b565b845260208401935050604081019050613d23565b5050509392505050565b600082601f830112613d6957613d68613923565b5b8135613d79848260208601613ceb565b91505092915050565b60008060008060808587031215613d9c57613d9b6134b5565b5b6000613daa8782880161359b565b9450506020613dbb87828801613853565b9350506040613dcc8782880161359b565b925050606085013567ffffffffffffffff811115613ded57613dec6134ba565b5b613df987828801613d54565b91505092959194509250565b600067ffffffffffffffff821115613e2057613e1f61392d565b5b613e2982613794565b9050602081019050919050565b6000613e49613e4484613e05565b61398d565b905082815260208101848484011115613e6557613e64613928565b5b613e708482856139d9565b509392505050565b600082601f830112613e8d57613e8c613923565b5b8135613e9d848260208601613e36565b91505092915050565b60008060008060808587031215613ec057613ebf6134b5565b5b6000613ece87828801613853565b9450506020613edf87828801613853565b9350506040613ef08782880161359b565b925050606085013567ffffffffffffffff811115613f1157613f106134ba565b5b613f1d87828801613e78565b91505092959194509250565b600080600060608486031215613f4257613f416134b5565b5b6000613f508682870161359b565b9350506020613f6186828701613853565b9250506040613f728682870161359b565b9150509250925092565b60008060408385031215613f9357613f926134b5565b5b6000613fa18582860161359b565b9250506020613fb285828601613853565b9150509250929050565b60008060408385031215613fd357613fd26134b5565b5b6000613fe185828601613853565b9250506020613ff285828601613853565b9150509250929050565b60008060408385031215614013576140126134b5565b5b600061402185828601613853565b925050602083013567ffffffffffffffff811115614042576140416134ba565b5b61404e85828601613a2a565b9150509250929050565b6000806040838503121561406f5761406e6134b5565b5b600061407d8582860161359b565b925050602061408e8582860161359b565b9150509250929050565b6140a181613629565b82525050565b6140b08161364a565b82525050565b60006040820190506140cb6000830185614098565b6140d860208301846140a7565b9392505050565b7f4e487b7100000000000000000000000000000000000000000000000000000000600052602260045260246000fd5b6000600282049050600182168061412657607f821691505b6020821081141561413a576141396140df565b5b50919050565b7f4552433732313a20617070726f76616c20746f2063757272656e74206f776e6560008201527f7200000000000000000000000000000000000000000000000000000000000000602082015250565b600061419c602183613750565b91506141a782614140565b604082019050919050565b600060208201905081810360008301526141cb8161418f565b9050919050565b7f4552433732313a20617070726f76652063616c6c6572206973206e6f7420746f60008201527f6b656e206f776e6572206f7220617070726f76656420666f7220616c6c000000602082015250565b600061422e603d83613750565b9150614239826141d2565b604082019050919050565b6000602082019050818103600083015261425d81614221565b9050919050565b7f4f6e6c7920746f6b656e206f776e65722063616e206578656375746500000000600082015250565b600061429a601c83613750565b91506142a582614264565b602082019050919050565b600060208201905081810360008301526142c98161428d565b9050919050565b7f63616e6e6f74207472616e7366657220746f207a65726f206164647265737300600082015250565b6000614306601f83613750565b9150614311826142d0565b602082019050919050565b60006020820190508181036000830152614335816142f9565b9050919050565b7f796f752063616e277420646f20746869732077697468207a65726f206164647260008201527f6573730000000000000000000000000000000000000000000000000000000000602082015250565b6000614398602383613750565b91506143a38261433c565b604082019050919050565b600060208201905081810360008301526143c78161438b565b9050919050565b7f496e697469616c697a61626c653a20636f6e747261637420697320616c72656160008201527f647920696e697469616c697a6564000000000000000000000000000000000000602082015250565b600061442a602e83613750565b9150614435826143ce565b604082019050919050565b600060208201905081810360008301526144598161441d565b9050919050565b6000819050919050565b600060ff82169050919050565b6000819050919050565b600061449c61449761449284614460565b614477565b61446a565b9050919050565b6144ac81614481565b82525050565b60006020820190506144c760008301846144a3565b92915050565b7f4552433732313a2063616c6c6572206973206e6f7420746f6b656e206f776e6560008201527f72206f7220617070726f76656400000000000000000000000000000000000000602082015250565b6000614529602d83613750565b9150614534826144cd565b604082019050919050565b600060208201905081810360008301526145588161451c565b9050919050565b7f4552433732313a20696e76616c696420746f6b656e2049440000000000000000600082015250565b6000614595601883613750565b91506145a08261455f565b602082019050919050565b600060208201905081810360008301526145c481614588565b9050919050565b7f4552433732313a2061646472657373207a65726f206973206e6f74206120766160008201527f6c6964206f776e65720000000000000000000000000000000000000000000000602082015250565b6000614627602983613750565b9150614632826145cb565b604082019050919050565b600060208201905081810360008301526146568161461a565b9050919050565b60006060820190506146726000830186613812565b61467f6020830185613812565b61468c6040830184613b77565b949350505050565b6000815190506146a381613ba1565b92915050565b6000602082840312156146bf576146be6134b5565b5b60006146cd84828501614694565b91505092915050565b7f4552433230207472616e73666572206661696c65642e00000000000000000000600082015250565b600061470c601683613750565b9150614717826146d6565b602082019050919050565b6000602082019050818103600083015261473b816146ff565b9050919050565b7f596f752063616e27742077697468647261770000000000000000000000000000600082015250565b6000614778601283613750565b915061478382614742565b602082019050919050565b600060208201905081810360008301526147a78161476b565b9050919050565b7f556e61626c6520746f2074616e7366657220746f20706f6f6c41646472657373600082015250565b60006147e4602083613750565b91506147ef826147ae565b602082019050919050565b60006020820190508181036000830152614813816147d7565b9050919050565b7f4e487b7100000000000000000000000000000000000000000000000000000000600052601160045260246000fd5b60006148548261357a565b915061485f8361357a565b9250828210156148725761487161481a565b5b828203905092915050565b600081905092915050565b600061489382613745565b61489d818561487d565b93506148ad818560208601613761565b80840191505092915050565b60006148c58285614888565b91506148d18284614888565b91508190509392505050565b7f596f7520617265206e6f742074686520636f6c6c656374696f6e204f776e6572600082015250565b6000614913602083613750565b915061491e826148dd565b602082019050919050565b6000602082019050818103600083015261494281614906565b9050919050565b7f596f752063616e2774206d696e74207769746820302061646472657373000000600082015250565b600061497f601d83613750565b915061498a82614949565b602082019050919050565b600060208201905081810360008301526149ae81614972565b9050919050565b7f5265656e7472616e637947756172643a207265656e7472616e742063616c6c00600082015250565b60006149eb601f83613750565b91506149f6826149b5565b602082019050919050565b60006020820190508181036000830152614a1a816149de565b9050919050565b7f63616e6e6f742073656e6420746f207a65726f20616464726573730000000000600082015250565b6000614a57601b83613750565b9150614a6282614a21565b602082019050919050565b60006020820190508181036000830152614a8681614a4a565b9050919050565b6000604082019050614aa26000830185613812565b614aaf6020830184613b77565b9392505050565b7f496e697469616c697a61626c653a20636f6e7472616374206973206e6f74206960008201527f6e697469616c697a696e67000000000000000000000000000000000000000000602082015250565b6000614b12602b83613750565b9150614b1d82614ab6565b604082019050919050565b60006020820190508181036000830152614b4181614b05565b9050919050565b7f4552433732313a207472616e736665722066726f6d20696e636f72726563742060008201527f6f776e6572000000000000000000000000000000000000000000000000000000602082015250565b6000614ba4602583613750565b9150614baf82614b48565b604082019050919050565b60006020820190508181036000830152614bd381614b97565b9050919050565b7f4552433732313a207472616e7366657220746f20746865207a65726f2061646460008201527f7265737300000000000000000000000000000000000000000000000000000000602082015250565b6000614c36602483613750565b9150614c4182614bda565b604082019050919050565b60006020820190508181036000830152614c6581614c29565b9050919050565b7f4552433732313a20617070726f766520746f2063616c6c657200000000000000600082015250565b6000614ca2601983613750565b9150614cad82614c6c565b602082019050919050565b60006020820190508181036000830152614cd181614c95565b9050919050565b7f5f746f6b656e496420646f6573206e6f742065786973742e0000000000000000600082015250565b6000614d0e601883613750565b9150614d1982614cd8565b602082019050919050565b60006020820190508181036000830152614d3d81614d01565b9050919050565b6000614d4f8261357a565b9150614d5a8361357a565b9250827fffffffffffffffffffffffffffffffffffffffffffffffffffffffffffffffff03821115614d8f57614d8e61481a565b5b828201905092915050565b7f41746d6f737420313020726f79616c746965732063616e206265206164646564600082015250565b6000614dd0602083613750565b9150614ddb82614d9a565b602082019050919050565b60006020820190508181036000830152614dff81614dc3565b9050919050565b7f4e487b7100000000000000000000000000000000000000000000000000000000600052603260045260246000fd5b7f526f79616c747920726563697069656e742073686f756c64206265207072657360008201527f656e740000000000000000000000000000000000000000000000000000000000602082015250565b6000614e91602383613750565b9150614e9c82614e35565b604082019050919050565b60006020820190508181036000830152614ec081614e84565b9050919050565b7f526f79616c74792076616c75652073686f756c64206265203e20300000000000600082015250565b6000614efd601b83613750565b9150614f0882614ec7565b602082019050919050565b60006020820190508181036000830152614f2c81614ef0565b9050919050565b6000614f3e8261357a565b91507fffffffffffffffffffffffffffffffffffffffffffffffffffffffffffffffff821415614f7157614f7061481a565b5b600182019050919050565b7f53756d206f6620526f79616c74696573203e2031303025000000000000000000600082015250565b6000614fb2601783613750565b9150614fbd82614f7c565b602082019050919050565b60006020820190508181036000830152614fe181614fa5565b9050919050565b600081905092915050565b614ffc81613629565b82525050565b600061500e8383614ff3565b60208301905092915050565b6150238161364a565b82525050565b6000615035838361501a565b60208301905092915050565b6000820160008201516150548482615002565b93505060208201516150668482615029565b935050505050565b600061507a8383615041565b60408301905092915050565b6000615091826135dd565b61509b8185614fe8565b93506150a6836135f9565b8060005b838110156150d75781516150be888261506e565b97506150c9836136b8565b9250506001810190506150aa565b5085935050505092915050565b60006150f08284615086565b915081905092915050565b7f4552433732313a207472616e7366657220746f206e6f6e20455243373231526560008201527f63656976657220696d706c656d656e7465720000000000000000000000000000602082015250565b6000615157603283613750565b9150615162826150fb565b604082019050919050565b600060208201905081810360008301526151868161514a565b9050919050565b7f45524337323155524953746f726167653a2055524920736574206f66206e6f6e60008201527f6578697374656e7420746f6b656e000000000000000000000000000000000000602082015250565b60006151e9602e83613750565b91506151f48261518d565b604082019050919050565b60006020820190508181036000830152615218816151dc565b9050919050565b7f4e6f7420656e6f75676820746f6b656e20617661696c61626c6520746f20747260008201527f616e736665722e00000000000000000000000000000000000000000000000000602082015250565b600061527b602783613750565b91506152868261521f565b604082019050919050565b600060208201905081810360008301526152aa8161526e565b9050919050565b7f4e487b7100000000000000000000000000000000000000000000000000000000600052603160045260246000fd5b600081519050919050565b600082825260208201905092915050565b6000615307826152e0565b61531181856152eb565b9350615321818560208601613761565b61532a81613794565b840191505092915050565b600060808201905061534a6000830187613812565b6153576020830186613812565b6153646040830185613b77565b818103606083015261537681846152fc565b905095945050505050565b600081519050615390816134eb565b92915050565b6000602082840312156153ac576153ab6134b5565b5b60006153ba84828501615381565b91505092915050565b7f4e487b7100000000000000000000000000000000000000000000000000000000600052601260045260246000fd5b7f4552433732313a206d696e7420746f20746865207a65726f2061646472657373600082015250565b6000615428602083613750565b9150615433826153f2565b602082019050919050565b600060208201905081810360008301526154578161541b565b9050919050565b7f4552433732313a20746f6b656e20616c7265616479206d696e74656400000000600082015250565b6000615494601c83613750565b915061549f8261545e565b602082019050919050565b600060208201905081810360008301526154c381615487565b905091905056fea2646970667358221220167ec6f377f35c4c3882536aecd87b811de3ec22d7a8511337e80012a060f21664736f6c634300080a0033",
  "linkReferences": {},
  "deployedLinkReferences": {}
}