{
  "_format": "hh-sol-artifact-1",
  "contractName": "piNFT",
  "sourceName": "contracts/piNFT.sol",
  "abi": [
    {
      "inputs": [
        {
          "internalType": "string",
          "name": "_name",
          "type": "string"
        },
        {
          "internalType": "string",
          "name": "_symbol",
          "type": "string"
        }
      ],
      "stateMutability": "nonpayable",
      "type": "constructor"
    },
    {
      "anonymous": false,
      "inputs": [
        {
          "indexed": true,
          "internalType": "address",
          "name": "owner",
          "type": "address"
        },
        {
          "indexed": true,
          "internalType": "address",
          "name": "approved",
          "type": "address"
        },
        {
          "indexed": true,
          "internalType": "uint256",
          "name": "tokenId",
          "type": "uint256"
        }
      ],
      "name": "Approval",
      "type": "event"
    },
    {
      "anonymous": false,
      "inputs": [
        {
          "indexed": true,
          "internalType": "address",
          "name": "owner",
          "type": "address"
        },
        {
          "indexed": true,
          "internalType": "address",
          "name": "operator",
          "type": "address"
        },
        {
          "indexed": false,
          "internalType": "bool",
          "name": "approved",
          "type": "bool"
        }
      ],
      "name": "ApprovalForAll",
      "type": "event"
    },
    {
      "anonymous": false,
      "inputs": [
        {
          "indexed": true,
          "internalType": "address",
          "name": "_from",
          "type": "address"
        },
        {
          "indexed": true,
          "internalType": "uint256",
          "name": "_tokenId",
          "type": "uint256"
        },
        {
          "indexed": true,
          "internalType": "address",
          "name": "_erc20Contract",
          "type": "address"
        },
        {
          "indexed": false,
          "internalType": "uint256",
          "name": "_value",
          "type": "uint256"
        }
      ],
      "name": "ReceivedERC20",
      "type": "event"
    },
    {
      "anonymous": false,
      "inputs": [
        {
          "indexed": true,
          "internalType": "uint256",
          "name": "tokenId",
          "type": "uint256"
        },
        {
          "components": [
            {
              "internalType": "address payable",
              "name": "account",
              "type": "address"
            },
            {
              "internalType": "uint96",
              "name": "value",
              "type": "uint96"
            }
          ],
          "indexed": true,
          "internalType": "struct LibShare.Share[]",
          "name": "royalties",
          "type": "tuple[]"
        }
      ],
      "name": "Royalties",
      "type": "event"
    },
    {
      "anonymous": false,
      "inputs": [
        {
          "indexed": true,
          "internalType": "uint256",
          "name": "tokenId",
          "type": "uint256"
        },
        {
          "components": [
            {
              "internalType": "address payable",
              "name": "account",
              "type": "address"
            },
            {
              "internalType": "uint96",
              "name": "value",
              "type": "uint96"
            }
          ],
          "indexed": true,
          "internalType": "struct LibShare.Share[]",
          "name": "royalties",
          "type": "tuple[]"
        }
      ],
      "name": "RoyaltiesSetForTokenId",
      "type": "event"
    },
    {
      "anonymous": false,
      "inputs": [
        {
          "indexed": true,
          "internalType": "address",
          "name": "from",
          "type": "address"
        },
        {
          "indexed": true,
          "internalType": "address",
          "name": "to",
          "type": "address"
        },
        {
          "indexed": true,
          "internalType": "uint256",
          "name": "tokenId",
          "type": "uint256"
        }
      ],
      "name": "Transfer",
      "type": "event"
    },
    {
      "anonymous": false,
      "inputs": [
        {
          "indexed": true,
          "internalType": "uint256",
          "name": "_tokenId",
          "type": "uint256"
        },
        {
          "indexed": true,
          "internalType": "address",
          "name": "_to",
          "type": "address"
        },
        {
          "indexed": true,
          "internalType": "address",
          "name": "_erc20Contract",
          "type": "address"
        },
        {
          "indexed": false,
          "internalType": "uint256",
          "name": "_value",
          "type": "uint256"
        }
      ],
      "name": "TransferERC20",
      "type": "event"
    },
    {
      "inputs": [
        {
          "internalType": "uint256",
          "name": "_tokenId",
          "type": "uint256"
        },
        {
          "internalType": "address",
          "name": "_erc20Contract",
          "type": "address"
        },
        {
          "internalType": "uint256",
          "name": "_amount",
          "type": "uint256"
        }
      ],
      "name": "Repay",
      "outputs": [],
      "stateMutability": "nonpayable",
      "type": "function"
    },
    {
      "inputs": [
        {
          "internalType": "uint256",
          "name": "_tokenId",
          "type": "uint256"
        },
        {
          "internalType": "address",
          "name": "_erc20Contract",
          "type": "address"
        },
        {
          "internalType": "uint256",
          "name": "_value",
          "type": "uint256"
        },
        {
          "components": [
            {
              "internalType": "address payable",
              "name": "account",
              "type": "address"
            },
            {
              "internalType": "uint96",
              "name": "value",
              "type": "uint96"
            }
          ],
          "internalType": "struct LibShare.Share[]",
          "name": "royalties",
          "type": "tuple[]"
        }
      ],
      "name": "addERC20",
      "outputs": [],
      "stateMutability": "nonpayable",
      "type": "function"
    },
    {
      "inputs": [
        {
          "internalType": "address",
          "name": "to",
          "type": "address"
        },
        {
          "internalType": "uint256",
          "name": "tokenId",
          "type": "uint256"
        }
      ],
      "name": "approve",
      "outputs": [],
      "stateMutability": "nonpayable",
      "type": "function"
    },
    {
      "inputs": [
        {
          "internalType": "address",
          "name": "owner",
          "type": "address"
        }
      ],
      "name": "balanceOf",
      "outputs": [
        {
          "internalType": "uint256",
          "name": "",
          "type": "uint256"
        }
      ],
      "stateMutability": "view",
      "type": "function"
    },
    {
      "inputs": [
        {
          "internalType": "uint256",
          "name": "_tokenId",
          "type": "uint256"
        },
        {
          "internalType": "address",
          "name": "_nftReciever",
          "type": "address"
        },
        {
          "internalType": "address",
          "name": "_erc20Reciever",
          "type": "address"
        },
        {
          "internalType": "address",
          "name": "_erc20Contract",
          "type": "address"
        },
        {
          "internalType": "uint256",
          "name": "_value",
          "type": "uint256"
        }
      ],
      "name": "burnPiNFT",
      "outputs": [],
      "stateMutability": "nonpayable",
      "type": "function"
    },
    {
      "inputs": [],
      "name": "collectionId",
      "outputs": [
        {
          "internalType": "uint256",
          "name": "",
          "type": "uint256"
        }
      ],
      "stateMutability": "view",
      "type": "function"
    },
    {
      "inputs": [
        {
          "internalType": "uint256",
          "name": "tokenId",
          "type": "uint256"
        }
      ],
      "name": "getApproved",
      "outputs": [
        {
          "internalType": "address",
          "name": "",
          "type": "address"
        }
      ],
      "stateMutability": "view",
      "type": "function"
    },
    {
      "inputs": [
        {
          "internalType": "uint256",
          "name": "_tokenId",
          "type": "uint256"
        }
      ],
      "name": "getRoyalties",
      "outputs": [
        {
          "components": [
            {
              "internalType": "address payable",
              "name": "account",
              "type": "address"
            },
            {
              "internalType": "uint96",
              "name": "value",
              "type": "uint96"
            }
          ],
          "internalType": "struct LibShare.Share[]",
          "name": "",
          "type": "tuple[]"
        }
      ],
      "stateMutability": "view",
      "type": "function"
    },
    {
      "inputs": [
        {
          "internalType": "uint256",
          "name": "_tokenId",
          "type": "uint256"
        }
      ],
      "name": "getValidatorRoyalties",
      "outputs": [
        {
          "components": [
            {
              "internalType": "address payable",
              "name": "account",
              "type": "address"
            },
            {
              "internalType": "uint96",
              "name": "value",
              "type": "uint96"
            }
          ],
          "internalType": "struct LibShare.Share[]",
          "name": "",
          "type": "tuple[]"
        }
      ],
      "stateMutability": "view",
      "type": "function"
    },
    {
      "inputs": [
        {
          "internalType": "address",
          "name": "owner",
          "type": "address"
        },
        {
          "internalType": "address",
          "name": "operator",
          "type": "address"
        }
      ],
      "name": "isApprovedForAll",
      "outputs": [
        {
          "internalType": "bool",
          "name": "",
          "type": "bool"
        }
      ],
      "stateMutability": "view",
      "type": "function"
    },
    {
      "inputs": [
        {
          "internalType": "address",
          "name": "_to",
          "type": "address"
        },
        {
          "internalType": "string",
          "name": "_uri",
          "type": "string"
        },
        {
          "components": [
            {
              "internalType": "address payable",
              "name": "account",
              "type": "address"
            },
            {
              "internalType": "uint96",
              "name": "value",
              "type": "uint96"
            }
          ],
          "internalType": "struct LibShare.Share[]",
          "name": "royalties",
          "type": "tuple[]"
        }
      ],
      "name": "mintNFT",
      "outputs": [
        {
          "internalType": "uint256",
          "name": "",
          "type": "uint256"
        }
      ],
      "stateMutability": "nonpayable",
      "type": "function"
    },
    {
      "inputs": [],
      "name": "name",
      "outputs": [
        {
          "internalType": "string",
          "name": "",
          "type": "string"
        }
      ],
      "stateMutability": "view",
      "type": "function"
    },
    {
      "inputs": [
        {
          "internalType": "uint256",
          "name": "tokenId",
          "type": "uint256"
        }
      ],
      "name": "ownerOf",
      "outputs": [
        {
          "internalType": "address",
          "name": "",
          "type": "address"
        }
      ],
      "stateMutability": "view",
      "type": "function"
    },
    {
      "inputs": [
        {
          "internalType": "uint256",
          "name": "_tokenId",
          "type": "uint256"
        },
        {
          "internalType": "address",
          "name": "_nftReciever",
          "type": "address"
        },
        {
          "internalType": "address",
          "name": "_validatorAddress",
          "type": "address"
        },
        {
          "internalType": "address",
          "name": "_erc20Contract",
          "type": "address"
        },
        {
          "internalType": "uint256",
          "name": "_value",
          "type": "uint256"
        }
      ],
      "name": "redeemPiNFT",
      "outputs": [],
      "stateMutability": "nonpayable",
      "type": "function"
    },
    {
      "inputs": [
        {
          "internalType": "uint256",
          "name": "",
          "type": "uint256"
        },
        {
          "internalType": "uint256",
          "name": "",
          "type": "uint256"
        }
      ],
      "name": "royaltiesByTokenId",
      "outputs": [
        {
          "internalType": "address payable",
          "name": "account",
          "type": "address"
        },
        {
          "internalType": "uint96",
          "name": "value",
          "type": "uint96"
        }
      ],
      "stateMutability": "view",
      "type": "function"
    },
    {
      "inputs": [
        {
          "internalType": "uint256",
          "name": "",
          "type": "uint256"
        },
        {
          "internalType": "uint256",
          "name": "",
          "type": "uint256"
        }
      ],
      "name": "royaltiesForCollection",
      "outputs": [
        {
          "internalType": "address payable",
          "name": "account",
          "type": "address"
        },
        {
          "internalType": "uint96",
          "name": "value",
          "type": "uint96"
        }
      ],
      "stateMutability": "view",
      "type": "function"
    },
    {
      "inputs": [
        {
          "internalType": "uint256",
          "name": "",
          "type": "uint256"
        },
        {
          "internalType": "uint256",
          "name": "",
          "type": "uint256"
        }
      ],
      "name": "royaltiesForValidator",
      "outputs": [
        {
          "internalType": "address payable",
          "name": "account",
          "type": "address"
        },
        {
          "internalType": "uint96",
          "name": "value",
          "type": "uint96"
        }
      ],
      "stateMutability": "view",
      "type": "function"
    },
    {
      "inputs": [
        {
          "internalType": "address",
          "name": "from",
          "type": "address"
        },
        {
          "internalType": "address",
          "name": "to",
          "type": "address"
        },
        {
          "internalType": "uint256",
          "name": "tokenId",
          "type": "uint256"
        }
      ],
      "name": "safeTransferFrom",
      "outputs": [],
      "stateMutability": "nonpayable",
      "type": "function"
    },
    {
      "inputs": [
        {
          "internalType": "address",
          "name": "from",
          "type": "address"
        },
        {
          "internalType": "address",
          "name": "to",
          "type": "address"
        },
        {
          "internalType": "uint256",
          "name": "tokenId",
          "type": "uint256"
        },
        {
          "internalType": "bytes",
          "name": "data",
          "type": "bytes"
        }
      ],
      "name": "safeTransferFrom",
      "outputs": [],
      "stateMutability": "nonpayable",
      "type": "function"
    },
    {
      "inputs": [
        {
          "internalType": "address",
          "name": "operator",
          "type": "address"
        },
        {
          "internalType": "bool",
          "name": "approved",
          "type": "bool"
        }
      ],
      "name": "setApprovalForAll",
      "outputs": [],
      "stateMutability": "nonpayable",
      "type": "function"
    },
    {
      "inputs": [
        {
          "internalType": "bytes4",
          "name": "interfaceId",
          "type": "bytes4"
        }
      ],
      "name": "supportsInterface",
      "outputs": [
        {
          "internalType": "bool",
          "name": "",
          "type": "bool"
        }
      ],
      "stateMutability": "view",
      "type": "function"
    },
    {
      "inputs": [],
      "name": "symbol",
      "outputs": [
        {
          "internalType": "string",
          "name": "",
          "type": "string"
        }
      ],
      "stateMutability": "view",
      "type": "function"
    },
    {
      "inputs": [
        {
          "internalType": "uint256",
          "name": "tokenId",
          "type": "uint256"
        }
      ],
      "name": "tokenURI",
      "outputs": [
        {
          "internalType": "string",
          "name": "",
          "type": "string"
        }
      ],
      "stateMutability": "view",
      "type": "function"
    },
    {
      "inputs": [
        {
          "internalType": "address",
          "name": "from",
          "type": "address"
        },
        {
          "internalType": "address",
          "name": "to",
          "type": "address"
        },
        {
          "internalType": "uint256",
          "name": "tokenId",
          "type": "uint256"
        }
      ],
      "name": "transferFrom",
      "outputs": [],
      "stateMutability": "nonpayable",
      "type": "function"
    },
    {
      "inputs": [
        {
          "internalType": "uint256",
          "name": "_tokenId",
          "type": "uint256"
        },
        {
          "internalType": "address",
          "name": "_erc20Address",
          "type": "address"
        }
      ],
      "name": "viewBalance",
      "outputs": [
        {
          "internalType": "uint256",
          "name": "",
          "type": "uint256"
        }
      ],
      "stateMutability": "view",
      "type": "function"
    },
    {
      "inputs": [
        {
          "internalType": "uint256",
          "name": "_tokenId",
          "type": "uint256"
        }
      ],
      "name": "viewWithdrawnAmount",
      "outputs": [
        {
          "internalType": "uint256",
          "name": "",
          "type": "uint256"
        }
      ],
      "stateMutability": "view",
      "type": "function"
    },
    {
      "inputs": [
        {
          "internalType": "uint256",
          "name": "_tokenId",
          "type": "uint256"
        },
        {
          "internalType": "address",
          "name": "_erc20Contract",
          "type": "address"
        },
        {
          "internalType": "uint256",
          "name": "_amount",
          "type": "uint256"
        }
      ],
      "name": "withdraw",
      "outputs": [],
      "stateMutability": "nonpayable",
      "type": "function"
    }
  ],
  "bytecode": "0x60806040523480156200001157600080fd5b5060405162005c2e38038062005c2e8339818101604052810190620000379190620002ca565b81818160009080519060200190620000519291906200007d565b5080600190805190602001906200006a9291906200007d565b50505060016007819055505050620003b4565b8280546200008b906200037e565b90600052602060002090601f016020900481019282620000af5760008555620000fb565b82601f10620000ca57805160ff1916838001178555620000fb565b82800160010185558215620000fb579182015b82811115620000fa578251825591602001919060010190620000dd565b5b5090506200010a91906200010e565b5090565b5b80821115620001295760008160009055506001016200010f565b5090565b6000604051905090565b600080fd5b600080fd5b600080fd5b600080fd5b6000601f19601f8301169050919050565b7f4e487b7100000000000000000000000000000000000000000000000000000000600052604160045260246000fd5b62000196826200014b565b810181811067ffffffffffffffff82111715620001b857620001b76200015c565b5b80604052505050565b6000620001cd6200012d565b9050620001db82826200018b565b919050565b600067ffffffffffffffff821115620001fe57620001fd6200015c565b5b62000209826200014b565b9050602081019050919050565b60005b838110156200023657808201518184015260208101905062000219565b8381111562000246576000848401525b50505050565b6000620002636200025d84620001e0565b620001c1565b90508281526020810184848401111562000282576200028162000146565b5b6200028f84828562000216565b509392505050565b600082601f830112620002af57620002ae62000141565b5b8151620002c18482602086016200024c565b91505092915050565b60008060408385031215620002e457620002e362000137565b5b600083015167ffffffffffffffff8111156200030557620003046200013c565b5b620003138582860162000297565b925050602083015167ffffffffffffffff8111156200033757620003366200013c565b5b620003458582860162000297565b9150509250929050565b7f4e487b7100000000000000000000000000000000000000000000000000000000600052602260045260246000fd5b600060028204905060018216806200039757607f821691505b60208210811415620003ae57620003ad6200034f565b5b50919050565b61586a80620003c46000396000f3fe608060405234801561001057600080fd5b50600436106101a95760003560e01c806395d89b41116100f9578063d51f299d11610097578063e65d645611610071578063e65d645614610501578063e985e9c514610532578063ee53b6a914610562578063fb2ef4a314610592576101a9565b8063d51f299d14610485578063da9699aa146104b5578063e63697c8146104e5576101a9565b8063b88d4fde116100d3578063b88d4fde146103ed578063bb3bafd614610409578063c030da2614610439578063c87b56dd14610455576101a9565b806395d89b4114610397578063a22cb465146103b5578063b439fd2c146103d1576101a9565b80630b4f44461161016657806342842e0e1161014057806342842e0e146102ff5780636352211e1461031b57806370a082311461034b578063726bb4cb1461037b576101a9565b80630b4f44461461029457806323b872dd146102c55780633d26bb67146102e1576101a9565b806301ffc9a7146101ae57806302b42141146101de57806306fdde031461020e578063081812fc1461022c578063095ea7b31461025c57806309d4470c14610278575b600080fd5b6101c860048036038101906101c39190613a16565b6105c3565b6040516101d59190613a5e565b60405180910390f35b6101f860048036038101906101f39190613aaf565b6106a5565b6040516102059190613c22565b60405180910390f35b6102166107a7565b6040516102239190613cdd565b60405180910390f35b61024660048036038101906102419190613aaf565b610839565b6040516102539190613d20565b60405180910390f35b61027660048036038101906102719190613d67565b61087f565b005b610292600480360381019061028d9190613da7565b610997565b005b6102ae60048036038101906102a99190613e22565b610b1d565b6040516102bc929190613e80565b60405180910390f35b6102df60048036038101906102da9190613ea9565b610b92565b005b6102e9610bf2565b6040516102f69190613f0b565b60405180910390f35b61031960048036038101906103149190613ea9565b610bf8565b005b61033560048036038101906103309190613aaf565b610c18565b6040516103429190613d20565b60405180910390f35b61036560048036038101906103609190613f26565b610c9f565b6040516103729190613f0b565b60405180910390f35b61039560048036038101906103909190613da7565b610d57565b005b61039f610edd565b6040516103ac9190613cdd565b60405180910390f35b6103cf60048036038101906103ca9190613f7f565b610f6f565b005b6103eb60048036038101906103e691906141b4565b610f85565b005b610407600480360381019061040291906142ec565b6110d0565b005b610423600480360381019061041e9190613aaf565b611132565b6040516104309190613c22565b60405180910390f35b610453600480360381019061044e919061436f565b611234565b005b61046f600480360381019061046a9190613aaf565b6113fa565b60405161047c9190613cdd565b60405180910390f35b61049f600480360381019061049a91906143c2565b61150d565b6040516104ac9190613f0b565b60405180910390f35b6104cf60048036038101906104ca9190613aaf565b611568565b6040516104dc9190613f0b565b60405180910390f35b6104ff60048036038101906104fa919061436f565b611585565b005b61051b60048036038101906105169190613e22565b61172d565b604051610529929190613e80565b60405180910390f35b61054c60048036038101906105479190614402565b6117a2565b6040516105599190613a5e565b60405180910390f35b61057c600480360381019061057791906144e3565b611836565b6040516105899190613f0b565b60405180910390f35b6105ac60048036038101906105a79190613e22565b61193a565b6040516105ba929190613e80565b60405180910390f35b60007f80ac58cd000000000000000000000000000000000000000000000000000000007bffffffffffffffffffffffffffffffffffffffffffffffffffffffff1916827bffffffffffffffffffffffffffffffffffffffffffffffffffffffff1916148061068e57507f5b5e139f000000000000000000000000000000000000000000000000000000007bffffffffffffffffffffffffffffffffffffffffffffffffffffffff1916827bffffffffffffffffffffffffffffffffffffffffffffffffffffffff1916145b8061069e575061069d826119af565b5b9050919050565b6060600c6000838152602001908152602001600020805480602002602001604051908101604052809291908181526020016000905b8282101561079c578382906000526020600020016040518060400160405290816000820160009054906101000a900473ffffffffffffffffffffffffffffffffffffffff1673ffffffffffffffffffffffffffffffffffffffff1673ffffffffffffffffffffffffffffffffffffffff1681526020016000820160149054906101000a90046bffffffffffffffffffffffff166bffffffffffffffffffffffff166bffffffffffffffffffffffff1681525050815260200190600101906106da565b505050509050919050565b6060600080546107b69061459d565b80601f01602080910402602001604051908101604052809291908181526020018280546107e29061459d565b801561082f5780601f106108045761010080835404028352916020019161082f565b820191906000526020600020905b81548152906001019060200180831161081257829003601f168201915b5050505050905090565b600061084482611a19565b6004600083815260200190815260200160002060009054906101000a900473ffffffffffffffffffffffffffffffffffffffff169050919050565b600061088a82610c18565b90508073ffffffffffffffffffffffffffffffffffffffff168373ffffffffffffffffffffffffffffffffffffffff1614156108fb576040517f08c379a00000000000000000000000000000000000000000000000000000000081526004016108f290614641565b60405180910390fd5b8073ffffffffffffffffffffffffffffffffffffffff1661091a611a64565b73ffffffffffffffffffffffffffffffffffffffff161480610949575061094881610943611a64565b6117a2565b5b610988576040517f08c379a000000000000000000000000000000000000000000000000000000000815260040161097f906146d3565b60405180910390fd5b6109928383611a6c565b505050565b846109a181610c18565b73ffffffffffffffffffffffffffffffffffffffff163373ffffffffffffffffffffffffffffffffffffffff1614610a0e576040517f08c379a0000000000000000000000000000000000000000000000000000000008152600401610a059061473f565b60405180910390fd5b610a16611b25565b600073ffffffffffffffffffffffffffffffffffffffff168373ffffffffffffffffffffffffffffffffffffffff161415610a86576040517f08c379a0000000000000000000000000000000000000000000000000000000008152600401610a7d906147d1565b60405180910390fd5b600073ffffffffffffffffffffffffffffffffffffffff168573ffffffffffffffffffffffffffffffffffffffff161415610af6576040517f08c379a0000000000000000000000000000000000000000000000000000000008152600401610aed9061483d565b60405180910390fd5b610b0286858585611b75565b610b0d338688610bf8565b610b15611d95565b505050505050565b600c6020528160005260406000208181548110610b3957600080fd5b90600052602060002001600091509150508060000160009054906101000a900473ffffffffffffffffffffffffffffffffffffffff16908060000160149054906101000a90046bffffffffffffffffffffffff16905082565b610ba3610b9d611a64565b82611d9f565b610be2576040517f08c379a0000000000000000000000000000000000000000000000000000000008152600401610bd9906148cf565b60405180910390fd5b610bed838383611e34565b505050565b60115481565b610c13838383604051806020016040528060008152506110d0565b505050565b600080610c248361212e565b9050600073ffffffffffffffffffffffffffffffffffffffff168173ffffffffffffffffffffffffffffffffffffffff161415610c96576040517f08c379a0000000000000000000000000000000000000000000000000000000008152600401610c8d9061493b565b60405180910390fd5b80915050919050565b60008073ffffffffffffffffffffffffffffffffffffffff168273ffffffffffffffffffffffffffffffffffffffff161415610d10576040517f08c379a0000000000000000000000000000000000000000000000000000000008152600401610d07906149cd565b60405180910390fd5b600360008373ffffffffffffffffffffffffffffffffffffffff1673ffffffffffffffffffffffffffffffffffffffff168152602001908152602001600020549050919050565b84610d6181610c18565b73ffffffffffffffffffffffffffffffffffffffff163373ffffffffffffffffffffffffffffffffffffffff1614610dce576040517f08c379a0000000000000000000000000000000000000000000000000000000008152600401610dc59061473f565b60405180910390fd5b610dd6611b25565b600073ffffffffffffffffffffffffffffffffffffffff168373ffffffffffffffffffffffffffffffffffffffff161415610e46576040517f08c379a0000000000000000000000000000000000000000000000000000000008152600401610e3d906147d1565b60405180910390fd5b600073ffffffffffffffffffffffffffffffffffffffff168573ffffffffffffffffffffffffffffffffffffffff161415610eb6576040517f08c379a0000000000000000000000000000000000000000000000000000000008152600401610ead9061483d565b60405180910390fd5b610ec286858585611b75565b610ecd338688610bf8565b610ed5611d95565b505050505050565b606060018054610eec9061459d565b80601f0160208091040260200160405190810160405280929190818152602001828054610f189061459d565b8015610f655780601f10610f3a57610100808354040283529160200191610f65565b820191906000526020600020905b815481529060010190602001808311610f4857829003601f168201915b5050505050905090565b610f81610f7a611a64565b838361216b565b5050565b600073ffffffffffffffffffffffffffffffffffffffff168373ffffffffffffffffffffffffffffffffffffffff161415610ff5576040517f08c379a0000000000000000000000000000000000000000000000000000000008152600401610fec906147d1565b60405180910390fd5b611001338585856122d8565b61100b8482612571565b8273ffffffffffffffffffffffffffffffffffffffff166323b872dd3330856040518463ffffffff1660e01b8152600401611048939291906149ed565b6020604051808303816000875af1158015611067573d6000803e3d6000fd5b505050506040513d601f19601f8201168201806040525081019061108b9190614a39565b6110ca576040517f08c379a00000000000000000000000000000000000000000000000000000000081526004016110c190614ab2565b60405180910390fd5b50505050565b6110e16110db611a64565b83611d9f565b611120576040517f08c379a0000000000000000000000000000000000000000000000000000000008152600401611117906148cf565b60405180910390fd5b61112c8484848461288d565b50505050565b6060600b6000838152602001908152602001600020805480602002602001604051908101604052809291908181526020016000905b82821015611229578382906000526020600020016040518060400160405290816000820160009054906101000a900473ffffffffffffffffffffffffffffffffffffffff1673ffffffffffffffffffffffffffffffffffffffff1673ffffffffffffffffffffffffffffffffffffffff1681526020016000820160149054906101000a90046bffffffffffffffffffffffff166bffffffffffffffffffffffff166bffffffffffffffffffffffff168152505081526020019060010190611167565b505050509050919050565b61123c611b25565b3373ffffffffffffffffffffffffffffffffffffffff16600f600085815260200190815260200160002060009054906101000a900473ffffffffffffffffffffffffffffffffffffffff1673ffffffffffffffffffffffffffffffffffffffff16146112dd576040517f08c379a00000000000000000000000000000000000000000000000000000000081526004016112d490614b1e565b60405180910390fd5b8173ffffffffffffffffffffffffffffffffffffffff166323b872dd3330846040518463ffffffff1660e01b815260040161131a939291906149ed565b6020604051808303816000875af1158015611339573d6000803e3d6000fd5b505050506040513d601f19601f8201168201806040525081019061135d9190614a39565b61139c576040517f08c379a000000000000000000000000000000000000000000000000000000000815260040161139390614b8a565b60405180910390fd5b806010600085815260200190815260200160002060008282546113bf9190614bd9565b9250508190555060006010600085815260200190815260200160002054116113ed576113ec303385610bf8565b5b6113f5611d95565b505050565b606061140582611a19565b60006006600084815260200190815260200160002080546114259061459d565b80601f01602080910402602001604051908101604052809291908181526020018280546114519061459d565b801561149e5780601f106114735761010080835404028352916020019161149e565b820191906000526020600020905b81548152906001019060200180831161148157829003601f168201915b5050505050905060006114af6128e9565b90506000815114156114c5578192505050611508565b6000825111156114fa5780826040516020016114e2929190614c49565b60405160208183030381529060405292505050611508565b61150384612900565b925050505b919050565b60006009600084815260200190815260200160002060008373ffffffffffffffffffffffffffffffffffffffff1673ffffffffffffffffffffffffffffffffffffffff16815260200190815260200160002054905092915050565b600060106000838152602001908152602001600020549050919050565b61158d611b25565b3373ffffffffffffffffffffffffffffffffffffffff16600f600085815260200190815260200160002060009054906101000a900473ffffffffffffffffffffffffffffffffffffffff1673ffffffffffffffffffffffffffffffffffffffff161461162e576040517f08c379a000000000000000000000000000000000000000000000000000000000815260040161162590614b1e565b60405180910390fd5b8173ffffffffffffffffffffffffffffffffffffffff1663a9059cbb33836040518363ffffffff1660e01b8152600401611669929190614c6d565b6020604051808303816000875af1158015611688573d6000803e3d6000fd5b505050506040513d601f19601f820116820180604052508101906116ac9190614a39565b6116eb576040517f08c379a00000000000000000000000000000000000000000000000000000000081526004016116e290614ce2565b60405180910390fd5b8060106000858152602001908152602001600020600082825461170e9190614d02565b92505081905550611720333085610bf8565b611728611d95565b505050565b600d602052816000526040600020818154811061174957600080fd5b90600052602060002001600091509150508060000160009054906101000a900473ffffffffffffffffffffffffffffffffffffffff16908060000160149054906101000a90046bffffffffffffffffffffffff16905082565b6000600560008473ffffffffffffffffffffffffffffffffffffffff1673ffffffffffffffffffffffffffffffffffffffff16815260200190815260200160002060008373ffffffffffffffffffffffffffffffffffffffff1673ffffffffffffffffffffffffffffffffffffffff16815260200190815260200160002060009054906101000a900460ff16905092915050565b60008073ffffffffffffffffffffffffffffffffffffffff168473ffffffffffffffffffffffffffffffffffffffff1614156118a7576040517f08c379a000000000000000000000000000000000000000000000000000000000815260040161189e90614da4565b60405180910390fd5b60006118b36008612968565b905033600f600083815260200190815260200160002060006101000a81548173ffffffffffffffffffffffffffffffffffffffff021916908373ffffffffffffffffffffffffffffffffffffffff1602179055506119118184612976565b61191b8582612c92565b6119258185612cb0565b61192f6008612d24565b809150509392505050565b600b602052816000526040600020818154811061195657600080fd5b90600052602060002001600091509150508060000160009054906101000a900473ffffffffffffffffffffffffffffffffffffffff16908060000160149054906101000a90046bffffffffffffffffffffffff16905082565b60007f01ffc9a7000000000000000000000000000000000000000000000000000000007bffffffffffffffffffffffffffffffffffffffffffffffffffffffff1916827bffffffffffffffffffffffffffffffffffffffffffffffffffffffff1916149050919050565b611a2281612d3a565b611a61576040517f08c379a0000000000000000000000000000000000000000000000000000000008152600401611a589061493b565b60405180910390fd5b50565b600033905090565b816004600083815260200190815260200160002060006101000a81548173ffffffffffffffffffffffffffffffffffffffff021916908373ffffffffffffffffffffffffffffffffffffffff160217905550808273ffffffffffffffffffffffffffffffffffffffff16611adf83610c18565b73ffffffffffffffffffffffffffffffffffffffff167f8c5be1e5ebec7d5bd14f71427d1e84f3dd0314c0f7b2291e5b200ac8c7c3b92560405160405180910390a45050565b60026007541415611b6b576040517f08c379a0000000000000000000000000000000000000000000000000000000008152600401611b6290614e10565b60405180910390fd5b6002600781905550565b600073ffffffffffffffffffffffffffffffffffffffff168373ffffffffffffffffffffffffffffffffffffffff161415611be5576040517f08c379a0000000000000000000000000000000000000000000000000000000008152600401611bdc90614e7c565b60405180910390fd5b6000611bf085610c18565b90503373ffffffffffffffffffffffffffffffffffffffff168173ffffffffffffffffffffffffffffffffffffffff1614611c60576040517f08c379a0000000000000000000000000000000000000000000000000000000008152600401611c5790614ee8565b60405180910390fd5b611c6b858484612d7b565b8273ffffffffffffffffffffffffffffffffffffffff1663a9059cbb85846040518363ffffffff1660e01b8152600401611ca6929190614c6d565b6020604051808303816000875af1158015611cc5573d6000803e3d6000fd5b505050506040513d601f19601f82011682018060405250810190611ce99190614a39565b611d28576040517f08c379a0000000000000000000000000000000000000000000000000000000008152600401611d1f90614ab2565b60405180910390fd5b8273ffffffffffffffffffffffffffffffffffffffff168473ffffffffffffffffffffffffffffffffffffffff16867fa8352277873fc0d2b233b8127433da351a4164fa701ed6ff79655694222932c485604051611d869190613f0b565b60405180910390a45050505050565b6001600781905550565b600080611dab83610c18565b90508073ffffffffffffffffffffffffffffffffffffffff168473ffffffffffffffffffffffffffffffffffffffff161480611ded5750611dec81856117a2565b5b80611e2b57508373ffffffffffffffffffffffffffffffffffffffff16611e1384610839565b73ffffffffffffffffffffffffffffffffffffffff16145b91505092915050565b8273ffffffffffffffffffffffffffffffffffffffff16611e5482610c18565b73ffffffffffffffffffffffffffffffffffffffff1614611eaa576040517f08c379a0000000000000000000000000000000000000000000000000000000008152600401611ea190614f7a565b60405180910390fd5b600073ffffffffffffffffffffffffffffffffffffffff168273ffffffffffffffffffffffffffffffffffffffff161415611f1a576040517f08c379a0000000000000000000000000000000000000000000000000000000008152600401611f119061500c565b60405180910390fd5b611f27838383600161310e565b8273ffffffffffffffffffffffffffffffffffffffff16611f4782610c18565b73ffffffffffffffffffffffffffffffffffffffff1614611f9d576040517f08c379a0000000000000000000000000000000000000000000000000000000008152600401611f9490614f7a565b60405180910390fd5b6004600082815260200190815260200160002060006101000a81549073ffffffffffffffffffffffffffffffffffffffff02191690556001600360008573ffffffffffffffffffffffffffffffffffffffff1673ffffffffffffffffffffffffffffffffffffffff168152602001908152602001600020600082825403925050819055506001600360008473ffffffffffffffffffffffffffffffffffffffff1673ffffffffffffffffffffffffffffffffffffffff16815260200190815260200160002060008282540192505081905550816002600083815260200190815260200160002060006101000a81548173ffffffffffffffffffffffffffffffffffffffff021916908373ffffffffffffffffffffffffffffffffffffffff160217905550808273ffffffffffffffffffffffffffffffffffffffff168473ffffffffffffffffffffffffffffffffffffffff167fddf252ad1be2c89b69c2b068fc378daa952ba7f163c4a11628f55a4df523b3ef60405160405180910390a46121298383836001613234565b505050565b60006002600083815260200190815260200160002060009054906101000a900473ffffffffffffffffffffffffffffffffffffffff169050919050565b8173ffffffffffffffffffffffffffffffffffffffff168373ffffffffffffffffffffffffffffffffffffffff1614156121da576040517f08c379a00000000000000000000000000000000000000000000000000000000081526004016121d190615078565b60405180910390fd5b80600560008573ffffffffffffffffffffffffffffffffffffffff1673ffffffffffffffffffffffffffffffffffffffff16815260200190815260200160002060008473ffffffffffffffffffffffffffffffffffffffff1673ffffffffffffffffffffffffffffffffffffffff16815260200190815260200160002060006101000a81548160ff0219169083151502179055508173ffffffffffffffffffffffffffffffffffffffff168373ffffffffffffffffffffffffffffffffffffffff167f17307eab39ab6107e8899845ad3d59bd9653f200f220920489ca2b5937696c31836040516122cb9190613a5e565b60405180910390a3505050565b600073ffffffffffffffffffffffffffffffffffffffff166122f984610c18565b73ffffffffffffffffffffffffffffffffffffffff161415612350576040517f08c379a0000000000000000000000000000000000000000000000000000000008152600401612347906150e4565b60405180910390fd5b600081141561235e5761256b565b60006009600085815260200190815260200160002060008473ffffffffffffffffffffffffffffffffffffffff1673ffffffffffffffffffffffffffffffffffffffff168152602001908152602001600020549050600081141561249c57600a600085815260200190815260200160002080549050600e600086815260200190815260200160002060008573ffffffffffffffffffffffffffffffffffffffff1673ffffffffffffffffffffffffffffffffffffffff16815260200190815260200160002081905550600a6000858152602001908152602001600020839080600181540180825580915050600190039060005260206000200160009091909190916101000a81548173ffffffffffffffffffffffffffffffffffffffff021916908373ffffffffffffffffffffffffffffffffffffffff1602179055505b816009600086815260200190815260200160002060008573ffffffffffffffffffffffffffffffffffffffff1673ffffffffffffffffffffffffffffffffffffffff16815260200190815260200160002060008282546124fc9190614d02565b925050819055508273ffffffffffffffffffffffffffffffffffffffff16848673ffffffffffffffffffffffffffffffffffffffff167f684ce28ace37552c6bfb98b7cceda8ed55327078eafb5dfb31218e0856382763856040516125619190613f0b565b60405180910390a4505b50505050565b600a815111156125b6576040517f08c379a00000000000000000000000000000000000000000000000000000000081526004016125ad90615150565b60405180910390fd5b600c600083815260200190815260200160002060006125d59190613889565b6000805b825181101561280057600073ffffffffffffffffffffffffffffffffffffffff1683828151811061260d5761260c615170565b5b60200260200101516000015173ffffffffffffffffffffffffffffffffffffffff161415612670576040517f08c379a000000000000000000000000000000000000000000000000000000000815260040161266790615211565b60405180910390fd5b600083828151811061268557612684615170565b5b6020026020010151602001516bffffffffffffffffffffffff1614156126e0576040517f08c379a00000000000000000000000000000000000000000000000000000000081526004016126d79061527d565b60405180910390fd5b600c600085815260200190815260200160002083828151811061270657612705615170565b5b60200260200101519080600181540180825580915050600190039060005260206000200160009091909190915060008201518160000160006101000a81548173ffffffffffffffffffffffffffffffffffffffff021916908373ffffffffffffffffffffffffffffffffffffffff16021790555060208201518160000160146101000a8154816bffffffffffffffffffffffff02191690836bffffffffffffffffffffffff16021790555050508281815181106127c6576127c5615170565b5b6020026020010151602001516bffffffffffffffffffffffff16826127eb9190614d02565b915080806127f89061529d565b9150506125d9565b506127108110612845576040517f08c379a000000000000000000000000000000000000000000000000000000000815260040161283c90615332565b60405180910390fd5b81604051612853919061544e565b6040518091039020837fbcc574f116b3d6f1bd03d06651a53025f963eb951ae262ee0211cd9cba05779f60405160405180910390a3505050565b612898848484611e34565b6128a48484848461323a565b6128e3576040517f08c379a00000000000000000000000000000000000000000000000000000000081526004016128da906154d7565b60405180910390fd5b50505050565b606060405180602001604052806000815250905090565b606061290b82611a19565b60006129156128e9565b905060008151116129355760405180602001604052806000815250612960565b8061293f846133c2565b604051602001612950929190614c49565b6040516020818303038152906040525b915050919050565b600081600001549050919050565b600a815111156129bb576040517f08c379a00000000000000000000000000000000000000000000000000000000081526004016129b290615150565b60405180910390fd5b600b600083815260200190815260200160002060006129da9190613889565b6000805b8251811015612c0557600073ffffffffffffffffffffffffffffffffffffffff16838281518110612a1257612a11615170565b5b60200260200101516000015173ffffffffffffffffffffffffffffffffffffffff161415612a75576040517f08c379a0000000000000000000000000000000000000000000000000000000008152600401612a6c90615211565b60405180910390fd5b6000838281518110612a8a57612a89615170565b5b6020026020010151602001516bffffffffffffffffffffffff161415612ae5576040517f08c379a0000000000000000000000000000000000000000000000000000000008152600401612adc9061527d565b60405180910390fd5b600b6000858152602001908152602001600020838281518110612b0b57612b0a615170565b5b60200260200101519080600181540180825580915050600190039060005260206000200160009091909190915060008201518160000160006101000a81548173ffffffffffffffffffffffffffffffffffffffff021916908373ffffffffffffffffffffffffffffffffffffffff16021790555060208201518160000160146101000a8154816bffffffffffffffffffffffff02191690836bffffffffffffffffffffffff1602179055505050828181518110612bcb57612bca615170565b5b6020026020010151602001516bffffffffffffffffffffffff1682612bf09190614d02565b91508080612bfd9061529d565b9150506129de565b506127108110612c4a576040517f08c379a0000000000000000000000000000000000000000000000000000000008152600401612c4190615332565b60405180910390fd5b81604051612c58919061544e565b6040518091039020837fe23425cf56a81561c420f592eb54f21107c562f26c8c78c4a20d26920d244e6660405160405180910390a3505050565b612cac82826040518060200160405280600081525061349a565b5050565b612cb982612d3a565b612cf8576040517f08c379a0000000000000000000000000000000000000000000000000000000008152600401612cef90615569565b60405180910390fd5b80600660008481526020019081526020016000209080519060200190612d1f9291906138aa565b505050565b6001816000016000828254019250508190555050565b60008073ffffffffffffffffffffffffffffffffffffffff16612d5c8361212e565b73ffffffffffffffffffffffffffffffffffffffff1614159050919050565b6000811415612d8957613109565b60006009600085815260200190815260200160002060008473ffffffffffffffffffffffffffffffffffffffff1673ffffffffffffffffffffffffffffffffffffffff16815260200190815260200160002054905081811015612e21576040517f08c379a0000000000000000000000000000000000000000000000000000000008152600401612e18906155fb565b60405180910390fd5b60008282612e2f9190614bd9565b9050806009600087815260200190815260200160002060008673ffffffffffffffffffffffffffffffffffffffff1673ffffffffffffffffffffffffffffffffffffffff1681526020019081526020016000208190555060008114156131065760006001600a600088815260200190815260200160002080549050612eb49190614bd9565b90506000600a60008881526020019081526020016000208281548110612edd57612edc615170565b5b9060005260206000200160009054906101000a900473ffffffffffffffffffffffffffffffffffffffff1690508073ffffffffffffffffffffffffffffffffffffffff168673ffffffffffffffffffffffffffffffffffffffff1614613057576000600e600089815260200190815260200160002060008873ffffffffffffffffffffffffffffffffffffffff1673ffffffffffffffffffffffffffffffffffffffff16815260200190815260200160002054905081600a60008a81526020019081526020016000208281548110612fb857612fb7615170565b5b9060005260206000200160006101000a81548173ffffffffffffffffffffffffffffffffffffffff021916908373ffffffffffffffffffffffffffffffffffffffff16021790555080600e60008a815260200190815260200160002060008473ffffffffffffffffffffffffffffffffffffffff1673ffffffffffffffffffffffffffffffffffffffff16815260200190815260200160002081905550505b600e600088815260200190815260200160002060008773ffffffffffffffffffffffffffffffffffffffff1673ffffffffffffffffffffffffffffffffffffffff16815260200190815260200160002060009055600a60008881526020019081526020016000208054806130ce576130cd61561b565b5b6001900381819060005260206000200160006101000a81549073ffffffffffffffffffffffffffffffffffffffff0219169055905550505b50505b505050565b600181111561322e57600073ffffffffffffffffffffffffffffffffffffffff168473ffffffffffffffffffffffffffffffffffffffff16146131a25780600360008673ffffffffffffffffffffffffffffffffffffffff1673ffffffffffffffffffffffffffffffffffffffff168152602001908152602001600020600082825461319a9190614bd9565b925050819055505b600073ffffffffffffffffffffffffffffffffffffffff168373ffffffffffffffffffffffffffffffffffffffff161461322d5780600360008573ffffffffffffffffffffffffffffffffffffffff1673ffffffffffffffffffffffffffffffffffffffff16815260200190815260200160002060008282546132259190614d02565b925050819055505b5b50505050565b50505050565b600061325b8473ffffffffffffffffffffffffffffffffffffffff166134f5565b156133b5578373ffffffffffffffffffffffffffffffffffffffff1663150b7a02613284611a64565b8786866040518563ffffffff1660e01b81526004016132a6949392919061569f565b6020604051808303816000875af19250505080156132e257506040513d601f19601f820116820180604052508101906132df9190615700565b60015b613365573d8060008114613312576040519150601f19603f3d011682016040523d82523d6000602084013e613317565b606091505b5060008151141561335d576040517f08c379a0000000000000000000000000000000000000000000000000000000008152600401613354906154d7565b60405180910390fd5b805181602001fd5b63150b7a0260e01b7bffffffffffffffffffffffffffffffffffffffffffffffffffffffff1916817bffffffffffffffffffffffffffffffffffffffffffffffffffffffff1916149150506133ba565b600190505b949350505050565b6060600060016133d184613518565b01905060008167ffffffffffffffff8111156133f0576133ef613fc4565b5b6040519080825280601f01601f1916602001820160405280156134225781602001600182028036833780820191505090505b509050600082602001820190505b60011561348f578080600190039150507f3031323334353637383961626364656600000000000000000000000000000000600a86061a8153600a85816134795761347861572d565b5b049450600085141561348a5761348f565b613430565b819350505050919050565b6134a4838361366b565b6134b1600084848461323a565b6134f0576040517f08c379a00000000000000000000000000000000000000000000000000000000081526004016134e7906154d7565b60405180910390fd5b505050565b6000808273ffffffffffffffffffffffffffffffffffffffff163b119050919050565b600080600090507a184f03e93ff9f4daa797ed6e38ed64bf6a1f0100000000000000008310613576577a184f03e93ff9f4daa797ed6e38ed64bf6a1f010000000000000000838161356c5761356b61572d565b5b0492506040810190505b6d04ee2d6d415b85acef810000000083106135b3576d04ee2d6d415b85acef810000000083816135a9576135a861572d565b5b0492506020810190505b662386f26fc1000083106135e257662386f26fc1000083816135d8576135d761572d565b5b0492506010810190505b6305f5e100831061360b576305f5e10083816136015761360061572d565b5b0492506008810190505b61271083106136305761271083816136265761362561572d565b5b0492506004810190505b6064831061365357606483816136495761364861572d565b5b0492506002810190505b600a8310613662576001810190505b80915050919050565b600073ffffffffffffffffffffffffffffffffffffffff168273ffffffffffffffffffffffffffffffffffffffff1614156136db576040517f08c379a00000000000000000000000000000000000000000000000000000000081526004016136d2906157a8565b60405180910390fd5b6136e481612d3a565b15613724576040517f08c379a000000000000000000000000000000000000000000000000000000000815260040161371b90615814565b60405180910390fd5b61373260008383600161310e565b61373b81612d3a565b1561377b576040517f08c379a000000000000000000000000000000000000000000000000000000000815260040161377290615814565b60405180910390fd5b6001600360008473ffffffffffffffffffffffffffffffffffffffff1673ffffffffffffffffffffffffffffffffffffffff16815260200190815260200160002060008282540192505081905550816002600083815260200190815260200160002060006101000a81548173ffffffffffffffffffffffffffffffffffffffff021916908373ffffffffffffffffffffffffffffffffffffffff160217905550808273ffffffffffffffffffffffffffffffffffffffff16600073ffffffffffffffffffffffffffffffffffffffff167fddf252ad1be2c89b69c2b068fc378daa952ba7f163c4a11628f55a4df523b3ef60405160405180910390a4613885600083836001613234565b5050565b50805460008255906000526020600020908101906138a79190613930565b50565b8280546138b69061459d565b90600052602060002090601f0160209004810192826138d8576000855561391f565b82601f106138f157805160ff191683800117855561391f565b8280016001018555821561391f579182015b8281111561391e578251825591602001919060010190613903565b5b50905061392c919061398d565b5090565b5b8082111561398957600080820160006101000a81549073ffffffffffffffffffffffffffffffffffffffff02191690556000820160146101000a8154906bffffffffffffffffffffffff021916905550600101613931565b5090565b5b808211156139a657600081600090555060010161398e565b5090565b6000604051905090565b600080fd5b600080fd5b60007fffffffff0000000000000000000000000000000000000000000000000000000082169050919050565b6139f3816139be565b81146139fe57600080fd5b50565b600081359050613a10816139ea565b92915050565b600060208284031215613a2c57613a2b6139b4565b5b6000613a3a84828501613a01565b91505092915050565b60008115159050919050565b613a5881613a43565b82525050565b6000602082019050613a736000830184613a4f565b92915050565b6000819050919050565b613a8c81613a79565b8114613a9757600080fd5b50565b600081359050613aa981613a83565b92915050565b600060208284031215613ac557613ac46139b4565b5b6000613ad384828501613a9a565b91505092915050565b600081519050919050565b600082825260208201905092915050565b6000819050602082019050919050565b600073ffffffffffffffffffffffffffffffffffffffff82169050919050565b6000613b3382613b08565b9050919050565b613b4381613b28565b82525050565b60006bffffffffffffffffffffffff82169050919050565b613b6a81613b49565b82525050565b604082016000820151613b866000850182613b3a565b506020820151613b996020850182613b61565b50505050565b6000613bab8383613b70565b60408301905092915050565b6000602082019050919050565b6000613bcf82613adc565b613bd98185613ae7565b9350613be483613af8565b8060005b83811015613c15578151613bfc8882613b9f565b9750613c0783613bb7565b925050600181019050613be8565b5085935050505092915050565b60006020820190508181036000830152613c3c8184613bc4565b905092915050565b600081519050919050565b600082825260208201905092915050565b60005b83811015613c7e578082015181840152602081019050613c63565b83811115613c8d576000848401525b50505050565b6000601f19601f8301169050919050565b6000613caf82613c44565b613cb98185613c4f565b9350613cc9818560208601613c60565b613cd281613c93565b840191505092915050565b60006020820190508181036000830152613cf78184613ca4565b905092915050565b6000613d0a82613b08565b9050919050565b613d1a81613cff565b82525050565b6000602082019050613d356000830184613d11565b92915050565b613d4481613cff565b8114613d4f57600080fd5b50565b600081359050613d6181613d3b565b92915050565b60008060408385031215613d7e57613d7d6139b4565b5b6000613d8c85828601613d52565b9250506020613d9d85828601613a9a565b9150509250929050565b600080600080600060a08688031215613dc357613dc26139b4565b5b6000613dd188828901613a9a565b9550506020613de288828901613d52565b9450506040613df388828901613d52565b9350506060613e0488828901613d52565b9250506080613e1588828901613a9a565b9150509295509295909350565b60008060408385031215613e3957613e386139b4565b5b6000613e4785828601613a9a565b9250506020613e5885828601613a9a565b9150509250929050565b613e6b81613b28565b82525050565b613e7a81613b49565b82525050565b6000604082019050613e956000830185613e62565b613ea26020830184613e71565b9392505050565b600080600060608486031215613ec257613ec16139b4565b5b6000613ed086828701613d52565b9350506020613ee186828701613d52565b9250506040613ef286828701613a9a565b9150509250925092565b613f0581613a79565b82525050565b6000602082019050613f206000830184613efc565b92915050565b600060208284031215613f3c57613f3b6139b4565b5b6000613f4a84828501613d52565b91505092915050565b613f5c81613a43565b8114613f6757600080fd5b50565b600081359050613f7981613f53565b92915050565b60008060408385031215613f9657613f956139b4565b5b6000613fa485828601613d52565b9250506020613fb585828601613f6a565b9150509250929050565b600080fd5b7f4e487b7100000000000000000000000000000000000000000000000000000000600052604160045260246000fd5b613ffc82613c93565b810181811067ffffffffffffffff8211171561401b5761401a613fc4565b5b80604052505050565b600061402e6139aa565b905061403a8282613ff3565b919050565b600067ffffffffffffffff82111561405a57614059613fc4565b5b602082029050602081019050919050565b600080fd5b600080fd5b61407e81613b28565b811461408957600080fd5b50565b60008135905061409b81614075565b92915050565b6140aa81613b49565b81146140b557600080fd5b50565b6000813590506140c7816140a1565b92915050565b6000604082840312156140e3576140e2614070565b5b6140ed6040614024565b905060006140fd8482850161408c565b6000830152506020614111848285016140b8565b60208301525092915050565b600061413061412b8461403f565b614024565b905080838252602082019050604084028301858111156141535761415261406b565b5b835b8181101561417c578061416888826140cd565b845260208401935050604081019050614155565b5050509392505050565b600082601f83011261419b5761419a613fbf565b5b81356141ab84826020860161411d565b91505092915050565b600080600080608085870312156141ce576141cd6139b4565b5b60006141dc87828801613a9a565b94505060206141ed87828801613d52565b93505060406141fe87828801613a9a565b925050606085013567ffffffffffffffff81111561421f5761421e6139b9565b5b61422b87828801614186565b91505092959194509250565b600080fd5b600067ffffffffffffffff82111561425757614256613fc4565b5b61426082613c93565b9050602081019050919050565b82818337600083830152505050565b600061428f61428a8461423c565b614024565b9050828152602081018484840111156142ab576142aa614237565b5b6142b684828561426d565b509392505050565b600082601f8301126142d3576142d2613fbf565b5b81356142e384826020860161427c565b91505092915050565b60008060008060808587031215614306576143056139b4565b5b600061431487828801613d52565b945050602061432587828801613d52565b935050604061433687828801613a9a565b925050606085013567ffffffffffffffff811115614357576143566139b9565b5b614363878288016142be565b91505092959194509250565b600080600060608486031215614388576143876139b4565b5b600061439686828701613a9a565b93505060206143a786828701613d52565b92505060406143b886828701613a9a565b9150509250925092565b600080604083850312156143d9576143d86139b4565b5b60006143e785828601613a9a565b92505060206143f885828601613d52565b9150509250929050565b60008060408385031215614419576144186139b4565b5b600061442785828601613d52565b925050602061443885828601613d52565b9150509250929050565b600067ffffffffffffffff82111561445d5761445c613fc4565b5b61446682613c93565b9050602081019050919050565b600061448661448184614442565b614024565b9050828152602081018484840111156144a2576144a1614237565b5b6144ad84828561426d565b509392505050565b600082601f8301126144ca576144c9613fbf565b5b81356144da848260208601614473565b91505092915050565b6000806000606084860312156144fc576144fb6139b4565b5b600061450a86828701613d52565b935050602084013567ffffffffffffffff81111561452b5761452a6139b9565b5b614537868287016144b5565b925050604084013567ffffffffffffffff811115614558576145576139b9565b5b61456486828701614186565b9150509250925092565b7f4e487b7100000000000000000000000000000000000000000000000000000000600052602260045260246000fd5b600060028204905060018216806145b557607f821691505b602082108114156145c9576145c861456e565b5b50919050565b7f4552433732313a20617070726f76616c20746f2063757272656e74206f776e6560008201527f7200000000000000000000000000000000000000000000000000000000000000602082015250565b600061462b602183613c4f565b9150614636826145cf565b604082019050919050565b6000602082019050818103600083015261465a8161461e565b9050919050565b7f4552433732313a20617070726f76652063616c6c6572206973206e6f7420746f60008201527f6b656e206f776e6572206f7220617070726f76656420666f7220616c6c000000602082015250565b60006146bd603d83613c4f565b91506146c882614661565b604082019050919050565b600060208201905081810360008301526146ec816146b0565b9050919050565b7f4f6e6c7920746f6b656e206f776e65722063616e206578656375746500000000600082015250565b6000614729601c83613c4f565b9150614734826146f3565b602082019050919050565b600060208201905081810360008301526147588161471c565b9050919050565b7f796f752063616e277420646f20746869732077697468207a65726f206164647260008201527f6573730000000000000000000000000000000000000000000000000000000000602082015250565b60006147bb602383613c4f565b91506147c68261475f565b604082019050919050565b600060208201905081810360008301526147ea816147ae565b9050919050565b7f63616e6e6f74207472616e7366657220746f207a65726f206164647265737300600082015250565b6000614827601f83613c4f565b9150614832826147f1565b602082019050919050565b600060208201905081810360008301526148568161481a565b9050919050565b7f4552433732313a2063616c6c6572206973206e6f7420746f6b656e206f776e6560008201527f72206f7220617070726f76656400000000000000000000000000000000000000602082015250565b60006148b9602d83613c4f565b91506148c48261485d565b604082019050919050565b600060208201905081810360008301526148e8816148ac565b9050919050565b7f4552433732313a20696e76616c696420746f6b656e2049440000000000000000600082015250565b6000614925601883613c4f565b9150614930826148ef565b602082019050919050565b6000602082019050818103600083015261495481614918565b9050919050565b7f4552433732313a2061646472657373207a65726f206973206e6f74206120766160008201527f6c6964206f776e65720000000000000000000000000000000000000000000000602082015250565b60006149b7602983613c4f565b91506149c28261495b565b604082019050919050565b600060208201905081810360008301526149e6816149aa565b9050919050565b6000606082019050614a026000830186613d11565b614a0f6020830185613d11565b614a1c6040830184613efc565b949350505050565b600081519050614a3381613f53565b92915050565b600060208284031215614a4f57614a4e6139b4565b5b6000614a5d84828501614a24565b91505092915050565b7f4552433230207472616e73666572206661696c65642e00000000000000000000600082015250565b6000614a9c601683613c4f565b9150614aa782614a66565b602082019050919050565b60006020820190508181036000830152614acb81614a8f565b9050919050565b7f596f752063616e27742077697468647261770000000000000000000000000000600082015250565b6000614b08601283613c4f565b9150614b1382614ad2565b602082019050919050565b60006020820190508181036000830152614b3781614afb565b9050919050565b7f556e61626c6520746f2074616e7366657220746f20706f6f6c41646472657373600082015250565b6000614b74602083613c4f565b9150614b7f82614b3e565b602082019050919050565b60006020820190508181036000830152614ba381614b67565b9050919050565b7f4e487b7100000000000000000000000000000000000000000000000000000000600052601160045260246000fd5b6000614be482613a79565b9150614bef83613a79565b925082821015614c0257614c01614baa565b5b828203905092915050565b600081905092915050565b6000614c2382613c44565b614c2d8185614c0d565b9350614c3d818560208601613c60565b80840191505092915050565b6000614c558285614c18565b9150614c618284614c18565b91508190509392505050565b6000604082019050614c826000830185613d11565b614c8f6020830184613efc565b9392505050565b7f756e61626c6520746f207472616e7366657220746f2072656365697665720000600082015250565b6000614ccc601e83613c4f565b9150614cd782614c96565b602082019050919050565b60006020820190508181036000830152614cfb81614cbf565b9050919050565b6000614d0d82613a79565b9150614d1883613a79565b9250827fffffffffffffffffffffffffffffffffffffffffffffffffffffffffffffffff03821115614d4d57614d4c614baa565b5b828201905092915050565b7f596f752063616e2774206d696e74207769746820302061646472657373000000600082015250565b6000614d8e601d83613c4f565b9150614d9982614d58565b602082019050919050565b60006020820190508181036000830152614dbd81614d81565b9050919050565b7f5265656e7472616e637947756172643a207265656e7472616e742063616c6c00600082015250565b6000614dfa601f83613c4f565b9150614e0582614dc4565b602082019050919050565b60006020820190508181036000830152614e2981614ded565b9050919050565b7f63616e6e6f742073656e6420746f207a65726f20616464726573730000000000600082015250565b6000614e66601b83613c4f565b9150614e7182614e30565b602082019050919050565b60006020820190508181036000830152614e9581614e59565b9050919050565b7f6f6e6c79206f776e65722063616e207472616e73666572000000000000000000600082015250565b6000614ed2601783613c4f565b9150614edd82614e9c565b602082019050919050565b60006020820190508181036000830152614f0181614ec5565b9050919050565b7f4552433732313a207472616e736665722066726f6d20696e636f72726563742060008201527f6f776e6572000000000000000000000000000000000000000000000000000000602082015250565b6000614f64602583613c4f565b9150614f6f82614f08565b604082019050919050565b60006020820190508181036000830152614f9381614f57565b9050919050565b7f4552433732313a207472616e7366657220746f20746865207a65726f2061646460008201527f7265737300000000000000000000000000000000000000000000000000000000602082015250565b6000614ff6602483613c4f565b915061500182614f9a565b604082019050919050565b6000602082019050818103600083015261502581614fe9565b9050919050565b7f4552433732313a20617070726f766520746f2063616c6c657200000000000000600082015250565b6000615062601983613c4f565b915061506d8261502c565b602082019050919050565b6000602082019050818103600083015261509181615055565b9050919050565b7f5f746f6b656e496420646f6573206e6f742065786973742e0000000000000000600082015250565b60006150ce601883613c4f565b91506150d982615098565b602082019050919050565b600060208201905081810360008301526150fd816150c1565b9050919050565b7f41746d6f737420313020726f79616c746965732063616e206265206164646564600082015250565b600061513a602083613c4f565b915061514582615104565b602082019050919050565b600060208201905081810360008301526151698161512d565b9050919050565b7f4e487b7100000000000000000000000000000000000000000000000000000000600052603260045260246000fd5b7f526f79616c747920726563697069656e742073686f756c64206265207072657360008201527f656e740000000000000000000000000000000000000000000000000000000000602082015250565b60006151fb602383613c4f565b91506152068261519f565b604082019050919050565b6000602082019050818103600083015261522a816151ee565b9050919050565b7f526f79616c74792076616c75652073686f756c64206265203e20300000000000600082015250565b6000615267601b83613c4f565b915061527282615231565b602082019050919050565b600060208201905081810360008301526152968161525a565b9050919050565b60006152a882613a79565b91507fffffffffffffffffffffffffffffffffffffffffffffffffffffffffffffffff8214156152db576152da614baa565b5b600182019050919050565b7f53756d206f6620526f79616c74696573203e2031303025000000000000000000600082015250565b600061531c601783613c4f565b9150615327826152e6565b602082019050919050565b6000602082019050818103600083015261534b8161530f565b9050919050565b600081905092915050565b61536681613b28565b82525050565b6000615378838361535d565b60208301905092915050565b61538d81613b49565b82525050565b600061539f8383615384565b60208301905092915050565b6000820160008201516153be848261536c565b93505060208201516153d08482615393565b935050505050565b60006153e483836153ab565b60408301905092915050565b60006153fb82613adc565b6154058185615352565b935061541083613af8565b8060005b8381101561544157815161542888826153d8565b975061543383613bb7565b925050600181019050615414565b5085935050505092915050565b600061545a82846153f0565b915081905092915050565b7f4552433732313a207472616e7366657220746f206e6f6e20455243373231526560008201527f63656976657220696d706c656d656e7465720000000000000000000000000000602082015250565b60006154c1603283613c4f565b91506154cc82615465565b604082019050919050565b600060208201905081810360008301526154f0816154b4565b9050919050565b7f45524337323155524953746f726167653a2055524920736574206f66206e6f6e60008201527f6578697374656e7420746f6b656e000000000000000000000000000000000000602082015250565b6000615553602e83613c4f565b915061555e826154f7565b604082019050919050565b6000602082019050818103600083015261558281615546565b9050919050565b7f4e6f7420656e6f75676820746f6b656e20617661696c61626c6520746f20747260008201527f616e736665722e00000000000000000000000000000000000000000000000000602082015250565b60006155e5602783613c4f565b91506155f082615589565b604082019050919050565b60006020820190508181036000830152615614816155d8565b9050919050565b7f4e487b7100000000000000000000000000000000000000000000000000000000600052603160045260246000fd5b600081519050919050565b600082825260208201905092915050565b60006156718261564a565b61567b8185615655565b935061568b818560208601613c60565b61569481613c93565b840191505092915050565b60006080820190506156b46000830187613d11565b6156c16020830186613d11565b6156ce6040830185613efc565b81810360608301526156e08184615666565b905095945050505050565b6000815190506156fa816139ea565b92915050565b600060208284031215615716576157156139b4565b5b6000615724848285016156eb565b91505092915050565b7f4e487b7100000000000000000000000000000000000000000000000000000000600052601260045260246000fd5b7f4552433732313a206d696e7420746f20746865207a65726f2061646472657373600082015250565b6000615792602083613c4f565b915061579d8261575c565b602082019050919050565b600060208201905081810360008301526157c181615785565b9050919050565b7f4552433732313a20746f6b656e20616c7265616479206d696e74656400000000600082015250565b60006157fe601c83613c4f565b9150615809826157c8565b602082019050919050565b6000602082019050818103600083015261582d816157f1565b905091905056fea2646970667358221220572653312160478eb6df553078a78a1cac99ac6a18bd9c44bd43a975323fbd8264736f6c634300080a0033",
  "linkReferences": {},
  "deployedLinkReferences": {}
}