{
  "_format": "hh-sol-artifact-1",
  "contractName": "piMarket",
  "sourceName": "contracts/piMarket.sol",
  "abi": [
    {
      "inputs": [
        {
          "internalType": "address",
          "name": "_feeAddress",
          "type": "address"
        }
      ],
      "stateMutability": "nonpayable",
      "type": "constructor"
    },
    {
      "anonymous": false,
      "inputs": [
        {
          "indexed": false,
          "internalType": "uint256",
          "name": "price",
          "type": "uint256"
        }
      ],
      "name": "BidExecuted",
      "type": "event"
    },
    {
      "anonymous": false,
      "inputs": [
        {
          "components": [
            {
              "internalType": "uint256",
              "name": "bidId",
              "type": "uint256"
            },
            {
              "internalType": "uint256",
              "name": "saleId",
              "type": "uint256"
            },
            {
              "internalType": "address",
              "name": "sellerAddress",
              "type": "address"
            },
            {
              "internalType": "address",
              "name": "buyerAddress",
              "type": "address"
            },
            {
              "internalType": "uint256",
              "name": "price",
              "type": "uint256"
            },
            {
              "internalType": "bool",
              "name": "withdrawn",
              "type": "bool"
            }
          ],
          "indexed": false,
          "internalType": "struct piMarket.BidOrder",
          "name": "bid",
          "type": "tuple"
        }
      ],
      "name": "BidOrderReturn",
      "type": "event"
    },
    {
      "anonymous": false,
      "inputs": [
        {
          "indexed": true,
          "internalType": "address",
          "name": "from",
          "type": "address"
        },
        {
          "indexed": true,
          "internalType": "address",
          "name": "to",
          "type": "address"
        },
        {
          "indexed": true,
          "internalType": "uint256",
          "name": "swapId",
          "type": "uint256"
        }
      ],
      "name": "SwapProposed",
      "type": "event"
    },
    {
      "anonymous": false,
      "inputs": [
        {
          "components": [
            {
              "internalType": "uint256",
              "name": "saleId",
              "type": "uint256"
            },
            {
              "internalType": "address",
              "name": "tokenContractAddress",
              "type": "address"
            },
            {
              "internalType": "uint256",
              "name": "tokenId",
              "type": "uint256"
            },
            {
              "internalType": "uint256",
              "name": "price",
              "type": "uint256"
            },
            {
              "internalType": "bool",
              "name": "directSale",
              "type": "bool"
            },
            {
              "internalType": "bool",
              "name": "bidSale",
              "type": "bool"
            },
            {
              "internalType": "bool",
              "name": "status",
              "type": "bool"
            },
            {
              "internalType": "uint256",
              "name": "bidStartTime",
              "type": "uint256"
            },
            {
              "internalType": "uint256",
              "name": "bidEndTime",
              "type": "uint256"
            },
            {
              "internalType": "address",
              "name": "currentOwner",
              "type": "address"
            }
          ],
          "indexed": false,
          "internalType": "struct piMarket.TokenMeta",
          "name": "data",
          "type": "tuple"
        },
        {
          "indexed": false,
          "internalType": "uint256",
          "name": "id",
          "type": "uint256"
        }
      ],
      "name": "TokenMetaReturn",
      "type": "event"
    },
    {
      "inputs": [
        {
          "internalType": "uint256",
          "name": "_saleId",
          "type": "uint256"
        }
      ],
      "name": "Bid",
      "outputs": [],
      "stateMutability": "payable",
      "type": "function"
    },
    {
      "inputs": [
        {
          "internalType": "uint256",
          "name": "",
          "type": "uint256"
        },
        {
          "internalType": "uint256",
          "name": "",
          "type": "uint256"
        }
      ],
      "name": "Bids",
      "outputs": [
        {
          "internalType": "uint256",
          "name": "bidId",
          "type": "uint256"
        },
        {
          "internalType": "uint256",
          "name": "saleId",
          "type": "uint256"
        },
        {
          "internalType": "address",
          "name": "sellerAddress",
          "type": "address"
        },
        {
          "internalType": "address",
          "name": "buyerAddress",
          "type": "address"
        },
        {
          "internalType": "uint256",
          "name": "price",
          "type": "uint256"
        },
        {
          "internalType": "bool",
          "name": "withdrawn",
          "type": "bool"
        }
      ],
      "stateMutability": "view",
      "type": "function"
    },
    {
      "inputs": [
        {
          "internalType": "uint256",
          "name": "_saleId",
          "type": "uint256"
        },
        {
          "internalType": "bool",
          "name": "_fromCollection",
          "type": "bool"
        }
      ],
      "name": "BuyNFT",
      "outputs": [],
      "stateMutability": "payable",
      "type": "function"
    },
    {
      "inputs": [
        {
          "internalType": "address",
          "name": "_contractAddress",
          "type": "address"
        },
        {
          "internalType": "uint256",
          "name": "_tokenId",
          "type": "uint256"
        },
        {
          "internalType": "uint256",
          "name": "_price",
          "type": "uint256"
        },
        {
          "internalType": "uint256",
          "name": "_bidTime",
          "type": "uint256"
        }
      ],
      "name": "SellNFT_byBid",
      "outputs": [],
      "stateMutability": "nonpayable",
      "type": "function"
    },
    {
      "inputs": [
        {
          "internalType": "uint256",
          "name": "",
          "type": "uint256"
        }
      ],
      "name": "_swaps",
      "outputs": [
        {
          "internalType": "address",
          "name": "NFTContractAddress",
          "type": "address"
        },
        {
          "internalType": "address",
          "name": "initiator",
          "type": "address"
        },
        {
          "internalType": "uint256",
          "name": "initiatorNftId",
          "type": "uint256"
        },
        {
          "internalType": "address",
          "name": "secondUser",
          "type": "address"
        },
        {
          "internalType": "uint256",
          "name": "secondUserNftId",
          "type": "uint256"
        },
        {
          "internalType": "bool",
          "name": "status",
          "type": "bool"
        }
      ],
      "stateMutability": "view",
      "type": "function"
    },
    {
      "inputs": [
        {
          "internalType": "uint256",
          "name": "",
          "type": "uint256"
        }
      ],
      "name": "_tokenMeta",
      "outputs": [
        {
          "internalType": "uint256",
          "name": "saleId",
          "type": "uint256"
        },
        {
          "internalType": "address",
          "name": "tokenContractAddress",
          "type": "address"
        },
        {
          "internalType": "uint256",
          "name": "tokenId",
          "type": "uint256"
        },
        {
          "internalType": "uint256",
          "name": "price",
          "type": "uint256"
        },
        {
          "internalType": "bool",
          "name": "directSale",
          "type": "bool"
        },
        {
          "internalType": "bool",
          "name": "bidSale",
          "type": "bool"
        },
        {
          "internalType": "bool",
          "name": "status",
          "type": "bool"
        },
        {
          "internalType": "uint256",
          "name": "bidStartTime",
          "type": "uint256"
        },
        {
          "internalType": "uint256",
          "name": "bidEndTime",
          "type": "uint256"
        },
        {
          "internalType": "address",
          "name": "currentOwner",
          "type": "address"
        }
      ],
      "stateMutability": "view",
      "type": "function"
    },
    {
      "inputs": [
        {
          "internalType": "uint256",
          "name": "swapId",
          "type": "uint256"
        }
      ],
      "name": "acceptSwap",
      "outputs": [],
      "stateMutability": "nonpayable",
      "type": "function"
    },
    {
      "inputs": [
        {
          "internalType": "uint256",
          "name": "_saleId",
          "type": "uint256"
        }
      ],
      "name": "cancelSale",
      "outputs": [],
      "stateMutability": "nonpayable",
      "type": "function"
    },
    {
      "inputs": [
        {
          "internalType": "uint256",
          "name": "_swapId",
          "type": "uint256"
        }
      ],
      "name": "cancelSwap",
      "outputs": [],
      "stateMutability": "nonpayable",
      "type": "function"
    },
    {
      "inputs": [
        {
          "internalType": "uint256",
          "name": "_saleId",
          "type": "uint256"
        },
        {
          "internalType": "uint256",
          "name": "_bidOrderID",
          "type": "uint256"
        },
        {
          "internalType": "bool",
          "name": "_fromCollection",
          "type": "bool"
        }
      ],
      "name": "executeBidOrder",
      "outputs": [],
      "stateMutability": "nonpayable",
      "type": "function"
    },
    {
      "inputs": [
        {
          "internalType": "address",
          "name": "_collectionFactoryAddress",
          "type": "address"
        },
        {
          "internalType": "uint256",
          "name": "_collectionId",
          "type": "uint256"
        }
      ],
      "name": "getCollectionRoyalty",
      "outputs": [
        {
          "components": [
            {
              "internalType": "address payable",
              "name": "account",
              "type": "address"
            },
            {
              "internalType": "uint96",
              "name": "value",
              "type": "uint96"
            }
          ],
          "internalType": "struct LibShare.Share[]",
          "name": "",
          "type": "tuple[]"
        }
      ],
      "stateMutability": "view",
      "type": "function"
    },
    {
      "inputs": [
        {
          "internalType": "address",
          "name": "_collectionAddress",
          "type": "address"
        },
        {
          "internalType": "uint256",
          "name": "_tokenId",
          "type": "uint256"
        }
      ],
      "name": "getCollectionValidatorRoyalty",
      "outputs": [
        {
          "components": [
            {
              "internalType": "address payable",
              "name": "account",
              "type": "address"
            },
            {
              "internalType": "uint96",
              "name": "value",
              "type": "uint96"
            }
          ],
          "internalType": "struct LibShare.Share[]",
          "name": "",
          "type": "tuple[]"
        }
      ],
      "stateMutability": "view",
      "type": "function"
    },
    {
      "inputs": [
        {
          "internalType": "address",
          "name": "",
          "type": "address"
        },
        {
          "internalType": "address",
          "name": "",
          "type": "address"
        },
        {
          "internalType": "uint256",
          "name": "",
          "type": "uint256"
        },
        {
          "internalType": "bytes",
          "name": "",
          "type": "bytes"
        }
      ],
      "name": "onERC721Received",
      "outputs": [
        {
          "internalType": "bytes4",
          "name": "",
          "type": "bytes4"
        }
      ],
      "stateMutability": "nonpayable",
      "type": "function"
    },
    {
      "inputs": [
        {
          "internalType": "uint256",
          "name": "swapId",
          "type": "uint256"
        }
      ],
      "name": "rejectSwap",
      "outputs": [],
      "stateMutability": "nonpayable",
      "type": "function"
    },
    {
      "inputs": [
        {
          "internalType": "address",
          "name": "_contractAddress",
          "type": "address"
        },
        {
          "internalType": "uint256",
          "name": "_tokenId",
          "type": "uint256"
        }
      ],
      "name": "retrieveRoyalty",
      "outputs": [
        {
          "components": [
            {
              "internalType": "address payable",
              "name": "account",
              "type": "address"
            },
            {
              "internalType": "uint96",
              "name": "value",
              "type": "uint96"
            }
          ],
          "internalType": "struct LibShare.Share[]",
          "name": "",
          "type": "tuple[]"
        }
      ],
      "stateMutability": "view",
      "type": "function"
    },
    {
      "inputs": [
        {
          "internalType": "address",
          "name": "_contractAddress",
          "type": "address"
        },
        {
          "internalType": "uint256",
          "name": "_tokenId",
          "type": "uint256"
        }
      ],
      "name": "retrieveValidatorRoyalty",
      "outputs": [
        {
          "components": [
            {
              "internalType": "address payable",
              "name": "account",
              "type": "address"
            },
            {
              "internalType": "uint96",
              "name": "value",
              "type": "uint96"
            }
          ],
          "internalType": "struct LibShare.Share[]",
          "name": "",
          "type": "tuple[]"
        }
      ],
      "stateMutability": "view",
      "type": "function"
    },
    {
      "inputs": [
        {
          "internalType": "address",
          "name": "_contractAddress",
          "type": "address"
        },
        {
          "internalType": "uint256",
          "name": "_tokenId",
          "type": "uint256"
        },
        {
          "internalType": "uint256",
          "name": "_price",
          "type": "uint256"
        }
      ],
      "name": "sellNFT",
      "outputs": [],
      "stateMutability": "nonpayable",
      "type": "function"
    },
    {
      "inputs": [
        {
          "internalType": "address",
          "name": "contractAddress",
          "type": "address"
        },
        {
          "internalType": "uint256",
          "name": "token1",
          "type": "uint256"
        },
        {
          "internalType": "uint256",
          "name": "token2",
          "type": "uint256"
        }
      ],
      "name": "swapTokens",
      "outputs": [
        {
          "internalType": "uint256",
          "name": "",
          "type": "uint256"
        }
      ],
      "stateMutability": "nonpayable",
      "type": "function"
    },
    {
      "inputs": [
        {
          "internalType": "uint256",
          "name": "_saleId",
          "type": "uint256"
        },
        {
          "internalType": "uint256",
          "name": "_bidId",
          "type": "uint256"
        }
      ],
      "name": "withdrawBidMoney",
      "outputs": [],
      "stateMutability": "nonpayable",
      "type": "function"
    }
  ],
  "bytecode": "0x60806040523480156200001157600080fd5b506040516200518038038062005180833981810160405281019062000037919062000164565b6001600081905550600073ffffffffffffffffffffffffffffffffffffffff168173ffffffffffffffffffffffffffffffffffffffff161415620000b2576040517f08c379a0000000000000000000000000000000000000000000000000000000008152600401620000a990620001f7565b60405180910390fd5b80600360006101000a81548173ffffffffffffffffffffffffffffffffffffffff021916908373ffffffffffffffffffffffffffffffffffffffff1602179055505062000219565b600080fd5b600073ffffffffffffffffffffffffffffffffffffffff82169050919050565b60006200012c82620000ff565b9050919050565b6200013e816200011f565b81146200014a57600080fd5b50565b6000815190506200015e8162000133565b92915050565b6000602082840312156200017d576200017c620000fa565b5b60006200018d848285016200014d565b91505092915050565b600082825260208201905092915050565b7f46656520616464726573732063616e6e6f74206265207a65726f000000000000600082015250565b6000620001df601a8362000196565b9150620001ec82620001a7565b602082019050919050565b600060208201905081810360008301526200021281620001d0565b9050919050565b614f5780620002296000396000f3fe6080604052600436106101145760003560e01c806396b195b6116100a0578063c073b47211610064578063c073b472146103d7578063ca87ad3014610419578063d04bc3f214610456578063f436682a1461047f578063f779a193146104a857610114565b806396b195b6146102b557806396faba9d146102f2578063a7f323da1461032f578063b6b4e10214610371578063bd94b005146103ae57610114565b806354d6a2b7116100e757806354d6a2b7146101d157806375746bcd146101fa5780637a183e841461021657806386dc814b146102325780638e57ff161461026f57610114565b8063150b7a02146101195780631bf33004146101565780632bc09e771461017f5780632bd87c4f146101a8575b600080fd5b34801561012557600080fd5b50610140600480360381019061013b9190613b11565b6104d1565b60405161014d9190613bcf565b60405180910390f35b34801561016257600080fd5b5061017d60048036038101906101789190613bea565b6104e5565b005b34801561018b57600080fd5b506101a660048036038101906101a19190613c4f565b610805565b005b3480156101b457600080fd5b506101cf60048036038101906101ca9190613ca2565b611129565b005b3480156101dd57600080fd5b506101f860048036038101906101f39190613bea565b61144c565b005b610214600480360381019061020f9190613ce2565b611686565b005b610230600480360381019061022b9190613bea565b611e58565b005b34801561023e57600080fd5b5061025960048036038101906102549190613d22565b6121e3565b6040516102669190613e88565b60405180910390f35b34801561027b57600080fd5b5061029660048036038101906102919190613bea565b61226c565b6040516102ac9a99989796959493929190613ed7565b60405180910390f35b3480156102c157600080fd5b506102dc60048036038101906102d79190613f73565b612327565b6040516102e99190613fc6565b60405180910390f35b3480156102fe57600080fd5b5061031960048036038101906103149190613d22565b612806565b6040516103269190613e88565b60405180910390f35b34801561033b57600080fd5b5061035660048036038101906103519190613ca2565b61288f565b60405161036896959493929190613fe1565b60405180910390f35b34801561037d57600080fd5b5061039860048036038101906103939190613d22565b612935565b6040516103a59190613e88565b60405180910390f35b3480156103ba57600080fd5b506103d560048036038101906103d09190613bea565b6129be565b005b3480156103e357600080fd5b506103fe60048036038101906103f99190613bea565b612c14565b60405161041096959493929190614042565b60405180910390f35b34801561042557600080fd5b50610440600480360381019061043b9190613d22565b612cbd565b60405161044d9190613e88565b60405180910390f35b34801561046257600080fd5b5061047d60048036038101906104789190613bea565b612d46565b005b34801561048b57600080fd5b506104a660048036038101906104a191906140a3565b61300d565b005b3480156104b457600080fd5b506104cf60048036038101906104ca9190613f73565b61340f565b005b600063150b7a0260e01b9050949350505050565b6104ed613807565b6000600660008381526020019081526020016000206040518060c00160405290816000820160009054906101000a900473ffffffffffffffffffffffffffffffffffffffff1673ffffffffffffffffffffffffffffffffffffffff1673ffffffffffffffffffffffffffffffffffffffff1681526020016001820160009054906101000a900473ffffffffffffffffffffffffffffffffffffffff1673ffffffffffffffffffffffffffffffffffffffff1673ffffffffffffffffffffffffffffffffffffffff168152602001600282015481526020016003820160009054906101000a900473ffffffffffffffffffffffffffffffffffffffff1673ffffffffffffffffffffffffffffffffffffffff1673ffffffffffffffffffffffffffffffffffffffff168152602001600482015481526020016005820160009054906101000a900460ff16151515158152505090508060a00151610684576040517f08c379a000000000000000000000000000000000000000000000000000000000815260040161067b90614167565b60405180910390fd5b3373ffffffffffffffffffffffffffffffffffffffff16816060015173ffffffffffffffffffffffffffffffffffffffff16146106f6576040517f08c379a00000000000000000000000000000000000000000000000000000000081526004016106ed906141d3565b60405180910390fd5b60008160a0019015159081151581525050806000015173ffffffffffffffffffffffffffffffffffffffff166342842e0e303384604001516040518463ffffffff1660e01b815260040161074c939291906141f3565b600060405180830381600087803b15801561076657600080fd5b505af115801561077a573d6000803e3d6000fd5b50505050806000015173ffffffffffffffffffffffffffffffffffffffff166342842e0e33836020015184608001516040518463ffffffff1660e01b81526004016107c7939291906141f3565b600060405180830381600087803b1580156107e157600080fd5b505af11580156107f5573d6000803e3d6000fd5b5050505050610802613857565b50565b61080d613807565b60006005600085815260200190815260200160002083815481106108345761083361422a565b5b90600052602060002090600602016040518060c001604052908160008201548152602001600182015481526020016002820160009054906101000a900473ffffffffffffffffffffffffffffffffffffffff1673ffffffffffffffffffffffffffffffffffffffff1673ffffffffffffffffffffffffffffffffffffffff1681526020016003820160009054906101000a900473ffffffffffffffffffffffffffffffffffffffff1673ffffffffffffffffffffffffffffffffffffffff1673ffffffffffffffffffffffffffffffffffffffff168152602001600482015481526020016005820160009054906101000a900460ff16151515158152505090506004600085815260200190815260200160002060070160009054906101000a900473ffffffffffffffffffffffffffffffffffffffff1673ffffffffffffffffffffffffffffffffffffffff163373ffffffffffffffffffffffffffffffffffffffff16146109a257600080fd5b8060a00151156109b157600080fd5b6004600085815260200190815260200160002060040160029054906101000a900460ff166109de57600080fd5b6060808315610a9c57610a3d6004600088815260200190815260200160002060010160009054906101000a900473ffffffffffffffffffffffffffffffffffffffff166004600089815260200190815260200160002060020154612935565b9150610a956004600088815260200190815260200160002060010160009054906101000a900473ffffffffffffffffffffffffffffffffffffffff1660046000898152602001908152602001600020600201546121e3565b9050610b4d565b610af26004600088815260200190815260200160002060010160009054906101000a900473ffffffffffffffffffffffffffffffffffffffff166004600089815260200190815260200160002060020154612806565b9150610b4a6004600088815260200190815260200160002060010160009054906101000a900473ffffffffffffffffffffffffffffffffffffffff166004600089815260200190815260200160002060020154612cbd565b90505b60006004600088815260200190815260200160002060040160026101000a81548160ff021916908315150217905550826080015160046000888152602001908152602001600020600301819055506001600560008881526020019081526020016000208681548110610bc257610bc161422a565b5b906000526020600020906006020160050160006101000a81548160ff0219169083151502179055506004600087815260200190815260200160002060010160009054906101000a900473ffffffffffffffffffffffffffffffffffffffff1673ffffffffffffffffffffffffffffffffffffffff166342842e0e308560600151600460008b8152602001908152602001600020600201546040518463ffffffff1660e01b8152600401610c77939291906141f3565b600060405180830381600087803b158015610c9157600080fd5b505af1158015610ca5573d6000803e3d6000fd5b50505050600083608001519050600060648560800151610cc591906142b7565b905060005b8451811015610e0d5760006127108760800151878481518110610cf057610cef61422a565b5b6020026020010151602001516bffffffffffffffffffffffff16610d1491906142e8565b610d1e91906142b7565b90506000868381518110610d3557610d3461422a565b5b60200260200101516000015173ffffffffffffffffffffffffffffffffffffffff1682604051610d6490614373565b60006040518083038185875af1925050503d8060008114610da1576040519150601f19603f3d011682016040523d82523d6000602084013e610da6565b606091505b5050905080610dea576040517f08c379a0000000000000000000000000000000000000000000000000000000008152600401610de1906143d4565b60405180910390fd5b8185610df691906143f4565b945050508080610e0590614428565b915050610cca565b5060005b8351811015610f545760006127108760800151868481518110610e3757610e3661422a565b5b6020026020010151602001516bffffffffffffffffffffffff16610e5b91906142e8565b610e6591906142b7565b90506000858381518110610e7c57610e7b61422a565b5b60200260200101516000015173ffffffffffffffffffffffffffffffffffffffff1682604051610eab90614373565b60006040518083038185875af1925050503d8060008114610ee8576040519150601f19603f3d011682016040523d82523d6000602084013e610eed565b606091505b5050905080610f31576040517f08c379a0000000000000000000000000000000000000000000000000000000008152600401610f28906143d4565b60405180910390fd5b8185610f3d91906143f4565b945050508080610f4c90614428565b915050610e11565b5060003373ffffffffffffffffffffffffffffffffffffffff168284610f7a91906143f4565b604051610f8690614373565b60006040518083038185875af1925050503d8060008114610fc3576040519150601f19603f3d011682016040523d82523d6000602084013e610fc8565b606091505b505090508061100c576040517f08c379a0000000000000000000000000000000000000000000000000000000008152600401611003906144bd565b60405180910390fd5b6000600360009054906101000a900473ffffffffffffffffffffffffffffffffffffffff1673ffffffffffffffffffffffffffffffffffffffff168360405161105490614373565b60006040518083038185875af1925050503d8060008114611091576040519150601f19603f3d011682016040523d82523d6000602084013e611096565b606091505b50509050806110da576040517f08c379a00000000000000000000000000000000000000000000000000000000081526004016110d190614529565b60405180910390fd5b7fc1a33fc6bb7dd982480f7d209db0c9ee0afb428b5f804be0268c066863032e4c876080015160405161110d9190613fc6565b60405180910390a150505050505050611124613857565b505050565b611131613807565b6004600083815260200190815260200160002060070160009054906101000a900473ffffffffffffffffffffffffffffffffffffffff1673ffffffffffffffffffffffffffffffffffffffff163373ffffffffffffffffffffffffffffffffffffffff1614156111a057600080fd5b60006005600084815260200190815260200160002082815481106111c7576111c661422a565b5b90600052602060002090600602016040518060c001604052908160008201548152602001600182015481526020016002820160009054906101000a900473ffffffffffffffffffffffffffffffffffffffff1673ffffffffffffffffffffffffffffffffffffffff1673ffffffffffffffffffffffffffffffffffffffff1681526020016003820160009054906101000a900473ffffffffffffffffffffffffffffffffffffffff1673ffffffffffffffffffffffffffffffffffffffff1673ffffffffffffffffffffffffffffffffffffffff168152602001600482015481526020016005820160009054906101000a900460ff16151515158152505090508060800151600460008581526020019081526020016000206003015414156112ee57600080fd5b3373ffffffffffffffffffffffffffffffffffffffff16816060015173ffffffffffffffffffffffffffffffffffffffff161461132a57600080fd5b8060a001511561133957600080fd5b60003373ffffffffffffffffffffffffffffffffffffffff16826080015160405161136390614373565b60006040518083038185875af1925050503d80600081146113a0576040519150601f19603f3d011682016040523d82523d6000602084013e6113a5565b606091505b5050905080156114035760016005600086815260200190815260200160002084815481106113d6576113d561422a565b5b906000526020600020906006020160050160006101000a81548160ff02191690831515021790555061143e565b6040517f08c379a000000000000000000000000000000000000000000000000000000000815260040161143590614595565b60405180910390fd5b5050611448613857565b5050565b611454613807565b6006600082815260200190815260200160002060010160009054906101000a900473ffffffffffffffffffffffffffffffffffffffff1673ffffffffffffffffffffffffffffffffffffffff163373ffffffffffffffffffffffffffffffffffffffff16146114f8576040517f08c379a00000000000000000000000000000000000000000000000000000000081526004016114ef90614601565b60405180910390fd5b6006600082815260200190815260200160002060050160009054906101000a900460ff1661155b576040517f08c379a00000000000000000000000000000000000000000000000000000000081526004016115529061466d565b60405180910390fd5b60006006600083815260200190815260200160002060050160006101000a81548160ff0219169083151502179055506006600082815260200190815260200160002060000160009054906101000a900473ffffffffffffffffffffffffffffffffffffffff1673ffffffffffffffffffffffffffffffffffffffff166342842e0e306006600085815260200190815260200160002060010160009054906101000a900473ffffffffffffffffffffffffffffffffffffffff1660066000868152602001908152602001600020600201546040518463ffffffff1660e01b8152600401611649939291906141f3565b600060405180830381600087803b15801561166357600080fd5b505af1158015611677573d6000803e3d6000fd5b50505050611683613857565b50565b61168e613807565b60006004600084815260200190815260200160002060405180610140016040529081600082015481526020016001820160009054906101000a900473ffffffffffffffffffffffffffffffffffffffff1673ffffffffffffffffffffffffffffffffffffffff1673ffffffffffffffffffffffffffffffffffffffff16815260200160028201548152602001600382015481526020016004820160009054906101000a900460ff161515151581526020016004820160019054906101000a900460ff161515151581526020016004820160029054906101000a900460ff1615151515815260200160058201548152602001600682015481526020016007820160009054906101000a900473ffffffffffffffffffffffffffffffffffffffff1673ffffffffffffffffffffffffffffffffffffffff1673ffffffffffffffffffffffffffffffffffffffff168152505090506060808315611816576117fb83602001518460400151612935565b915061180f836020015184604001516121e3565b905061183f565b61182883602001518460400151612806565b915061183c83602001518460400151612cbd565b90505b8260c00151611883576040517f08c379a000000000000000000000000000000000000000000000000000000000815260040161187a906146d9565b60405180910390fd5b600073ffffffffffffffffffffffffffffffffffffffff163373ffffffffffffffffffffffffffffffffffffffff16141580156118f1575082610120015173ffffffffffffffffffffffffffffffffffffffff163373ffffffffffffffffffffffffffffffffffffffff1614155b611930576040517f08c379a000000000000000000000000000000000000000000000000000000000815260040161192790614745565b60405180910390fd5b8260a001511561193f57600080fd5b8260600151341015611986576040517f08c379a000000000000000000000000000000000000000000000000000000000815260040161197d906147b1565b60405180910390fd5b6119a26004600087815260200190815260200160002033613861565b6000349050600034905060006064346119bb91906142b7565b905060005b8551811015611aff576000612710848884815181106119e2576119e161422a565b5b6020026020010151602001516bffffffffffffffffffffffff16611a0691906142e8565b611a1091906142b7565b90506000878381518110611a2757611a2661422a565b5b60200260200101516000015173ffffffffffffffffffffffffffffffffffffffff1682604051611a5690614373565b60006040518083038185875af1925050503d8060008114611a93576040519150601f19603f3d011682016040523d82523d6000602084013e611a98565b606091505b5050905080611adc576040517f08c379a0000000000000000000000000000000000000000000000000000000008152600401611ad39061481d565b60405180910390fd5b8186611ae891906143f4565b955050508080611af790614428565b9150506119c0565b5060005b8451811015611c4257600061271084878481518110611b2557611b2461422a565b5b6020026020010151602001516bffffffffffffffffffffffff16611b4991906142e8565b611b5391906142b7565b90506000868381518110611b6a57611b6961422a565b5b60200260200101516000015173ffffffffffffffffffffffffffffffffffffffff1682604051611b9990614373565b60006040518083038185875af1925050503d8060008114611bd6576040519150601f19603f3d011682016040523d82523d6000602084013e611bdb565b606091505b5050905080611c1f576040517f08c379a0000000000000000000000000000000000000000000000000000000008152600401611c169061481d565b60405180910390fd5b8186611c2b91906143f4565b955050508080611c3a90614428565b915050611b03565b50600086610120015173ffffffffffffffffffffffffffffffffffffffff168285611c6d91906143f4565b604051611c7990614373565b60006040518083038185875af1925050503d8060008114611cb6576040519150601f19603f3d011682016040523d82523d6000602084013e611cbb565b606091505b5050905080611cff576040517f08c379a0000000000000000000000000000000000000000000000000000000008152600401611cf6906144bd565b60405180910390fd5b6000600360009054906101000a900473ffffffffffffffffffffffffffffffffffffffff1673ffffffffffffffffffffffffffffffffffffffff1683604051611d4790614373565b60006040518083038185875af1925050503d8060008114611d84576040519150601f19603f3d011682016040523d82523d6000602084013e611d89565b606091505b5050905080611dcd576040517f08c379a0000000000000000000000000000000000000000000000000000000008152600401611dc490614529565b60405180910390fd5b876020015173ffffffffffffffffffffffffffffffffffffffff166342842e0e30338b604001516040518463ffffffff1660e01b8152600401611e12939291906141f3565b600060405180830381600087803b158015611e2c57600080fd5b505af1158015611e40573d6000803e3d6000fd5b505050505050505050505050611e54613857565b5050565b3373ffffffffffffffffffffffffffffffffffffffff166004600083815260200190815260200160002060070160009054906101000a900473ffffffffffffffffffffffffffffffffffffffff1673ffffffffffffffffffffffffffffffffffffffff161415611ec757600080fd5b6004600082815260200190815260200160002060040160029054906101000a900460ff16611ef457600080fd5b6004600082815260200190815260200160002060040160019054906101000a900460ff16611f2157600080fd5b6004600082815260200190815260200160002060060154421115611f4457600080fd5b34606460046000848152602001908152602001600020600301546005611f6a91906142e8565b611f7491906142b7565b6004600084815260200190815260200160002060030154611f95919061483d565b1115611fd6576040517f08c379a0000000000000000000000000000000000000000000000000000000008152600401611fcd90614905565b60405180910390fd5b60006040518060c00160405280600560008581526020019081526020016000208054905081526020018381526020016004600085815260200190815260200160002060070160009054906101000a900473ffffffffffffffffffffffffffffffffffffffff1673ffffffffffffffffffffffffffffffffffffffff1681526020013373ffffffffffffffffffffffffffffffffffffffff16815260200134815260200160001515815250905060056000838152602001908152602001600020819080600181540180825580915050600190039060005260206000209060060201600090919091909150600082015181600001556020820151816001015560408201518160020160006101000a81548173ffffffffffffffffffffffffffffffffffffffff021916908373ffffffffffffffffffffffffffffffffffffffff16021790555060608201518160030160006101000a81548173ffffffffffffffffffffffffffffffffffffffff021916908373ffffffffffffffffffffffffffffffffffffffff1602179055506080820151816004015560a08201518160050160006101000a81548160ff02191690831515021790555050503460046000848152602001908152602001600020600301819055507f6dfa77b86c3d87864e5b10df6b47557084e5534674ca734ebe53741276ce52d1816040516121d791906149cd565b60405180910390a15050565b60608273ffffffffffffffffffffffffffffffffffffffff166302b42141836040518263ffffffff1660e01b815260040161221e9190613fc6565b600060405180830381865afa15801561223b573d6000803e3d6000fd5b505050506040513d6000823e3d601f19601f820116820180604052508101906122649190614b5d565b905092915050565b60046020528060005260406000206000915090508060000154908060010160009054906101000a900473ffffffffffffffffffffffffffffffffffffffff16908060020154908060030154908060040160009054906101000a900460ff16908060040160019054906101000a900460ff16908060040160029054906101000a900460ff16908060050154908060060154908060070160009054906101000a900473ffffffffffffffffffffffffffffffffffffffff1690508a565b600083838173ffffffffffffffffffffffffffffffffffffffff16636352211e826040518263ffffffff1660e01b81526004016123649190613fc6565b602060405180830381865afa158015612381573d6000803e3d6000fd5b505050506040513d601f19601f820116820180604052508101906123a59190614bbb565b73ffffffffffffffffffffffffffffffffffffffff163373ffffffffffffffffffffffffffffffffffffffff1614612412576040517f08c379a000000000000000000000000000000000000000000000000000000000815260040161240990614c34565b60405180910390fd5b61241a613807565b600073ffffffffffffffffffffffffffffffffffffffff168673ffffffffffffffffffffffffffffffffffffffff16141561248a576040517f08c379a000000000000000000000000000000000000000000000000000000000815260040161248190614cc6565b60405180910390fd5b60008673ffffffffffffffffffffffffffffffffffffffff16636352211e866040518263ffffffff1660e01b81526004016124c59190613fc6565b602060405180830381865afa1580156124e2573d6000803e3d6000fd5b505050506040513d601f19601f820116820180604052508101906125069190614bbb565b90503373ffffffffffffffffffffffffffffffffffffffff168173ffffffffffffffffffffffffffffffffffffffff161415612577576040517f08c379a000000000000000000000000000000000000000000000000000000000815260040161256e90614d32565b60405180910390fd5b600061258360026138ff565b90508773ffffffffffffffffffffffffffffffffffffffff166342842e0e33308a6040518463ffffffff1660e01b81526004016125c2939291906141f3565b600060405180830381600087803b1580156125dc57600080fd5b505af11580156125f0573d6000803e3d6000fd5b5050505060006040518060c001604052808a73ffffffffffffffffffffffffffffffffffffffff1681526020013373ffffffffffffffffffffffffffffffffffffffff1681526020018981526020018473ffffffffffffffffffffffffffffffffffffffff168152602001888152602001600115158152509050806006600084815260200190815260200160002060008201518160000160006101000a81548173ffffffffffffffffffffffffffffffffffffffff021916908373ffffffffffffffffffffffffffffffffffffffff16021790555060208201518160010160006101000a81548173ffffffffffffffffffffffffffffffffffffffff021916908373ffffffffffffffffffffffffffffffffffffffff1602179055506040820151816002015560608201518160030160006101000a81548173ffffffffffffffffffffffffffffffffffffffff021916908373ffffffffffffffffffffffffffffffffffffffff1602179055506080820151816004015560a08201518160050160006101000a81548160ff021916908315150217905550905050612794600261390d565b818373ffffffffffffffffffffffffffffffffffffffff163373ffffffffffffffffffffffffffffffffffffffff167fffd321d9ac6e5d361fa3cfa4ee752259774415efa4ac8d50669dce82c183b8eb60405160405180910390a48195505050506127fd613857565b50509392505050565b60608273ffffffffffffffffffffffffffffffffffffffff1663bb3bafd6836040518263ffffffff1660e01b81526004016128419190613fc6565b600060405180830381865afa15801561285e573d6000803e3d6000fd5b505050506040513d6000823e3d601f19601f820116820180604052508101906128879190614b5d565b905092915050565b600560205281600052604060002081815481106128ab57600080fd5b9060005260206000209060060201600091509150508060000154908060010154908060020160009054906101000a900473ffffffffffffffffffffffffffffffffffffffff16908060030160009054906101000a900473ffffffffffffffffffffffffffffffffffffffff16908060040154908060050160009054906101000a900460ff16905086565b60608273ffffffffffffffffffffffffffffffffffffffff1663e1e9fce8836040518263ffffffff1660e01b81526004016129709190613fc6565b600060405180830381865afa15801561298d573d6000803e3d6000fd5b505050506040513d6000823e3d601f19601f820116820180604052508101906129b69190614b5d565b905092915050565b6129c6613807565b6004600082815260200190815260200160002060070160009054906101000a900473ffffffffffffffffffffffffffffffffffffffff1673ffffffffffffffffffffffffffffffffffffffff163373ffffffffffffffffffffffffffffffffffffffff1614612a6a576040517f08c379a0000000000000000000000000000000000000000000000000000000008152600401612a6190614601565b60405180910390fd5b6004600082815260200190815260200160002060040160029054906101000a900460ff16612acd576040517f08c379a0000000000000000000000000000000000000000000000000000000008152600401612ac490614d9e565b60405180910390fd5b6000600460008381526020019081526020016000206003018190555060006004600083815260200190815260200160002060040160026101000a81548160ff0219169083151502179055506004600082815260200190815260200160002060010160009054906101000a900473ffffffffffffffffffffffffffffffffffffffff1673ffffffffffffffffffffffffffffffffffffffff166342842e0e306004600085815260200190815260200160002060070160009054906101000a900473ffffffffffffffffffffffffffffffffffffffff1660046000868152602001908152602001600020600201546040518463ffffffff1660e01b8152600401612bd7939291906141f3565b600060405180830381600087803b158015612bf157600080fd5b505af1158015612c05573d6000803e3d6000fd5b50505050612c11613857565b50565b60066020528060005260406000206000915090508060000160009054906101000a900473ffffffffffffffffffffffffffffffffffffffff16908060010160009054906101000a900473ffffffffffffffffffffffffffffffffffffffff16908060020154908060030160009054906101000a900473ffffffffffffffffffffffffffffffffffffffff16908060040154908060050160009054906101000a900460ff16905086565b60608273ffffffffffffffffffffffffffffffffffffffff166302b42141836040518263ffffffff1660e01b8152600401612cf89190613fc6565b600060405180830381865afa158015612d15573d6000803e3d6000fd5b505050506040513d6000823e3d601f19601f82011682018060405250810190612d3e9190614b5d565b905092915050565b612d4e613807565b6000600660008381526020019081526020016000206040518060c00160405290816000820160009054906101000a900473ffffffffffffffffffffffffffffffffffffffff1673ffffffffffffffffffffffffffffffffffffffff1673ffffffffffffffffffffffffffffffffffffffff1681526020016001820160009054906101000a900473ffffffffffffffffffffffffffffffffffffffff1673ffffffffffffffffffffffffffffffffffffffff1673ffffffffffffffffffffffffffffffffffffffff168152602001600282015481526020016003820160009054906101000a900473ffffffffffffffffffffffffffffffffffffffff1673ffffffffffffffffffffffffffffffffffffffff1673ffffffffffffffffffffffffffffffffffffffff168152602001600482015481526020016005820160009054906101000a900460ff16151515158152505090508060a00151612ee5576040517f08c379a0000000000000000000000000000000000000000000000000000000008152600401612edc90614167565b60405180910390fd5b3373ffffffffffffffffffffffffffffffffffffffff16816060015173ffffffffffffffffffffffffffffffffffffffff1614612f57576040517f08c379a0000000000000000000000000000000000000000000000000000000008152600401612f4e906141d3565b60405180910390fd5b60006006600084815260200190815260200160002060050160006101000a81548160ff021916908315150217905550806000015173ffffffffffffffffffffffffffffffffffffffff166342842e0e30836020015184604001516040518463ffffffff1660e01b8152600401612fcf939291906141f3565b600060405180830381600087803b158015612fe957600080fd5b505af1158015612ffd573d6000803e3d6000fd5b505050505061300a613857565b50565b83838173ffffffffffffffffffffffffffffffffffffffff16636352211e826040518263ffffffff1660e01b81526004016130489190613fc6565b602060405180830381865afa158015613065573d6000803e3d6000fd5b505050506040513d601f19601f820116820180604052508101906130899190614bbb565b73ffffffffffffffffffffffffffffffffffffffff163373ffffffffffffffffffffffffffffffffffffffff16146130f6576040517f08c379a00000000000000000000000000000000000000000000000000000000081526004016130ed90614c34565b60405180910390fd5b6130fe613807565b600073ffffffffffffffffffffffffffffffffffffffff168673ffffffffffffffffffffffffffffffffffffffff16141561316e576040517f08c379a000000000000000000000000000000000000000000000000000000000815260040161316590614cc6565b60405180910390fd5b613178600161390d565b8573ffffffffffffffffffffffffffffffffffffffff166342842e0e3330886040518463ffffffff1660e01b81526004016131b5939291906141f3565b600060405180830381600087803b1580156131cf57600080fd5b505af11580156131e3573d6000803e3d6000fd5b5050505060006040518061014001604052806131ff60016138ff565b81526020018873ffffffffffffffffffffffffffffffffffffffff1681526020018781526020018681526020016000151581526020016001151581526020016001151581526020014281526020018542613259919061483d565b81526020013373ffffffffffffffffffffffffffffffffffffffff168152509050806004600061328960016138ff565b81526020019081526020016000206000820151816000015560208201518160010160006101000a81548173ffffffffffffffffffffffffffffffffffffffff021916908373ffffffffffffffffffffffffffffffffffffffff160217905550604082015181600201556060820151816003015560808201518160040160006101000a81548160ff02191690831515021790555060a08201518160040160016101000a81548160ff02191690831515021790555060c08201518160040160026101000a81548160ff02191690831515021790555060e0820151816005015561010082015181600601556101208201518160070160006101000a81548173ffffffffffffffffffffffffffffffffffffffff021916908373ffffffffffffffffffffffffffffffffffffffff1602179055509050507f2c28b1a4996f07ef4457782603fcee3454f1790eedb957cf72f54c35e12cb0b2816133e860016138ff565b6040516133f6929190614e8a565b60405180910390a150613407613857565b505050505050565b82828173ffffffffffffffffffffffffffffffffffffffff16636352211e826040518263ffffffff1660e01b815260040161344a9190613fc6565b602060405180830381865afa158015613467573d6000803e3d6000fd5b505050506040513d601f19601f8201168201806040525081019061348b9190614bbb565b73ffffffffffffffffffffffffffffffffffffffff163373ffffffffffffffffffffffffffffffffffffffff16146134f8576040517f08c379a00000000000000000000000000000000000000000000000000000000081526004016134ef90614c34565b60405180910390fd5b613500613807565b61350a600161390d565b600073ffffffffffffffffffffffffffffffffffffffff168573ffffffffffffffffffffffffffffffffffffffff16141561357a576040517f08c379a000000000000000000000000000000000000000000000000000000000815260040161357190614cc6565b60405180910390fd5b8473ffffffffffffffffffffffffffffffffffffffff166342842e0e3330876040518463ffffffff1660e01b81526004016135b7939291906141f3565b600060405180830381600087803b1580156135d157600080fd5b505af11580156135e5573d6000803e3d6000fd5b50505050600060405180610140016040528061360160016138ff565b81526020018773ffffffffffffffffffffffffffffffffffffffff16815260200186815260200185815260200160011515815260200160001515815260200160011515815260200160008152602001600081526020013373ffffffffffffffffffffffffffffffffffffffff168152509050806004600061368260016138ff565b81526020019081526020016000206000820151816000015560208201518160010160006101000a81548173ffffffffffffffffffffffffffffffffffffffff021916908373ffffffffffffffffffffffffffffffffffffffff160217905550604082015181600201556060820151816003015560808201518160040160006101000a81548160ff02191690831515021790555060a08201518160040160016101000a81548160ff02191690831515021790555060c08201518160040160026101000a81548160ff02191690831515021790555060e0820151816005015561010082015181600601556101208201518160070160006101000a81548173ffffffffffffffffffffffffffffffffffffffff021916908373ffffffffffffffffffffffffffffffffffffffff1602179055509050507f2c28b1a4996f07ef4457782603fcee3454f1790eedb957cf72f54c35e12cb0b2816137e160016138ff565b6040516137ef929190614e8a565b60405180910390a150613800613857565b5050505050565b6002600054141561384d576040517f08c379a000000000000000000000000000000000000000000000000000000000815260040161384490614f01565b60405180910390fd5b6002600081905550565b6001600081905550565b808260070160006101000a81548173ffffffffffffffffffffffffffffffffffffffff021916908373ffffffffffffffffffffffffffffffffffffffff16021790555060008260040160026101000a81548160ff02191690831515021790555060008260040160006101000a81548160ff02191690831515021790555060008260040160016101000a81548160ff0219169083151502179055505050565b600081600001549050919050565b6001816000016000828254019250508190555050565b6000604051905090565b600080fd5b600080fd5b600073ffffffffffffffffffffffffffffffffffffffff82169050919050565b600061396282613937565b9050919050565b61397281613957565b811461397d57600080fd5b50565b60008135905061398f81613969565b92915050565b6000819050919050565b6139a881613995565b81146139b357600080fd5b50565b6000813590506139c58161399f565b92915050565b600080fd5b600080fd5b6000601f19601f8301169050919050565b7f4e487b7100000000000000000000000000000000000000000000000000000000600052604160045260246000fd5b613a1e826139d5565b810181811067ffffffffffffffff82111715613a3d57613a3c6139e6565b5b80604052505050565b6000613a50613923565b9050613a5c8282613a15565b919050565b600067ffffffffffffffff821115613a7c57613a7b6139e6565b5b613a85826139d5565b9050602081019050919050565b82818337600083830152505050565b6000613ab4613aaf84613a61565b613a46565b905082815260208101848484011115613ad057613acf6139d0565b5b613adb848285613a92565b509392505050565b600082601f830112613af857613af76139cb565b5b8135613b08848260208601613aa1565b91505092915050565b60008060008060808587031215613b2b57613b2a61392d565b5b6000613b3987828801613980565b9450506020613b4a87828801613980565b9350506040613b5b878288016139b6565b925050606085013567ffffffffffffffff811115613b7c57613b7b613932565b5b613b8887828801613ae3565b91505092959194509250565b60007fffffffff0000000000000000000000000000000000000000000000000000000082169050919050565b613bc981613b94565b82525050565b6000602082019050613be46000830184613bc0565b92915050565b600060208284031215613c0057613bff61392d565b5b6000613c0e848285016139b6565b91505092915050565b60008115159050919050565b613c2c81613c17565b8114613c3757600080fd5b50565b600081359050613c4981613c23565b92915050565b600080600060608486031215613c6857613c6761392d565b5b6000613c76868287016139b6565b9350506020613c87868287016139b6565b9250506040613c9886828701613c3a565b9150509250925092565b60008060408385031215613cb957613cb861392d565b5b6000613cc7858286016139b6565b9250506020613cd8858286016139b6565b9150509250929050565b60008060408385031215613cf957613cf861392d565b5b6000613d07858286016139b6565b9250506020613d1885828601613c3a565b9150509250929050565b60008060408385031215613d3957613d3861392d565b5b6000613d4785828601613980565b9250506020613d58858286016139b6565b9150509250929050565b600081519050919050565b600082825260208201905092915050565b6000819050602082019050919050565b6000613d9982613937565b9050919050565b613da981613d8e565b82525050565b60006bffffffffffffffffffffffff82169050919050565b613dd081613daf565b82525050565b604082016000820151613dec6000850182613da0565b506020820151613dff6020850182613dc7565b50505050565b6000613e118383613dd6565b60408301905092915050565b6000602082019050919050565b6000613e3582613d62565b613e3f8185613d6d565b9350613e4a83613d7e565b8060005b83811015613e7b578151613e628882613e05565b9750613e6d83613e1d565b925050600181019050613e4e565b5085935050505092915050565b60006020820190508181036000830152613ea28184613e2a565b905092915050565b613eb381613995565b82525050565b613ec281613957565b82525050565b613ed181613c17565b82525050565b600061014082019050613eed600083018d613eaa565b613efa602083018c613eb9565b613f07604083018b613eaa565b613f14606083018a613eaa565b613f216080830189613ec8565b613f2e60a0830188613ec8565b613f3b60c0830187613ec8565b613f4860e0830186613eaa565b613f56610100830185613eaa565b613f64610120830184613eb9565b9b9a5050505050505050505050565b600080600060608486031215613f8c57613f8b61392d565b5b6000613f9a86828701613980565b9350506020613fab868287016139b6565b9250506040613fbc868287016139b6565b9150509250925092565b6000602082019050613fdb6000830184613eaa565b92915050565b600060c082019050613ff66000830189613eaa565b6140036020830188613eaa565b6140106040830187613eb9565b61401d6060830186613eb9565b61402a6080830185613eaa565b61403760a0830184613ec8565b979650505050505050565b600060c0820190506140576000830189613eb9565b6140646020830188613eb9565b6140716040830187613eaa565b61407e6060830186613eb9565b61408b6080830185613eaa565b61409860a0830184613ec8565b979650505050505050565b600080600080608085870312156140bd576140bc61392d565b5b60006140cb87828801613980565b94505060206140dc878288016139b6565b93505060406140ed878288016139b6565b92505060606140fe878288016139b6565b91505092959194509250565b600082825260208201905092915050565b7f746f6b656e206d757374206265206f6e20737761700000000000000000000000600082015250565b600061415160158361410a565b915061415c8261411b565b602082019050919050565b6000602082019050818103600083015261418081614144565b9050919050565b7f4f6e6c79206f776e65722063616e206163636570742073776170000000000000600082015250565b60006141bd601a8361410a565b91506141c882614187565b602082019050919050565b600060208201905081810360008301526141ec816141b0565b9050919050565b60006060820190506142086000830186613eb9565b6142156020830185613eb9565b6142226040830184613eaa565b949350505050565b7f4e487b7100000000000000000000000000000000000000000000000000000000600052603260045260246000fd5b7f4e487b7100000000000000000000000000000000000000000000000000000000600052601260045260246000fd5b7f4e487b7100000000000000000000000000000000000000000000000000000000600052601160045260246000fd5b60006142c282613995565b91506142cd83613995565b9250826142dd576142dc614259565b5b828204905092915050565b60006142f382613995565b91506142fe83613995565b9250817fffffffffffffffffffffffffffffffffffffffffffffffffffffffffffffffff048311821515161561433757614336614288565b5b828202905092915050565b600081905092915050565b50565b600061435d600083614342565b91506143688261434d565b600082019050919050565b600061437e82614350565b9150819050919050565b7f526f79616c7479207472616e73666572206661696c6564000000000000000000600082015250565b60006143be60178361410a565b91506143c982614388565b602082019050919050565b600060208201905081810360008301526143ed816143b1565b9050919050565b60006143ff82613995565b915061440a83613995565b92508282101561441d5761441c614288565b5b828203905092915050565b600061443382613995565b91507fffffffffffffffffffffffffffffffffffffffffffffffffffffffffffffffff82141561446657614465614288565b5b600182019050919050565b7f5472616e73666572206661696c65640000000000000000000000000000000000600082015250565b60006144a7600f8361410a565b91506144b282614471565b602082019050919050565b600060208201905081810360008301526144d68161449a565b9050919050565b7f466565205472616e73666572206661696c656400000000000000000000000000600082015250565b600061451360138361410a565b915061451e826144dd565b602082019050919050565b6000602082019050818103600083015261454281614506565b9050919050565b7f4e6f204d6f6e6579206c65667421000000000000000000000000000000000000600082015250565b600061457f600e8361410a565b915061458a82614549565b602082019050919050565b600060208201905081810360008301526145ae81614572565b9050919050565b7f4f6e6c79206f776e65722063616e2063616e63656c2073616c65000000000000600082015250565b60006145eb601a8361410a565b91506145f6826145b5565b602082019050919050565b6000602082019050818103600083015261461a816145de565b9050919050565b7f546f6b656e206e6f74206f6e2073776170000000000000000000000000000000600082015250565b600061465760118361410a565b915061466282614621565b602082019050919050565b600060208201905081810360008301526146868161464a565b9050919050565b7f746f6b656e206d757374206265206f6e2073616c650000000000000000000000600082015250565b60006146c360158361410a565b91506146ce8261468d565b602082019050919050565b600060208201905081810360008301526146f2816146b6565b9050919050565b7f696e76616c696420616464726573730000000000000000000000000000000000600082015250565b600061472f600f8361410a565b915061473a826146f9565b602082019050919050565b6000602082019050818103600083015261475e81614722565b9050919050565b7f76616c7565206c657373207468616e2070726963650000000000000000000000600082015250565b600061479b60158361410a565b91506147a682614765565b602082019050919050565b600060208201905081810360008301526147ca8161478e565b9050919050565b7f526f79616c7479205472616e73666572206661696c6564000000000000000000600082015250565b600061480760178361410a565b9150614812826147d1565b602082019050919050565b60006020820190508181036000830152614836816147fa565b9050919050565b600061484882613995565b915061485383613995565b9250827fffffffffffffffffffffffffffffffffffffffffffffffffffffffffffffffff0382111561488857614887614288565b5b828201905092915050565b7f4269642073686f756c64206265206d6f7265207468616e203525206f6620637560008201527f7272656e74206269640000000000000000000000000000000000000000000000602082015250565b60006148ef60298361410a565b91506148fa82614893565b604082019050919050565b6000602082019050818103600083015261491e816148e2565b9050919050565b61492e81613995565b82525050565b61493d81613957565b82525050565b61494c81613c17565b82525050565b60c0820160008201516149686000850182614925565b50602082015161497b6020850182614925565b50604082015161498e6040850182614934565b5060608201516149a16060850182614934565b5060808201516149b46080850182614925565b5060a08201516149c760a0850182614943565b50505050565b600060c0820190506149e26000830184614952565b92915050565b600067ffffffffffffffff821115614a0357614a026139e6565b5b602082029050602081019050919050565b600080fd5b600080fd5b614a2781613d8e565b8114614a3257600080fd5b50565b600081519050614a4481614a1e565b92915050565b614a5381613daf565b8114614a5e57600080fd5b50565b600081519050614a7081614a4a565b92915050565b600060408284031215614a8c57614a8b614a19565b5b614a966040613a46565b90506000614aa684828501614a35565b6000830152506020614aba84828501614a61565b60208301525092915050565b6000614ad9614ad4846149e8565b613a46565b90508083825260208201905060408402830185811115614afc57614afb614a14565b5b835b81811015614b255780614b118882614a76565b845260208401935050604081019050614afe565b5050509392505050565b600082601f830112614b4457614b436139cb565b5b8151614b54848260208601614ac6565b91505092915050565b600060208284031215614b7357614b7261392d565b5b600082015167ffffffffffffffff811115614b9157614b90613932565b5b614b9d84828501614b2f565b91505092915050565b600081519050614bb581613969565b92915050565b600060208284031215614bd157614bd061392d565b5b6000614bdf84828501614ba6565b91505092915050565b7f4f6e6c7920746f6b656e206f776e65722063616e206578656375746500000000600082015250565b6000614c1e601c8361410a565b9150614c2982614be8565b602082019050919050565b60006020820190508181036000830152614c4d81614c11565b9050919050565b7f796f752063616e277420646f20746869732077697468207a65726f206164647260008201527f6573730000000000000000000000000000000000000000000000000000000000602082015250565b6000614cb060238361410a565b9150614cbb82614c54565b604082019050919050565b60006020820190508181036000830152614cdf81614ca3565b9050919050565b7f43616e6e6f742053776170204265747765656e20596f757220546f6b656e7300600082015250565b6000614d1c601f8361410a565b9150614d2782614ce6565b602082019050919050565b60006020820190508181036000830152614d4b81614d0f565b9050919050565b7f546f6b656e206e6f74206f6e2073616c65000000000000000000000000000000600082015250565b6000614d8860118361410a565b9150614d9382614d52565b602082019050919050565b60006020820190508181036000830152614db781614d7b565b9050919050565b61014082016000820151614dd56000850182614925565b506020820151614de86020850182614934565b506040820151614dfb6040850182614925565b506060820151614e0e6060850182614925565b506080820151614e216080850182614943565b5060a0820151614e3460a0850182614943565b5060c0820151614e4760c0850182614943565b5060e0820151614e5a60e0850182614925565b50610100820151614e6f610100850182614925565b50610120820151614e84610120850182614934565b50505050565b600061016082019050614ea06000830185614dbe565b614eae610140830184613eaa565b9392505050565b7f5265656e7472616e637947756172643a207265656e7472616e742063616c6c00600082015250565b6000614eeb601f8361410a565b9150614ef682614eb5565b602082019050919050565b60006020820190508181036000830152614f1a81614ede565b905091905056fea264697066735822122046cdc6c3fea733398401603624dc83acf2f71147d25ef26fc9c2e0e5ac9aeeb064736f6c634300080a0033",
  "linkReferences": {},
  "deployedLinkReferences": {}
}