{
  "_format": "hh-sol-artifact-1",
  "contractName": "Escrow",
  "sourceName": "contracts/Escrow.sol",
  "abi": [
    {
      "anonymous": false,
      "inputs": [
        {
          "indexed": false,
          "internalType": "uint256",
          "name": "",
          "type": "uint256"
        }
      ],
      "name": "Approved",
      "type": "event"
    },
    {
      "anonymous": false,
      "inputs": [
        {
          "indexed": false,
          "internalType": "uint8",
          "name": "version",
          "type": "uint8"
        }
      ],
      "name": "Initialized",
      "type": "event"
    },
    {
      "inputs": [],
      "name": "arbiter",
      "outputs": [
        {
          "internalType": "address",
          "name": "",
          "type": "address"
        }
      ],
      "stateMutability": "view",
      "type": "function"
    },
    {
      "inputs": [],
      "name": "beneficiary",
      "outputs": [
        {
          "internalType": "address payable",
          "name": "",
          "type": "address"
        }
      ],
      "stateMutability": "view",
      "type": "function"
    },
    {
      "inputs": [],
      "name": "depositor",
      "outputs": [
        {
          "internalType": "address",
          "name": "",
          "type": "address"
        }
      ],
      "stateMutability": "view",
      "type": "function"
    },
    {
      "inputs": [
        {
          "internalType": "address",
          "name": "_arbiter",
          "type": "address"
        },
        {
          "internalType": "address payable",
          "name": "_beneficiary",
          "type": "address"
        },
        {
          "internalType": "address",
          "name": "_depositor",
          "type": "address"
        }
      ],
      "name": "initialize",
      "outputs": [],
      "stateMutability": "payable",
      "type": "function"
    },
    {
      "inputs": [],
      "name": "isApproved",
      "outputs": [
        {
          "internalType": "bool",
          "name": "",
          "type": "bool"
        }
      ],
      "stateMutability": "view",
      "type": "function"
    },
    {
      "inputs": [],
      "name": "releaseFunds",
      "outputs": [],
      "stateMutability": "nonpayable",
      "type": "function"
    }
  ],
  "bytecode": "0x608060405234801561001057600080fd5b506107f2806100206000396000f3fe6080604052600436106100555760003560e01c806328f371aa1461005a57806338af3eed1461008557806369d89575146100b0578063c0c53b8b146100c7578063c7c4ff46146100e3578063fe25e00a1461010e575b600080fd5b34801561006657600080fd5b5061006f610139565b60405161007c9190610515565b60405180910390f35b34801561009157600080fd5b5061009a61014c565b6040516100a79190610571565b60405180910390f35b3480156100bc57600080fd5b506100c5610172565b005b6100e160048036038101906100dc91906105fb565b61028f565b005b3480156100ef57600080fd5b506100f861048b565b604051610105919061065d565b60405180910390f35b34801561011a57600080fd5b506101236104b1565b604051610130919061065d565b60405180910390f35b600260149054906101000a900460ff1681565b600160009054906101000a900473ffffffffffffffffffffffffffffffffffffffff1681565b600060029054906101000a900473ffffffffffffffffffffffffffffffffffffffff1673ffffffffffffffffffffffffffffffffffffffff163373ffffffffffffffffffffffffffffffffffffffff16146101cc57600080fd5b6000479050600160009054906101000a900473ffffffffffffffffffffffffffffffffffffffff1673ffffffffffffffffffffffffffffffffffffffff166108fc829081150290604051600060405180830381858888f19350505050158015610239573d6000803e3d6000fd5b507f3ad93af63cb7967b23e4fb500b7d7d28b07516325dcf341f88bebf959d82c1cb816040516102699190610691565b60405180910390a16001600260146101000a81548160ff02191690831515021790555050565b60008060019054906101000a900460ff161590508080156102c05750600160008054906101000a900460ff1660ff16105b806102ed57506102cf306104d7565b1580156102ec5750600160008054906101000a900460ff1660ff16145b5b61032c576040517f08c379a00000000000000000000000000000000000000000000000000000000081526004016103239061072f565b60405180910390fd5b60016000806101000a81548160ff021916908360ff1602179055508015610369576001600060016101000a81548160ff0219169083151502179055505b83600060026101000a81548173ffffffffffffffffffffffffffffffffffffffff021916908373ffffffffffffffffffffffffffffffffffffffff16021790555082600160006101000a81548173ffffffffffffffffffffffffffffffffffffffff021916908373ffffffffffffffffffffffffffffffffffffffff16021790555081600260006101000a81548173ffffffffffffffffffffffffffffffffffffffff021916908373ffffffffffffffffffffffffffffffffffffffff16021790555080156104855760008060016101000a81548160ff0219169083151502179055507f7f26b83ff96e1f2b6a682f133852f6798a09c465da95921460cefb3847402498600160405161047c91906107a1565b60405180910390a15b50505050565b600260009054906101000a900473ffffffffffffffffffffffffffffffffffffffff1681565b600060029054906101000a900473ffffffffffffffffffffffffffffffffffffffff1681565b6000808273ffffffffffffffffffffffffffffffffffffffff163b119050919050565b60008115159050919050565b61050f816104fa565b82525050565b600060208201905061052a6000830184610506565b92915050565b600073ffffffffffffffffffffffffffffffffffffffff82169050919050565b600061055b82610530565b9050919050565b61056b81610550565b82525050565b60006020820190506105866000830184610562565b92915050565b600080fd5b600061059c82610530565b9050919050565b6105ac81610591565b81146105b757600080fd5b50565b6000813590506105c9816105a3565b92915050565b6105d881610550565b81146105e357600080fd5b50565b6000813590506105f5816105cf565b92915050565b6000806000606084860312156106145761061361058c565b5b6000610622868287016105ba565b9350506020610633868287016105e6565b9250506040610644868287016105ba565b9150509250925092565b61065781610591565b82525050565b6000602082019050610672600083018461064e565b92915050565b6000819050919050565b61068b81610678565b82525050565b60006020820190506106a66000830184610682565b92915050565b600082825260208201905092915050565b7f496e697469616c697a61626c653a20636f6e747261637420697320616c72656160008201527f647920696e697469616c697a6564000000000000000000000000000000000000602082015250565b6000610719602e836106ac565b9150610724826106bd565b604082019050919050565b600060208201905081810360008301526107488161070c565b9050919050565b6000819050919050565b600060ff82169050919050565b6000819050919050565b600061078b6107866107818461074f565b610766565b610759565b9050919050565b61079b81610770565b82525050565b60006020820190506107b66000830184610792565b9291505056fea2646970667358221220e9fb0f5892bd55626155f8f3480f8c4ae5152742647be7af52ddf2e47b096cf364736f6c634300080a0033",
  "linkReferences": {},
  "deployedLinkReferences": {}
}