{
  "_format": "hh-sol-artifact-1",
  "contractName": "poolRegistry",
  "sourceName": "contracts/poolRegistry.sol",
  "abi": [
    {
      "inputs": [
        {
          "internalType": "contract AttestationServices",
          "name": "_attestationServices",
          "type": "address"
        },
        {
          "internalType": "address",
          "name": "_AconomyFee",
          "type": "address"
        }
      ],
      "stateMutability": "nonpayable",
      "type": "constructor"
    },
    {
      "anonymous": false,
      "inputs": [
        {
          "indexed": false,
          "internalType": "uint256",
          "name": "poolId",
          "type": "uint256"
        },
        {
          "indexed": false,
          "internalType": "address",
          "name": "borrower",
          "type": "address"
        }
      ],
      "name": "BorrowerAttestation",
      "type": "event"
    },
    {
      "anonymous": false,
      "inputs": [
        {
          "indexed": false,
          "internalType": "uint256",
          "name": "poolId",
          "type": "uint256"
        },
        {
          "indexed": false,
          "internalType": "address",
          "name": "lender",
          "type": "address"
        }
      ],
      "name": "LenderAttestation",
      "type": "event"
    },
    {
      "anonymous": false,
      "inputs": [
        {
          "indexed": false,
          "internalType": "uint256",
          "name": "marketId",
          "type": "uint256"
        },
        {
          "indexed": false,
          "internalType": "uint16",
          "name": "APR",
          "type": "uint16"
        }
      ],
      "name": "SetAPR",
      "type": "event"
    },
    {
      "anonymous": false,
      "inputs": [
        {
          "indexed": false,
          "internalType": "uint256",
          "name": "poolId",
          "type": "uint256"
        },
        {
          "indexed": false,
          "internalType": "uint32",
          "name": "duration",
          "type": "uint32"
        }
      ],
      "name": "SetPaymentCycleDuration",
      "type": "event"
    },
    {
      "anonymous": false,
      "inputs": [
        {
          "indexed": false,
          "internalType": "uint256",
          "name": "poolId",
          "type": "uint256"
        },
        {
          "indexed": false,
          "internalType": "uint32",
          "name": "duration",
          "type": "uint32"
        }
      ],
      "name": "SetPaymentDefaultDuration",
      "type": "event"
    },
    {
      "anonymous": false,
      "inputs": [
        {
          "indexed": false,
          "internalType": "uint256",
          "name": "poolId",
          "type": "uint256"
        },
        {
          "indexed": false,
          "internalType": "uint16",
          "name": "feePct",
          "type": "uint16"
        }
      ],
      "name": "SetPoolFee",
      "type": "event"
    },
    {
      "anonymous": false,
      "inputs": [
        {
          "indexed": false,
          "internalType": "uint256",
          "name": "marketId",
          "type": "uint256"
        },
        {
          "indexed": false,
          "internalType": "string",
          "name": "uri",
          "type": "string"
        }
      ],
      "name": "SetPoolURI",
      "type": "event"
    },
    {
      "anonymous": false,
      "inputs": [
        {
          "indexed": false,
          "internalType": "uint256",
          "name": "poolId",
          "type": "uint256"
        },
        {
          "indexed": false,
          "internalType": "uint32",
          "name": "duration",
          "type": "uint32"
        }
      ],
      "name": "SetloanExpirationTime",
      "type": "event"
    },
    {
      "anonymous": false,
      "inputs": [
        {
          "indexed": false,
          "internalType": "uint256",
          "name": "poolId",
          "type": "uint256"
        }
      ],
      "name": "poolClosed",
      "type": "event"
    },
    {
      "anonymous": false,
      "inputs": [
        {
          "indexed": true,
          "internalType": "address",
          "name": "owner",
          "type": "address"
        },
        {
          "indexed": false,
          "internalType": "address",
          "name": "poolAddress",
          "type": "address"
        },
        {
          "indexed": false,
          "internalType": "uint256",
          "name": "poolId",
          "type": "uint256"
        }
      ],
      "name": "poolCreated",
      "type": "event"
    },
    {
      "inputs": [],
      "name": "AconomyFeeAddress",
      "outputs": [
        {
          "internalType": "address",
          "name": "",
          "type": "address"
        }
      ],
      "stateMutability": "view",
      "type": "function"
    },
    {
      "inputs": [
        {
          "internalType": "uint256",
          "name": "_poolId",
          "type": "uint256"
        }
      ],
      "name": "ClosedPool",
      "outputs": [
        {
          "internalType": "bool",
          "name": "",
          "type": "bool"
        }
      ],
      "stateMutability": "view",
      "type": "function"
    },
    {
      "inputs": [
        {
          "internalType": "uint256",
          "name": "_poolId",
          "type": "uint256"
        },
        {
          "internalType": "address",
          "name": "_borrowerAddress",
          "type": "address"
        },
        {
          "internalType": "uint256",
          "name": "_expirationTime",
          "type": "uint256"
        }
      ],
      "name": "addBorrower",
      "outputs": [],
      "stateMutability": "nonpayable",
      "type": "function"
    },
    {
      "inputs": [
        {
          "internalType": "uint256",
          "name": "_poolId",
          "type": "uint256"
        },
        {
          "internalType": "address",
          "name": "_lenderAddress",
          "type": "address"
        },
        {
          "internalType": "uint256",
          "name": "_expirationTime",
          "type": "uint256"
        }
      ],
      "name": "addLender",
      "outputs": [],
      "stateMutability": "nonpayable",
      "type": "function"
    },
    {
      "inputs": [],
      "name": "attestationService",
      "outputs": [
        {
          "internalType": "contract AttestationServices",
          "name": "",
          "type": "address"
        }
      ],
      "stateMutability": "view",
      "type": "function"
    },
    {
      "inputs": [],
      "name": "borrowerAttestationSchemaId",
      "outputs": [
        {
          "internalType": "bytes32",
          "name": "",
          "type": "bytes32"
        }
      ],
      "stateMutability": "view",
      "type": "function"
    },
    {
      "inputs": [
        {
          "internalType": "uint256",
          "name": "_poolId",
          "type": "uint256"
        },
        {
          "internalType": "address",
          "name": "_borrowerAddress",
          "type": "address"
        }
      ],
      "name": "borrowerVerification",
      "outputs": [
        {
          "internalType": "bool",
          "name": "isVerified_",
          "type": "bool"
        },
        {
          "internalType": "bytes32",
          "name": "uuid_",
          "type": "bytes32"
        }
      ],
      "stateMutability": "view",
      "type": "function"
    },
    {
      "inputs": [
        {
          "internalType": "uint256",
          "name": "_poolId",
          "type": "uint256"
        }
      ],
      "name": "closePool",
      "outputs": [],
      "stateMutability": "nonpayable",
      "type": "function"
    },
    {
      "inputs": [
        {
          "internalType": "uint32",
          "name": "_paymentCycleDuration",
          "type": "uint32"
        },
        {
          "internalType": "uint32",
          "name": "_paymentDefaultDuration",
          "type": "uint32"
        },
        {
          "internalType": "uint32",
          "name": "_loanExpirationTime",
          "type": "uint32"
        },
        {
          "internalType": "uint16",
          "name": "_poolFeePercent",
          "type": "uint16"
        },
        {
          "internalType": "uint16",
          "name": "_apr",
          "type": "uint16"
        },
        {
          "internalType": "string",
          "name": "_uri",
          "type": "string"
        },
        {
          "internalType": "bool",
          "name": "_requireLenderAttestation",
          "type": "bool"
        },
        {
          "internalType": "bool",
          "name": "_requireBorrowerAttestation",
          "type": "bool"
        }
      ],
      "name": "createPool",
      "outputs": [
        {
          "internalType": "uint256",
          "name": "poolId_",
          "type": "uint256"
        }
      ],
      "stateMutability": "nonpayable",
      "type": "function"
    },
    {
      "inputs": [],
      "name": "getAconomyFee",
      "outputs": [
        {
          "internalType": "uint16",
          "name": "",
          "type": "uint16"
        }
      ],
      "stateMutability": "view",
      "type": "function"
    },
    {
      "inputs": [],
      "name": "getAconomyOwner",
      "outputs": [
        {
          "internalType": "address",
          "name": "",
          "type": "address"
        }
      ],
      "stateMutability": "view",
      "type": "function"
    },
    {
      "inputs": [
        {
          "internalType": "uint256",
          "name": "_poolId",
          "type": "uint256"
        }
      ],
      "name": "getPaymentCycleDuration",
      "outputs": [
        {
          "internalType": "uint32",
          "name": "",
          "type": "uint32"
        }
      ],
      "stateMutability": "view",
      "type": "function"
    },
    {
      "inputs": [
        {
          "internalType": "uint256",
          "name": "_poolId",
          "type": "uint256"
        }
      ],
      "name": "getPaymentDefaultDuration",
      "outputs": [
        {
          "internalType": "uint32",
          "name": "",
          "type": "uint32"
        }
      ],
      "stateMutability": "view",
      "type": "function"
    },
    {
      "inputs": [
        {
          "internalType": "uint256",
          "name": "_poolId",
          "type": "uint256"
        }
      ],
      "name": "getPoolAddress",
      "outputs": [
        {
          "internalType": "address",
          "name": "",
          "type": "address"
        }
      ],
      "stateMutability": "view",
      "type": "function"
    },
    {
      "inputs": [
        {
          "internalType": "uint256",
          "name": "_poolId",
          "type": "uint256"
        }
      ],
      "name": "getPoolApr",
      "outputs": [
        {
          "internalType": "uint16",
          "name": "",
          "type": "uint16"
        }
      ],
      "stateMutability": "view",
      "type": "function"
    },
    {
      "inputs": [
        {
          "internalType": "uint256",
          "name": "_poolId",
          "type": "uint256"
        }
      ],
      "name": "getPoolFee",
      "outputs": [
        {
          "internalType": "uint16",
          "name": "fee",
          "type": "uint16"
        }
      ],
      "stateMutability": "view",
      "type": "function"
    },
    {
      "inputs": [
        {
          "internalType": "uint256",
          "name": "_poolId",
          "type": "uint256"
        }
      ],
      "name": "getPoolOwner",
      "outputs": [
        {
          "internalType": "address",
          "name": "",
          "type": "address"
        }
      ],
      "stateMutability": "view",
      "type": "function"
    },
    {
      "inputs": [
        {
          "internalType": "uint256",
          "name": "poolId",
          "type": "uint256"
        }
      ],
      "name": "getloanExpirationTime",
      "outputs": [
        {
          "internalType": "uint32",
          "name": "",
          "type": "uint32"
        }
      ],
      "stateMutability": "view",
      "type": "function"
    },
    {
      "inputs": [],
      "name": "lenderAttestationSchemaId",
      "outputs": [
        {
          "internalType": "bytes32",
          "name": "",
          "type": "bytes32"
        }
      ],
      "stateMutability": "view",
      "type": "function"
    },
    {
      "inputs": [
        {
          "internalType": "uint256",
          "name": "_poolId",
          "type": "uint256"
        },
        {
          "internalType": "address",
          "name": "_lenderAddress",
          "type": "address"
        }
      ],
      "name": "lenderVerification",
      "outputs": [
        {
          "internalType": "bool",
          "name": "isVerified_",
          "type": "bool"
        },
        {
          "internalType": "bytes32",
          "name": "uuid_",
          "type": "bytes32"
        }
      ],
      "stateMutability": "view",
      "type": "function"
    },
    {
      "inputs": [],
      "name": "poolCount",
      "outputs": [
        {
          "internalType": "uint256",
          "name": "",
          "type": "uint256"
        }
      ],
      "stateMutability": "view",
      "type": "function"
    },
    {
      "inputs": [
        {
          "internalType": "uint256",
          "name": "_poolId",
          "type": "uint256"
        },
        {
          "internalType": "uint16",
          "name": "_apr",
          "type": "uint16"
        }
      ],
      "name": "setApr",
      "outputs": [],
      "stateMutability": "nonpayable",
      "type": "function"
    },
    {
      "inputs": [
        {
          "internalType": "uint256",
          "name": "_poolId",
          "type": "uint256"
        },
        {
          "internalType": "uint32",
          "name": "_duration",
          "type": "uint32"
        }
      ],
      "name": "setPaymentCycleDuration",
      "outputs": [],
      "stateMutability": "nonpayable",
      "type": "function"
    },
    {
      "inputs": [
        {
          "internalType": "uint256",
          "name": "_poolId",
          "type": "uint256"
        },
        {
          "internalType": "uint32",
          "name": "_duration",
          "type": "uint32"
        }
      ],
      "name": "setPaymentDefaultDuration",
      "outputs": [],
      "stateMutability": "nonpayable",
      "type": "function"
    },
    {
      "inputs": [
        {
          "internalType": "uint256",
          "name": "_poolId",
          "type": "uint256"
        },
        {
          "internalType": "uint16",
          "name": "_newPercent",
          "type": "uint16"
        }
      ],
      "name": "setPoolFeePercent",
      "outputs": [],
      "stateMutability": "nonpayable",
      "type": "function"
    },
    {
      "inputs": [
        {
          "internalType": "uint256",
          "name": "_poolId",
          "type": "uint256"
        },
        {
          "internalType": "string",
          "name": "_uri",
          "type": "string"
        }
      ],
      "name": "setPoolURI",
      "outputs": [],
      "stateMutability": "nonpayable",
      "type": "function"
    },
    {
      "inputs": [
        {
          "internalType": "uint256",
          "name": "_poolId",
          "type": "uint256"
        },
        {
          "internalType": "uint32",
          "name": "_duration",
          "type": "uint32"
        }
      ],
      "name": "setloanExpirationTime",
      "outputs": [],
      "stateMutability": "nonpayable",
      "type": "function"
    }
  ],
  "bytecode": "0x60806040523480156200001157600080fd5b506040516200316a3803806200316a833981810160405281019062000037919062000364565b600160008190555081600160006101000a81548173ffffffffffffffffffffffffffffffffffffffff021916908373ffffffffffffffffffffffffffffffffffffffff16021790555080600560006101000a81548173ffffffffffffffffffffffffffffffffffffffff021916908373ffffffffffffffffffffffffffffffffffffffff1602179055508173ffffffffffffffffffffffffffffffffffffffff166381fa6cd36040518163ffffffff1660e01b8152600401602060405180830381865afa1580156200010d573d6000803e3d6000fd5b505050506040513d601f19601f82011682018060405250810190620001339190620003f0565b73ffffffffffffffffffffffffffffffffffffffff166382fbdc9c6040518163ffffffff1660e01b81526004016200016b90620004a9565b6020604051808303816000875af11580156200018b573d6000803e3d6000fd5b505050506040513d601f19601f82011682018060405250810190620001b1919062000506565b6002819055508173ffffffffffffffffffffffffffffffffffffffff166381fa6cd36040518163ffffffff1660e01b8152600401602060405180830381865afa15801562000203573d6000803e3d6000fd5b505050506040513d601f19601f82011682018060405250810190620002299190620003f0565b73ffffffffffffffffffffffffffffffffffffffff166382fbdc9c6040518163ffffffff1660e01b81526004016200026190620005ae565b6020604051808303816000875af115801562000281573d6000803e3d6000fd5b505050506040513d601f19601f82011682018060405250810190620002a7919062000506565b6003819055505050620005d0565b600080fd5b600073ffffffffffffffffffffffffffffffffffffffff82169050919050565b6000620002e782620002ba565b9050919050565b6000620002fb82620002da565b9050919050565b6200030d81620002ee565b81146200031957600080fd5b50565b6000815190506200032d8162000302565b92915050565b6200033e81620002da565b81146200034a57600080fd5b50565b6000815190506200035e8162000333565b92915050565b600080604083850312156200037e576200037d620002b5565b5b60006200038e858286016200031c565b9250506020620003a1858286016200034d565b9150509250929050565b6000620003b882620002da565b9050919050565b620003ca81620003ab565b8114620003d657600080fd5b50565b600081519050620003ea81620003bf565b92915050565b600060208284031215620004095762000408620002b5565b5b60006200041984828501620003d9565b91505092915050565b600082825260208201905092915050565b7f2875696e7432353620706f6f6c49642c2061646472657373206c656e6465724160008201527f6464726573732900000000000000000000000000000000000000000000000000602082015250565b60006200049160278362000422565b91506200049e8262000433565b604082019050919050565b60006020820190508181036000830152620004c48162000482565b9050919050565b6000819050919050565b620004e081620004cb565b8114620004ec57600080fd5b50565b6000815190506200050081620004d5565b92915050565b6000602082840312156200051f576200051e620002b5565b5b60006200052f84828501620004ef565b91505092915050565b7f2875696e7432353620706f6f6c49642c206164647265737320626f72726f776560008201527f7241646472657373290000000000000000000000000000000000000000000000602082015250565b60006200059660298362000422565b9150620005a38262000538565b604082019050919050565b60006020820190508181036000830152620005c98162000587565b9050919050565b612b8a80620005e06000396000f3fe608060405234801561001057600080fd5b50600436106101a85760003560e01c8063a8380df1116100f9578063e18bdb8311610097578063f32db0ec11610071578063f32db0ec14610505578063f525cb6814610535578063f8795c0314610553578063fa9fe9161461056f576101a8565b8063e18bdb83146104b1578063ecd6ce6e146104cd578063f2e734ba146104e9576101a8565b8063c5de5d6f116100d3578063c5de5d6f14610416578063d404b95714610446578063da5de1a214610462578063dadf422e14610493576101a8565b8063a8380df11461039a578063c28ba8eb146103ca578063c381ff3e146103fa576101a8565b806337de615f11610166578063679700d911610140578063679700d9146102fe5780636e34b4e41461031c578063805deb531461034c578063911347151461037c576101a8565b806337de615f146102945780633c0db788146102b0578063635f1e4d146102ce576101a8565b8062a5ae21146101ad57806311bed5bb146101dd5780632cd047001461020d5780632f1be8f91461022b578063302de10f1461024757806336fdf4f014610278575b600080fd5b6101c760048036038101906101c29190611dea565b61058d565b6040516101d49190611e58565b60405180910390f35b6101f760048036038101906101f29190611dea565b6105cd565b6040516102049190611e92565b60405180910390f35b6102156105fd565b6040516102229190611f0c565b60405180910390f35b61024560048036038101906102409190611f53565b610623565b005b610261600480360381019061025c9190611fbf565b610775565b60405161026f929190612033565b60405180910390f35b610292600480360381019061028d9190612096565b6107dc565b005b6102ae60048036038101906102a99190611dea565b610924565b005b6102b8610a56565b6040516102c591906120d6565b60405180910390f35b6102e860048036038101906102e39190611dea565b610a5c565b6040516102f59190612100565b60405180910390f35b610306610a8a565b60405161031391906120d6565b60405180910390f35b61033660048036038101906103319190611dea565b610a90565b6040516103439190611e58565b60405180910390f35b61036660048036038101906103619190611dea565b610ad0565b6040516103739190611e92565b60405180910390f35b610384610b00565b6040516103919190612100565b60405180910390f35b6103b460048036038101906103af9190611dea565b610b98565b6040516103c1919061211b565b60405180910390f35b6103e460048036038101906103df9190611dea565b610bc2565b6040516103f19190611e92565b60405180910390f35b610414600480360381019061040f9190612136565b610bf2565b005b610430600480360381019061042b919061221a565b610caa565b60405161043d91906122ff565b60405180910390f35b610460600480360381019061045b919061231a565b610ef2565b005b61047c60048036038101906104779190611fbf565b611069565b60405161048a929190612033565b60405180910390f35b61049b6110d0565b6040516104a89190611e58565b60405180910390f35b6104cb60048036038101906104c69190611f53565b6110f6565b005b6104e760048036038101906104e29190611f53565b611248565b005b61050360048036038101906104fe9190612136565b61139a565b005b61051f600480360381019061051a9190611dea565b611452565b60405161052c9190612100565b60405180910390f35b61053d611480565b60405161054a91906122ff565b60405180910390f35b61056d60048036038101906105689190612096565b611486565b005b610577611617565b6040516105849190611e58565b60405180910390f35b60006006600083815260200190815260200160002060000160009054906101000a900473ffffffffffffffffffffffffffffffffffffffff169050919050565b60006006600083815260200190815260200160002060070160049054906101000a900463ffffffff169050919050565b600160009054906101000a900473ffffffffffffffffffffffffffffffffffffffff1681565b813373ffffffffffffffffffffffffffffffffffffffff166006600083815260200190815260200160002060010160009054906101000a900473ffffffffffffffffffffffffffffffffffffffff1673ffffffffffffffffffffffffffffffffffffffff16146106c8576040517f08c379a00000000000000000000000000000000000000000000000000000000081526004016106bf906123d7565b60405180910390fd5b6006600084815260200190815260200160002060070160049054906101000a900463ffffffff1663ffffffff168263ffffffff161461077057816006600085815260200190815260200160002060070160046101000a81548163ffffffff021916908363ffffffff1602179055507f3e49e2efeacab7e8344acd4e7940449bf62039aa3734c34fa6d3525654be810183836040516107679291906123f7565b60405180910390a15b505050565b6000806107d18360066000878152602001908152602001600020600701600c9054906101000a900460ff1660066000888152602001908152602001600020600a01600660008981526020019081526020016000206008016116af565b915091509250929050565b813373ffffffffffffffffffffffffffffffffffffffff166006600083815260200190815260200160002060010160009054906101000a900473ffffffffffffffffffffffffffffffffffffffff1673ffffffffffffffffffffffffffffffffffffffff1614610881576040517f08c379a0000000000000000000000000000000000000000000000000000000008152600401610878906123d7565b60405180910390fd5b6006600084815260200190815260200160002060030160009054906101000a900461ffff1661ffff168261ffff161461091f57816006600085815260200190815260200160002060030160006101000a81548161ffff021916908361ffff1602179055507f8152ec7f9ed82e09b6ee5e8ff40a31e15a21387cd3e66abe901c1c7c754513098383604051610916929190612420565b60405180910390a15b505050565b803373ffffffffffffffffffffffffffffffffffffffff166006600083815260200190815260200160002060010160009054906101000a900473ffffffffffffffffffffffffffffffffffffffff1673ffffffffffffffffffffffffffffffffffffffff16146109c9576040517f08c379a00000000000000000000000000000000000000000000000000000000081526004016109c0906123d7565b60405180910390fd5b6007600083815260200190815260200160002060009054906101000a900460ff16610a525760016007600084815260200190815260200160002060006101000a81548160ff0219169083151502179055507fe2fb6ff747c653a1ea203ce1b388244509c7948f7afcf260b8f4f88bb23b39a282604051610a4991906122ff565b60405180910390a15b5050565b60025481565b60006006600083815260200190815260200160002060030160029054906101000a900461ffff169050919050565b60035481565b60006006600083815260200190815260200160002060010160009054906101000a900473ffffffffffffffffffffffffffffffffffffffff169050919050565b60006006600083815260200190815260200160002060070160009054906101000a900463ffffffff169050919050565b6000600560009054906101000a900473ffffffffffffffffffffffffffffffffffffffff1673ffffffffffffffffffffffffffffffffffffffff1663b0e21e8a6040518163ffffffff1660e01b8152600401602060405180830381865afa158015610b6f573d6000803e3d6000fd5b505050506040513d601f19601f82011682018060405250810190610b93919061245e565b905090565b60006007600083815260200190815260200160002060009054906101000a900460ff169050919050565b60006006600083815260200190815260200160002060070160089054906101000a900463ffffffff169050919050565b823373ffffffffffffffffffffffffffffffffffffffff166006600083815260200190815260200160002060010160009054906101000a900473ffffffffffffffffffffffffffffffffffffffff1673ffffffffffffffffffffffffffffffffffffffff1614610c97576040517f08c379a0000000000000000000000000000000000000000000000000000000008152600401610c8e906123d7565b60405180910390fd5b610ca48484846000611803565b50505050565b6000600860008154610cbb906124ba565b9190508190559050600073__$b5422bcb38fcaf940b7a164323d6eb716b$__63c3ca76ca33306040518363ffffffff1660e01b8152600401610cfe929190612512565b602060405180830381865af4158015610d1b573d6000803e3d6000fd5b505050506040513d601f19601f82011682018060405250810190610d3f9190612550565b9050806006600084815260200190815260200160002060000160006101000a81548173ffffffffffffffffffffffffffffffffffffffff021916908373ffffffffffffffffffffffffffffffffffffffff160217905550336006600084815260200190815260200160002060010160006101000a81548173ffffffffffffffffffffffffffffffffffffffff021916908373ffffffffffffffffffffffffffffffffffffffff160217905550610df582886107dc565b610dff828c611248565b610e09828b610623565b610e138289611486565b610e1d828a6110f6565b610e28828787610ef2565b8315610e5e5760016006600084815260200190815260200160002060030160046101000a81548160ff0219169083151502179055505b8215610e9457600160066000848152602001908152602001600020600701600c6101000a81548160ff0219169083151502179055505b3373ffffffffffffffffffffffffffffffffffffffff167f407eac4ec3d5da6bb83c52c3817e2b7e46268bb1e945cc2494b7c01e06d2beae8284604051610edc92919061257d565b60405180910390a2509998505050505050505050565b823373ffffffffffffffffffffffffffffffffffffffff166006600083815260200190815260200160002060010160009054906101000a900473ffffffffffffffffffffffffffffffffffffffff1673ffffffffffffffffffffffffffffffffffffffff1614610f97576040517f08c379a0000000000000000000000000000000000000000000000000000000008152600401610f8e906123d7565b60405180910390fd5b60066000858152602001908152602001600020600201604051602001610fbd91906126a6565b604051602081830303815290604052805190602001208383604051602001610fe69291906126f1565b6040516020818303038152906040528051906020012014611063578282600660008781526020019081526020016000206002019190611026929190611d07565b507faea0b816063c817d82c498925319d9f08eb53332cf08ca227ea12c38a571462484848460405161105a93929190612748565b60405180910390a15b50505050565b6000806110c5836006600087815260200190815260200160002060030160049054906101000a900460ff1660066000888152602001908152602001600020600601600660008981526020019081526020016000206004016116af565b915091509250929050565b600560009054906101000a900473ffffffffffffffffffffffffffffffffffffffff1681565b813373ffffffffffffffffffffffffffffffffffffffff166006600083815260200190815260200160002060010160009054906101000a900473ffffffffffffffffffffffffffffffffffffffff1673ffffffffffffffffffffffffffffffffffffffff161461119b576040517f08c379a0000000000000000000000000000000000000000000000000000000008152600401611192906123d7565b60405180910390fd5b6006600084815260200190815260200160002060070160089054906101000a900463ffffffff1663ffffffff168263ffffffff161461124357816006600085815260200190815260200160002060070160086101000a81548163ffffffff021916908363ffffffff1602179055507f8f28307b0f89abbef9b86fdb13ddc77894d04547390687daf215b2f1f63a0baa838360405161123a9291906123f7565b60405180910390a15b505050565b813373ffffffffffffffffffffffffffffffffffffffff166006600083815260200190815260200160002060010160009054906101000a900473ffffffffffffffffffffffffffffffffffffffff1673ffffffffffffffffffffffffffffffffffffffff16146112ed576040517f08c379a00000000000000000000000000000000000000000000000000000000081526004016112e4906123d7565b60405180910390fd5b6006600084815260200190815260200160002060070160009054906101000a900463ffffffff1663ffffffff168263ffffffff161461139557816006600085815260200190815260200160002060070160006101000a81548163ffffffff021916908363ffffffff1602179055507fa04499c227e7a6de804e5a57e4b38990792373bd8d73b6c13ab76e4060074843838360405161138c9291906123f7565b60405180910390a15b505050565b823373ffffffffffffffffffffffffffffffffffffffff166006600083815260200190815260200160002060010160009054906101000a900473ffffffffffffffffffffffffffffffffffffffff1673ffffffffffffffffffffffffffffffffffffffff161461143f576040517f08c379a0000000000000000000000000000000000000000000000000000000008152600401611436906123d7565b60405180910390fd5b61144c8484846001611803565b50505050565b60006006600083815260200190815260200160002060030160009054906101000a900461ffff169050919050565b60085481565b813373ffffffffffffffffffffffffffffffffffffffff166006600083815260200190815260200160002060010160009054906101000a900473ffffffffffffffffffffffffffffffffffffffff1673ffffffffffffffffffffffffffffffffffffffff161461152b576040517f08c379a0000000000000000000000000000000000000000000000000000000008152600401611522906123d7565b60405180910390fd5b6127108261ffff161115611574576040517f08c379a000000000000000000000000000000000000000000000000000000000815260040161156b906127c6565b60405180910390fd5b6006600084815260200190815260200160002060030160029054906101000a900461ffff1661ffff168261ffff161461161257816006600085815260200190815260200160002060030160026101000a81548161ffff021916908361ffff1602179055507f24a1eddd3a54f274769832c6e6e16de4e3298679bac8b22e22820be8ef635b598383604051611609929190612420565b60405180910390a15b505050565b6000600560009054906101000a900473ffffffffffffffffffffffffffffffffffffffff1673ffffffffffffffffffffffffffffffffffffffff16634dd9ccb16040518163ffffffff1660e01b8152600401602060405180830381865afa158015611686573d6000803e3d6000fd5b505050506040513d601f19601f820116820180604052508101906116aa9190612550565b905090565b60008084156117f5576116cb86846119b890919063ffffffff16565b80156117ad5750600160009054906101000a900473ffffffffffffffffffffffffffffffffffffffff1673ffffffffffffffffffffffffffffffffffffffff1663e56d679b8560008973ffffffffffffffffffffffffffffffffffffffff1673ffffffffffffffffffffffffffffffffffffffff168152602001908152602001600020546040518263ffffffff1660e01b815260040161176b91906120d6565b602060405180830381865afa158015611788573d6000803e3d6000fd5b505050506040513d601f19601f820116820180604052508101906117ac91906127fb565b5b91508360008773ffffffffffffffffffffffffffffffffffffffff1673ffffffffffffffffffffffffffffffffffffffff1681526020019081526020016000205490506117fa565b600191505b94509492505050565b61180b6119e8565b806118185760035461181c565b6002545b806004819055506006600086815260200190815260200160002060010160009054906101000a900473ffffffffffffffffffffffffffffffffffffffff1673ffffffffffffffffffffffffffffffffffffffff163373ffffffffffffffffffffffffffffffffffffffff16146118c7576040517f08c379a00000000000000000000000000000000000000000000000000000000081526004016118be90612874565b60405180910390fd5b6000600160009054906101000a900473ffffffffffffffffffffffffffffffffffffffff1673ffffffffffffffffffffffffffffffffffffffff16631e892bf386600454878a8a60405160200161191f929190612894565b6040516020818303038152906040526040518563ffffffff1660e01b815260040161194d9493929190612945565b6020604051808303816000875af115801561196c573d6000803e3d6000fd5b505050506040513d601f19601f8201168201806040525081019061199091906129bd565b905061199e86868386611a38565b506000801b600481905550506119b2611c3a565b50505050565b60006119e0836000018373ffffffffffffffffffffffffffffffffffffffff1660001b611c44565b905092915050565b60026000541415611a2e576040517f08c379a0000000000000000000000000000000000000000000000000000000008152600401611a2590612a36565b60405180910390fd5b6002600081905550565b8015611b3b57816006600086815260200190815260200160002060060160008573ffffffffffffffffffffffffffffffffffffffff1673ffffffffffffffffffffffffffffffffffffffff16815260200190815260200160002081905550611abe8360066000878152602001908152602001600020600401611c6790919063ffffffff16565b611afd576040517f08c379a0000000000000000000000000000000000000000000000000000000008152600401611af490612aa2565b60405180910390fd5b7f75675690de0899b0b869d83b44b2d926ac594426b2a0286c478ecdf815cbd33e8484604051611b2e929190612894565b60405180910390a1611c34565b8160066000868152602001908152602001600020600a0160008573ffffffffffffffffffffffffffffffffffffffff1673ffffffffffffffffffffffffffffffffffffffff16815260200190815260200160002081905550611bbb8360066000878152602001908152602001600020600801611c6790919063ffffffff16565b611bfa576040517f08c379a0000000000000000000000000000000000000000000000000000000008152600401611bf190612b34565b60405180910390fd5b7f0c2cfc7e7a16ebee66e77fb314f4bfdb5505e33e77d41c0c60604efc70fd926b8484604051611c2b929190612894565b60405180910390a15b50505050565b6001600081905550565b600080836001016000848152602001908152602001600020541415905092915050565b6000611c8f836000018373ffffffffffffffffffffffffffffffffffffffff1660001b611c97565b905092915050565b6000611ca38383611c44565b611cfc578260000182908060018154018082558091505060019003906000526020600020016000909190919091505582600001805490508360010160008481526020019081526020016000208190555060019050611d01565b600090505b92915050565b828054611d13906125d5565b90600052602060002090601f016020900481019282611d355760008555611d7c565b82601f10611d4e57803560ff1916838001178555611d7c565b82800160010185558215611d7c579182015b82811115611d7b578235825591602001919060010190611d60565b5b509050611d899190611d8d565b5090565b5b80821115611da6576000816000905550600101611d8e565b5090565b600080fd5b600080fd5b6000819050919050565b611dc781611db4565b8114611dd257600080fd5b50565b600081359050611de481611dbe565b92915050565b600060208284031215611e0057611dff611daa565b5b6000611e0e84828501611dd5565b91505092915050565b600073ffffffffffffffffffffffffffffffffffffffff82169050919050565b6000611e4282611e17565b9050919050565b611e5281611e37565b82525050565b6000602082019050611e6d6000830184611e49565b92915050565b600063ffffffff82169050919050565b611e8c81611e73565b82525050565b6000602082019050611ea76000830184611e83565b92915050565b6000819050919050565b6000611ed2611ecd611ec884611e17565b611ead565b611e17565b9050919050565b6000611ee482611eb7565b9050919050565b6000611ef682611ed9565b9050919050565b611f0681611eeb565b82525050565b6000602082019050611f216000830184611efd565b92915050565b611f3081611e73565b8114611f3b57600080fd5b50565b600081359050611f4d81611f27565b92915050565b60008060408385031215611f6a57611f69611daa565b5b6000611f7885828601611dd5565b9250506020611f8985828601611f3e565b9150509250929050565b611f9c81611e37565b8114611fa757600080fd5b50565b600081359050611fb981611f93565b92915050565b60008060408385031215611fd657611fd5611daa565b5b6000611fe485828601611dd5565b9250506020611ff585828601611faa565b9150509250929050565b60008115159050919050565b61201481611fff565b82525050565b6000819050919050565b61202d8161201a565b82525050565b6000604082019050612048600083018561200b565b6120556020830184612024565b9392505050565b600061ffff82169050919050565b6120738161205c565b811461207e57600080fd5b50565b6000813590506120908161206a565b92915050565b600080604083850312156120ad576120ac611daa565b5b60006120bb85828601611dd5565b92505060206120cc85828601612081565b9150509250929050565b60006020820190506120eb6000830184612024565b92915050565b6120fa8161205c565b82525050565b600060208201905061211560008301846120f1565b92915050565b6000602082019050612130600083018461200b565b92915050565b60008060006060848603121561214f5761214e611daa565b5b600061215d86828701611dd5565b935050602061216e86828701611faa565b925050604061217f86828701611dd5565b9150509250925092565b600080fd5b600080fd5b600080fd5b60008083601f8401126121ae576121ad612189565b5b8235905067ffffffffffffffff8111156121cb576121ca61218e565b5b6020830191508360018202830111156121e7576121e6612193565b5b9250929050565b6121f781611fff565b811461220257600080fd5b50565b600081359050612214816121ee565b92915050565b60008060008060008060008060006101008a8c03121561223d5761223c611daa565b5b600061224b8c828d01611f3e565b995050602061225c8c828d01611f3e565b985050604061226d8c828d01611f3e565b975050606061227e8c828d01612081565b965050608061228f8c828d01612081565b95505060a08a013567ffffffffffffffff8111156122b0576122af611daf565b5b6122bc8c828d01612198565b945094505060c06122cf8c828d01612205565b92505060e06122e08c828d01612205565b9150509295985092959850929598565b6122f981611db4565b82525050565b600060208201905061231460008301846122f0565b92915050565b60008060006040848603121561233357612332611daa565b5b600061234186828701611dd5565b935050602084013567ffffffffffffffff81111561236257612361611daf565b5b61236e86828701612198565b92509250509250925092565b600082825260208201905092915050565b7f4e6f7420746865206f776e657200000000000000000000000000000000000000600082015250565b60006123c1600d8361237a565b91506123cc8261238b565b602082019050919050565b600060208201905081810360008301526123f0816123b4565b9050919050565b600060408201905061240c60008301856122f0565b6124196020830184611e83565b9392505050565b600060408201905061243560008301856122f0565b61244260208301846120f1565b9392505050565b6000815190506124588161206a565b92915050565b60006020828403121561247457612473611daa565b5b600061248284828501612449565b91505092915050565b7f4e487b7100000000000000000000000000000000000000000000000000000000600052601160045260246000fd5b60006124c582611db4565b91507fffffffffffffffffffffffffffffffffffffffffffffffffffffffffffffffff8214156124f8576124f761248b565b5b600182019050919050565b61250c81611e37565b82525050565b60006040820190506125276000830185612503565b6125346020830184612503565b9392505050565b60008151905061254a81611f93565b92915050565b60006020828403121561256657612565611daa565b5b60006125748482850161253b565b91505092915050565b60006040820190506125926000830185611e49565b61259f60208301846122f0565b9392505050565b7f4e487b7100000000000000000000000000000000000000000000000000000000600052602260045260246000fd5b600060028204905060018216806125ed57607f821691505b60208210811415612601576126006125a6565b5b50919050565b600081905092915050565b60008190508160005260206000209050919050565b60008154612634816125d5565b61263e8186612607565b94506001821660008114612659576001811461266a5761269d565b60ff1983168652818601935061269d565b61267385612612565b60005b8381101561269557815481890152600182019150602081019050612676565b838801955050505b50505092915050565b60006126b28284612627565b915081905092915050565b82818337600083830152505050565b60006126d88385612607565b93506126e58385846126bd565b82840190509392505050565b60006126fe8284866126cc565b91508190509392505050565b6000601f19601f8301169050919050565b6000612727838561237a565b93506127348385846126bd565b61273d8361270a565b840190509392505050565b600060408201905061275d60008301866122f0565b818103602083015261277081848661271b565b9050949350505050565b7f696e76616c69642070657263656e740000000000000000000000000000000000600082015250565b60006127b0600f8361237a565b91506127bb8261277a565b602082019050919050565b600060208201905081810360008301526127df816127a3565b9050919050565b6000815190506127f5816121ee565b92915050565b60006020828403121561281157612810611daa565b5b600061281f848285016127e6565b91505092915050565b7f4e6f742074686520706f6f6c206f776e65720000000000000000000000000000600082015250565b600061285e60128361237a565b915061286982612828565b602082019050919050565b6000602082019050818103600083015261288d81612851565b9050919050565b60006040820190506128a960008301856122f0565b6128b66020830184611e49565b9392505050565b600081519050919050565b600082825260208201905092915050565b60005b838110156128f75780820151818401526020810190506128dc565b83811115612906576000848401525b50505050565b6000612917826128bd565b61292181856128c8565b93506129318185602086016128d9565b61293a8161270a565b840191505092915050565b600060808201905061295a6000830187611e49565b6129676020830186612024565b61297460408301856122f0565b8181036060830152612986818461290c565b905095945050505050565b61299a8161201a565b81146129a557600080fd5b50565b6000815190506129b781612991565b92915050565b6000602082840312156129d3576129d2611daa565b5b60006129e1848285016129a8565b91505092915050565b7f5265656e7472616e637947756172643a207265656e7472616e742063616c6c00600082015250565b6000612a20601f8361237a565b9150612a2b826129ea565b602082019050919050565b60006020820190508181036000830152612a4f81612a13565b9050919050565b7f616464206c656e64657220746f20706f6f6c6661696c65640000000000000000600082015250565b6000612a8c60188361237a565b9150612a9782612a56565b602082019050919050565b60006020820190508181036000830152612abb81612a7f565b9050919050565b7f61646420626f72726f776572206661696c65642c207665726966696564426f7260008201527f726f77657273466f72506f6f6c2e616464206661696c65640000000000000000602082015250565b6000612b1e60388361237a565b9150612b2982612ac2565b604082019050919050565b60006020820190508181036000830152612b4d81612b11565b905091905056fea26469706673582212202aa1124147df6734815e7b42ea05dea31c856db5196d66d59d75684af500292364736f6c634300080a0033",
  "linkReferences": {
    "contracts/Libraries/LibPool.sol": {
      "LibPool": [
        {
          "length": 20,
          "start": 4775
        }
      ]
    }
  },
  "deployedLinkReferences": {
    "contracts/Libraries/LibPool.sol": {
      "LibPool": [
        {
          "length": 20,
          "start": 3271
        }
      ]
    }
  }
}