{
  "_format": "hh-sol-artifact-1",
  "contractName": "NFTlendingBorrowing",
  "sourceName": "contracts/NFTlendingBorrowing.sol",
  "abi": [
    {
      "inputs": [
        {
          "internalType": "address",
          "name": "_aconomyFee",
          "type": "address"
        }
      ],
      "stateMutability": "nonpayable",
      "type": "constructor"
    },
    {
      "anonymous": false,
      "inputs": [
        {
          "indexed": false,
          "internalType": "uint256",
          "name": "NFTid",
          "type": "uint256"
        },
        {
          "indexed": false,
          "internalType": "uint256",
          "name": "BidId",
          "type": "uint256"
        },
        {
          "indexed": false,
          "internalType": "uint256",
          "name": "Amount",
          "type": "uint256"
        },
        {
          "indexed": false,
          "internalType": "uint256",
          "name": "ProtocolAmount",
          "type": "uint256"
        }
      ],
      "name": "AcceptedBid",
      "type": "event"
    },
    {
      "anonymous": false,
      "inputs": [
        {
          "indexed": false,
          "internalType": "uint256",
          "name": "BidId",
          "type": "uint256"
        },
        {
          "components": [
            {
              "internalType": "uint256",
              "name": "bidId",
              "type": "uint256"
            },
            {
              "internalType": "uint16",
              "name": "percent",
              "type": "uint16"
            },
            {
              "internalType": "uint32",
              "name": "duration",
              "type": "uint32"
            },
            {
              "internalType": "uint256",
              "name": "expiration",
              "type": "uint256"
            },
            {
              "internalType": "address",
              "name": "bidderAddress",
              "type": "address"
            },
            {
              "internalType": "address",
              "name": "ERC20Address",
              "type": "address"
            },
            {
              "internalType": "uint256",
              "name": "Amount",
              "type": "uint256"
            },
            {
              "internalType": "bool",
              "name": "withdrawn",
              "type": "bool"
            },
            {
              "internalType": "bool",
              "name": "bidAccepted",
              "type": "bool"
            }
          ],
          "indexed": false,
          "internalType": "struct NFTlendingBorrowing.BidDetail",
          "name": "data",
          "type": "tuple"
        },
        {
          "indexed": false,
          "internalType": "uint256",
          "name": "NFTid",
          "type": "uint256"
        }
      ],
      "name": "AppliedBid",
      "type": "event"
    },
    {
      "anonymous": false,
      "inputs": [
        {
          "indexed": false,
          "internalType": "uint256",
          "name": "NFTid",
          "type": "uint256"
        },
        {
          "indexed": false,
          "internalType": "uint256",
          "name": "TokenId",
          "type": "uint256"
        },
        {
          "indexed": false,
          "internalType": "address",
          "name": "ContractAddress",
          "type": "address"
        }
      ],
      "name": "NFTlisted",
      "type": "event"
    },
    {
      "anonymous": false,
      "inputs": [
        {
          "indexed": false,
          "internalType": "uint256",
          "name": "NFTid",
          "type": "uint256"
        },
        {
          "indexed": false,
          "internalType": "uint32",
          "name": "Duration",
          "type": "uint32"
        }
      ],
      "name": "SetDuration",
      "type": "event"
    },
    {
      "anonymous": false,
      "inputs": [
        {
          "indexed": false,
          "internalType": "uint256",
          "name": "NFTid",
          "type": "uint256"
        },
        {
          "indexed": false,
          "internalType": "uint256",
          "name": "expectedAmount",
          "type": "uint256"
        }
      ],
      "name": "SetExpectedAmount",
      "type": "event"
    },
    {
      "anonymous": false,
      "inputs": [
        {
          "indexed": false,
          "internalType": "uint256",
          "name": "NFTid",
          "type": "uint256"
        },
        {
          "indexed": false,
          "internalType": "uint256",
          "name": "Expiration",
          "type": "uint256"
        }
      ],
      "name": "SetExpiration",
      "type": "event"
    },
    {
      "anonymous": false,
      "inputs": [
        {
          "indexed": false,
          "internalType": "uint256",
          "name": "NFTid",
          "type": "uint256"
        },
        {
          "indexed": false,
          "internalType": "uint16",
          "name": "Percent",
          "type": "uint16"
        }
      ],
      "name": "SetPercent",
      "type": "event"
    },
    {
      "anonymous": false,
      "inputs": [
        {
          "indexed": false,
          "internalType": "uint256",
          "name": "NFTid",
          "type": "uint256"
        },
        {
          "indexed": false,
          "internalType": "uint256",
          "name": "BidId",
          "type": "uint256"
        },
        {
          "indexed": false,
          "internalType": "uint256",
          "name": "Amount",
          "type": "uint256"
        }
      ],
      "name": "repaid",
      "type": "event"
    },
    {
      "anonymous": false,
      "inputs": [
        {
          "indexed": false,
          "internalType": "uint256",
          "name": "NFTid",
          "type": "uint256"
        },
        {
          "indexed": false,
          "internalType": "uint256",
          "name": "BidId",
          "type": "uint256"
        },
        {
          "indexed": false,
          "internalType": "uint256",
          "name": "Amount",
          "type": "uint256"
        }
      ],
      "name": "withdrawn",
      "type": "event"
    },
    {
      "inputs": [
        {
          "internalType": "uint256",
          "name": "_NFTid",
          "type": "uint256"
        },
        {
          "internalType": "uint256",
          "name": "_bidId",
          "type": "uint256"
        }
      ],
      "name": "AcceptBid",
      "outputs": [],
      "stateMutability": "nonpayable",
      "type": "function"
    },
    {
      "inputs": [
        {
          "internalType": "uint256",
          "name": "_NFTid",
          "type": "uint256"
        },
        {
          "internalType": "uint256",
          "name": "_bidAmount",
          "type": "uint256"
        },
        {
          "internalType": "address",
          "name": "_ERC20Address",
          "type": "address"
        },
        {
          "internalType": "uint16",
          "name": "_percent",
          "type": "uint16"
        },
        {
          "internalType": "uint32",
          "name": "_duration",
          "type": "uint32"
        },
        {
          "internalType": "uint256",
          "name": "_expiration",
          "type": "uint256"
        }
      ],
      "name": "Bid",
      "outputs": [],
      "stateMutability": "nonpayable",
      "type": "function"
    },
    {
      "inputs": [
        {
          "internalType": "uint256",
          "name": "",
          "type": "uint256"
        },
        {
          "internalType": "uint256",
          "name": "",
          "type": "uint256"
        }
      ],
      "name": "Bids",
      "outputs": [
        {
          "internalType": "uint256",
          "name": "bidId",
          "type": "uint256"
        },
        {
          "internalType": "uint16",
          "name": "percent",
          "type": "uint16"
        },
        {
          "internalType": "uint32",
          "name": "duration",
          "type": "uint32"
        },
        {
          "internalType": "uint256",
          "name": "expiration",
          "type": "uint256"
        },
        {
          "internalType": "address",
          "name": "bidderAddress",
          "type": "address"
        },
        {
          "internalType": "address",
          "name": "ERC20Address",
          "type": "address"
        },
        {
          "internalType": "uint256",
          "name": "Amount",
          "type": "uint256"
        },
        {
          "internalType": "bool",
          "name": "withdrawn",
          "type": "bool"
        },
        {
          "internalType": "bool",
          "name": "bidAccepted",
          "type": "bool"
        }
      ],
      "stateMutability": "view",
      "type": "function"
    },
    {
      "inputs": [
        {
          "internalType": "uint256",
          "name": "",
          "type": "uint256"
        }
      ],
      "name": "NFTdetails",
      "outputs": [
        {
          "internalType": "uint256",
          "name": "NFTtokenId",
          "type": "uint256"
        },
        {
          "internalType": "address",
          "name": "tokenIdOwner",
          "type": "address"
        },
        {
          "internalType": "address",
          "name": "contractAddress",
          "type": "address"
        },
        {
          "internalType": "uint32",
          "name": "duration",
          "type": "uint32"
        },
        {
          "internalType": "uint256",
          "name": "expiration",
          "type": "uint256"
        },
        {
          "internalType": "uint256",
          "name": "expectedAmount",
          "type": "uint256"
        },
        {
          "internalType": "uint16",
          "name": "percent",
          "type": "uint16"
        },
        {
          "internalType": "bool",
          "name": "listed",
          "type": "bool"
        },
        {
          "internalType": "bool",
          "name": "bidAccepted",
          "type": "bool"
        },
        {
          "internalType": "bool",
          "name": "repaid",
          "type": "bool"
        }
      ],
      "stateMutability": "view",
      "type": "function"
    },
    {
      "inputs": [],
      "name": "NFTid",
      "outputs": [
        {
          "internalType": "uint256",
          "name": "",
          "type": "uint256"
        }
      ],
      "stateMutability": "view",
      "type": "function"
    },
    {
      "inputs": [
        {
          "internalType": "uint256",
          "name": "_NFTid",
          "type": "uint256"
        },
        {
          "internalType": "uint256",
          "name": "_bidId",
          "type": "uint256"
        }
      ],
      "name": "Repay",
      "outputs": [],
      "stateMutability": "nonpayable",
      "type": "function"
    },
    {
      "inputs": [
        {
          "internalType": "uint256",
          "name": "_tokenId",
          "type": "uint256"
        },
        {
          "internalType": "address",
          "name": "_contractAddress",
          "type": "address"
        },
        {
          "internalType": "uint16",
          "name": "_percent",
          "type": "uint16"
        },
        {
          "internalType": "uint32",
          "name": "_duration",
          "type": "uint32"
        },
        {
          "internalType": "uint256",
          "name": "_expiration",
          "type": "uint256"
        },
        {
          "internalType": "uint256",
          "name": "_expectedAmount",
          "type": "uint256"
        }
      ],
      "name": "listNFTforBorrowing",
      "outputs": [
        {
          "internalType": "uint256",
          "name": "_NFTid",
          "type": "uint256"
        }
      ],
      "stateMutability": "nonpayable",
      "type": "function"
    },
    {
      "inputs": [
        {
          "internalType": "address",
          "name": "",
          "type": "address"
        },
        {
          "internalType": "address",
          "name": "",
          "type": "address"
        },
        {
          "internalType": "uint256",
          "name": "",
          "type": "uint256"
        },
        {
          "internalType": "bytes",
          "name": "",
          "type": "bytes"
        }
      ],
      "name": "onERC721Received",
      "outputs": [
        {
          "internalType": "bytes4",
          "name": "",
          "type": "bytes4"
        }
      ],
      "stateMutability": "nonpayable",
      "type": "function"
    },
    {
      "inputs": [
        {
          "internalType": "uint256",
          "name": "_NFTid",
          "type": "uint256"
        }
      ],
      "name": "removeNFTfromList",
      "outputs": [],
      "stateMutability": "nonpayable",
      "type": "function"
    },
    {
      "inputs": [
        {
          "internalType": "uint256",
          "name": "_NFTid",
          "type": "uint256"
        },
        {
          "internalType": "uint32",
          "name": "_duration",
          "type": "uint32"
        }
      ],
      "name": "setDurationTime",
      "outputs": [],
      "stateMutability": "nonpayable",
      "type": "function"
    },
    {
      "inputs": [
        {
          "internalType": "uint256",
          "name": "_NFTid",
          "type": "uint256"
        },
        {
          "internalType": "uint256",
          "name": "_expectedAmount",
          "type": "uint256"
        }
      ],
      "name": "setExpectedAmount",
      "outputs": [],
      "stateMutability": "nonpayable",
      "type": "function"
    },
    {
      "inputs": [
        {
          "internalType": "uint256",
          "name": "_NFTid",
          "type": "uint256"
        },
        {
          "internalType": "uint256",
          "name": "_expiration",
          "type": "uint256"
        }
      ],
      "name": "setExpirationTime",
      "outputs": [],
      "stateMutability": "nonpayable",
      "type": "function"
    },
    {
      "inputs": [
        {
          "internalType": "uint256",
          "name": "_NFTid",
          "type": "uint256"
        },
        {
          "internalType": "uint16",
          "name": "_percent",
          "type": "uint16"
        }
      ],
      "name": "setPercent",
      "outputs": [],
      "stateMutability": "nonpayable",
      "type": "function"
    },
    {
      "inputs": [
        {
          "internalType": "uint256",
          "name": "_NFTid",
          "type": "uint256"
        },
        {
          "internalType": "uint256",
          "name": "_bidId",
          "type": "uint256"
        }
      ],
      "name": "withdraw",
      "outputs": [],
      "stateMutability": "nonpayable",
      "type": "function"
    }
  ],
  "bytecode": "0x60806040523480156200001157600080fd5b5060405162003b7f38038062003b7f8339818101604052810190620000379190620000f1565b600160008190555080600260006101000a81548173ffffffffffffffffffffffffffffffffffffffff021916908373ffffffffffffffffffffffffffffffffffffffff1602179055505062000123565b600080fd5b600073ffffffffffffffffffffffffffffffffffffffff82169050919050565b6000620000b9826200008c565b9050919050565b620000cb81620000ac565b8114620000d757600080fd5b50565b600081519050620000eb81620000c0565b92915050565b6000602082840312156200010a576200010962000087565b5b60006200011a84828501620000da565b91505092915050565b613a4c80620001336000396000f3fe608060405234801561001057600080fd5b50600436106100ea5760003560e01c80638fe3c5b91161008c578063ac6224ae11610066578063ac6224ae14610268578063db0c81b514610284578063e1617b29146102a0578063e37fc17a146102be576100ea565b80638fe3c5b9146101e4578063a79215a414610200578063a7f323da14610230576100ea565b806331c173e2116100c857806331c173e214610174578063441a3e7014610190578063552544cb146101ac5780637e7e45b1146101c8576100ea565b806302ef3725146100ef578063150b7a021461010b578063236169b01461013b575b600080fd5b61010960048036038101906101049190612542565b6102da565b005b61012560048036038101906101209190612726565b610422565b60405161013291906127e4565b60405180910390f35b610155600480360381019061015091906127ff565b610436565b60405161016b9a99989796959493929190612893565b60405180910390f35b61018e6004803603810190610189919061292f565b61050f565b005b6101aa60048036038101906101a5919061292f565b610d34565b005b6101c660048036038101906101c1919061292f565b611051565b005b6101e260048036038101906101dd919061299b565b61159a565b005b6101fe60048036038101906101f991906129db565b6116ec565b005b61021a60048036038101906102159190612a68565b611ba8565b6040516102279190612af5565b60405180910390f35b61024a6004803603810190610245919061292f565b611f6a565b60405161025f99989796959493929190612b10565b60405180910390f35b610282600480360381019061027d919061292f565b61204d565b005b61029e6004803603810190610299919061292f565b612169565b005b6102a8612296565b6040516102b59190612af5565b60405180910390f35b6102d860048036038101906102d391906127ff565b61229c565b005b813373ffffffffffffffffffffffffffffffffffffffff166003600083815260200190815260200160002060010160009054906101000a900473ffffffffffffffffffffffffffffffffffffffff1673ffffffffffffffffffffffffffffffffffffffff161461037f576040517f08c379a000000000000000000000000000000000000000000000000000000000815260040161037690612bfa565b60405180910390fd5b6003600084815260200190815260200160002060050160009054906101000a900461ffff1661ffff168261ffff161461041d57816003600085815260200190815260200160002060050160006101000a81548161ffff021916908361ffff1602179055507fbd8c24910ec4329f2703b75142fb91d59b244d0219f9e31b0234590da042d5288383604051610414929190612c1a565b60405180910390a15b505050565b600063150b7a0260e01b9050949350505050565b60036020528060005260406000206000915090508060000154908060010160009054906101000a900473ffffffffffffffffffffffffffffffffffffffff16908060020160009054906101000a900473ffffffffffffffffffffffffffffffffffffffff16908060020160149054906101000a900463ffffffff16908060030154908060040154908060050160009054906101000a900461ffff16908060050160029054906101000a900460ff16908060050160039054906101000a900460ff16908060050160049054906101000a900460ff1690508a565b610517612464565b60046000838152602001908152602001600020818154811061053c5761053b612c43565b5b906000526020600020906007020160060160009054906101000a900460ff161561059b576040517f08c379a000000000000000000000000000000000000000000000000000000000815260040161059290612cbe565b60405180910390fd5b6003600083815260200190815260200160002060050160029054906101000a900460ff166105fe576040517f08c379a00000000000000000000000000000000000000000000000000000000081526004016105f590612d2a565b60405180910390fd5b60046000838152602001908152602001600020818154811061062357610622612c43565b5b906000526020600020906007020160060160019054906101000a900460ff1615610682576040517f08c379a000000000000000000000000000000000000000000000000000000000815260040161067990612d96565b60405180910390fd5b3373ffffffffffffffffffffffffffffffffffffffff166003600084815260200190815260200160002060010160009054906101000a900473ffffffffffffffffffffffffffffffffffffffff1673ffffffffffffffffffffffffffffffffffffffff1614610726576040517f08c379a000000000000000000000000000000000000000000000000000000000815260040161071d90612e02565b60405180910390fd5b60016003600084815260200190815260200160002060050160036101000a81548160ff021916908315150217905550600160046000848152602001908152602001600020828154811061077c5761077b612c43565b5b906000526020600020906007020160060160016101000a81548160ff0219169083151502179055506000600260009054906101000a900473ffffffffffffffffffffffffffffffffffffffff1673ffffffffffffffffffffffffffffffffffffffff16634dd9ccb16040518163ffffffff1660e01b8152600401602060405180830381865afa158015610813573d6000803e3d6000fd5b505050506040513d601f19601f820116820180604052508101906108379190612e37565b9050600073__$61c3dbfad47bb5d5260aee114f5f9d6488$__633fb3400360046000878152602001908152602001600020858154811061087a57610879612c43565b5b906000526020600020906007020160050154600260009054906101000a900473ffffffffffffffffffffffffffffffffffffffff1673ffffffffffffffffffffffffffffffffffffffff1663b0e21e8a6040518163ffffffff1660e01b8152600401602060405180830381865afa1580156108f9573d6000803e3d6000fd5b505050506040513d601f19601f8201168201806040525081019061091d9190612e79565b6040518363ffffffff1660e01b815260040161093a929190612ec4565b602060405180830381865af4158015610957573d6000803e3d6000fd5b505050506040513d601f19601f8201168201806040525081019061097b9190612f02565b90506004600085815260200190815260200160002083815481106109a2576109a1612c43565b5b906000526020600020906007020160040160009054906101000a900473ffffffffffffffffffffffffffffffffffffffff1673ffffffffffffffffffffffffffffffffffffffff1663a9059cbb3383600460008981526020019081526020016000208781548110610a1657610a15612c43565b5b906000526020600020906007020160050154610a329190612f5e565b6040518363ffffffff1660e01b8152600401610a4f929190612f92565b6020604051808303816000875af1158015610a6e573d6000803e3d6000fd5b505050506040513d601f19601f82011682018060405250810190610a929190612fe7565b610ad1576040517f08c379a0000000000000000000000000000000000000000000000000000000008152600401610ac890613060565b60405180910390fd5b60008114610bed57600460008581526020019081526020016000208381548110610afe57610afd612c43565b5b906000526020600020906007020160040160009054906101000a900473ffffffffffffffffffffffffffffffffffffffff1673ffffffffffffffffffffffffffffffffffffffff1663a9059cbb83836040518363ffffffff1660e01b8152600401610b6a929190612f92565b6020604051808303816000875af1158015610b89573d6000803e3d6000fd5b505050506040513d601f19601f82011682018060405250810190610bad9190612fe7565b610bec576040517f08c379a0000000000000000000000000000000000000000000000000000000008152600401610be3906130f2565b60405180910390fd5b5b6003600085815260200190815260200160002060020160009054906101000a900473ffffffffffffffffffffffffffffffffffffffff1673ffffffffffffffffffffffffffffffffffffffff166342842e0e333060036000898152602001908152602001600020600001546040518463ffffffff1660e01b8152600401610c7693929190613112565b600060405180830381600087803b158015610c9057600080fd5b505af1158015610ca4573d6000803e3d6000fd5b505050507ff3dcb1470788b6fc611aa31a4b8290ab1bd5e74bf635a268a8a8c76b960b2e04848483600460008981526020019081526020016000208781548110610cf157610cf0612c43565b5b906000526020600020906007020160050154610d0d9190612f5e565b84604051610d1e9493929190613149565b60405180910390a15050610d306124b4565b5050565b610d3c612464565b600460008381526020019081526020016000208181548110610d6157610d60612c43565b5b906000526020600020906007020160060160019054906101000a900460ff1615610dc0576040517f08c379a0000000000000000000000000000000000000000000000000000000008152600401610db7906131da565b60405180910390fd5b3373ffffffffffffffffffffffffffffffffffffffff16600460008481526020019081526020016000208281548110610dfc57610dfb612c43565b5b906000526020600020906007020160030160009054906101000a900473ffffffffffffffffffffffffffffffffffffffff1673ffffffffffffffffffffffffffffffffffffffff1614610e84576040517f08c379a0000000000000000000000000000000000000000000000000000000008152600401610e7b90613246565b60405180910390fd5b600460008381526020019081526020016000208181548110610ea957610ea8612c43565b5b9060005260206000209060070201600201544211610efc576040517f08c379a0000000000000000000000000000000000000000000000000000000008152600401610ef390613246565b60405180910390fd5b600460008381526020019081526020016000208181548110610f2157610f20612c43565b5b906000526020600020906007020160040160009054906101000a900473ffffffffffffffffffffffffffffffffffffffff1673ffffffffffffffffffffffffffffffffffffffff1663a9059cbb33600460008681526020019081526020016000208481548110610f9457610f93612c43565b5b9060005260206000209060070201600501546040518363ffffffff1660e01b8152600401610fc3929190612f92565b6020604051808303816000875af1158015610fe2573d6000803e3d6000fd5b505050506040513d601f19601f820116820180604052508101906110069190612fe7565b611045576040517f08c379a000000000000000000000000000000000000000000000000000000000815260040161103c906132d8565b60405180910390fd5b61104d6124b4565b5050565b611059612464565b6003600083815260200190815260200160002060050160039054906101000a900460ff166110bc576040517f08c379a00000000000000000000000000000000000000000000000000000000081526004016110b390613344565b60405180910390fd5b6003600083815260200190815260200160002060050160029054906101000a900460ff1661111f576040517f08c379a000000000000000000000000000000000000000000000000000000000815260040161111690612d2a565b60405180910390fd5b6003600083815260200190815260200160002060050160049054906101000a900460ff1615611183576040517f08c379a000000000000000000000000000000000000000000000000000000000815260040161117a906133b0565b60405180910390fd5b600073__$61c3dbfad47bb5d5260aee114f5f9d6488$__633fb340036004600086815260200190815260200160002084815481106111c4576111c3612c43565b5b9060005260206000209060070201600501546004600087815260200190815260200160002085815481106111fb576111fa612c43565b5b906000526020600020906007020160010160009054906101000a900461ffff166040518363ffffffff1660e01b8152600401611238929190612ec4565b602060405180830381865af4158015611255573d6000803e3d6000fd5b505050506040513d601f19601f820116820180604052508101906112799190612f02565b90506004600084815260200190815260200160002082815481106112a05761129f612c43565b5b906000526020600020906007020160040160009054906101000a900473ffffffffffffffffffffffffffffffffffffffff1673ffffffffffffffffffffffffffffffffffffffff166323b872dd3360046000878152602001908152602001600020858154811061131357611312612c43565b5b906000526020600020906007020160030160009054906101000a900473ffffffffffffffffffffffffffffffffffffffff168460046000898152602001908152602001600020878154811061136b5761136a612c43565b5b90600052602060002090600702016005015461138791906133d0565b6040518463ffffffff1660e01b81526004016113a593929190613112565b6020604051808303816000875af11580156113c4573d6000803e3d6000fd5b505050506040513d601f19601f820116820180604052508101906113e89190612fe7565b611427576040517f08c379a000000000000000000000000000000000000000000000000000000000815260040161141e90613498565b60405180910390fd5b60016003600085815260200190815260200160002060050160046101000a81548160ff0219169083151502179055506003600084815260200190815260200160002060020160009054906101000a900473ffffffffffffffffffffffffffffffffffffffff1673ffffffffffffffffffffffffffffffffffffffff166342842e0e303360036000888152602001908152602001600020600001546040518463ffffffff1660e01b81526004016114df93929190613112565b600060405180830381600087803b1580156114f957600080fd5b505af115801561150d573d6000803e3d6000fd5b505050507f91a214dd31764aed3c074372e042b1fb2178af7bdee126d40419260825b5c83383838360046000888152602001908152602001600020868154811061155a57611559612c43565b5b90600052602060002090600702016005015461157691906133d0565b604051611585939291906134b8565b60405180910390a1506115966124b4565b5050565b813373ffffffffffffffffffffffffffffffffffffffff166003600083815260200190815260200160002060010160009054906101000a900473ffffffffffffffffffffffffffffffffffffffff1673ffffffffffffffffffffffffffffffffffffffff161461163f576040517f08c379a000000000000000000000000000000000000000000000000000000000815260040161163690612bfa565b60405180910390fd5b6003600084815260200190815260200160002060020160149054906101000a900463ffffffff1663ffffffff168263ffffffff16146116e757816003600085815260200190815260200160002060020160146101000a81548163ffffffff021916908363ffffffff1602179055507f5cb1fa86dfcbe9b8c83d2be63a7939870e0b196236262c40025780baf89474bf83836040516116de9291906134ef565b60405180910390a15b505050565b6116f4612464565b600073ffffffffffffffffffffffffffffffffffffffff168473ffffffffffffffffffffffffffffffffffffffff161415611764576040517f08c379a000000000000000000000000000000000000000000000000000000000815260040161175b9061358a565b60405180910390fd5b60008514156117a8576040517f08c379a000000000000000000000000000000000000000000000000000000000815260040161179f906135f6565b60405180910390fd5b6003600087815260200190815260200160002060050160039054906101000a900460ff161561180c576040517f08c379a000000000000000000000000000000000000000000000000000000000815260040161180390612d96565b60405180910390fd5b6003600087815260200190815260200160002060050160029054906101000a900460ff1661186f576040517f08c379a000000000000000000000000000000000000000000000000000000000815260040161186690613662565b60405180910390fd5b6000604051806101200160405280600460008a81526020019081526020016000208054905081526020018561ffff1681526020018463ffffffff1681526020018381526020013373ffffffffffffffffffffffffffffffffffffffff1681526020018673ffffffffffffffffffffffffffffffffffffffff1681526020018781526020016000151581526020016000151581525090508473ffffffffffffffffffffffffffffffffffffffff166323b872dd3330896040518463ffffffff1660e01b815260040161194293929190613112565b6020604051808303816000875af1158015611961573d6000803e3d6000fd5b505050506040513d601f19601f820116820180604052508101906119859190612fe7565b6119c4576040517f08c379a00000000000000000000000000000000000000000000000000000000081526004016119bb906136ce565b60405180910390fd5b600460008881526020019081526020016000208190806001815401808255809150506001900390600052602060002090600702016000909190919091506000820151816000015560208201518160010160006101000a81548161ffff021916908361ffff16021790555060408201518160010160026101000a81548163ffffffff021916908363ffffffff1602179055506060820151816002015560808201518160030160006101000a81548173ffffffffffffffffffffffffffffffffffffffff021916908373ffffffffffffffffffffffffffffffffffffffff16021790555060a08201518160040160006101000a81548173ffffffffffffffffffffffffffffffffffffffff021916908373ffffffffffffffffffffffffffffffffffffffff16021790555060c0820151816005015560e08201518160060160006101000a81548160ff0219169083151502179055506101008201518160060160016101000a81548160ff02191690831515021790555050507f97dae4b8e8edec409957dc7c8efd3ef2202702229f09725900e3bb27462143736001600460008a815260200190815260200160002080549050611b7e9190612f5e565b8289604051611b8f939291906137f0565b60405180910390a150611ba06124b4565b505050505050565b600085878173ffffffffffffffffffffffffffffffffffffffff16636352211e826040518263ffffffff1660e01b8152600401611be59190612af5565b602060405180830381865afa158015611c02573d6000803e3d6000fd5b505050506040513d601f19601f82011682018060405250810190611c269190612e37565b73ffffffffffffffffffffffffffffffffffffffff163373ffffffffffffffffffffffffffffffffffffffff1614611c93576040517f08c379a0000000000000000000000000000000000000000000000000000000008152600401611c8a90613875565b60405180910390fd5b611c9b612464565b600073ffffffffffffffffffffffffffffffffffffffff168873ffffffffffffffffffffffffffffffffffffffff161415611d0b576040517f08c379a0000000000000000000000000000000000000000000000000000000008152600401611d029061358a565b60405180910390fd5b600160008154611d1a90613895565b919050819055925060006040518061014001604052808b81526020013373ffffffffffffffffffffffffffffffffffffffff1681526020018a73ffffffffffffffffffffffffffffffffffffffff1681526020018863ffffffff1681526020018781526020018681526020018961ffff16815260200160011515815260200160001515815260200160001515815250905080600360008681526020019081526020016000206000820151816000015560208201518160010160006101000a81548173ffffffffffffffffffffffffffffffffffffffff021916908373ffffffffffffffffffffffffffffffffffffffff16021790555060408201518160020160006101000a81548173ffffffffffffffffffffffffffffffffffffffff021916908373ffffffffffffffffffffffffffffffffffffffff16021790555060608201518160020160146101000a81548163ffffffff021916908363ffffffff1602179055506080820151816003015560a0820151816004015560c08201518160050160006101000a81548161ffff021916908361ffff16021790555060e08201518160050160026101000a81548160ff0219169083151502179055506101008201518160050160036101000a81548160ff0219169083151502179055506101208201518160050160046101000a81548160ff0219169083151502179055509050507ff7ba9a1a831f7e899b8bc38b926105e3fa359e7ebca14013b74dc9b855210058848b8b604051611f4d939291906138de565b60405180910390a150611f5e6124b4565b50509695505050505050565b60046020528160005260406000208181548110611f8657600080fd5b9060005260206000209060070201600091509150508060000154908060010160009054906101000a900461ffff16908060010160029054906101000a900463ffffffff16908060020154908060030160009054906101000a900473ffffffffffffffffffffffffffffffffffffffff16908060040160009054906101000a900473ffffffffffffffffffffffffffffffffffffffff16908060050154908060060160009054906101000a900460ff16908060060160019054906101000a900460ff16905089565b813373ffffffffffffffffffffffffffffffffffffffff166003600083815260200190815260200160002060010160009054906101000a900473ffffffffffffffffffffffffffffffffffffffff1673ffffffffffffffffffffffffffffffffffffffff16146120f2576040517f08c379a00000000000000000000000000000000000000000000000000000000081526004016120e990612bfa565b60405180910390fd5b60036000848152602001908152602001600020600401548214612164578160036000858152602001908152602001600020600401819055507f2ed780e168b6e9108e49a266803585063d77176b33f9bd629302abeba90f1d8a838360405161215b929190613915565b60405180910390a15b505050565b813373ffffffffffffffffffffffffffffffffffffffff166003600083815260200190815260200160002060010160009054906101000a900473ffffffffffffffffffffffffffffffffffffffff1673ffffffffffffffffffffffffffffffffffffffff161461220e576040517f08c379a000000000000000000000000000000000000000000000000000000000815260040161220590612bfa565b60405180910390fd5b6000824261221c91906133d0565b905060036000858152602001908152602001600020600301548114612290578060036000868152602001908152602001600020600301819055507fb885b693c4cad2ddc583a4dcd69d45913c8d5d4f01d950182ced00de8c20e13d8482604051612287929190613915565b60405180910390a15b50505050565b60015481565b6003600082815260200190815260200160002060020160009054906101000a900473ffffffffffffffffffffffffffffffffffffffff1673ffffffffffffffffffffffffffffffffffffffff16636352211e60036000848152602001908152602001600020600001546040518263ffffffff1660e01b81526004016123219190612af5565b602060405180830381865afa15801561233e573d6000803e3d6000fd5b505050506040513d601f19601f820116820180604052508101906123629190612e37565b73ffffffffffffffffffffffffffffffffffffffff163373ffffffffffffffffffffffffffffffffffffffff16146123cf576040517f08c379a00000000000000000000000000000000000000000000000000000000081526004016123c690613875565b60405180910390fd5b6003600082815260200190815260200160002060050160029054906101000a900460ff16612432576040517f08c379a00000000000000000000000000000000000000000000000000000000081526004016124299061398a565b60405180910390fd5b60006003600083815260200190815260200160002060050160026101000a81548160ff02191690831515021790555050565b600260005414156124aa576040517f08c379a00000000000000000000000000000000000000000000000000000000081526004016124a1906139f6565b60405180910390fd5b6002600081905550565b6001600081905550565b6000604051905090565b600080fd5b600080fd5b6000819050919050565b6124e5816124d2565b81146124f057600080fd5b50565b600081359050612502816124dc565b92915050565b600061ffff82169050919050565b61251f81612508565b811461252a57600080fd5b50565b60008135905061253c81612516565b92915050565b60008060408385031215612559576125586124c8565b5b6000612567858286016124f3565b92505060206125788582860161252d565b9150509250929050565b600073ffffffffffffffffffffffffffffffffffffffff82169050919050565b60006125ad82612582565b9050919050565b6125bd816125a2565b81146125c857600080fd5b50565b6000813590506125da816125b4565b92915050565b600080fd5b600080fd5b6000601f19601f8301169050919050565b7f4e487b7100000000000000000000000000000000000000000000000000000000600052604160045260246000fd5b612633826125ea565b810181811067ffffffffffffffff82111715612652576126516125fb565b5b80604052505050565b60006126656124be565b9050612671828261262a565b919050565b600067ffffffffffffffff821115612691576126906125fb565b5b61269a826125ea565b9050602081019050919050565b82818337600083830152505050565b60006126c96126c484612676565b61265b565b9050828152602081018484840111156126e5576126e46125e5565b5b6126f08482856126a7565b509392505050565b600082601f83011261270d5761270c6125e0565b5b813561271d8482602086016126b6565b91505092915050565b600080600080608085870312156127405761273f6124c8565b5b600061274e878288016125cb565b945050602061275f878288016125cb565b9350506040612770878288016124f3565b925050606085013567ffffffffffffffff811115612791576127906124cd565b5b61279d878288016126f8565b91505092959194509250565b60007fffffffff0000000000000000000000000000000000000000000000000000000082169050919050565b6127de816127a9565b82525050565b60006020820190506127f960008301846127d5565b92915050565b600060208284031215612815576128146124c8565b5b6000612823848285016124f3565b91505092915050565b612835816124d2565b82525050565b612844816125a2565b82525050565b600063ffffffff82169050919050565b6128638161284a565b82525050565b61287281612508565b82525050565b60008115159050919050565b61288d81612878565b82525050565b6000610140820190506128a9600083018d61282c565b6128b6602083018c61283b565b6128c3604083018b61283b565b6128d0606083018a61285a565b6128dd608083018961282c565b6128ea60a083018861282c565b6128f760c0830187612869565b61290460e0830186612884565b612912610100830185612884565b612920610120830184612884565b9b9a5050505050505050505050565b60008060408385031215612946576129456124c8565b5b6000612954858286016124f3565b9250506020612965858286016124f3565b9150509250929050565b6129788161284a565b811461298357600080fd5b50565b6000813590506129958161296f565b92915050565b600080604083850312156129b2576129b16124c8565b5b60006129c0858286016124f3565b92505060206129d185828601612986565b9150509250929050565b60008060008060008060c087890312156129f8576129f76124c8565b5b6000612a0689828a016124f3565b9650506020612a1789828a016124f3565b9550506040612a2889828a016125cb565b9450506060612a3989828a0161252d565b9350506080612a4a89828a01612986565b92505060a0612a5b89828a016124f3565b9150509295509295509295565b60008060008060008060c08789031215612a8557612a846124c8565b5b6000612a9389828a016124f3565b9650506020612aa489828a016125cb565b9550506040612ab589828a0161252d565b9450506060612ac689828a01612986565b9350506080612ad789828a016124f3565b92505060a0612ae889828a016124f3565b9150509295509295509295565b6000602082019050612b0a600083018461282c565b92915050565b600061012082019050612b26600083018c61282c565b612b33602083018b612869565b612b40604083018a61285a565b612b4d606083018961282c565b612b5a608083018861283b565b612b6760a083018761283b565b612b7460c083018661282c565b612b8160e0830185612884565b612b8f610100830184612884565b9a9950505050505050505050565b600082825260208201905092915050565b7f4e6f7420746865206f776e657200000000000000000000000000000000000000600082015250565b6000612be4600d83612b9d565b9150612bef82612bae565b602082019050919050565b60006020820190508181036000830152612c1381612bd7565b9050919050565b6000604082019050612c2f600083018561282c565b612c3c6020830184612869565b9392505050565b7f4e487b7100000000000000000000000000000000000000000000000000000000600052603260045260246000fd5b7f416c72656164792077697468647261776e000000000000000000000000000000600082015250565b6000612ca8601183612b9d565b9150612cb382612c72565b602082019050919050565b60006020820190508181036000830152612cd781612c9b565b9050919050565b7f49742773206e6f74206c697374656420666f7220426f72726f77696e67000000600082015250565b6000612d14601d83612b9d565b9150612d1f82612cde565b602082019050919050565b60006020820190508181036000830152612d4381612d07565b9050919050565b7f42696420416c7265616479204163636570746564000000000000000000000000600082015250565b6000612d80601483612b9d565b9150612d8b82612d4a565b602082019050919050565b60006020820190508181036000830152612daf81612d73565b9050919050565b7f596f752063616e27742041636365707420546869732042696400000000000000600082015250565b6000612dec601983612b9d565b9150612df782612db6565b602082019050919050565b60006020820190508181036000830152612e1b81612ddf565b9050919050565b600081519050612e31816125b4565b92915050565b600060208284031215612e4d57612e4c6124c8565b5b6000612e5b84828501612e22565b91505092915050565b600081519050612e7381612516565b92915050565b600060208284031215612e8f57612e8e6124c8565b5b6000612e9d84828501612e64565b91505092915050565b612eaf816124d2565b82525050565b612ebe81612508565b82525050565b6000604082019050612ed96000830185612ea6565b612ee66020830184612eb5565b9392505050565b600081519050612efc816124dc565b92915050565b600060208284031215612f1857612f176124c8565b5b6000612f2684828501612eed565b91505092915050565b7f4e487b7100000000000000000000000000000000000000000000000000000000600052601160045260246000fd5b6000612f69826124d2565b9150612f74836124d2565b925082821015612f8757612f86612f2f565b5b828203905092915050565b6000604082019050612fa7600083018561283b565b612fb4602083018461282c565b9392505050565b612fc481612878565b8114612fcf57600080fd5b50565b600081519050612fe181612fbb565b92915050565b600060208284031215612ffd57612ffc6124c8565b5b600061300b84828501612fd2565b91505092915050565b7f756e61626c6520746f207472616e7366657220746f2072656365697665720000600082015250565b600061304a601e83612b9d565b915061305582613014565b602082019050919050565b600060208201905081810360008301526130798161303d565b9050919050565b7f556e61626c6520746f207472616e7366657220746f2041636f6e6f6d794f776e60008201527f6572000000000000000000000000000000000000000000000000000000000000602082015250565b60006130dc602283612b9d565b91506130e782613080565b604082019050919050565b6000602082019050818103600083015261310b816130cf565b9050919050565b6000606082019050613127600083018661283b565b613134602083018561283b565b613141604083018461282c565b949350505050565b600060808201905061315e600083018761282c565b61316b602083018661282c565b613178604083018561282c565b613185606083018461282c565b95945050505050565b7f596f75722042696420686173206265656e204163636570746564000000000000600082015250565b60006131c4601a83612b9d565b91506131cf8261318e565b602082019050919050565b600060208201905081810360008301526131f3816131b7565b9050919050565b7f596f752063616e27742077697468647261772074686973204269640000000000600082015250565b6000613230601b83612b9d565b915061323b826131fa565b602082019050919050565b6000602082019050818103600083015261325f81613223565b9050919050565b7f756e61626c6520746f207472616e7366657220746f204269646465722041646460008201527f7265737300000000000000000000000000000000000000000000000000000000602082015250565b60006132c2602483612b9d565b91506132cd82613266565b604082019050919050565b600060208201905081810360008301526132f1816132b5565b9050919050565b7f426964204e6f7420416363657074656420796574000000000000000000000000600082015250565b600061332e601483612b9d565b9150613339826132f8565b602082019050919050565b6000602082019050818103600083015261335d81613321565b9050919050565b7f416c726561647920526570616964000000000000000000000000000000000000600082015250565b600061339a600e83612b9d565b91506133a582613364565b602082019050919050565b600060208201905081810360008301526133c98161338d565b9050919050565b60006133db826124d2565b91506133e6836124d2565b9250827fffffffffffffffffffffffffffffffffffffffffffffffffffffffffffffffff0382111561341b5761341a612f2f565b5b828201905092915050565b7f756e61626c6520746f207472616e7366657220746f206269646465722041646460008201527f7265737300000000000000000000000000000000000000000000000000000000602082015250565b6000613482602483612b9d565b915061348d82613426565b604082019050919050565b600060208201905081810360008301526134b181613475565b9050919050565b60006060820190506134cd600083018661282c565b6134da602083018561282c565b6134e7604083018461282c565b949350505050565b6000604082019050613504600083018561282c565b613511602083018461285a565b9392505050565b7f796f752063616e277420646f20746869732077697468207a65726f206164647260008201527f6573730000000000000000000000000000000000000000000000000000000000602082015250565b6000613574602383612b9d565b915061357f82613518565b604082019050919050565b600060208201905081810360008301526135a381613567565b9050919050565b7f596f752063616e2774206269642077697468207a65726f20416d6f756e740000600082015250565b60006135e0601e83612b9d565b91506135eb826135aa565b602082019050919050565b6000602082019050818103600083015261360f816135d3565b9050919050565b7f596f752063616e277420426964206f6e2074686973204e465400000000000000600082015250565b600061364c601983612b9d565b915061365782613616565b602082019050919050565b6000602082019050818103600083015261367b8161363f565b9050919050565b7f556e61626c6520746f2074616e7366657220596f757220455243323000000000600082015250565b60006136b8601c83612b9d565b91506136c382613682565b602082019050919050565b600060208201905081810360008301526136e7816136ab565b9050919050565b6136f7816124d2565b82525050565b61370681612508565b82525050565b6137158161284a565b82525050565b613724816125a2565b82525050565b61373381612878565b82525050565b6101208201600082015161375060008501826136ee565b50602082015161376360208501826136fd565b506040820151613776604085018261370c565b50606082015161378960608501826136ee565b50608082015161379c608085018261371b565b5060a08201516137af60a085018261371b565b5060c08201516137c260c08501826136ee565b5060e08201516137d560e085018261372a565b506101008201516137ea61010085018261372a565b50505050565b600061016082019050613806600083018661282c565b6138136020830185613739565b61382161014083018461282c565b949350505050565b7f4f6e6c7920746f6b656e206f776e65722063616e206578656375746500000000600082015250565b600061385f601c83612b9d565b915061386a82613829565b602082019050919050565b6000602082019050818103600083015261388e81613852565b9050919050565b60006138a0826124d2565b91507fffffffffffffffffffffffffffffffffffffffffffffffffffffffffffffffff8214156138d3576138d2612f2f565b5b600182019050919050565b60006060820190506138f3600083018661282c565b613900602083018561282c565b61390d604083018461283b565b949350505050565b600060408201905061392a600083018561282c565b613937602083018461282c565b9392505050565b7f4974277320616972656164792072656d6f766564000000000000000000000000600082015250565b6000613974601483612b9d565b915061397f8261393e565b602082019050919050565b600060208201905081810360008301526139a381613967565b9050919050565b7f5265656e7472616e637947756172643a207265656e7472616e742063616c6c00600082015250565b60006139e0601f83612b9d565b91506139eb826139aa565b602082019050919050565b60006020820190508181036000830152613a0f816139d3565b905091905056fea264697066735822122063dd71c4f1ffef2053ddf2c9a25f1cecb63a4ebbe2539a79d810edb4365353f364736f6c634300080a0033",
  "linkReferences": {
    "contracts/Libraries/LibCalculations.sol": {
      "LibCalculations": [
        {
          "length": 20,
          "start": 2416
        },
        {
          "length": 20,
          "start": 4794
        }
      ]
    }
  },
  "deployedLinkReferences": {
    "contracts/Libraries/LibCalculations.sol": {
      "LibCalculations": [
        {
          "length": 20,
          "start": 2109
        },
        {
          "length": 20,
          "start": 4487
        }
      ]
    }
  }
}