{
  "_format": "hh-sol-artifact-1",
  "contractName": "NFTlendingBorrowing",
  "sourceName": "contracts/NFTlendingBorrowing.sol",
  "abi": [
    {
      "inputs": [
        {
          "internalType": "address",
          "name": "_aconomyFee",
          "type": "address"
        }
      ],
      "stateMutability": "nonpayable",
      "type": "constructor"
    },
    {
      "anonymous": false,
      "inputs": [
        {
          "indexed": false,
          "internalType": "uint256",
          "name": "NFTid",
          "type": "uint256"
        },
        {
          "indexed": false,
          "internalType": "uint256",
          "name": "BidId",
          "type": "uint256"
        },
        {
          "indexed": false,
          "internalType": "uint256",
          "name": "Amount",
          "type": "uint256"
        },
        {
          "indexed": false,
          "internalType": "uint256",
          "name": "ProtocolAmount",
          "type": "uint256"
        }
      ],
      "name": "AcceptedBid",
      "type": "event"
    },
    {
      "anonymous": false,
      "inputs": [
        {
          "indexed": false,
          "internalType": "uint256",
          "name": "BidId",
          "type": "uint256"
        },
        {
          "components": [
            {
              "internalType": "uint256",
              "name": "bidId",
              "type": "uint256"
            },
            {
              "internalType": "uint16",
              "name": "percent",
              "type": "uint16"
            },
            {
              "internalType": "uint32",
              "name": "duration",
              "type": "uint32"
            },
            {
              "internalType": "uint256",
              "name": "expiration",
              "type": "uint256"
            },
            {
              "internalType": "address",
              "name": "bidderAddress",
              "type": "address"
            },
            {
              "internalType": "address",
              "name": "ERC20Address",
              "type": "address"
            },
            {
              "internalType": "uint256",
              "name": "Amount",
              "type": "uint256"
            },
            {
              "internalType": "bool",
              "name": "withdrawn",
              "type": "bool"
            },
            {
              "internalType": "bool",
              "name": "bidAccepted",
              "type": "bool"
            }
          ],
          "indexed": false,
          "internalType": "struct NFTlendingBorrowing.BidDetail",
          "name": "data",
          "type": "tuple"
        },
        {
          "indexed": false,
          "internalType": "uint256",
          "name": "NFTid",
          "type": "uint256"
        }
      ],
      "name": "AppliedBid",
      "type": "event"
    },
    {
      "anonymous": false,
      "inputs": [
        {
          "indexed": false,
          "internalType": "uint256",
          "name": "NFTid",
          "type": "uint256"
        },
        {
          "indexed": false,
          "internalType": "uint256",
          "name": "TokenId",
          "type": "uint256"
        },
        {
          "indexed": false,
          "internalType": "address",
          "name": "ContractAddress",
          "type": "address"
        }
      ],
      "name": "NFTlisted",
      "type": "event"
    },
    {
      "anonymous": false,
      "inputs": [
        {
          "indexed": false,
          "internalType": "uint256",
          "name": "NFTid",
          "type": "uint256"
        },
        {
          "indexed": false,
          "internalType": "uint32",
          "name": "Duration",
          "type": "uint32"
        }
      ],
      "name": "SetDuration",
      "type": "event"
    },
    {
      "anonymous": false,
      "inputs": [
        {
          "indexed": false,
          "internalType": "uint256",
          "name": "NFTid",
          "type": "uint256"
        },
        {
          "indexed": false,
          "internalType": "uint256",
          "name": "expectedAmount",
          "type": "uint256"
        }
      ],
      "name": "SetExpectedAmount",
      "type": "event"
    },
    {
      "anonymous": false,
      "inputs": [
        {
          "indexed": false,
          "internalType": "uint256",
          "name": "NFTid",
          "type": "uint256"
        },
        {
          "indexed": false,
          "internalType": "uint256",
          "name": "Expiration",
          "type": "uint256"
        }
      ],
      "name": "SetExpiration",
      "type": "event"
    },
    {
      "anonymous": false,
      "inputs": [
        {
          "indexed": false,
          "internalType": "uint256",
          "name": "NFTid",
          "type": "uint256"
        },
        {
          "indexed": false,
          "internalType": "uint16",
          "name": "Percent",
          "type": "uint16"
        }
      ],
      "name": "SetPercent",
      "type": "event"
    },
    {
      "anonymous": false,
      "inputs": [
        {
          "indexed": false,
          "internalType": "uint256",
          "name": "NFTid",
          "type": "uint256"
        },
        {
          "indexed": false,
          "internalType": "uint256",
          "name": "BidId",
          "type": "uint256"
        },
        {
          "indexed": false,
          "internalType": "uint256",
          "name": "Amount",
          "type": "uint256"
        }
      ],
      "name": "repaid",
      "type": "event"
    },
    {
      "anonymous": false,
      "inputs": [
        {
          "indexed": false,
          "internalType": "uint256",
          "name": "NFTid",
          "type": "uint256"
        },
        {
          "indexed": false,
          "internalType": "uint256",
          "name": "BidId",
          "type": "uint256"
        },
        {
          "indexed": false,
          "internalType": "uint256",
          "name": "Amount",
          "type": "uint256"
        }
      ],
      "name": "withdrawn",
      "type": "event"
    },
    {
      "inputs": [
        {
          "internalType": "uint256",
          "name": "_NFTid",
          "type": "uint256"
        },
        {
          "internalType": "uint256",
          "name": "_bidId",
          "type": "uint256"
        }
      ],
      "name": "AcceptBid",
      "outputs": [],
      "stateMutability": "nonpayable",
      "type": "function"
    },
    {
      "inputs": [
        {
          "internalType": "uint256",
          "name": "_NFTid",
          "type": "uint256"
        },
        {
          "internalType": "uint256",
          "name": "_bidAmount",
          "type": "uint256"
        },
        {
          "internalType": "address",
          "name": "_ERC20Address",
          "type": "address"
        },
        {
          "internalType": "uint16",
          "name": "_percent",
          "type": "uint16"
        },
        {
          "internalType": "uint32",
          "name": "_duration",
          "type": "uint32"
        },
        {
          "internalType": "uint256",
          "name": "_expiration",
          "type": "uint256"
        }
      ],
      "name": "Bid",
      "outputs": [],
      "stateMutability": "nonpayable",
      "type": "function"
    },
    {
      "inputs": [
        {
          "internalType": "uint256",
          "name": "",
          "type": "uint256"
        },
        {
          "internalType": "uint256",
          "name": "",
          "type": "uint256"
        }
      ],
      "name": "Bids",
      "outputs": [
        {
          "internalType": "uint256",
          "name": "bidId",
          "type": "uint256"
        },
        {
          "internalType": "uint16",
          "name": "percent",
          "type": "uint16"
        },
        {
          "internalType": "uint32",
          "name": "duration",
          "type": "uint32"
        },
        {
          "internalType": "uint256",
          "name": "expiration",
          "type": "uint256"
        },
        {
          "internalType": "address",
          "name": "bidderAddress",
          "type": "address"
        },
        {
          "internalType": "address",
          "name": "ERC20Address",
          "type": "address"
        },
        {
          "internalType": "uint256",
          "name": "Amount",
          "type": "uint256"
        },
        {
          "internalType": "bool",
          "name": "withdrawn",
          "type": "bool"
        },
        {
          "internalType": "bool",
          "name": "bidAccepted",
          "type": "bool"
        }
      ],
      "stateMutability": "view",
      "type": "function"
    },
    {
      "inputs": [
        {
          "internalType": "uint256",
          "name": "",
          "type": "uint256"
        }
      ],
      "name": "NFTdetails",
      "outputs": [
        {
          "internalType": "uint256",
          "name": "NFTtokenId",
          "type": "uint256"
        },
        {
          "internalType": "address",
          "name": "tokenIdOwner",
          "type": "address"
        },
        {
          "internalType": "address",
          "name": "contractAddress",
          "type": "address"
        },
        {
          "internalType": "uint32",
          "name": "duration",
          "type": "uint32"
        },
        {
          "internalType": "uint256",
          "name": "expiration",
          "type": "uint256"
        },
        {
          "internalType": "uint256",
          "name": "expectedAmount",
          "type": "uint256"
        },
        {
          "internalType": "uint16",
          "name": "percent",
          "type": "uint16"
        },
        {
          "internalType": "bool",
          "name": "listed",
          "type": "bool"
        },
        {
          "internalType": "bool",
          "name": "bidAccepted",
          "type": "bool"
        },
        {
          "internalType": "bool",
          "name": "repaid",
          "type": "bool"
        }
      ],
      "stateMutability": "view",
      "type": "function"
    },
    {
      "inputs": [],
      "name": "NFTid",
      "outputs": [
        {
          "internalType": "uint256",
          "name": "",
          "type": "uint256"
        }
      ],
      "stateMutability": "view",
      "type": "function"
    },
    {
      "inputs": [
        {
          "internalType": "uint256",
          "name": "_NFTid",
          "type": "uint256"
        },
        {
          "internalType": "uint256",
          "name": "_bidId",
          "type": "uint256"
        }
      ],
      "name": "Repay",
      "outputs": [],
      "stateMutability": "nonpayable",
      "type": "function"
    },
    {
      "inputs": [
        {
          "internalType": "uint256",
          "name": "_tokenId",
          "type": "uint256"
        },
        {
          "internalType": "address",
          "name": "_contractAddress",
          "type": "address"
        },
        {
          "internalType": "uint16",
          "name": "_percent",
          "type": "uint16"
        },
        {
          "internalType": "uint32",
          "name": "_duration",
          "type": "uint32"
        },
        {
          "internalType": "uint256",
          "name": "_expiration",
          "type": "uint256"
        },
        {
          "internalType": "uint256",
          "name": "_expectedAmount",
          "type": "uint256"
        }
      ],
      "name": "listNFTforBorrowing",
      "outputs": [
        {
          "internalType": "uint256",
          "name": "_NFTid",
          "type": "uint256"
        }
      ],
      "stateMutability": "nonpayable",
      "type": "function"
    },
    {
      "inputs": [
        {
          "internalType": "address",
          "name": "",
          "type": "address"
        },
        {
          "internalType": "address",
          "name": "",
          "type": "address"
        },
        {
          "internalType": "uint256",
          "name": "",
          "type": "uint256"
        },
        {
          "internalType": "bytes",
          "name": "",
          "type": "bytes"
        }
      ],
      "name": "onERC721Received",
      "outputs": [
        {
          "internalType": "bytes4",
          "name": "",
          "type": "bytes4"
        }
      ],
      "stateMutability": "nonpayable",
      "type": "function"
    },
    {
      "inputs": [
        {
          "internalType": "uint256",
          "name": "_NFTid",
          "type": "uint256"
        }
      ],
      "name": "removeNFTfromList",
      "outputs": [],
      "stateMutability": "nonpayable",
      "type": "function"
    },
    {
      "inputs": [
        {
          "internalType": "uint256",
          "name": "_NFTid",
          "type": "uint256"
        },
        {
          "internalType": "uint32",
          "name": "_duration",
          "type": "uint32"
        }
      ],
      "name": "setDurationTime",
      "outputs": [],
      "stateMutability": "nonpayable",
      "type": "function"
    },
    {
      "inputs": [
        {
          "internalType": "uint256",
          "name": "_NFTid",
          "type": "uint256"
        },
        {
          "internalType": "uint256",
          "name": "_expectedAmount",
          "type": "uint256"
        }
      ],
      "name": "setExpectedAmount",
      "outputs": [],
      "stateMutability": "nonpayable",
      "type": "function"
    },
    {
      "inputs": [
        {
          "internalType": "uint256",
          "name": "_NFTid",
          "type": "uint256"
        },
        {
          "internalType": "uint256",
          "name": "_expiration",
          "type": "uint256"
        }
      ],
      "name": "setExpirationTime",
      "outputs": [],
      "stateMutability": "nonpayable",
      "type": "function"
    },
    {
      "inputs": [
        {
          "internalType": "uint256",
          "name": "_NFTid",
          "type": "uint256"
        },
        {
          "internalType": "uint16",
          "name": "_percent",
          "type": "uint16"
        }
      ],
      "name": "setPercent",
      "outputs": [],
      "stateMutability": "nonpayable",
      "type": "function"
    },
    {
      "inputs": [
        {
          "internalType": "uint256",
          "name": "_NFTid",
          "type": "uint256"
        },
        {
          "internalType": "uint256",
          "name": "_bidId",
          "type": "uint256"
        }
      ],
      "name": "withdraw",
      "outputs": [],
      "stateMutability": "nonpayable",
      "type": "function"
    }
  ],
  "bytecode": "0x60806040523480156200001157600080fd5b5060405162003c1c38038062003c1c8339818101604052810190620000379190620000f1565b600160008190555080600260006101000a81548173ffffffffffffffffffffffffffffffffffffffff021916908373ffffffffffffffffffffffffffffffffffffffff1602179055505062000123565b600080fd5b600073ffffffffffffffffffffffffffffffffffffffff82169050919050565b6000620000b9826200008c565b9050919050565b620000cb81620000ac565b8114620000d757600080fd5b50565b600081519050620000eb81620000c0565b92915050565b6000602082840312156200010a576200010962000087565b5b60006200011a84828501620000da565b91505092915050565b613ae980620001336000396000f3fe608060405234801561001057600080fd5b50600436106100ea5760003560e01c80638fe3c5b91161008c578063ac6224ae11610066578063ac6224ae14610268578063db0c81b514610284578063e1617b29146102a0578063e37fc17a146102be576100ea565b80638fe3c5b9146101e4578063a79215a414610200578063a7f323da14610230576100ea565b806331c173e2116100c857806331c173e214610174578063441a3e7014610190578063552544cb146101ac5780637e7e45b1146101c8576100ea565b806302ef3725146100ef578063150b7a021461010b578063236169b01461013b575b600080fd5b6101096004803603810190610104919061254d565b6102da565b005b61012560048036038101906101209190612731565b610422565b60405161013291906127ef565b60405180910390f35b6101556004803603810190610150919061280a565b610436565b60405161016b9a9998979695949392919061289e565b60405180910390f35b61018e6004803603810190610189919061293a565b61050f565b005b6101aa60048036038101906101a5919061293a565b610d34565b005b6101c660048036038101906101c1919061293a565b611051565b005b6101e260048036038101906101dd91906129a6565b61159a565b005b6101fe60048036038101906101f991906129e6565b6116ec565b005b61021a60048036038101906102159190612a73565b611bb3565b6040516102279190612b00565b60405180910390f35b61024a6004803603810190610245919061293a565b611f75565b60405161025f99989796959493929190612b1b565b60405180910390f35b610282600480360381019061027d919061293a565b612058565b005b61029e6004803603810190610299919061293a565b612174565b005b6102a86122a1565b6040516102b59190612b00565b60405180910390f35b6102d860048036038101906102d3919061280a565b6122a7565b005b813373ffffffffffffffffffffffffffffffffffffffff166003600083815260200190815260200160002060010160009054906101000a900473ffffffffffffffffffffffffffffffffffffffff1673ffffffffffffffffffffffffffffffffffffffff161461037f576040517f08c379a000000000000000000000000000000000000000000000000000000000815260040161037690612c05565b60405180910390fd5b6003600084815260200190815260200160002060050160009054906101000a900461ffff1661ffff168261ffff161461041d57816003600085815260200190815260200160002060050160006101000a81548161ffff021916908361ffff1602179055507fbd8c24910ec4329f2703b75142fb91d59b244d0219f9e31b0234590da042d5288383604051610414929190612c25565b60405180910390a15b505050565b600063150b7a0260e01b9050949350505050565b60036020528060005260406000206000915090508060000154908060010160009054906101000a900473ffffffffffffffffffffffffffffffffffffffff16908060020160009054906101000a900473ffffffffffffffffffffffffffffffffffffffff16908060020160149054906101000a900463ffffffff16908060030154908060040154908060050160009054906101000a900461ffff16908060050160029054906101000a900460ff16908060050160039054906101000a900460ff16908060050160049054906101000a900460ff1690508a565b61051761246f565b60046000838152602001908152602001600020818154811061053c5761053b612c4e565b5b906000526020600020906007020160060160009054906101000a900460ff161561059b576040517f08c379a000000000000000000000000000000000000000000000000000000000815260040161059290612cc9565b60405180910390fd5b6003600083815260200190815260200160002060050160029054906101000a900460ff166105fe576040517f08c379a00000000000000000000000000000000000000000000000000000000081526004016105f590612d35565b60405180910390fd5b60046000838152602001908152602001600020818154811061062357610622612c4e565b5b906000526020600020906007020160060160019054906101000a900460ff1615610682576040517f08c379a000000000000000000000000000000000000000000000000000000000815260040161067990612da1565b60405180910390fd5b3373ffffffffffffffffffffffffffffffffffffffff166003600084815260200190815260200160002060010160009054906101000a900473ffffffffffffffffffffffffffffffffffffffff1673ffffffffffffffffffffffffffffffffffffffff1614610726576040517f08c379a000000000000000000000000000000000000000000000000000000000815260040161071d90612e0d565b60405180910390fd5b60016003600084815260200190815260200160002060050160036101000a81548160ff021916908315150217905550600160046000848152602001908152602001600020828154811061077c5761077b612c4e565b5b906000526020600020906007020160060160016101000a81548160ff0219169083151502179055506000600260009054906101000a900473ffffffffffffffffffffffffffffffffffffffff1673ffffffffffffffffffffffffffffffffffffffff16634dd9ccb16040518163ffffffff1660e01b8152600401602060405180830381865afa158015610813573d6000803e3d6000fd5b505050506040513d601f19601f820116820180604052508101906108379190612e42565b9050600073__$61c3dbfad47bb5d5260aee114f5f9d6488$__633fb3400360046000878152602001908152602001600020858154811061087a57610879612c4e565b5b906000526020600020906007020160050154600260009054906101000a900473ffffffffffffffffffffffffffffffffffffffff1673ffffffffffffffffffffffffffffffffffffffff1663b0e21e8a6040518163ffffffff1660e01b8152600401602060405180830381865afa1580156108f9573d6000803e3d6000fd5b505050506040513d601f19601f8201168201806040525081019061091d9190612e84565b6040518363ffffffff1660e01b815260040161093a929190612ecf565b602060405180830381865af4158015610957573d6000803e3d6000fd5b505050506040513d601f19601f8201168201806040525081019061097b9190612f0d565b90506004600085815260200190815260200160002083815481106109a2576109a1612c4e565b5b906000526020600020906007020160040160009054906101000a900473ffffffffffffffffffffffffffffffffffffffff1673ffffffffffffffffffffffffffffffffffffffff1663a9059cbb3383600460008981526020019081526020016000208781548110610a1657610a15612c4e565b5b906000526020600020906007020160050154610a329190612f69565b6040518363ffffffff1660e01b8152600401610a4f929190612f9d565b6020604051808303816000875af1158015610a6e573d6000803e3d6000fd5b505050506040513d601f19601f82011682018060405250810190610a929190612ff2565b610ad1576040517f08c379a0000000000000000000000000000000000000000000000000000000008152600401610ac89061306b565b60405180910390fd5b60008114610bed57600460008581526020019081526020016000208381548110610afe57610afd612c4e565b5b906000526020600020906007020160040160009054906101000a900473ffffffffffffffffffffffffffffffffffffffff1673ffffffffffffffffffffffffffffffffffffffff1663a9059cbb83836040518363ffffffff1660e01b8152600401610b6a929190612f9d565b6020604051808303816000875af1158015610b89573d6000803e3d6000fd5b505050506040513d601f19601f82011682018060405250810190610bad9190612ff2565b610bec576040517f08c379a0000000000000000000000000000000000000000000000000000000008152600401610be3906130fd565b60405180910390fd5b5b6003600085815260200190815260200160002060020160009054906101000a900473ffffffffffffffffffffffffffffffffffffffff1673ffffffffffffffffffffffffffffffffffffffff166342842e0e333060036000898152602001908152602001600020600001546040518463ffffffff1660e01b8152600401610c769392919061311d565b600060405180830381600087803b158015610c9057600080fd5b505af1158015610ca4573d6000803e3d6000fd5b505050507ff3dcb1470788b6fc611aa31a4b8290ab1bd5e74bf635a268a8a8c76b960b2e04848483600460008981526020019081526020016000208781548110610cf157610cf0612c4e565b5b906000526020600020906007020160050154610d0d9190612f69565b84604051610d1e9493929190613154565b60405180910390a15050610d306124bf565b5050565b610d3c61246f565b600460008381526020019081526020016000208181548110610d6157610d60612c4e565b5b906000526020600020906007020160060160019054906101000a900460ff1615610dc0576040517f08c379a0000000000000000000000000000000000000000000000000000000008152600401610db7906131e5565b60405180910390fd5b3373ffffffffffffffffffffffffffffffffffffffff16600460008481526020019081526020016000208281548110610dfc57610dfb612c4e565b5b906000526020600020906007020160030160009054906101000a900473ffffffffffffffffffffffffffffffffffffffff1673ffffffffffffffffffffffffffffffffffffffff1614610e84576040517f08c379a0000000000000000000000000000000000000000000000000000000008152600401610e7b90613251565b60405180910390fd5b600460008381526020019081526020016000208181548110610ea957610ea8612c4e565b5b9060005260206000209060070201600201544211610efc576040517f08c379a0000000000000000000000000000000000000000000000000000000008152600401610ef3906132e3565b60405180910390fd5b600460008381526020019081526020016000208181548110610f2157610f20612c4e565b5b906000526020600020906007020160040160009054906101000a900473ffffffffffffffffffffffffffffffffffffffff1673ffffffffffffffffffffffffffffffffffffffff1663a9059cbb33600460008681526020019081526020016000208481548110610f9457610f93612c4e565b5b9060005260206000209060070201600501546040518363ffffffff1660e01b8152600401610fc3929190612f9d565b6020604051808303816000875af1158015610fe2573d6000803e3d6000fd5b505050506040513d601f19601f820116820180604052508101906110069190612ff2565b611045576040517f08c379a000000000000000000000000000000000000000000000000000000000815260040161103c90613375565b60405180910390fd5b61104d6124bf565b5050565b61105961246f565b6003600083815260200190815260200160002060050160039054906101000a900460ff166110bc576040517f08c379a00000000000000000000000000000000000000000000000000000000081526004016110b3906133e1565b60405180910390fd5b6003600083815260200190815260200160002060050160029054906101000a900460ff1661111f576040517f08c379a000000000000000000000000000000000000000000000000000000000815260040161111690612d35565b60405180910390fd5b6003600083815260200190815260200160002060050160049054906101000a900460ff1615611183576040517f08c379a000000000000000000000000000000000000000000000000000000000815260040161117a9061344d565b60405180910390fd5b600073__$61c3dbfad47bb5d5260aee114f5f9d6488$__633fb340036004600086815260200190815260200160002084815481106111c4576111c3612c4e565b5b9060005260206000209060070201600501546004600087815260200190815260200160002085815481106111fb576111fa612c4e565b5b906000526020600020906007020160010160009054906101000a900461ffff166040518363ffffffff1660e01b8152600401611238929190612ecf565b602060405180830381865af4158015611255573d6000803e3d6000fd5b505050506040513d601f19601f820116820180604052508101906112799190612f0d565b90506004600084815260200190815260200160002082815481106112a05761129f612c4e565b5b906000526020600020906007020160040160009054906101000a900473ffffffffffffffffffffffffffffffffffffffff1673ffffffffffffffffffffffffffffffffffffffff166323b872dd3360046000878152602001908152602001600020858154811061131357611312612c4e565b5b906000526020600020906007020160030160009054906101000a900473ffffffffffffffffffffffffffffffffffffffff168460046000898152602001908152602001600020878154811061136b5761136a612c4e565b5b906000526020600020906007020160050154611387919061346d565b6040518463ffffffff1660e01b81526004016113a59392919061311d565b6020604051808303816000875af11580156113c4573d6000803e3d6000fd5b505050506040513d601f19601f820116820180604052508101906113e89190612ff2565b611427576040517f08c379a000000000000000000000000000000000000000000000000000000000815260040161141e90613535565b60405180910390fd5b60016003600085815260200190815260200160002060050160046101000a81548160ff0219169083151502179055506003600084815260200190815260200160002060020160009054906101000a900473ffffffffffffffffffffffffffffffffffffffff1673ffffffffffffffffffffffffffffffffffffffff166342842e0e303360036000888152602001908152602001600020600001546040518463ffffffff1660e01b81526004016114df9392919061311d565b600060405180830381600087803b1580156114f957600080fd5b505af115801561150d573d6000803e3d6000fd5b505050507f91a214dd31764aed3c074372e042b1fb2178af7bdee126d40419260825b5c83383838360046000888152602001908152602001600020868154811061155a57611559612c4e565b5b906000526020600020906007020160050154611576919061346d565b60405161158593929190613555565b60405180910390a1506115966124bf565b5050565b813373ffffffffffffffffffffffffffffffffffffffff166003600083815260200190815260200160002060010160009054906101000a900473ffffffffffffffffffffffffffffffffffffffff1673ffffffffffffffffffffffffffffffffffffffff161461163f576040517f08c379a000000000000000000000000000000000000000000000000000000000815260040161163690612c05565b60405180910390fd5b6003600084815260200190815260200160002060020160149054906101000a900463ffffffff1663ffffffff168263ffffffff16146116e757816003600085815260200190815260200160002060020160146101000a81548163ffffffff021916908363ffffffff1602179055507f5cb1fa86dfcbe9b8c83d2be63a7939870e0b196236262c40025780baf89474bf83836040516116de92919061358c565b60405180910390a15b505050565b6116f461246f565b600073ffffffffffffffffffffffffffffffffffffffff168473ffffffffffffffffffffffffffffffffffffffff161415611764576040517f08c379a000000000000000000000000000000000000000000000000000000000815260040161175b90613627565b60405180910390fd5b60008514156117a8576040517f08c379a000000000000000000000000000000000000000000000000000000000815260040161179f90613693565b60405180910390fd5b6003600087815260200190815260200160002060050160039054906101000a900460ff161561180c576040517f08c379a000000000000000000000000000000000000000000000000000000000815260040161180390612da1565b60405180910390fd5b6003600087815260200190815260200160002060050160029054906101000a900460ff1661186f576040517f08c379a0000000000000000000000000000000000000000000000000000000008152600401611866906136ff565b60405180910390fd5b6000604051806101200160405280600460008a81526020019081526020016000208054905081526020018561ffff1681526020018463ffffffff16815260200142846118bb919061346d565b81526020013373ffffffffffffffffffffffffffffffffffffffff1681526020018673ffffffffffffffffffffffffffffffffffffffff1681526020018781526020016000151581526020016000151581525090508473ffffffffffffffffffffffffffffffffffffffff166323b872dd3330896040518463ffffffff1660e01b815260040161194d9392919061311d565b6020604051808303816000875af115801561196c573d6000803e3d6000fd5b505050506040513d601f19601f820116820180604052508101906119909190612ff2565b6119cf576040517f08c379a00000000000000000000000000000000000000000000000000000000081526004016119c69061376b565b60405180910390fd5b600460008881526020019081526020016000208190806001815401808255809150506001900390600052602060002090600702016000909190919091506000820151816000015560208201518160010160006101000a81548161ffff021916908361ffff16021790555060408201518160010160026101000a81548163ffffffff021916908363ffffffff1602179055506060820151816002015560808201518160030160006101000a81548173ffffffffffffffffffffffffffffffffffffffff021916908373ffffffffffffffffffffffffffffffffffffffff16021790555060a08201518160040160006101000a81548173ffffffffffffffffffffffffffffffffffffffff021916908373ffffffffffffffffffffffffffffffffffffffff16021790555060c0820151816005015560e08201518160060160006101000a81548160ff0219169083151502179055506101008201518160060160016101000a81548160ff02191690831515021790555050507f97dae4b8e8edec409957dc7c8efd3ef2202702229f09725900e3bb27462143736001600460008a815260200190815260200160002080549050611b899190612f69565b8289604051611b9a9392919061388d565b60405180910390a150611bab6124bf565b505050505050565b600085878173ffffffffffffffffffffffffffffffffffffffff16636352211e826040518263ffffffff1660e01b8152600401611bf09190612b00565b602060405180830381865afa158015611c0d573d6000803e3d6000fd5b505050506040513d601f19601f82011682018060405250810190611c319190612e42565b73ffffffffffffffffffffffffffffffffffffffff163373ffffffffffffffffffffffffffffffffffffffff1614611c9e576040517f08c379a0000000000000000000000000000000000000000000000000000000008152600401611c9590613912565b60405180910390fd5b611ca661246f565b600073ffffffffffffffffffffffffffffffffffffffff168873ffffffffffffffffffffffffffffffffffffffff161415611d16576040517f08c379a0000000000000000000000000000000000000000000000000000000008152600401611d0d90613627565b60405180910390fd5b600160008154611d2590613932565b919050819055925060006040518061014001604052808b81526020013373ffffffffffffffffffffffffffffffffffffffff1681526020018a73ffffffffffffffffffffffffffffffffffffffff1681526020018863ffffffff1681526020018781526020018681526020018961ffff16815260200160011515815260200160001515815260200160001515815250905080600360008681526020019081526020016000206000820151816000015560208201518160010160006101000a81548173ffffffffffffffffffffffffffffffffffffffff021916908373ffffffffffffffffffffffffffffffffffffffff16021790555060408201518160020160006101000a81548173ffffffffffffffffffffffffffffffffffffffff021916908373ffffffffffffffffffffffffffffffffffffffff16021790555060608201518160020160146101000a81548163ffffffff021916908363ffffffff1602179055506080820151816003015560a0820151816004015560c08201518160050160006101000a81548161ffff021916908361ffff16021790555060e08201518160050160026101000a81548160ff0219169083151502179055506101008201518160050160036101000a81548160ff0219169083151502179055506101208201518160050160046101000a81548160ff0219169083151502179055509050507ff7ba9a1a831f7e899b8bc38b926105e3fa359e7ebca14013b74dc9b855210058848b8b604051611f589392919061397b565b60405180910390a150611f696124bf565b50509695505050505050565b60046020528160005260406000208181548110611f9157600080fd5b9060005260206000209060070201600091509150508060000154908060010160009054906101000a900461ffff16908060010160029054906101000a900463ffffffff16908060020154908060030160009054906101000a900473ffffffffffffffffffffffffffffffffffffffff16908060040160009054906101000a900473ffffffffffffffffffffffffffffffffffffffff16908060050154908060060160009054906101000a900460ff16908060060160019054906101000a900460ff16905089565b813373ffffffffffffffffffffffffffffffffffffffff166003600083815260200190815260200160002060010160009054906101000a900473ffffffffffffffffffffffffffffffffffffffff1673ffffffffffffffffffffffffffffffffffffffff16146120fd576040517f08c379a00000000000000000000000000000000000000000000000000000000081526004016120f490612c05565b60405180910390fd5b6003600084815260200190815260200160002060040154821461216f578160036000858152602001908152602001600020600401819055507f2ed780e168b6e9108e49a266803585063d77176b33f9bd629302abeba90f1d8a83836040516121669291906139b2565b60405180910390a15b505050565b813373ffffffffffffffffffffffffffffffffffffffff166003600083815260200190815260200160002060010160009054906101000a900473ffffffffffffffffffffffffffffffffffffffff1673ffffffffffffffffffffffffffffffffffffffff1614612219576040517f08c379a000000000000000000000000000000000000000000000000000000000815260040161221090612c05565b60405180910390fd5b60008242612227919061346d565b90506003600085815260200190815260200160002060030154811461229b578060036000868152602001908152602001600020600301819055507fb885b693c4cad2ddc583a4dcd69d45913c8d5d4f01d950182ced00de8c20e13d84826040516122929291906139b2565b60405180910390a15b50505050565b60015481565b6003600082815260200190815260200160002060020160009054906101000a900473ffffffffffffffffffffffffffffffffffffffff1673ffffffffffffffffffffffffffffffffffffffff16636352211e60036000848152602001908152602001600020600001546040518263ffffffff1660e01b815260040161232c9190612b00565b602060405180830381865afa158015612349573d6000803e3d6000fd5b505050506040513d601f19601f8201168201806040525081019061236d9190612e42565b73ffffffffffffffffffffffffffffffffffffffff163373ffffffffffffffffffffffffffffffffffffffff16146123da576040517f08c379a00000000000000000000000000000000000000000000000000000000081526004016123d190613912565b60405180910390fd5b6003600082815260200190815260200160002060050160029054906101000a900460ff1661243d576040517f08c379a000000000000000000000000000000000000000000000000000000000815260040161243490613a27565b60405180910390fd5b60006003600083815260200190815260200160002060050160026101000a81548160ff02191690831515021790555050565b600260005414156124b5576040517f08c379a00000000000000000000000000000000000000000000000000000000081526004016124ac90613a93565b60405180910390fd5b6002600081905550565b6001600081905550565b6000604051905090565b600080fd5b600080fd5b6000819050919050565b6124f0816124dd565b81146124fb57600080fd5b50565b60008135905061250d816124e7565b92915050565b600061ffff82169050919050565b61252a81612513565b811461253557600080fd5b50565b60008135905061254781612521565b92915050565b60008060408385031215612564576125636124d3565b5b6000612572858286016124fe565b925050602061258385828601612538565b9150509250929050565b600073ffffffffffffffffffffffffffffffffffffffff82169050919050565b60006125b88261258d565b9050919050565b6125c8816125ad565b81146125d357600080fd5b50565b6000813590506125e5816125bf565b92915050565b600080fd5b600080fd5b6000601f19601f8301169050919050565b7f4e487b7100000000000000000000000000000000000000000000000000000000600052604160045260246000fd5b61263e826125f5565b810181811067ffffffffffffffff8211171561265d5761265c612606565b5b80604052505050565b60006126706124c9565b905061267c8282612635565b919050565b600067ffffffffffffffff82111561269c5761269b612606565b5b6126a5826125f5565b9050602081019050919050565b82818337600083830152505050565b60006126d46126cf84612681565b612666565b9050828152602081018484840111156126f0576126ef6125f0565b5b6126fb8482856126b2565b509392505050565b600082601f830112612718576127176125eb565b5b81356127288482602086016126c1565b91505092915050565b6000806000806080858703121561274b5761274a6124d3565b5b6000612759878288016125d6565b945050602061276a878288016125d6565b935050604061277b878288016124fe565b925050606085013567ffffffffffffffff81111561279c5761279b6124d8565b5b6127a887828801612703565b91505092959194509250565b60007fffffffff0000000000000000000000000000000000000000000000000000000082169050919050565b6127e9816127b4565b82525050565b600060208201905061280460008301846127e0565b92915050565b6000602082840312156128205761281f6124d3565b5b600061282e848285016124fe565b91505092915050565b612840816124dd565b82525050565b61284f816125ad565b82525050565b600063ffffffff82169050919050565b61286e81612855565b82525050565b61287d81612513565b82525050565b60008115159050919050565b61289881612883565b82525050565b6000610140820190506128b4600083018d612837565b6128c1602083018c612846565b6128ce604083018b612846565b6128db606083018a612865565b6128e86080830189612837565b6128f560a0830188612837565b61290260c0830187612874565b61290f60e083018661288f565b61291d61010083018561288f565b61292b61012083018461288f565b9b9a5050505050505050505050565b60008060408385031215612951576129506124d3565b5b600061295f858286016124fe565b9250506020612970858286016124fe565b9150509250929050565b61298381612855565b811461298e57600080fd5b50565b6000813590506129a08161297a565b92915050565b600080604083850312156129bd576129bc6124d3565b5b60006129cb858286016124fe565b92505060206129dc85828601612991565b9150509250929050565b60008060008060008060c08789031215612a0357612a026124d3565b5b6000612a1189828a016124fe565b9650506020612a2289828a016124fe565b9550506040612a3389828a016125d6565b9450506060612a4489828a01612538565b9350506080612a5589828a01612991565b92505060a0612a6689828a016124fe565b9150509295509295509295565b60008060008060008060c08789031215612a9057612a8f6124d3565b5b6000612a9e89828a016124fe565b9650506020612aaf89828a016125d6565b9550506040612ac089828a01612538565b9450506060612ad189828a01612991565b9350506080612ae289828a016124fe565b92505060a0612af389828a016124fe565b9150509295509295509295565b6000602082019050612b156000830184612837565b92915050565b600061012082019050612b31600083018c612837565b612b3e602083018b612874565b612b4b604083018a612865565b612b586060830189612837565b612b656080830188612846565b612b7260a0830187612846565b612b7f60c0830186612837565b612b8c60e083018561288f565b612b9a61010083018461288f565b9a9950505050505050505050565b600082825260208201905092915050565b7f4e6f7420746865206f776e657200000000000000000000000000000000000000600082015250565b6000612bef600d83612ba8565b9150612bfa82612bb9565b602082019050919050565b60006020820190508181036000830152612c1e81612be2565b9050919050565b6000604082019050612c3a6000830185612837565b612c476020830184612874565b9392505050565b7f4e487b7100000000000000000000000000000000000000000000000000000000600052603260045260246000fd5b7f416c72656164792077697468647261776e000000000000000000000000000000600082015250565b6000612cb3601183612ba8565b9150612cbe82612c7d565b602082019050919050565b60006020820190508181036000830152612ce281612ca6565b9050919050565b7f49742773206e6f74206c697374656420666f7220426f72726f77696e67000000600082015250565b6000612d1f601d83612ba8565b9150612d2a82612ce9565b602082019050919050565b60006020820190508181036000830152612d4e81612d12565b9050919050565b7f42696420416c7265616479204163636570746564000000000000000000000000600082015250565b6000612d8b601483612ba8565b9150612d9682612d55565b602082019050919050565b60006020820190508181036000830152612dba81612d7e565b9050919050565b7f596f752063616e27742041636365707420546869732042696400000000000000600082015250565b6000612df7601983612ba8565b9150612e0282612dc1565b602082019050919050565b60006020820190508181036000830152612e2681612dea565b9050919050565b600081519050612e3c816125bf565b92915050565b600060208284031215612e5857612e576124d3565b5b6000612e6684828501612e2d565b91505092915050565b600081519050612e7e81612521565b92915050565b600060208284031215612e9a57612e996124d3565b5b6000612ea884828501612e6f565b91505092915050565b612eba816124dd565b82525050565b612ec981612513565b82525050565b6000604082019050612ee46000830185612eb1565b612ef16020830184612ec0565b9392505050565b600081519050612f07816124e7565b92915050565b600060208284031215612f2357612f226124d3565b5b6000612f3184828501612ef8565b91505092915050565b7f4e487b7100000000000000000000000000000000000000000000000000000000600052601160045260246000fd5b6000612f74826124dd565b9150612f7f836124dd565b925082821015612f9257612f91612f3a565b5b828203905092915050565b6000604082019050612fb26000830185612846565b612fbf6020830184612837565b9392505050565b612fcf81612883565b8114612fda57600080fd5b50565b600081519050612fec81612fc6565b92915050565b600060208284031215613008576130076124d3565b5b600061301684828501612fdd565b91505092915050565b7f756e61626c6520746f207472616e7366657220746f2072656365697665720000600082015250565b6000613055601e83612ba8565b91506130608261301f565b602082019050919050565b6000602082019050818103600083015261308481613048565b9050919050565b7f556e61626c6520746f207472616e7366657220746f2041636f6e6f6d794f776e60008201527f6572000000000000000000000000000000000000000000000000000000000000602082015250565b60006130e7602283612ba8565b91506130f28261308b565b604082019050919050565b60006020820190508181036000830152613116816130da565b9050919050565b60006060820190506131326000830186612846565b61313f6020830185612846565b61314c6040830184612837565b949350505050565b60006080820190506131696000830187612837565b6131766020830186612837565b6131836040830185612837565b6131906060830184612837565b95945050505050565b7f596f75722042696420686173206265656e204163636570746564000000000000600082015250565b60006131cf601a83612ba8565b91506131da82613199565b602082019050919050565b600060208201905081810360008301526131fe816131c2565b9050919050565b7f596f752063616e27742077697468647261772074686973204269640000000000600082015250565b600061323b601b83612ba8565b915061324682613205565b602082019050919050565b6000602082019050818103600083015261326a8161322e565b9050919050565b7f43616e277420776974686472617720426964206265666f72652065787069726160008201527f74696f6e00000000000000000000000000000000000000000000000000000000602082015250565b60006132cd602483612ba8565b91506132d882613271565b604082019050919050565b600060208201905081810360008301526132fc816132c0565b9050919050565b7f756e61626c6520746f207472616e7366657220746f204269646465722041646460008201527f7265737300000000000000000000000000000000000000000000000000000000602082015250565b600061335f602483612ba8565b915061336a82613303565b604082019050919050565b6000602082019050818103600083015261338e81613352565b9050919050565b7f426964204e6f7420416363657074656420796574000000000000000000000000600082015250565b60006133cb601483612ba8565b91506133d682613395565b602082019050919050565b600060208201905081810360008301526133fa816133be565b9050919050565b7f416c726561647920526570616964000000000000000000000000000000000000600082015250565b6000613437600e83612ba8565b915061344282613401565b602082019050919050565b600060208201905081810360008301526134668161342a565b9050919050565b6000613478826124dd565b9150613483836124dd565b9250827fffffffffffffffffffffffffffffffffffffffffffffffffffffffffffffffff038211156134b8576134b7612f3a565b5b828201905092915050565b7f756e61626c6520746f207472616e7366657220746f206269646465722041646460008201527f7265737300000000000000000000000000000000000000000000000000000000602082015250565b600061351f602483612ba8565b915061352a826134c3565b604082019050919050565b6000602082019050818103600083015261354e81613512565b9050919050565b600060608201905061356a6000830186612837565b6135776020830185612837565b6135846040830184612837565b949350505050565b60006040820190506135a16000830185612837565b6135ae6020830184612865565b9392505050565b7f796f752063616e277420646f20746869732077697468207a65726f206164647260008201527f6573730000000000000000000000000000000000000000000000000000000000602082015250565b6000613611602383612ba8565b915061361c826135b5565b604082019050919050565b6000602082019050818103600083015261364081613604565b9050919050565b7f596f752063616e2774206269642077697468207a65726f20416d6f756e740000600082015250565b600061367d601e83612ba8565b915061368882613647565b602082019050919050565b600060208201905081810360008301526136ac81613670565b9050919050565b7f596f752063616e277420426964206f6e2074686973204e465400000000000000600082015250565b60006136e9601983612ba8565b91506136f4826136b3565b602082019050919050565b60006020820190508181036000830152613718816136dc565b9050919050565b7f556e61626c6520746f2074616e7366657220596f757220455243323000000000600082015250565b6000613755601c83612ba8565b91506137608261371f565b602082019050919050565b6000602082019050818103600083015261378481613748565b9050919050565b613794816124dd565b82525050565b6137a381612513565b82525050565b6137b281612855565b82525050565b6137c1816125ad565b82525050565b6137d081612883565b82525050565b610120820160008201516137ed600085018261378b565b506020820151613800602085018261379a565b50604082015161381360408501826137a9565b506060820151613826606085018261378b565b50608082015161383960808501826137b8565b5060a082015161384c60a08501826137b8565b5060c082015161385f60c085018261378b565b5060e082015161387260e08501826137c7565b506101008201516138876101008501826137c7565b50505050565b6000610160820190506138a36000830186612837565b6138b060208301856137d6565b6138be610140830184612837565b949350505050565b7f4f6e6c7920746f6b656e206f776e65722063616e206578656375746500000000600082015250565b60006138fc601c83612ba8565b9150613907826138c6565b602082019050919050565b6000602082019050818103600083015261392b816138ef565b9050919050565b600061393d826124dd565b91507fffffffffffffffffffffffffffffffffffffffffffffffffffffffffffffffff8214156139705761396f612f3a565b5b600182019050919050565b60006060820190506139906000830186612837565b61399d6020830185612837565b6139aa6040830184612846565b949350505050565b60006040820190506139c76000830185612837565b6139d46020830184612837565b9392505050565b7f4974277320616972656164792072656d6f766564000000000000000000000000600082015250565b6000613a11601483612ba8565b9150613a1c826139db565b602082019050919050565b60006020820190508181036000830152613a4081613a04565b9050919050565b7f5265656e7472616e637947756172643a207265656e7472616e742063616c6c00600082015250565b6000613a7d601f83612ba8565b9150613a8882613a47565b602082019050919050565b60006020820190508181036000830152613aac81613a70565b905091905056fea2646970667358221220605b420d5ae245bd8d24b0190a6092a46ced102e5df9bb3b145b9e52595b5d3564736f6c634300080a0033",
  "linkReferences": {
    "contracts/Libraries/LibCalculations.sol": {
      "LibCalculations": [
        {
          "length": 20,
          "start": 2416
        },
        {
          "length": 20,
          "start": 4794
        }
      ]
    }
  },
  "deployedLinkReferences": {
    "contracts/Libraries/LibCalculations.sol": {
      "LibCalculations": [
        {
          "length": 20,
          "start": 2109
        },
        {
          "length": 20,
          "start": 4487
        }
      ]
    }
  }
}