{
  "_format": "hh-sol-artifact-1",
  "contractName": "CollectionFactory",
  "sourceName": "contracts/CollectionFactory.sol",
  "abi": [
    {
      "inputs": [
        {
          "internalType": "address",
          "name": "_collectionMethodAddress",
          "type": "address"
        }
      ],
      "stateMutability": "nonpayable",
      "type": "constructor"
    },
    {
      "anonymous": false,
      "inputs": [
        {
          "indexed": false,
          "internalType": "uint256",
          "name": "collectionId",
          "type": "uint256"
        },
        {
          "indexed": false,
          "internalType": "address",
          "name": "CollectionAddress",
          "type": "address"
        }
      ],
      "name": "CollectionCreated",
      "type": "event"
    },
    {
      "anonymous": false,
      "inputs": [
        {
          "indexed": true,
          "internalType": "uint256",
          "name": "tokenId",
          "type": "uint256"
        },
        {
          "components": [
            {
              "internalType": "address payable",
              "name": "account",
              "type": "address"
            },
            {
              "internalType": "uint96",
              "name": "value",
              "type": "uint96"
            }
          ],
          "indexed": true,
          "internalType": "struct LibShare.Share[]",
          "name": "royalties",
          "type": "tuple[]"
        }
      ],
      "name": "Royalties",
      "type": "event"
    },
    {
      "anonymous": false,
      "inputs": [
        {
          "indexed": false,
          "internalType": "uint256",
          "name": "collectionId",
          "type": "uint256"
        },
        {
          "indexed": false,
          "internalType": "string",
          "name": "uri",
          "type": "string"
        }
      ],
      "name": "SetCollectionURI",
      "type": "event"
    },
    {
      "anonymous": false,
      "inputs": [
        {
          "indexed": false,
          "internalType": "uint256",
          "name": "collectionId",
          "type": "uint256"
        },
        {
          "indexed": false,
          "internalType": "string",
          "name": "Description",
          "type": "string"
        }
      ],
      "name": "SetDescription",
      "type": "event"
    },
    {
      "anonymous": false,
      "inputs": [
        {
          "indexed": false,
          "internalType": "uint256",
          "name": "collectionId",
          "type": "uint256"
        },
        {
          "indexed": false,
          "internalType": "string",
          "name": "name",
          "type": "string"
        }
      ],
      "name": "SetName",
      "type": "event"
    },
    {
      "anonymous": false,
      "inputs": [
        {
          "indexed": false,
          "internalType": "uint256",
          "name": "collectionId",
          "type": "uint256"
        },
        {
          "indexed": false,
          "internalType": "string",
          "name": "Symbol",
          "type": "string"
        }
      ],
      "name": "SetSymbol",
      "type": "event"
    },
    {
      "inputs": [],
      "name": "collectionId",
      "outputs": [
        {
          "internalType": "uint256",
          "name": "",
          "type": "uint256"
        }
      ],
      "stateMutability": "view",
      "type": "function"
    },
    {
      "inputs": [
        {
          "internalType": "uint256",
          "name": "",
          "type": "uint256"
        }
      ],
      "name": "collections",
      "outputs": [
        {
          "internalType": "string",
          "name": "name",
          "type": "string"
        },
        {
          "internalType": "string",
          "name": "symbol",
          "type": "string"
        },
        {
          "internalType": "string",
          "name": "URI",
          "type": "string"
        },
        {
          "internalType": "address",
          "name": "contractAddress",
          "type": "address"
        },
        {
          "internalType": "address",
          "name": "owner",
          "type": "address"
        },
        {
          "internalType": "string",
          "name": "description",
          "type": "string"
        }
      ],
      "stateMutability": "view",
      "type": "function"
    },
    {
      "inputs": [
        {
          "internalType": "string",
          "name": "_name",
          "type": "string"
        },
        {
          "internalType": "string",
          "name": "_symbol",
          "type": "string"
        },
        {
          "internalType": "string",
          "name": "_uri",
          "type": "string"
        },
        {
          "internalType": "string",
          "name": "_description",
          "type": "string"
        },
        {
          "components": [
            {
              "internalType": "address payable",
              "name": "account",
              "type": "address"
            },
            {
              "internalType": "uint96",
              "name": "value",
              "type": "uint96"
            }
          ],
          "internalType": "struct LibShare.Share[]",
          "name": "royalties",
          "type": "tuple[]"
        }
      ],
      "name": "createCollection",
      "outputs": [
        {
          "internalType": "uint256",
          "name": "collectionId_",
          "type": "uint256"
        }
      ],
      "stateMutability": "nonpayable",
      "type": "function"
    },
    {
      "inputs": [
        {
          "internalType": "uint256",
          "name": "_collectionId",
          "type": "uint256"
        }
      ],
      "name": "getCollectionRoyalties",
      "outputs": [
        {
          "components": [
            {
              "internalType": "address payable",
              "name": "account",
              "type": "address"
            },
            {
              "internalType": "uint96",
              "name": "value",
              "type": "uint96"
            }
          ],
          "internalType": "struct LibShare.Share[]",
          "name": "",
          "type": "tuple[]"
        }
      ],
      "stateMutability": "view",
      "type": "function"
    },
    {
      "inputs": [
        {
          "internalType": "uint256",
          "name": "",
          "type": "uint256"
        },
        {
          "internalType": "uint256",
          "name": "",
          "type": "uint256"
        }
      ],
      "name": "royaltiesForCollection",
      "outputs": [
        {
          "internalType": "address payable",
          "name": "account",
          "type": "address"
        },
        {
          "internalType": "uint96",
          "name": "value",
          "type": "uint96"
        }
      ],
      "stateMutability": "view",
      "type": "function"
    },
    {
      "inputs": [
        {
          "internalType": "uint256",
          "name": "_collectionId",
          "type": "uint256"
        },
        {
          "internalType": "string",
          "name": "_description",
          "type": "string"
        }
      ],
      "name": "setCollectionDescription",
      "outputs": [],
      "stateMutability": "nonpayable",
      "type": "function"
    },
    {
      "inputs": [
        {
          "internalType": "uint256",
          "name": "_collectionId",
          "type": "uint256"
        },
        {
          "internalType": "string",
          "name": "_name",
          "type": "string"
        }
      ],
      "name": "setCollectionName",
      "outputs": [],
      "stateMutability": "nonpayable",
      "type": "function"
    },
    {
      "inputs": [
        {
          "internalType": "uint256",
          "name": "_collectionId",
          "type": "uint256"
        },
        {
          "internalType": "string",
          "name": "_symbol",
          "type": "string"
        }
      ],
      "name": "setCollectionSymbol",
      "outputs": [],
      "stateMutability": "nonpayable",
      "type": "function"
    },
    {
      "inputs": [
        {
          "internalType": "uint256",
          "name": "_collectionId",
          "type": "uint256"
        },
        {
          "internalType": "string",
          "name": "_uri",
          "type": "string"
        }
      ],
      "name": "setCollectionURI",
      "outputs": [],
      "stateMutability": "nonpayable",
      "type": "function"
    }
  ],
  "bytecode": "0x60806040523480156200001157600080fd5b506040516200250c3803806200250c8339818101604052810190620000379190620000e9565b80600360006101000a81548173ffffffffffffffffffffffffffffffffffffffff021916908373ffffffffffffffffffffffffffffffffffffffff160217905550506200011b565b600080fd5b600073ffffffffffffffffffffffffffffffffffffffff82169050919050565b6000620000b18262000084565b9050919050565b620000c381620000a4565b8114620000cf57600080fd5b50565b600081519050620000e381620000b8565b92915050565b6000602082840312156200010257620001016200007f565b5b60006200011284828501620000d2565b91505092915050565b6123e1806200012b6000396000f3fe608060405234801561001057600080fd5b50600436106100935760003560e01c8063c755379f11610066578063c755379f1461011e578063cd4e8ae31461013a578063e1e9fce814610156578063e65d645614610186578063fdbda0ec146101b757610093565b806327f054aa146100985780633d26bb67146100b457806358f70c22146100d2578063c3c3219d14610102575b600080fd5b6100b260048036038101906100ad919061140e565b6101ec565b005b6100bc610360565b6040516100c9919061147d565b60405180910390f35b6100ec60048036038101906100e79190611793565b610366565b6040516100f9919061147d565b60405180910390f35b61011c6004803603810190610117919061189d565b61062d565b005b6101386004803603810190610133919061189d565b6107a1565b005b610154600480360381019061014f919061189d565b610915565b005b610170600480360381019061016b91906118f9565b610a89565b60405161017d9190611a22565b60405180910390f35b6101a0600480360381019061019b9190611a44565b610b8b565b6040516101ae929190611aa2565b60405180910390f35b6101d160048036038101906101cc91906118f9565b610c00565b6040516101e396959493929190611b74565b60405180910390f35b823373ffffffffffffffffffffffffffffffffffffffff1660008083815260200190815260200160002060040160009054906101000a900473ffffffffffffffffffffffffffffffffffffffff1673ffffffffffffffffffffffffffffffffffffffff1614610290576040517f08c379a000000000000000000000000000000000000000000000000000000000815260040161028790611c3d565b60405180910390fd5b6000808581526020019081526020016000206002016040516020016102b59190611d5d565b6040516020818303038152906040528051906020012083836040516020016102de929190611d99565b604051602081830303815290604052805190602001201461035a578282600080878152602001908152602001600020600201919061031d9291906111b8565b507fa1a42c46b926ef1b183a8fb2e9e1991ed5c7154757c8ddff1e4b3283187ceff784848460405161035193929190611ddf565b60405180910390a15b50505050565b60025481565b600060026000815461037790611e40565b9190508190559050600073__$3321af8dba00ad2afd07757c689a1789dc$__63d7d5c6f433308b8b600360009054906101000a900473ffffffffffffffffffffffffffffffffffffffff166040518663ffffffff1660e01b81526004016103e2959493929190611ee2565b602060405180830381865af41580156103ff573d6000803e3d6000fd5b505050506040513d601f19601f820116820180604052508101906104239190611f6f565b905060006040518060c001604052808a815260200189815260200188888080601f016020809104026020016040519081016040528093929190818152602001838380828437600081840152601f19601f8201169050808301925050505050505081526020018373ffffffffffffffffffffffffffffffffffffffff1681526020013373ffffffffffffffffffffffffffffffffffffffff1681526020018681525090508060008085815260200190815260200160002060008201518160000190805190602001906104f592919061123e565b50602082015181600101908051906020019061051292919061123e565b50604082015181600201908051906020019061052f92919061123e565b5060608201518160030160006101000a81548173ffffffffffffffffffffffffffffffffffffffff021916908373ffffffffffffffffffffffffffffffffffffffff16021790555060808201518160040160006101000a81548173ffffffffffffffffffffffffffffffffffffffff021916908373ffffffffffffffffffffffffffffffffffffffff16021790555060a08201518160050190805190602001906105da92919061123e565b509050506105e88385610e9c565b7f18c1b1c8856053698af995ce4384c0f661562c52a65d6dd29b910849d5e1bfca8383604051610619929190611f9c565b60405180910390a150509695505050505050565b813373ffffffffffffffffffffffffffffffffffffffff1660008083815260200190815260200160002060040160009054906101000a900473ffffffffffffffffffffffffffffffffffffffff1673ffffffffffffffffffffffffffffffffffffffff16146106d1576040517f08c379a00000000000000000000000000000000000000000000000000000000081526004016106c890611c3d565b60405180910390fd5b6000808481526020019081526020016000206001016040516020016106f69190611d5d565b604051602081830303815290604052805190602001208260405160200161071d9190611ff6565b604051602081830303815290604052805190602001201461079c5781600080858152602001908152602001600020600101908051906020019061076192919061123e565b507fd97f5d9103f9f27cea0d824dedb17b6e535e4814ba1dbc08887a76732543c290838360405161079392919061200d565b60405180910390a15b505050565b813373ffffffffffffffffffffffffffffffffffffffff1660008083815260200190815260200160002060040160009054906101000a900473ffffffffffffffffffffffffffffffffffffffff1673ffffffffffffffffffffffffffffffffffffffff1614610845576040517f08c379a000000000000000000000000000000000000000000000000000000000815260040161083c90611c3d565b60405180910390fd5b60008084815260200190815260200160002060000160405160200161086a9190611d5d565b60405160208183030381529060405280519060200120826040516020016108919190611ff6565b6040516020818303038152906040528051906020012014610910578160008085815260200190815260200160002060000190805190602001906108d592919061123e565b507f7c11765983c5884b06a9f2e300c2fd2e648e31cf995bd756ce2647c93c6dbb20838360405161090792919061200d565b60405180910390a15b505050565b813373ffffffffffffffffffffffffffffffffffffffff1660008083815260200190815260200160002060040160009054906101000a900473ffffffffffffffffffffffffffffffffffffffff1673ffffffffffffffffffffffffffffffffffffffff16146109b9576040517f08c379a00000000000000000000000000000000000000000000000000000000081526004016109b090611c3d565b60405180910390fd5b6000808481526020019081526020016000206005016040516020016109de9190611d5d565b6040516020818303038152906040528051906020012082604051602001610a059190611ff6565b6040516020818303038152906040528051906020012014610a8457816000808581526020019081526020016000206005019080519060200190610a4992919061123e565b507f9fb9371bd6790dc2e5335f73b2bbfd59db3e06ae2497b48bd8b764efc1508d418383604051610a7b92919061200d565b60405180910390a15b505050565b606060016000838152602001908152602001600020805480602002602001604051908101604052809291908181526020016000905b82821015610b80578382906000526020600020016040518060400160405290816000820160009054906101000a900473ffffffffffffffffffffffffffffffffffffffff1673ffffffffffffffffffffffffffffffffffffffff1673ffffffffffffffffffffffffffffffffffffffff1681526020016000820160149054906101000a90046bffffffffffffffffffffffff166bffffffffffffffffffffffff166bffffffffffffffffffffffff168152505081526020019060010190610abe565b505050509050919050565b60016020528160005260406000208181548110610ba757600080fd5b90600052602060002001600091509150508060000160009054906101000a900473ffffffffffffffffffffffffffffffffffffffff16908060000160149054906101000a90046bffffffffffffffffffffffff16905082565b6000602052806000526040600020600091509050806000018054610c2390611c8c565b80601f0160208091040260200160405190810160405280929190818152602001828054610c4f90611c8c565b8015610c9c5780601f10610c7157610100808354040283529160200191610c9c565b820191906000526020600020905b815481529060010190602001808311610c7f57829003601f168201915b505050505090806001018054610cb190611c8c565b80601f0160208091040260200160405190810160405280929190818152602001828054610cdd90611c8c565b8015610d2a5780601f10610cff57610100808354040283529160200191610d2a565b820191906000526020600020905b815481529060010190602001808311610d0d57829003601f168201915b505050505090806002018054610d3f90611c8c565b80601f0160208091040260200160405190810160405280929190818152602001828054610d6b90611c8c565b8015610db85780601f10610d8d57610100808354040283529160200191610db8565b820191906000526020600020905b815481529060010190602001808311610d9b57829003601f168201915b5050505050908060030160009054906101000a900473ffffffffffffffffffffffffffffffffffffffff16908060040160009054906101000a900473ffffffffffffffffffffffffffffffffffffffff1690806005018054610e1990611c8c565b80601f0160208091040260200160405190810160405280929190818152602001828054610e4590611c8c565b8015610e925780601f10610e6757610100808354040283529160200191610e92565b820191906000526020600020905b815481529060010190602001808311610e7557829003601f168201915b5050505050905086565b600a81511115610ee1576040517f08c379a0000000000000000000000000000000000000000000000000000000008152600401610ed890612089565b60405180910390fd5b600160008381526020019081526020016000206000610f0091906112c4565b6000805b825181101561112b57600073ffffffffffffffffffffffffffffffffffffffff16838281518110610f3857610f376120a9565b5b60200260200101516000015173ffffffffffffffffffffffffffffffffffffffff161415610f9b576040517f08c379a0000000000000000000000000000000000000000000000000000000008152600401610f929061214a565b60405180910390fd5b6000838281518110610fb057610faf6120a9565b5b6020026020010151602001516bffffffffffffffffffffffff16141561100b576040517f08c379a0000000000000000000000000000000000000000000000000000000008152600401611002906121b6565b60405180910390fd5b60016000858152602001908152602001600020838281518110611031576110306120a9565b5b60200260200101519080600181540180825580915050600190039060005260206000200160009091909190915060008201518160000160006101000a81548173ffffffffffffffffffffffffffffffffffffffff021916908373ffffffffffffffffffffffffffffffffffffffff16021790555060208201518160000160146101000a8154816bffffffffffffffffffffffff02191690836bffffffffffffffffffffffff16021790555050508281815181106110f1576110f06120a9565b5b6020026020010151602001516bffffffffffffffffffffffff168261111691906121d6565b9150808061112390611e40565b915050610f04565b506127108110611170576040517f08c379a000000000000000000000000000000000000000000000000000000000815260040161116790612278565b60405180910390fd5b8160405161117e9190612394565b6040518091039020837fbcc574f116b3d6f1bd03d06651a53025f963eb951ae262ee0211cd9cba05779f60405160405180910390a3505050565b8280546111c490611c8c565b90600052602060002090601f0160209004810192826111e6576000855561122d565b82601f106111ff57803560ff191683800117855561122d565b8280016001018555821561122d579182015b8281111561122c578235825591602001919060010190611211565b5b50905061123a91906112e5565b5090565b82805461124a90611c8c565b90600052602060002090601f01602090048101928261126c57600085556112b3565b82601f1061128557805160ff19168380011785556112b3565b828001600101855582156112b3579182015b828111156112b2578251825591602001919060010190611297565b5b5090506112c091906112e5565b5090565b50805460008255906000526020600020908101906112e29190611302565b50565b5b808211156112fe5760008160009055506001016112e6565b5090565b5b8082111561135b57600080820160006101000a81549073ffffffffffffffffffffffffffffffffffffffff02191690556000820160146101000a8154906bffffffffffffffffffffffff021916905550600101611303565b5090565b6000604051905090565b600080fd5b600080fd5b6000819050919050565b61138681611373565b811461139157600080fd5b50565b6000813590506113a38161137d565b92915050565b600080fd5b600080fd5b600080fd5b60008083601f8401126113ce576113cd6113a9565b5b8235905067ffffffffffffffff8111156113eb576113ea6113ae565b5b602083019150836001820283011115611407576114066113b3565b5b9250929050565b60008060006040848603121561142757611426611369565b5b600061143586828701611394565b935050602084013567ffffffffffffffff8111156114565761145561136e565b5b611462868287016113b8565b92509250509250925092565b61147781611373565b82525050565b6000602082019050611492600083018461146e565b92915050565b600080fd5b6000601f19601f8301169050919050565b7f4e487b7100000000000000000000000000000000000000000000000000000000600052604160045260246000fd5b6114e68261149d565b810181811067ffffffffffffffff82111715611505576115046114ae565b5b80604052505050565b600061151861135f565b905061152482826114dd565b919050565b600067ffffffffffffffff821115611544576115436114ae565b5b61154d8261149d565b9050602081019050919050565b82818337600083830152505050565b600061157c61157784611529565b61150e565b90508281526020810184848401111561159857611597611498565b5b6115a384828561155a565b509392505050565b600082601f8301126115c0576115bf6113a9565b5b81356115d0848260208601611569565b91505092915050565b600067ffffffffffffffff8211156115f4576115f36114ae565b5b602082029050602081019050919050565b600080fd5b600073ffffffffffffffffffffffffffffffffffffffff82169050919050565b60006116358261160a565b9050919050565b6116458161162a565b811461165057600080fd5b50565b6000813590506116628161163c565b92915050565b60006bffffffffffffffffffffffff82169050919050565b61168981611668565b811461169457600080fd5b50565b6000813590506116a681611680565b92915050565b6000604082840312156116c2576116c1611605565b5b6116cc604061150e565b905060006116dc84828501611653565b60008301525060206116f084828501611697565b60208301525092915050565b600061170f61170a846115d9565b61150e565b90508083825260208201905060408402830185811115611732576117316113b3565b5b835b8181101561175b578061174788826116ac565b845260208401935050604081019050611734565b5050509392505050565b600082601f83011261177a576117796113a9565b5b813561178a8482602086016116fc565b91505092915050565b60008060008060008060a087890312156117b0576117af611369565b5b600087013567ffffffffffffffff8111156117ce576117cd61136e565b5b6117da89828a016115ab565b965050602087013567ffffffffffffffff8111156117fb576117fa61136e565b5b61180789828a016115ab565b955050604087013567ffffffffffffffff8111156118285761182761136e565b5b61183489828a016113b8565b9450945050606087013567ffffffffffffffff8111156118575761185661136e565b5b61186389828a016115ab565b925050608087013567ffffffffffffffff8111156118845761188361136e565b5b61189089828a01611765565b9150509295509295509295565b600080604083850312156118b4576118b3611369565b5b60006118c285828601611394565b925050602083013567ffffffffffffffff8111156118e3576118e261136e565b5b6118ef858286016115ab565b9150509250929050565b60006020828403121561190f5761190e611369565b5b600061191d84828501611394565b91505092915050565b600081519050919050565b600082825260208201905092915050565b6000819050602082019050919050565b61195b8161162a565b82525050565b61196a81611668565b82525050565b6040820160008201516119866000850182611952565b5060208201516119996020850182611961565b50505050565b60006119ab8383611970565b60408301905092915050565b6000602082019050919050565b60006119cf82611926565b6119d98185611931565b93506119e483611942565b8060005b83811015611a155781516119fc888261199f565b9750611a07836119b7565b9250506001810190506119e8565b5085935050505092915050565b60006020820190508181036000830152611a3c81846119c4565b905092915050565b60008060408385031215611a5b57611a5a611369565b5b6000611a6985828601611394565b9250506020611a7a85828601611394565b9150509250929050565b611a8d8161162a565b82525050565b611a9c81611668565b82525050565b6000604082019050611ab76000830185611a84565b611ac46020830184611a93565b9392505050565b600081519050919050565b600082825260208201905092915050565b60005b83811015611b05578082015181840152602081019050611aea565b83811115611b14576000848401525b50505050565b6000611b2582611acb565b611b2f8185611ad6565b9350611b3f818560208601611ae7565b611b488161149d565b840191505092915050565b6000611b5e8261160a565b9050919050565b611b6e81611b53565b82525050565b600060c0820190508181036000830152611b8e8189611b1a565b90508181036020830152611ba28188611b1a565b90508181036040830152611bb68187611b1a565b9050611bc56060830186611b65565b611bd26080830185611b65565b81810360a0830152611be48184611b1a565b9050979650505050505050565b7f4e6f7420746865206f776e657200000000000000000000000000000000000000600082015250565b6000611c27600d83611ad6565b9150611c3282611bf1565b602082019050919050565b60006020820190508181036000830152611c5681611c1a565b9050919050565b7f4e487b7100000000000000000000000000000000000000000000000000000000600052602260045260246000fd5b60006002820490506001821680611ca457607f821691505b60208210811415611cb857611cb7611c5d565b5b50919050565b600081905092915050565b60008190508160005260206000209050919050565b60008154611ceb81611c8c565b611cf58186611cbe565b94506001821660008114611d105760018114611d2157611d54565b60ff19831686528186019350611d54565b611d2a85611cc9565b60005b83811015611d4c57815481890152600182019150602081019050611d2d565b838801955050505b50505092915050565b6000611d698284611cde565b915081905092915050565b6000611d808385611cbe565b9350611d8d83858461155a565b82840190509392505050565b6000611da6828486611d74565b91508190509392505050565b6000611dbe8385611ad6565b9350611dcb83858461155a565b611dd48361149d565b840190509392505050565b6000604082019050611df4600083018661146e565b8181036020830152611e07818486611db2565b9050949350505050565b7f4e487b7100000000000000000000000000000000000000000000000000000000600052601160045260246000fd5b6000611e4b82611373565b91507fffffffffffffffffffffffffffffffffffffffffffffffffffffffffffffffff821415611e7e57611e7d611e11565b5b600182019050919050565b611e9281611b53565b82525050565b600082825260208201905092915050565b6000611eb482611acb565b611ebe8185611e98565b9350611ece818560208601611ae7565b611ed78161149d565b840191505092915050565b600060a082019050611ef76000830188611e89565b611f046020830187611e89565b8181036040830152611f168186611ea9565b90508181036060830152611f2a8185611ea9565b9050611f396080830184611e89565b9695505050505050565b611f4c81611b53565b8114611f5757600080fd5b50565b600081519050611f6981611f43565b92915050565b600060208284031215611f8557611f84611369565b5b6000611f9384828501611f5a565b91505092915050565b6000604082019050611fb1600083018561146e565b611fbe6020830184611b65565b9392505050565b6000611fd082611acb565b611fda8185611cbe565b9350611fea818560208601611ae7565b80840191505092915050565b60006120028284611fc5565b915081905092915050565b6000604082019050612022600083018561146e565b81810360208301526120348184611b1a565b90509392505050565b7f41746d6f737420313020726f79616c746965732063616e206265206164646564600082015250565b6000612073602083611ad6565b915061207e8261203d565b602082019050919050565b600060208201905081810360008301526120a281612066565b9050919050565b7f4e487b7100000000000000000000000000000000000000000000000000000000600052603260045260246000fd5b7f526f79616c747920726563697069656e742073686f756c64206265207072657360008201527f656e740000000000000000000000000000000000000000000000000000000000602082015250565b6000612134602383611ad6565b915061213f826120d8565b604082019050919050565b6000602082019050818103600083015261216381612127565b9050919050565b7f526f79616c74792076616c75652073686f756c64206265203e20300000000000600082015250565b60006121a0601b83611ad6565b91506121ab8261216a565b602082019050919050565b600060208201905081810360008301526121cf81612193565b9050919050565b60006121e182611373565b91506121ec83611373565b9250827fffffffffffffffffffffffffffffffffffffffffffffffffffffffffffffffff0382111561222157612220611e11565b5b828201905092915050565b7f53756d206f6620526f79616c74696573203e2031303025000000000000000000600082015250565b6000612262601783611ad6565b915061226d8261222c565b602082019050919050565b6000602082019050818103600083015261229181612255565b9050919050565b600081905092915050565b6122ac8161162a565b82525050565b60006122be83836122a3565b60208301905092915050565b6122d381611668565b82525050565b60006122e583836122ca565b60208301905092915050565b60008201600082015161230484826122b2565b935050602082015161231684826122d9565b935050505050565b600061232a83836122f1565b60408301905092915050565b600061234182611926565b61234b8185612298565b935061235683611942565b8060005b8381101561238757815161236e888261231e565b9750612379836119b7565b92505060018101905061235a565b5085935050505092915050565b60006123a08284612336565b91508190509291505056fea2646970667358221220ceac3faee927c9789f3d442ea633ded8e371df5fd54bf7bc08e113e03df8465d64736f6c634300080a0033",
  "linkReferences": {
    "contracts/Libraries/LibCollection.sol": {
      "LibCollection": [
        {
          "length": 20,
          "start": 1198
        }
      ]
    }
  },
  "deployedLinkReferences": {
    "contracts/Libraries/LibCollection.sol": {
      "LibCollection": [
        {
          "length": 20,
          "start": 899
        }
      ]
    }
  }
}