{
  "_format": "hh-sol-artifact-1",
  "contractName": "CollectionFactory",
  "sourceName": "contracts/CollectionFactory.sol",
  "abi": [
    {
      "inputs": [
        {
          "internalType": "address",
          "name": "_collectionImplemantation",
          "type": "address"
        }
      ],
      "stateMutability": "nonpayable",
      "type": "constructor"
    },
    {
      "anonymous": false,
      "inputs": [
        {
          "indexed": false,
          "internalType": "uint256",
          "name": "collectionId",
          "type": "uint256"
        },
        {
          "indexed": false,
          "internalType": "address",
          "name": "CollectionAddress",
          "type": "address"
        }
      ],
      "name": "CollectionCreated",
      "type": "event"
    },
    {
      "anonymous": false,
      "inputs": [
        {
          "indexed": true,
          "internalType": "uint256",
          "name": "tokenId",
          "type": "uint256"
        },
        {
          "components": [
            {
              "internalType": "address payable",
              "name": "account",
              "type": "address"
            },
            {
              "internalType": "uint96",
              "name": "value",
              "type": "uint96"
            }
          ],
          "indexed": true,
          "internalType": "struct LibShare.Share[]",
          "name": "royalties",
          "type": "tuple[]"
        }
      ],
      "name": "Royalties",
      "type": "event"
    },
    {
      "anonymous": false,
      "inputs": [
        {
          "indexed": false,
          "internalType": "uint256",
          "name": "collectionId",
          "type": "uint256"
        },
        {
          "indexed": false,
          "internalType": "string",
          "name": "uri",
          "type": "string"
        }
      ],
      "name": "SetCollectionURI",
      "type": "event"
    },
    {
      "anonymous": false,
      "inputs": [
        {
          "indexed": false,
          "internalType": "uint256",
          "name": "collectionId",
          "type": "uint256"
        },
        {
          "indexed": false,
          "internalType": "string",
          "name": "Description",
          "type": "string"
        }
      ],
      "name": "SetDescription",
      "type": "event"
    },
    {
      "anonymous": false,
      "inputs": [
        {
          "indexed": false,
          "internalType": "uint256",
          "name": "collectionId",
          "type": "uint256"
        },
        {
          "indexed": false,
          "internalType": "string",
          "name": "name",
          "type": "string"
        }
      ],
      "name": "SetName",
      "type": "event"
    },
    {
      "anonymous": false,
      "inputs": [
        {
          "indexed": false,
          "internalType": "uint256",
          "name": "collectionId",
          "type": "uint256"
        },
        {
          "indexed": false,
          "internalType": "string",
          "name": "Symble",
          "type": "string"
        }
      ],
      "name": "SetSymble",
      "type": "event"
    },
    {
      "inputs": [],
      "name": "collectionId",
      "outputs": [
        {
          "internalType": "uint256",
          "name": "",
          "type": "uint256"
        }
      ],
      "stateMutability": "view",
      "type": "function"
    },
    {
      "inputs": [],
      "name": "collectionImplemantation",
      "outputs": [
        {
          "internalType": "address",
          "name": "",
          "type": "address"
        }
      ],
      "stateMutability": "view",
      "type": "function"
    },
    {
      "inputs": [
        {
          "internalType": "uint256",
          "name": "",
          "type": "uint256"
        }
      ],
      "name": "collections",
      "outputs": [
        {
          "internalType": "string",
          "name": "name",
          "type": "string"
        },
        {
          "internalType": "string",
          "name": "symbol",
          "type": "string"
        },
        {
          "internalType": "string",
          "name": "URI",
          "type": "string"
        },
        {
          "internalType": "address",
          "name": "contractAddress",
          "type": "address"
        },
        {
          "internalType": "address",
          "name": "owner",
          "type": "address"
        },
        {
          "internalType": "string",
          "name": "description",
          "type": "string"
        }
      ],
      "stateMutability": "view",
      "type": "function"
    },
    {
      "inputs": [
        {
          "internalType": "string",
          "name": "_name",
          "type": "string"
        },
        {
          "internalType": "string",
          "name": "_symbol",
          "type": "string"
        },
        {
          "internalType": "string",
          "name": "_uri",
          "type": "string"
        },
        {
          "internalType": "string",
          "name": "_description",
          "type": "string"
        },
        {
          "components": [
            {
              "internalType": "address payable",
              "name": "account",
              "type": "address"
            },
            {
              "internalType": "uint96",
              "name": "value",
              "type": "uint96"
            }
          ],
          "internalType": "struct LibShare.Share[]",
          "name": "royalties",
          "type": "tuple[]"
        }
      ],
      "name": "createCollection",
      "outputs": [
        {
          "internalType": "uint256",
          "name": "collectionId_",
          "type": "uint256"
        }
      ],
      "stateMutability": "nonpayable",
      "type": "function"
    },
    {
      "inputs": [
        {
          "internalType": "uint256",
          "name": "_collectionId",
          "type": "uint256"
        }
      ],
      "name": "getCollectionRoyalties",
      "outputs": [
        {
          "components": [
            {
              "internalType": "address payable",
              "name": "account",
              "type": "address"
            },
            {
              "internalType": "uint96",
              "name": "value",
              "type": "uint96"
            }
          ],
          "internalType": "struct LibShare.Share[]",
          "name": "",
          "type": "tuple[]"
        }
      ],
      "stateMutability": "view",
      "type": "function"
    },
    {
      "inputs": [
        {
          "internalType": "uint256",
          "name": "",
          "type": "uint256"
        },
        {
          "internalType": "uint256",
          "name": "",
          "type": "uint256"
        }
      ],
      "name": "royaltiesForCollection",
      "outputs": [
        {
          "internalType": "address payable",
          "name": "account",
          "type": "address"
        },
        {
          "internalType": "uint96",
          "name": "value",
          "type": "uint96"
        }
      ],
      "stateMutability": "view",
      "type": "function"
    },
    {
      "inputs": [
        {
          "internalType": "uint256",
          "name": "_collectionId",
          "type": "uint256"
        },
        {
          "internalType": "string",
          "name": "_description",
          "type": "string"
        }
      ],
      "name": "setCollectionDescription",
      "outputs": [],
      "stateMutability": "nonpayable",
      "type": "function"
    },
    {
      "inputs": [
        {
          "internalType": "uint256",
          "name": "_collectionId",
          "type": "uint256"
        },
        {
          "internalType": "string",
          "name": "_name",
          "type": "string"
        }
      ],
      "name": "setCollectionName",
      "outputs": [],
      "stateMutability": "nonpayable",
      "type": "function"
    },
    {
      "inputs": [
        {
          "internalType": "uint256",
          "name": "_collectionId",
          "type": "uint256"
        },
        {
          "internalType": "string",
          "name": "_symbol",
          "type": "string"
        }
      ],
      "name": "setCollectionSymble",
      "outputs": [],
      "stateMutability": "nonpayable",
      "type": "function"
    },
    {
      "inputs": [
        {
          "internalType": "uint256",
          "name": "_collectionId",
          "type": "uint256"
        },
        {
          "internalType": "string",
          "name": "_uri",
          "type": "string"
        }
      ],
      "name": "setCollectionURI",
      "outputs": [],
      "stateMutability": "nonpayable",
      "type": "function"
    }
  ],
  "bytecode": "0x60806040523480156200001157600080fd5b5060405162002576380380620025768339818101604052810190620000379190620000e9565b80600360006101000a81548173ffffffffffffffffffffffffffffffffffffffff021916908373ffffffffffffffffffffffffffffffffffffffff160217905550506200011b565b600080fd5b600073ffffffffffffffffffffffffffffffffffffffff82169050919050565b6000620000b18262000084565b9050919050565b620000c381620000a4565b8114620000cf57600080fd5b50565b600081519050620000e381620000b8565b92915050565b6000602082840312156200010257620001016200007f565b5b60006200011284828501620000d2565b91505092915050565b61244b806200012b6000396000f3fe608060405234801561001057600080fd5b506004361061009e5760003560e01c8063c755379f11610066578063c755379f14610147578063cd4e8ae314610163578063e1e9fce81461017f578063e65d6456146101af578063fdbda0ec146101e05761009e565b80632424c17d146100a357806327f054aa146100c15780633d26bb67146100dd57806358f70c22146100fb57806366d8d55d1461012b575b600080fd5b6100ab610215565b6040516100b891906113ef565b60405180910390f35b6100db60048036038101906100d691906114b9565b61023b565b005b6100e56103af565b6040516100f29190611528565b60405180910390f35b6101156004803603810190610110919061181e565b6103b5565b6040516101229190611528565b60405180910390f35b61014560048036038101906101409190611928565b61067c565b005b610161600480360381019061015c9190611928565b6107f0565b005b61017d60048036038101906101789190611928565b610964565b005b61019960048036038101906101949190611984565b610ad8565b6040516101a69190611aad565b60405180910390f35b6101c960048036038101906101c49190611acf565b610bda565b6040516101d7929190611b2d565b60405180910390f35b6101fa60048036038101906101f59190611984565b610c4f565b60405161020c96959493929190611bde565b60405180910390f35b600360009054906101000a900473ffffffffffffffffffffffffffffffffffffffff1681565b823373ffffffffffffffffffffffffffffffffffffffff1660008083815260200190815260200160002060040160009054906101000a900473ffffffffffffffffffffffffffffffffffffffff1673ffffffffffffffffffffffffffffffffffffffff16146102df576040517f08c379a00000000000000000000000000000000000000000000000000000000081526004016102d690611ca7565b60405180910390fd5b6000808581526020019081526020016000206002016040516020016103049190611dc7565b60405160208183030381529060405280519060200120838360405160200161032d929190611e03565b60405160208183030381529060405280519060200120146103a9578282600080878152602001908152602001600020600201919061036c929190611207565b507fa1a42c46b926ef1b183a8fb2e9e1991ed5c7154757c8ddff1e4b3283187ceff78484846040516103a093929190611e49565b60405180910390a15b50505050565b60025481565b60006002600081546103c690611eaa565b9190508190559050600073__$3321af8dba00ad2afd07757c689a1789dc$__63d7d5c6f433308b8b600360009054906101000a900473ffffffffffffffffffffffffffffffffffffffff166040518663ffffffff1660e01b8152600401610431959493929190611f4c565b602060405180830381865af415801561044e573d6000803e3d6000fd5b505050506040513d601f19601f820116820180604052508101906104729190611fd9565b905060006040518060c001604052808a815260200189815260200188888080601f016020809104026020016040519081016040528093929190818152602001838380828437600081840152601f19601f8201169050808301925050505050505081526020018373ffffffffffffffffffffffffffffffffffffffff1681526020013373ffffffffffffffffffffffffffffffffffffffff16815260200186815250905080600080858152602001908152602001600020600082015181600001908051906020019061054492919061128d565b50602082015181600101908051906020019061056192919061128d565b50604082015181600201908051906020019061057e92919061128d565b5060608201518160030160006101000a81548173ffffffffffffffffffffffffffffffffffffffff021916908373ffffffffffffffffffffffffffffffffffffffff16021790555060808201518160040160006101000a81548173ffffffffffffffffffffffffffffffffffffffff021916908373ffffffffffffffffffffffffffffffffffffffff16021790555060a082015181600501908051906020019061062992919061128d565b509050506106378385610eeb565b7f18c1b1c8856053698af995ce4384c0f661562c52a65d6dd29b910849d5e1bfca8383604051610668929190612006565b60405180910390a150509695505050505050565b813373ffffffffffffffffffffffffffffffffffffffff1660008083815260200190815260200160002060040160009054906101000a900473ffffffffffffffffffffffffffffffffffffffff1673ffffffffffffffffffffffffffffffffffffffff1614610720576040517f08c379a000000000000000000000000000000000000000000000000000000000815260040161071790611ca7565b60405180910390fd5b6000808481526020019081526020016000206001016040516020016107459190611dc7565b604051602081830303815290604052805190602001208260405160200161076c9190612060565b60405160208183030381529060405280519060200120146107eb578160008085815260200190815260200160002060010190805190602001906107b092919061128d565b507f6d47a714436f3636bf9f20138ef964e224993c7822c4a1bdf757bfd2028a947483836040516107e2929190612077565b60405180910390a15b505050565b813373ffffffffffffffffffffffffffffffffffffffff1660008083815260200190815260200160002060040160009054906101000a900473ffffffffffffffffffffffffffffffffffffffff1673ffffffffffffffffffffffffffffffffffffffff1614610894576040517f08c379a000000000000000000000000000000000000000000000000000000000815260040161088b90611ca7565b60405180910390fd5b6000808481526020019081526020016000206000016040516020016108b99190611dc7565b60405160208183030381529060405280519060200120826040516020016108e09190612060565b604051602081830303815290604052805190602001201461095f5781600080858152602001908152602001600020600001908051906020019061092492919061128d565b507f7c11765983c5884b06a9f2e300c2fd2e648e31cf995bd756ce2647c93c6dbb208383604051610956929190612077565b60405180910390a15b505050565b813373ffffffffffffffffffffffffffffffffffffffff1660008083815260200190815260200160002060040160009054906101000a900473ffffffffffffffffffffffffffffffffffffffff1673ffffffffffffffffffffffffffffffffffffffff1614610a08576040517f08c379a00000000000000000000000000000000000000000000000000000000081526004016109ff90611ca7565b60405180910390fd5b600080848152602001908152602001600020600501604051602001610a2d9190611dc7565b6040516020818303038152906040528051906020012082604051602001610a549190612060565b6040516020818303038152906040528051906020012014610ad357816000808581526020019081526020016000206005019080519060200190610a9892919061128d565b507f9fb9371bd6790dc2e5335f73b2bbfd59db3e06ae2497b48bd8b764efc1508d418383604051610aca929190612077565b60405180910390a15b505050565b606060016000838152602001908152602001600020805480602002602001604051908101604052809291908181526020016000905b82821015610bcf578382906000526020600020016040518060400160405290816000820160009054906101000a900473ffffffffffffffffffffffffffffffffffffffff1673ffffffffffffffffffffffffffffffffffffffff1673ffffffffffffffffffffffffffffffffffffffff1681526020016000820160149054906101000a90046bffffffffffffffffffffffff166bffffffffffffffffffffffff166bffffffffffffffffffffffff168152505081526020019060010190610b0d565b505050509050919050565b60016020528160005260406000208181548110610bf657600080fd5b90600052602060002001600091509150508060000160009054906101000a900473ffffffffffffffffffffffffffffffffffffffff16908060000160149054906101000a90046bffffffffffffffffffffffff16905082565b6000602052806000526040600020600091509050806000018054610c7290611cf6565b80601f0160208091040260200160405190810160405280929190818152602001828054610c9e90611cf6565b8015610ceb5780601f10610cc057610100808354040283529160200191610ceb565b820191906000526020600020905b815481529060010190602001808311610cce57829003601f168201915b505050505090806001018054610d0090611cf6565b80601f0160208091040260200160405190810160405280929190818152602001828054610d2c90611cf6565b8015610d795780601f10610d4e57610100808354040283529160200191610d79565b820191906000526020600020905b815481529060010190602001808311610d5c57829003601f168201915b505050505090806002018054610d8e90611cf6565b80601f0160208091040260200160405190810160405280929190818152602001828054610dba90611cf6565b8015610e075780601f10610ddc57610100808354040283529160200191610e07565b820191906000526020600020905b815481529060010190602001808311610dea57829003601f168201915b5050505050908060030160009054906101000a900473ffffffffffffffffffffffffffffffffffffffff16908060040160009054906101000a900473ffffffffffffffffffffffffffffffffffffffff1690806005018054610e6890611cf6565b80601f0160208091040260200160405190810160405280929190818152602001828054610e9490611cf6565b8015610ee15780601f10610eb657610100808354040283529160200191610ee1565b820191906000526020600020905b815481529060010190602001808311610ec457829003601f168201915b5050505050905086565b600a81511115610f30576040517f08c379a0000000000000000000000000000000000000000000000000000000008152600401610f27906120f3565b60405180910390fd5b600160008381526020019081526020016000206000610f4f9190611313565b6000805b825181101561117a57600073ffffffffffffffffffffffffffffffffffffffff16838281518110610f8757610f86612113565b5b60200260200101516000015173ffffffffffffffffffffffffffffffffffffffff161415610fea576040517f08c379a0000000000000000000000000000000000000000000000000000000008152600401610fe1906121b4565b60405180910390fd5b6000838281518110610fff57610ffe612113565b5b6020026020010151602001516bffffffffffffffffffffffff16141561105a576040517f08c379a000000000000000000000000000000000000000000000000000000000815260040161105190612220565b60405180910390fd5b600160008581526020019081526020016000208382815181106110805761107f612113565b5b60200260200101519080600181540180825580915050600190039060005260206000200160009091909190915060008201518160000160006101000a81548173ffffffffffffffffffffffffffffffffffffffff021916908373ffffffffffffffffffffffffffffffffffffffff16021790555060208201518160000160146101000a8154816bffffffffffffffffffffffff02191690836bffffffffffffffffffffffff16021790555050508281815181106111405761113f612113565b5b6020026020010151602001516bffffffffffffffffffffffff16826111659190612240565b9150808061117290611eaa565b915050610f53565b5061271081106111bf576040517f08c379a00000000000000000000000000000000000000000000000000000000081526004016111b6906122e2565b60405180910390fd5b816040516111cd91906123fe565b6040518091039020837fbcc574f116b3d6f1bd03d06651a53025f963eb951ae262ee0211cd9cba05779f60405160405180910390a3505050565b82805461121390611cf6565b90600052602060002090601f016020900481019282611235576000855561127c565b82601f1061124e57803560ff191683800117855561127c565b8280016001018555821561127c579182015b8281111561127b578235825591602001919060010190611260565b5b5090506112899190611334565b5090565b82805461129990611cf6565b90600052602060002090601f0160209004810192826112bb5760008555611302565b82601f106112d457805160ff1916838001178555611302565b82800160010185558215611302579182015b828111156113015782518255916020019190600101906112e6565b5b50905061130f9190611334565b5090565b50805460008255906000526020600020908101906113319190611351565b50565b5b8082111561134d576000816000905550600101611335565b5090565b5b808211156113aa57600080820160006101000a81549073ffffffffffffffffffffffffffffffffffffffff02191690556000820160146101000a8154906bffffffffffffffffffffffff021916905550600101611352565b5090565b600073ffffffffffffffffffffffffffffffffffffffff82169050919050565b60006113d9826113ae565b9050919050565b6113e9816113ce565b82525050565b600060208201905061140460008301846113e0565b92915050565b6000604051905090565b600080fd5b600080fd5b6000819050919050565b6114318161141e565b811461143c57600080fd5b50565b60008135905061144e81611428565b92915050565b600080fd5b600080fd5b600080fd5b60008083601f84011261147957611478611454565b5b8235905067ffffffffffffffff81111561149657611495611459565b5b6020830191508360018202830111156114b2576114b161145e565b5b9250929050565b6000806000604084860312156114d2576114d1611414565b5b60006114e08682870161143f565b935050602084013567ffffffffffffffff81111561150157611500611419565b5b61150d86828701611463565b92509250509250925092565b6115228161141e565b82525050565b600060208201905061153d6000830184611519565b92915050565b600080fd5b6000601f19601f8301169050919050565b7f4e487b7100000000000000000000000000000000000000000000000000000000600052604160045260246000fd5b61159182611548565b810181811067ffffffffffffffff821117156115b0576115af611559565b5b80604052505050565b60006115c361140a565b90506115cf8282611588565b919050565b600067ffffffffffffffff8211156115ef576115ee611559565b5b6115f882611548565b9050602081019050919050565b82818337600083830152505050565b6000611627611622846115d4565b6115b9565b90508281526020810184848401111561164357611642611543565b5b61164e848285611605565b509392505050565b600082601f83011261166b5761166a611454565b5b813561167b848260208601611614565b91505092915050565b600067ffffffffffffffff82111561169f5761169e611559565b5b602082029050602081019050919050565b600080fd5b60006116c0826113ae565b9050919050565b6116d0816116b5565b81146116db57600080fd5b50565b6000813590506116ed816116c7565b92915050565b60006bffffffffffffffffffffffff82169050919050565b611714816116f3565b811461171f57600080fd5b50565b6000813590506117318161170b565b92915050565b60006040828403121561174d5761174c6116b0565b5b61175760406115b9565b90506000611767848285016116de565b600083015250602061177b84828501611722565b60208301525092915050565b600061179a61179584611684565b6115b9565b905080838252602082019050604084028301858111156117bd576117bc61145e565b5b835b818110156117e657806117d28882611737565b8452602084019350506040810190506117bf565b5050509392505050565b600082601f83011261180557611804611454565b5b8135611815848260208601611787565b91505092915050565b60008060008060008060a0878903121561183b5761183a611414565b5b600087013567ffffffffffffffff81111561185957611858611419565b5b61186589828a01611656565b965050602087013567ffffffffffffffff81111561188657611885611419565b5b61189289828a01611656565b955050604087013567ffffffffffffffff8111156118b3576118b2611419565b5b6118bf89828a01611463565b9450945050606087013567ffffffffffffffff8111156118e2576118e1611419565b5b6118ee89828a01611656565b925050608087013567ffffffffffffffff81111561190f5761190e611419565b5b61191b89828a016117f0565b9150509295509295509295565b6000806040838503121561193f5761193e611414565b5b600061194d8582860161143f565b925050602083013567ffffffffffffffff81111561196e5761196d611419565b5b61197a85828601611656565b9150509250929050565b60006020828403121561199a57611999611414565b5b60006119a88482850161143f565b91505092915050565b600081519050919050565b600082825260208201905092915050565b6000819050602082019050919050565b6119e6816116b5565b82525050565b6119f5816116f3565b82525050565b604082016000820151611a1160008501826119dd565b506020820151611a2460208501826119ec565b50505050565b6000611a3683836119fb565b60408301905092915050565b6000602082019050919050565b6000611a5a826119b1565b611a6481856119bc565b9350611a6f836119cd565b8060005b83811015611aa0578151611a878882611a2a565b9750611a9283611a42565b925050600181019050611a73565b5085935050505092915050565b60006020820190508181036000830152611ac78184611a4f565b905092915050565b60008060408385031215611ae657611ae5611414565b5b6000611af48582860161143f565b9250506020611b058582860161143f565b9150509250929050565b611b18816116b5565b82525050565b611b27816116f3565b82525050565b6000604082019050611b426000830185611b0f565b611b4f6020830184611b1e565b9392505050565b600081519050919050565b600082825260208201905092915050565b60005b83811015611b90578082015181840152602081019050611b75565b83811115611b9f576000848401525b50505050565b6000611bb082611b56565b611bba8185611b61565b9350611bca818560208601611b72565b611bd381611548565b840191505092915050565b600060c0820190508181036000830152611bf88189611ba5565b90508181036020830152611c0c8188611ba5565b90508181036040830152611c208187611ba5565b9050611c2f60608301866113e0565b611c3c60808301856113e0565b81810360a0830152611c4e8184611ba5565b9050979650505050505050565b7f4e6f7420746865206f776e657200000000000000000000000000000000000000600082015250565b6000611c91600d83611b61565b9150611c9c82611c5b565b602082019050919050565b60006020820190508181036000830152611cc081611c84565b9050919050565b7f4e487b7100000000000000000000000000000000000000000000000000000000600052602260045260246000fd5b60006002820490506001821680611d0e57607f821691505b60208210811415611d2257611d21611cc7565b5b50919050565b600081905092915050565b60008190508160005260206000209050919050565b60008154611d5581611cf6565b611d5f8186611d28565b94506001821660008114611d7a5760018114611d8b57611dbe565b60ff19831686528186019350611dbe565b611d9485611d33565b60005b83811015611db657815481890152600182019150602081019050611d97565b838801955050505b50505092915050565b6000611dd38284611d48565b915081905092915050565b6000611dea8385611d28565b9350611df7838584611605565b82840190509392505050565b6000611e10828486611dde565b91508190509392505050565b6000611e288385611b61565b9350611e35838584611605565b611e3e83611548565b840190509392505050565b6000604082019050611e5e6000830186611519565b8181036020830152611e71818486611e1c565b9050949350505050565b7f4e487b7100000000000000000000000000000000000000000000000000000000600052601160045260246000fd5b6000611eb58261141e565b91507fffffffffffffffffffffffffffffffffffffffffffffffffffffffffffffffff821415611ee857611ee7611e7b565b5b600182019050919050565b611efc816113ce565b82525050565b600082825260208201905092915050565b6000611f1e82611b56565b611f288185611f02565b9350611f38818560208601611b72565b611f4181611548565b840191505092915050565b600060a082019050611f616000830188611ef3565b611f6e6020830187611ef3565b8181036040830152611f808186611f13565b90508181036060830152611f948185611f13565b9050611fa36080830184611ef3565b9695505050505050565b611fb6816113ce565b8114611fc157600080fd5b50565b600081519050611fd381611fad565b92915050565b600060208284031215611fef57611fee611414565b5b6000611ffd84828501611fc4565b91505092915050565b600060408201905061201b6000830185611519565b61202860208301846113e0565b9392505050565b600061203a82611b56565b6120448185611d28565b9350612054818560208601611b72565b80840191505092915050565b600061206c828461202f565b915081905092915050565b600060408201905061208c6000830185611519565b818103602083015261209e8184611ba5565b90509392505050565b7f41746d6f737420313020726f79616c746965732063616e206265206164646564600082015250565b60006120dd602083611b61565b91506120e8826120a7565b602082019050919050565b6000602082019050818103600083015261210c816120d0565b9050919050565b7f4e487b7100000000000000000000000000000000000000000000000000000000600052603260045260246000fd5b7f526f79616c747920726563697069656e742073686f756c64206265207072657360008201527f656e740000000000000000000000000000000000000000000000000000000000602082015250565b600061219e602383611b61565b91506121a982612142565b604082019050919050565b600060208201905081810360008301526121cd81612191565b9050919050565b7f526f79616c74792076616c75652073686f756c64206265203e20300000000000600082015250565b600061220a601b83611b61565b9150612215826121d4565b602082019050919050565b60006020820190508181036000830152612239816121fd565b9050919050565b600061224b8261141e565b91506122568361141e565b9250827fffffffffffffffffffffffffffffffffffffffffffffffffffffffffffffffff0382111561228b5761228a611e7b565b5b828201905092915050565b7f53756d206f6620526f79616c74696573203e2031303025000000000000000000600082015250565b60006122cc601783611b61565b91506122d782612296565b602082019050919050565b600060208201905081810360008301526122fb816122bf565b9050919050565b600081905092915050565b612316816116b5565b82525050565b6000612328838361230d565b60208301905092915050565b61233d816116f3565b82525050565b600061234f8383612334565b60208301905092915050565b60008201600082015161236e848261231c565b93505060208201516123808482612343565b935050505050565b6000612394838361235b565b60408301905092915050565b60006123ab826119b1565b6123b58185612302565b93506123c0836119cd565b8060005b838110156123f15781516123d88882612388565b97506123e383611a42565b9250506001810190506123c4565b5085935050505092915050565b600061240a82846123a0565b91508190509291505056fea264697066735822122022199753175e4f878e4c135c7cbe5baffd87d7be150e233640ab0ed97e10570e64736f6c634300080a0033",
  "linkReferences": {
    "contracts/Libraries/LibCollection.sol": {
      "LibCollection": [
        {
          "length": 20,
          "start": 1277
        }
      ]
    }
  },
  "deployedLinkReferences": {
    "contracts/Libraries/LibCollection.sol": {
      "LibCollection": [
        {
          "length": 20,
          "start": 978
        }
      ]
    }
  }
}