{
  "_format": "hh-sol-artifact-1",
  "contractName": "poolAddress",
  "sourceName": "contracts/poolAddress.sol",
  "abi": [
    {
      "inputs": [
        {
          "internalType": "address",
          "name": "_poolRegistry",
          "type": "address"
        },
        {
          "internalType": "address",
          "name": "_AconomyFeeAddress",
          "type": "address"
        }
      ],
      "stateMutability": "nonpayable",
      "type": "constructor"
    },
    {
      "anonymous": false,
      "inputs": [
        {
          "indexed": true,
          "internalType": "uint256",
          "name": "loanId",
          "type": "uint256"
        },
        {
          "indexed": true,
          "internalType": "string",
          "name": "feeType",
          "type": "string"
        },
        {
          "indexed": true,
          "internalType": "uint256",
          "name": "amount",
          "type": "uint256"
        }
      ],
      "name": "AcceptedLoanDetail",
      "type": "event"
    },
    {
      "anonymous": false,
      "inputs": [
        {
          "indexed": true,
          "internalType": "uint256",
          "name": "loanId",
          "type": "uint256"
        },
        {
          "indexed": false,
          "internalType": "uint256",
          "name": "Amount",
          "type": "uint256"
        }
      ],
      "name": "LoanRepaid",
      "type": "event"
    },
    {
      "anonymous": false,
      "inputs": [
        {
          "indexed": true,
          "internalType": "uint256",
          "name": "loanId",
          "type": "uint256"
        },
        {
          "indexed": false,
          "internalType": "uint256",
          "name": "Amount",
          "type": "uint256"
        }
      ],
      "name": "LoanRepayment",
      "type": "event"
    },
    {
      "anonymous": false,
      "inputs": [
        {
          "indexed": true,
          "internalType": "uint256",
          "name": "loanId",
          "type": "uint256"
        },
        {
          "indexed": true,
          "internalType": "address",
          "name": "borrower",
          "type": "address"
        },
        {
          "indexed": false,
          "internalType": "address",
          "name": "receiver",
          "type": "address"
        },
        {
          "indexed": false,
          "internalType": "uint256",
          "name": "paymentCycleAmount",
          "type": "uint256"
        }
      ],
      "name": "SubmittedLoan",
      "type": "event"
    },
    {
      "anonymous": false,
      "inputs": [
        {
          "indexed": true,
          "internalType": "uint256",
          "name": "loanId",
          "type": "uint256"
        },
        {
          "indexed": true,
          "internalType": "address",
          "name": "lender",
          "type": "address"
        }
      ],
      "name": "loanAccepted",
      "type": "event"
    },
    {
      "anonymous": false,
      "inputs": [
        {
          "indexed": false,
          "internalType": "uint256",
          "name": "owedPrincipal",
          "type": "uint256"
        },
        {
          "indexed": false,
          "internalType": "uint256",
          "name": "duePrincipal",
          "type": "uint256"
        },
        {
          "indexed": false,
          "internalType": "uint256",
          "name": "interest",
          "type": "uint256"
        }
      ],
      "name": "repaidAmounts",
      "type": "event"
    },
    {
      "inputs": [
        {
          "internalType": "uint256",
          "name": "_loanId",
          "type": "uint256"
        }
      ],
      "name": "AcceptLoan",
      "outputs": [
        {
          "internalType": "uint256",
          "name": "amountToAconomy",
          "type": "uint256"
        },
        {
          "internalType": "uint256",
          "name": "amountToPool",
          "type": "uint256"
        },
        {
          "internalType": "uint256",
          "name": "amountToBorrower",
          "type": "uint256"
        }
      ],
      "stateMutability": "nonpayable",
      "type": "function"
    },
    {
      "inputs": [
        {
          "internalType": "address",
          "name": "",
          "type": "address"
        },
        {
          "internalType": "uint256",
          "name": "",
          "type": "uint256"
        }
      ],
      "name": "borrowerLoans",
      "outputs": [
        {
          "internalType": "uint256",
          "name": "",
          "type": "uint256"
        }
      ],
      "stateMutability": "view",
      "type": "function"
    },
    {
      "inputs": [
        {
          "internalType": "uint256",
          "name": "_loanId",
          "type": "uint256"
        }
      ],
      "name": "calculateNextDueDate",
      "outputs": [
        {
          "internalType": "uint32",
          "name": "dueDate_",
          "type": "uint32"
        }
      ],
      "stateMutability": "view",
      "type": "function"
    },
    {
      "inputs": [
        {
          "internalType": "uint256",
          "name": "_loanId",
          "type": "uint256"
        }
      ],
      "name": "isLoanDefaulted",
      "outputs": [
        {
          "internalType": "bool",
          "name": "",
          "type": "bool"
        }
      ],
      "stateMutability": "view",
      "type": "function"
    },
    {
      "inputs": [
        {
          "internalType": "uint256",
          "name": "_loanId",
          "type": "uint256"
        }
      ],
      "name": "isLoanExpired",
      "outputs": [
        {
          "internalType": "bool",
          "name": "",
          "type": "bool"
        }
      ],
      "stateMutability": "view",
      "type": "function"
    },
    {
      "inputs": [
        {
          "internalType": "uint256",
          "name": "_loanId",
          "type": "uint256"
        }
      ],
      "name": "isPaymentLate",
      "outputs": [
        {
          "internalType": "bool",
          "name": "",
          "type": "bool"
        }
      ],
      "stateMutability": "view",
      "type": "function"
    },
    {
      "inputs": [
        {
          "internalType": "uint256",
          "name": "_loanId",
          "type": "uint256"
        }
      ],
      "name": "lastRepaidTimestamp",
      "outputs": [
        {
          "internalType": "uint32",
          "name": "",
          "type": "uint32"
        }
      ],
      "stateMutability": "view",
      "type": "function"
    },
    {
      "inputs": [
        {
          "internalType": "address",
          "name": "",
          "type": "address"
        },
        {
          "internalType": "address",
          "name": "",
          "type": "address"
        }
      ],
      "name": "lenderLendAmount",
      "outputs": [
        {
          "internalType": "uint256",
          "name": "",
          "type": "uint256"
        }
      ],
      "stateMutability": "view",
      "type": "function"
    },
    {
      "inputs": [
        {
          "internalType": "uint256",
          "name": "",
          "type": "uint256"
        }
      ],
      "name": "loanDefaultDuration",
      "outputs": [
        {
          "internalType": "uint32",
          "name": "",
          "type": "uint32"
        }
      ],
      "stateMutability": "view",
      "type": "function"
    },
    {
      "inputs": [
        {
          "internalType": "uint256",
          "name": "",
          "type": "uint256"
        }
      ],
      "name": "loanExpirationTime",
      "outputs": [
        {
          "internalType": "uint32",
          "name": "",
          "type": "uint32"
        }
      ],
      "stateMutability": "view",
      "type": "function"
    },
    {
      "inputs": [],
      "name": "loanId",
      "outputs": [
        {
          "internalType": "uint256",
          "name": "",
          "type": "uint256"
        }
      ],
      "stateMutability": "view",
      "type": "function"
    },
    {
      "inputs": [
        {
          "internalType": "address",
          "name": "_lendingToken",
          "type": "address"
        },
        {
          "internalType": "uint256",
          "name": "_poolId",
          "type": "uint256"
        },
        {
          "internalType": "uint256",
          "name": "_principal",
          "type": "uint256"
        },
        {
          "internalType": "uint32",
          "name": "_duration",
          "type": "uint32"
        },
        {
          "internalType": "uint16",
          "name": "_APR",
          "type": "uint16"
        },
        {
          "internalType": "address",
          "name": "_receiver",
          "type": "address"
        }
      ],
      "name": "loanRequest",
      "outputs": [
        {
          "internalType": "uint256",
          "name": "loanId_",
          "type": "uint256"
        }
      ],
      "stateMutability": "nonpayable",
      "type": "function"
    },
    {
      "inputs": [
        {
          "internalType": "uint256",
          "name": "",
          "type": "uint256"
        }
      ],
      "name": "loans",
      "outputs": [
        {
          "internalType": "address",
          "name": "borrower",
          "type": "address"
        },
        {
          "internalType": "address",
          "name": "receiver",
          "type": "address"
        },
        {
          "internalType": "address",
          "name": "lender",
          "type": "address"
        },
        {
          "internalType": "uint256",
          "name": "poolId",
          "type": "uint256"
        },
        {
          "components": [
            {
              "internalType": "contract ERC20",
              "name": "lendingToken",
              "type": "address"
            },
            {
              "internalType": "uint256",
              "name": "principal",
              "type": "uint256"
            },
            {
              "components": [
                {
                  "internalType": "uint256",
                  "name": "principal",
                  "type": "uint256"
                },
                {
                  "internalType": "uint256",
                  "name": "interest",
                  "type": "uint256"
                }
              ],
              "internalType": "struct poolStorage.Payment",
              "name": "totalRepaid",
              "type": "tuple"
            },
            {
              "internalType": "uint32",
              "name": "timestamp",
              "type": "uint32"
            },
            {
              "internalType": "uint32",
              "name": "acceptedTimestamp",
              "type": "uint32"
            },
            {
              "internalType": "uint32",
              "name": "lastRepaidTimestamp",
              "type": "uint32"
            },
            {
              "internalType": "uint32",
              "name": "loanDuration",
              "type": "uint32"
            }
          ],
          "internalType": "struct poolStorage.LoanDetails",
          "name": "loanDetails",
          "type": "tuple"
        },
        {
          "components": [
            {
              "internalType": "uint256",
              "name": "paymentCycleAmount",
              "type": "uint256"
            },
            {
              "internalType": "uint32",
              "name": "paymentCycle",
              "type": "uint32"
            },
            {
              "internalType": "uint16",
              "name": "APR",
              "type": "uint16"
            }
          ],
          "internalType": "struct poolStorage.Terms",
          "name": "terms",
          "type": "tuple"
        },
        {
          "internalType": "enum poolStorage.LoanState",
          "name": "state",
          "type": "uint8"
        }
      ],
      "stateMutability": "view",
      "type": "function"
    },
    {
      "inputs": [
        {
          "internalType": "uint256",
          "name": "",
          "type": "uint256"
        }
      ],
      "name": "poolLoans",
      "outputs": [
        {
          "internalType": "uint256",
          "name": "",
          "type": "uint256"
        }
      ],
      "stateMutability": "view",
      "type": "function"
    },
    {
      "inputs": [
        {
          "internalType": "uint256",
          "name": "_loanId",
          "type": "uint256"
        }
      ],
      "name": "repayFullLoan",
      "outputs": [],
      "stateMutability": "nonpayable",
      "type": "function"
    },
    {
      "inputs": [
        {
          "internalType": "uint256",
          "name": "_loanId",
          "type": "uint256"
        }
      ],
      "name": "repayYourLoan",
      "outputs": [],
      "stateMutability": "nonpayable",
      "type": "function"
    },
    {
      "inputs": [
        {
          "internalType": "address",
          "name": "",
          "type": "address"
        }
      ],
      "name": "totalERC20Amount",
      "outputs": [
        {
          "internalType": "uint256",
          "name": "",
          "type": "uint256"
        }
      ],
      "stateMutability": "view",
      "type": "function"
    },
    {
      "inputs": [
        {
          "internalType": "uint256",
          "name": "_loanId",
          "type": "uint256"
        }
      ],
      "name": "viewFullRepayAmount",
      "outputs": [
        {
          "internalType": "uint256",
          "name": "",
          "type": "uint256"
        }
      ],
      "stateMutability": "view",
      "type": "function"
    },
    {
      "inputs": [
        {
          "internalType": "uint256",
          "name": "_loanId",
          "type": "uint256"
        }
      ],
      "name": "viewInstallmentAmount",
      "outputs": [
        {
          "internalType": "uint256",
          "name": "",
          "type": "uint256"
        }
      ],
      "stateMutability": "view",
      "type": "function"
    }
  ],
  "bytecode": "0x6080604052600080553480156200001557600080fd5b50604051620046233803806200462383398181016040528101906200003b919062000137565b600160098190555081600a60006101000a81548173ffffffffffffffffffffffffffffffffffffffff021916908373ffffffffffffffffffffffffffffffffffffffff16021790555080600b60006101000a81548173ffffffffffffffffffffffffffffffffffffffff021916908373ffffffffffffffffffffffffffffffffffffffff16021790555050506200017e565b600080fd5b600073ffffffffffffffffffffffffffffffffffffffff82169050919050565b6000620000ff82620000d2565b9050919050565b6200011181620000f2565b81146200011d57600080fd5b50565b600081519050620001318162000106565b92915050565b60008060408385031215620001515762000150620000cd565b5b6000620001618582860162000120565b9250506020620001748582860162000120565b9150509250929050565b614495806200018e6000396000f3fe608060405234801561001057600080fd5b50600436106101215760003560e01c806360c661e6116100ad578063e1ec3c6811610071578063e1ec3c681461038c578063e3ed1902146103c2578063e766a88f146103f2578063e8cbab0914610424578063fee870e91461045457610121565b806360c661e6146102ae578063706a43c3146102de5780638cda45711461030e578063a51e2bad1461033e578063c95669a51461036e57610121565b80631e042d1f116100f45780631e042d1f146101d257806330f2670c146101ee578063376e49881461021e5780633a31f3371461024e578063561e79461461027e57610121565b806302117df314610126578063093f56171461015657806310618223146101865780631c5c1fc7146101b6575b600080fd5b610140600480360381019061013b9190612e5a565b610484565b60405161014d9190612e96565b60405180910390f35b610170600480360381019061016b9190612e5a565b61054f565b60405161017d9190612ecc565b60405180910390f35b6101a0600480360381019061019b9190612e5a565b6105c8565b6040516101ad9190612ecc565b60405180910390f35b6101d060048036038101906101cb9190612e5a565b6106c0565b005b6101ec60048036038101906101e79190612e5a565b6107ad565b005b61020860048036038101906102039190612f45565b6108d9565b6040516102159190612e96565b60405180910390f35b61023860048036038101906102339190612e5a565b6108f1565b6040516102459190612e96565b60405180910390f35b61026860048036038101906102639190612e5a565b610909565b6040516102759190612f91565b60405180910390f35b61029860048036038101906102939190612e5a565b61092c565b6040516102a59190612e96565b60405180910390f35b6102c860048036038101906102c39190613012565b6109f7565b6040516102d59190612e96565b60405180910390f35b6102f860048036038101906102f39190612e5a565b6112f5565b6040516103059190612f91565b60405180910390f35b61032860048036038101906103239190612e5a565b6114d3565b6040516103359190612f91565b60405180910390f35b61035860048036038101906103539190612e5a565b6114f6565b6040516103659190612f91565b60405180910390f35b61037661151a565b6040516103839190612e96565b60405180910390f35b6103a660048036038101906103a19190612e5a565b611520565b6040516103b997969594939291906132b1565b60405180910390f35b6103dc60048036038101906103d79190613323565b611753565b6040516103e99190612e96565b60405180910390f35b61040c60048036038101906104079190612e5a565b611784565b60405161041b93929190613363565b60405180910390f35b61043e60048036038101906104399190612e5a565b612545565b60405161044b9190612ecc565b60405180910390f35b61046e6004803603810190610469919061339a565b61262e565b60405161047b9190612e96565b60405180910390f35b60006002600381111561049a5761049961323a565b5b60016000848152602001908152602001600020600b0160009054906101000a900460ff1660038111156104d0576104cf61323a565b5b14610510576040517f08c379a000000000000000000000000000000000000000000000000000000000815260040161050790613437565b60405180910390fd5b60008061052f6001600086815260200190815260200160002042612653565b9250509150600081836105429190613486565b9050809350505050919050565b6000600260038111156105655761056461323a565b5b60016000848152602001908152602001600020600b0160009054906101000a900460ff16600381111561059b5761059a61323a565b5b146105a957600090506105c3565b6105b2826112f5565b63ffffffff164263ffffffff161190505b919050565b600080600160008481526020019081526020016000209050600060038111156105f4576105f361323a565b5b81600b0160009054906101000a900460ff1660038111156106185761061761323a565b5b146106275760009150506106bb565b60006007600085815260200190815260200160002060009054906101000a900463ffffffff1663ffffffff1614156106635760009150506106bb565b6007600084815260200190815260200160002060009054906101000a900463ffffffff168160040160040160009054906101000a900463ffffffff166106a991906134dc565b63ffffffff164263ffffffff16119150505b919050565b6106c8612708565b600260038111156106dc576106db61323a565b5b60016000838152602001908152602001600020600b0160009054906101000a900460ff1660038111156107125761071161323a565b5b14610752576040517f08c379a000000000000000000000000000000000000000000000000000000000815260040161074990613437565b60405180910390fd5b6000806107716001600085815260200190815260200160002042612653565b92505091506107a083604051806040016040528085815260200184815250838561079b9190613486565b612758565b50506107aa612a6f565b50565b6107b5612708565b600260038111156107c9576107c861323a565b5b60016000838152602001908152602001600020600b0160009054906101000a900460ff1660038111156107ff576107fe61323a565b5b1461083f576040517f08c379a000000000000000000000000000000000000000000000000000000000815260040161083690613437565b60405180910390fd5b60008060006108606001600086815260200190815260200160002042612653565b92509250925061089084604051806040016040528085815260200184815250838661088b9190613486565b612758565b7f193d98b28f4db3258b9a6bc3f7270c0ea85e0a520b3dc0daad9acc7136703d0f8383836040516108c393929190613363565b60405180910390a15050506108d6612a6f565b50565b60046020528060005260406000206000915090505481565b60026020528060005260406000206000915090505481565b60076020528060005260406000206000915054906101000a900463ffffffff1681565b6000600260038111156109425761094161323a565b5b60016000848152602001908152602001600020600b0160009054906101000a900460ff1660038111156109785761097761323a565b5b146109b8576040517f08c379a00000000000000000000000000000000000000000000000000000000081526004016109af90613437565b60405180910390fd5b6000806109d76001600086815260200190815260200160002042612653565b9250925050600081836109ea9190613486565b9050809350505050919050565b60008073ffffffffffffffffffffffffffffffffffffffff168773ffffffffffffffffffffffffffffffffffffffff161415610a68576040517f08c379a0000000000000000000000000000000000000000000000000000000008152600401610a5f90613588565b60405180910390fd5b600073ffffffffffffffffffffffffffffffffffffffff168273ffffffffffffffffffffffffffffffffffffffff161415610ad8576040517f08c379a0000000000000000000000000000000000000000000000000000000008152600401610acf9061361a565b60405180910390fd5b6000600a60009054906101000a900473ffffffffffffffffffffffffffffffffffffffff1673ffffffffffffffffffffffffffffffffffffffff1663302de10f88336040518363ffffffff1660e01b8152600401610b3792919061363a565b6040805180830381865afa158015610b53573d6000803e3d6000fd5b505050506040513d601f19601f82011682018060405250810190610b7791906136c5565b50905080610bba576040517f08c379a0000000000000000000000000000000000000000000000000000000008152600401610bb190613751565b60405180910390fd5b600a60009054906101000a900473ffffffffffffffffffffffffffffffffffffffff1673ffffffffffffffffffffffffffffffffffffffff1663a8380df1886040518263ffffffff1660e01b8152600401610c159190612e96565b602060405180830381865afa158015610c32573d6000803e3d6000fd5b505050506040513d601f19601f82011682018060405250810190610c569190613771565b15610c96576040517f08c379a0000000000000000000000000000000000000000000000000000000008152600401610c8d906137ea565b60405180910390fd5b6000549150816002600089815260200190815260200160002081905550600060016000805481526020019081526020016000209050338160000160006101000a81548173ffffffffffffffffffffffffffffffffffffffff021916908373ffffffffffffffffffffffffffffffffffffffff160217905550600073ffffffffffffffffffffffffffffffffffffffff168473ffffffffffffffffffffffffffffffffffffffff161415610d6d578060000160009054906101000a900473ffffffffffffffffffffffffffffffffffffffff16610d6f565b835b8160010160006101000a81548173ffffffffffffffffffffffffffffffffffffffff021916908373ffffffffffffffffffffffffffffffffffffffff160217905550878160030181905550888160040160000160006101000a81548173ffffffffffffffffffffffffffffffffffffffff021916908373ffffffffffffffffffffffffffffffffffffffff1602179055508681600401600101819055508581600401600401600c6101000a81548163ffffffff021916908363ffffffff160217905550428160040160040160006101000a81548163ffffffff021916908363ffffffff160217905550600a60009054906101000a900473ffffffffffffffffffffffffffffffffffffffff1673ffffffffffffffffffffffffffffffffffffffff1663805deb53896040518263ffffffff1660e01b8152600401610eb39190612e96565b602060405180830381865afa158015610ed0573d6000803e3d6000fd5b505050506040513d601f19601f82011682018060405250810190610ef4919061381f565b8160090160010160006101000a81548163ffffffff021916908363ffffffff160217905550848160090160010160046101000a81548161ffff021916908361ffff160217905550600a60009054906101000a900473ffffffffffffffffffffffffffffffffffffffff1673ffffffffffffffffffffffffffffffffffffffff166311bed5bb896040518263ffffffff1660e01b8152600401610f969190612e96565b602060405180830381865afa158015610fb3573d6000803e3d6000fd5b505050506040513d601f19601f82011682018060405250810190610fd7919061381f565b600660008054815260200190815260200160002060006101000a81548163ffffffff021916908363ffffffff160217905550600a60009054906101000a900473ffffffffffffffffffffffffffffffffffffffff1673ffffffffffffffffffffffffffffffffffffffff1663c28ba8eb896040518263ffffffff1660e01b81526004016110649190612e96565b602060405180830381865afa158015611081573d6000803e3d6000fd5b505050506040513d601f19601f820116820180604052508101906110a5919061381f565b600760008054815260200190815260200160002060006101000a81548163ffffffff021916908363ffffffff16021790555073__$61c3dbfad47bb5d5260aee114f5f9d6488$__632872a88788888460090160010160009054906101000a900463ffffffff16896040518563ffffffff1660e01b815260040161112b9493929190613879565b602060405180830381865af4158015611148573d6000803e3d6000fd5b505050506040513d601f19601f8201168201806040525081019061116c91906138d3565b8160090160000181905550600081600b0160006101000a81548160ff0219169083600381111561119f5761119e61323a565b5b02179055508060000160009054906101000a900473ffffffffffffffffffffffffffffffffffffffff1673ffffffffffffffffffffffffffffffffffffffff166000547f20669ac1da79ef826aa0f4e5e5b00ae0f2ed6e7c6eceb274c6fb43976204217e8360010160009054906101000a900473ffffffffffffffffffffffffffffffffffffffff16846009016000015460405161123e929190613900565b60405180910390a3600560008260000160009054906101000a900473ffffffffffffffffffffffffffffffffffffffff1673ffffffffffffffffffffffffffffffffffffffff1673ffffffffffffffffffffffffffffffffffffffff16815260200190815260200160002060005490806001815401808255809150506001900390600052602060002001600090919091909150556000808154809291906112e490613929565b919050555050509695505050505050565b600080600160008481526020019081526020016000209050600260038111156113215761132061323a565b5b60016000858152602001908152602001600020600b0160009054906101000a900460ff1660038111156113575761135661323a565b5b1461136257506114ce565b8060090160010160009054906101000a900463ffffffff168160040160040160049054906101000a900463ffffffff1661139c91906134dc565b915060008160040160040160049054906101000a900463ffffffff166113c1856114f6565b6113cb9190613972565b905060008163ffffffff1611156114415760008260090160010160009054906101000a900463ffffffff168261140191906139d5565b600161140d91906134dc565b90508260090160010160009054906101000a900463ffffffff16816114329190613a06565b8461143d91906134dc565b9350505b81600401600401600c9054906101000a900463ffffffff168260040160040160049054906101000a900463ffffffff1661147b91906134dc565b63ffffffff168363ffffffff1611156114cb5781600401600401600c9054906101000a900463ffffffff168260040160040160049054906101000a900463ffffffff166114c891906134dc565b92505b50505b919050565b60066020528060005260406000206000915054906101000a900463ffffffff1681565b600061151360016000848152602001908152602001600020612a79565b9050919050565b60005481565b60016020528060005260406000206000915090508060000160009054906101000a900473ffffffffffffffffffffffffffffffffffffffff16908060010160009054906101000a900473ffffffffffffffffffffffffffffffffffffffff16908060020160009054906101000a900473ffffffffffffffffffffffffffffffffffffffff1690806003015490806004016040518060e00160405290816000820160009054906101000a900473ffffffffffffffffffffffffffffffffffffffff1673ffffffffffffffffffffffffffffffffffffffff1673ffffffffffffffffffffffffffffffffffffffff16815260200160018201548152602001600282016040518060400160405290816000820154815260200160018201548152505081526020016004820160009054906101000a900463ffffffff1663ffffffff1663ffffffff1681526020016004820160049054906101000a900463ffffffff1663ffffffff1663ffffffff1681526020016004820160089054906101000a900463ffffffff1663ffffffff1663ffffffff16815260200160048201600c9054906101000a900463ffffffff1663ffffffff1663ffffffff16815250509080600901604051806060016040529081600082015481526020016001820160009054906101000a900463ffffffff1663ffffffff1663ffffffff1681526020016001820160049054906101000a900461ffff1661ffff1661ffff16815250509080600b0160009054906101000a900460ff16905087565b6005602052816000526040600020818154811061176f57600080fd5b90600052602060002001600091509150505481565b6000806000836000600381111561179e5761179d61323a565b5b60016000838152602001908152602001600020600b0160009054906101000a900460ff1660038111156117d4576117d361323a565b5b14611814576040517f08c379a000000000000000000000000000000000000000000000000000000000815260040161180b90613a90565b60405180910390fd5b61181c612708565b60006001600087815260200190815260200160002090506000600a60009054906101000a900473ffffffffffffffffffffffffffffffffffffffff1673ffffffffffffffffffffffffffffffffffffffff1663da5de1a28360030154336040518363ffffffff1660e01b815260040161189692919061363a565b6040805180830381865afa1580156118b2573d6000803e3d6000fd5b505050506040513d601f19601f820116820180604052508101906118d691906136c5565b50905080611919576040517f08c379a000000000000000000000000000000000000000000000000000000000815260040161191090613afc565b60405180910390fd5b600a60009054906101000a900473ffffffffffffffffffffffffffffffffffffffff1673ffffffffffffffffffffffffffffffffffffffff1663a8380df183600301546040518263ffffffff1660e01b81526004016119789190612e96565b602060405180830381865afa158015611995573d6000803e3d6000fd5b505050506040513d601f19601f820116820180604052508101906119b99190613771565b156119f9576040517f08c379a00000000000000000000000000000000000000000000000000000000081526004016119f0906137ea565b60405180910390fd5b611a02876105c8565b15611a42576040517f08c379a0000000000000000000000000000000000000000000000000000000008152600401611a3990613b68565b60405180910390fd5b428260040160040160046101000a81548163ffffffff021916908363ffffffff160217905550428260040160040160086101000a81548163ffffffff021916908363ffffffff160217905550600282600b0160006101000a81548160ff02191690836003811115611ab657611ab561323a565b5b0217905550338260020160006101000a81548173ffffffffffffffffffffffffffffffffffffffff021916908373ffffffffffffffffffffffffffffffffffffffff16021790555073__$61c3dbfad47bb5d5260aee114f5f9d6488$__633fb340038360040160010154600b60009054906101000a900473ffffffffffffffffffffffffffffffffffffffff1673ffffffffffffffffffffffffffffffffffffffff1663b0e21e8a6040518163ffffffff1660e01b8152600401602060405180830381865afa158015611b8d573d6000803e3d6000fd5b505050506040513d601f19601f82011682018060405250810190611bb19190613b9d565b6040518363ffffffff1660e01b8152600401611bce929190613bca565b602060405180830381865af4158015611beb573d6000803e3d6000fd5b505050506040513d601f19601f82011682018060405250810190611c0f91906138d3565b955073__$61c3dbfad47bb5d5260aee114f5f9d6488$__633fb340038360040160010154600a60009054906101000a900473ffffffffffffffffffffffffffffffffffffffff1673ffffffffffffffffffffffffffffffffffffffff1663635f1e4d86600301546040518263ffffffff1660e01b8152600401611c929190612e96565b602060405180830381865afa158015611caf573d6000803e3d6000fd5b505050506040513d601f19601f82011682018060405250810190611cd39190613b9d565b6040518363ffffffff1660e01b8152600401611cf0929190613bca565b602060405180830381865af4158015611d0d573d6000803e3d6000fd5b505050506040513d601f19601f82011682018060405250810190611d3191906138d3565b945084868360040160010154611d479190613bf3565b611d519190613bf3565b935060008614611efc5760008260040160000160009054906101000a900473ffffffffffffffffffffffffffffffffffffffff1673ffffffffffffffffffffffffffffffffffffffff166323b872dd8460020160009054906101000a900473ffffffffffffffffffffffffffffffffffffffff16600b60009054906101000a900473ffffffffffffffffffffffffffffffffffffffff1673ffffffffffffffffffffffffffffffffffffffff16634dd9ccb16040518163ffffffff1660e01b8152600401602060405180830381865afa158015611e32573d6000803e3d6000fd5b505050506040513d601f19601f82011682018060405250810190611e569190613c3c565b8a6040518463ffffffff1660e01b8152600401611e7593929190613c69565b6020604051808303816000875af1158015611e94573d6000803e3d6000fd5b505050506040513d601f19601f82011682018060405250810190611eb89190613771565b905080611efa576040517f08c379a0000000000000000000000000000000000000000000000000000000008152600401611ef190613d12565b60405180910390fd5b505b600085146120b45760008260040160000160009054906101000a900473ffffffffffffffffffffffffffffffffffffffff1673ffffffffffffffffffffffffffffffffffffffff166323b872dd8460020160009054906101000a900473ffffffffffffffffffffffffffffffffffffffff16600a60009054906101000a900473ffffffffffffffffffffffffffffffffffffffff1673ffffffffffffffffffffffffffffffffffffffff16636e34b4e487600301546040518263ffffffff1660e01b8152600401611fcd9190612e96565b602060405180830381865afa158015611fea573d6000803e3d6000fd5b505050506040513d601f19601f8201168201806040525081019061200e9190613c3c565b896040518463ffffffff1660e01b815260040161202d93929190613c69565b6020604051808303816000875af115801561204c573d6000803e3d6000fd5b505050506040513d601f19601f820116820180604052508101906120709190613771565b9050806120b2576040517f08c379a00000000000000000000000000000000000000000000000000000000081526004016120a990613da4565b60405180910390fd5b505b60008260040160000160009054906101000a900473ffffffffffffffffffffffffffffffffffffffff1673ffffffffffffffffffffffffffffffffffffffff166323b872dd8460020160009054906101000a900473ffffffffffffffffffffffffffffffffffffffff168560000160009054906101000a900473ffffffffffffffffffffffffffffffffffffffff16886040518463ffffffff1660e01b815260040161216293929190613c69565b6020604051808303816000875af1158015612181573d6000803e3d6000fd5b505050506040513d601f19601f820116820180604052508101906121a59190613771565b9050806121e7576040517f08c379a00000000000000000000000000000000000000000000000000000000081526004016121de90613e10565b60405180910390fd5b8260040160010154600860008560040160000160009054906101000a900473ffffffffffffffffffffffffffffffffffffffff1673ffffffffffffffffffffffffffffffffffffffff1673ffffffffffffffffffffffffffffffffffffffff16815260200190815260200160002060008560020160009054906101000a900473ffffffffffffffffffffffffffffffffffffffff1673ffffffffffffffffffffffffffffffffffffffff1673ffffffffffffffffffffffffffffffffffffffff16815260200190815260200160002060008282546122c59190613486565b925050819055508260040160010154600460008560040160000160009054906101000a900473ffffffffffffffffffffffffffffffffffffffff1673ffffffffffffffffffffffffffffffffffffffff1673ffffffffffffffffffffffffffffffffffffffff16815260200190815260200160002060008282546123499190613486565b925050819055506123c588600360008660000160009054906101000a900473ffffffffffffffffffffffffffffffffffffffff1673ffffffffffffffffffffffffffffffffffffffff1673ffffffffffffffffffffffffffffffffffffffff168152602001908152602001600020612adc90919063ffffffff16565b612404576040517f08c379a00000000000000000000000000000000000000000000000000000000081526004016123fb90613ea2565b60405180910390fd5b8260020160009054906101000a900473ffffffffffffffffffffffffffffffffffffffff1673ffffffffffffffffffffffffffffffffffffffff16887fc175daba6d0afff1f048fc218620bf5012c03afa26af397bacbf30f7341d343060405160405180910390a38660405161247990613f19565b6040518091039020897f9d2e18d1e551e6728496dd39a969d9fe809fe60c0c8c9cabfda8be718e5387cf60405160405180910390a4856040516124bb90613f7a565b6040518091039020897f9d2e18d1e551e6728496dd39a969d9fe809fe60c0c8c9cabfda8be718e5387cf60405160405180910390a4846040516124fd90613fdb565b6040518091039020897f9d2e18d1e551e6728496dd39a969d9fe809fe60c0c8c9cabfda8be718e5387cf60405160405180910390a450505061253d612a6f565b509193909250565b600080600160008481526020019081526020016000209050600260038111156125715761257061323a565b5b81600b0160009054906101000a900460ff1660038111156125955761259461323a565b5b146125a4576000915050612629565b60006006600085815260200190815260200160002060009054906101000a900463ffffffff1663ffffffff1614156125e0576000915050612629565b6006600084815260200190815260200160002060009054906101000a900463ffffffff1663ffffffff16612613846114f6565b4261261e9190613972565b63ffffffff16119150505b919050565b6008602052816000526040600020602052806000526040600020600091509150505481565b60008060006126fb856004016001015486600401600201600001548760090160010160049054906101000a900461ffff1688600901600001548960090160010160009054906101000a900463ffffffff1663ffffffff166126b38b612a79565b63ffffffff168a8c60040160040160049054906101000a900463ffffffff1663ffffffff168d600401600401600c9054906101000a900463ffffffff1663ffffffff16612af6565b9250925092509250925092565b6002600954141561274e576040517f08c379a00000000000000000000000000000000000000000000000000000000081526004016127459061403c565b60405180910390fd5b6002600981905550565b60006001600085815260200190815260200160002090506000836020015184600001516127859190613486565b90508281106128af57829050600382600b0160006101000a81548160ff021916908360038111156127b9576127b861323a565b5b021790555061283385600360008560000160009054906101000a900473ffffffffffffffffffffffffffffffffffffffff1673ffffffffffffffffffffffffffffffffffffffff1673ffffffffffffffffffffffffffffffffffffffff168152602001908152602001600020612bdf90919063ffffffff16565b612872576040517f08c379a0000000000000000000000000000000000000000000000000000000008152600401612869906140ce565b60405180910390fd5b847f040cee90ee4799897c30ca04e5feb6fa43dbba9b6d084b4b257cdafd84ba013e826040516128a29190612e96565b60405180910390a26128e8565b847f74eb6e59df678ce3b4afd511fde3df47cbedd7c742096db39757074577499a9c826040516128df9190612e96565b60405180910390a25b60008260040160000160009054906101000a900473ffffffffffffffffffffffffffffffffffffffff1673ffffffffffffffffffffffffffffffffffffffff166323b872dd338560020160009054906101000a900473ffffffffffffffffffffffffffffffffffffffff16856040518463ffffffff1660e01b815260040161297293929190613c69565b6020604051808303816000875af1158015612991573d6000803e3d6000fd5b505050506040513d601f19601f820116820180604052508101906129b59190613771565b9050806129f7576040517f08c379a00000000000000000000000000000000000000000000000000000000081526004016129ee9061413a565b60405180910390fd5b8460000151836004016002016000016000828254612a159190613486565b925050819055508460200151836004016002016001016000828254612a3a9190613486565b92505081905550428360040160040160086101000a81548163ffffffff021916908363ffffffff160217905550505050505050565b6001600981905550565b6000808260040160040160089054906101000a900463ffffffff1663ffffffff1614612abc578160040160040160089054906101000a900463ffffffff16612ad5565b8160040160040160049054906101000a900463ffffffff165b9050919050565b6000612aee836000018360001b612bf9565b905092915050565b60008060008a8c612b079190613bf3565b92506000612b15848c612c69565b905060008888612b259190613bf3565b90506301e133808183612b38919061415a565b612b4291906141b4565b925060008789612b5291906141ef565b87612b5d91906141ef565b905060008b821280612b7a57508c8588612b779190613486565b11155b9050600081612b89578d612b96565b8588612b959190613486565b5b905060008d8583612ba7919061415a565b612bb191906141b4565b9050612bc88782612bc29190613bf3565b8a612c83565b975050505050505099509950999650505050505050565b6000612bf1836000018360001b612c9c565b905092915050565b6000612c058383612db0565b612c5e578260000182908060018154018082558091505060019003906000526020600020016000909190919091505582600001805490508360010160008481526020019081526020016000208190555060019050612c63565b600090505b92915050565b6000612c7b838361ffff166002612dd3565b905092915050565b6000818310612c925781612c94565b825b905092915050565b60008083600101600084815260200190815260200160002054905060008114612da4576000600182612cce9190613bf3565b9050600060018660000180549050612ce69190613bf3565b9050818114612d55576000866000018281548110612d0757612d06614283565b5b9060005260206000200154905080876000018481548110612d2b57612d2a614283565b5b90600052602060002001819055508387600101600083815260200190815260200160002081905550505b85600001805480612d6957612d686142b2565b5b600190038181906000526020600020016000905590558560010160008681526020019081526020016000206000905560019350505050612daa565b60009150505b92915050565b600080836001016000848152602001908152602001600020541415905092915050565b6000612dde82612dfd565b8385612dea919061415a565b612df491906141b4565b90509392505050565b600081600a612e0c9190614414565b6064612e18919061415a565b9050919050565b600080fd5b6000819050919050565b612e3781612e24565b8114612e4257600080fd5b50565b600081359050612e5481612e2e565b92915050565b600060208284031215612e7057612e6f612e1f565b5b6000612e7e84828501612e45565b91505092915050565b612e9081612e24565b82525050565b6000602082019050612eab6000830184612e87565b92915050565b60008115159050919050565b612ec681612eb1565b82525050565b6000602082019050612ee16000830184612ebd565b92915050565b600073ffffffffffffffffffffffffffffffffffffffff82169050919050565b6000612f1282612ee7565b9050919050565b612f2281612f07565b8114612f2d57600080fd5b50565b600081359050612f3f81612f19565b92915050565b600060208284031215612f5b57612f5a612e1f565b5b6000612f6984828501612f30565b91505092915050565b600063ffffffff82169050919050565b612f8b81612f72565b82525050565b6000602082019050612fa66000830184612f82565b92915050565b612fb581612f72565b8114612fc057600080fd5b50565b600081359050612fd281612fac565b92915050565b600061ffff82169050919050565b612fef81612fd8565b8114612ffa57600080fd5b50565b60008135905061300c81612fe6565b92915050565b60008060008060008060c0878903121561302f5761302e612e1f565b5b600061303d89828a01612f30565b965050602061304e89828a01612e45565b955050604061305f89828a01612e45565b945050606061307089828a01612fc3565b935050608061308189828a01612ffd565b92505060a061309289828a01612f30565b9150509295509295509295565b6130a881612f07565b82525050565b6000819050919050565b60006130d36130ce6130c984612ee7565b6130ae565b612ee7565b9050919050565b60006130e5826130b8565b9050919050565b60006130f7826130da565b9050919050565b613107816130ec565b82525050565b61311681612e24565b82525050565b604082016000820151613132600085018261310d565b506020820151613145602085018261310d565b50505050565b61315481612f72565b82525050565b6101008201600082015161317160008501826130fe565b506020820151613184602085018261310d565b506040820151613197604085018261311c565b5060608201516131aa608085018261314b565b5060808201516131bd60a085018261314b565b5060a08201516131d060c085018261314b565b5060c08201516131e360e085018261314b565b50505050565b6131f281612fd8565b82525050565b60608201600082015161320e600085018261310d565b506020820151613221602085018261314b565b50604082015161323460408501826131e9565b50505050565b7f4e487b7100000000000000000000000000000000000000000000000000000000600052602160045260246000fd5b6004811061327a5761327961323a565b5b50565b600081905061328b82613269565b919050565b600061329b8261327d565b9050919050565b6132ab81613290565b82525050565b6000610200820190506132c7600083018a61309f565b6132d4602083018961309f565b6132e1604083018861309f565b6132ee6060830187612e87565b6132fb608083018661315a565b6133096101808301856131f8565b6133176101e08301846132a2565b98975050505050505050565b6000806040838503121561333a57613339612e1f565b5b600061334885828601612f30565b925050602061335985828601612e45565b9150509250929050565b60006060820190506133786000830186612e87565b6133856020830185612e87565b6133926040830184612e87565b949350505050565b600080604083850312156133b1576133b0612e1f565b5b60006133bf85828601612f30565b92505060206133d085828601612f30565b9150509250929050565b600082825260208201905092915050565b7f4c6f616e206d7573742062652061636365707465640000000000000000000000600082015250565b60006134216015836133da565b915061342c826133eb565b602082019050919050565b6000602082019050818103600083015261345081613414565b9050919050565b7f4e487b7100000000000000000000000000000000000000000000000000000000600052601160045260246000fd5b600061349182612e24565b915061349c83612e24565b9250827fffffffffffffffffffffffffffffffffffffffffffffffffffffffffffffffff038211156134d1576134d0613457565b5b828201905092915050565b60006134e782612f72565b91506134f283612f72565b92508263ffffffff0382111561350b5761350a613457565b5b828201905092915050565b7f796f752063616e277420646f20746869732077697468207a65726f206164647260008201527f6573730000000000000000000000000000000000000000000000000000000000602082015250565b60006135726023836133da565b915061357d82613516565b604082019050919050565b600060208201905081810360008301526135a181613565565b9050919050565b7f796f752063616e277420736574207a65726f206164647265737320617320726560008201527f6365697665720000000000000000000000000000000000000000000000000000602082015250565b60006136046026836133da565b915061360f826135a8565b604082019050919050565b60006020820190508181036000830152613633816135f7565b9050919050565b600060408201905061364f6000830185612e87565b61365c602083018461309f565b9392505050565b61366c81612eb1565b811461367757600080fd5b50565b60008151905061368981613663565b92915050565b6000819050919050565b6136a28161368f565b81146136ad57600080fd5b50565b6000815190506136bf81613699565b92915050565b600080604083850312156136dc576136db612e1f565b5b60006136ea8582860161367a565b92505060206136fb858286016136b0565b9150509250929050565b7f4e6f7420766572696669656420626f72726f7765720000000000000000000000600082015250565b600061373b6015836133da565b915061374682613705565b602082019050919050565b6000602082019050818103600083015261376a8161372e565b9050919050565b60006020828403121561378757613786612e1f565b5b60006137958482850161367a565b91505092915050565b7f506f6f6c20697320636c6f736564000000000000000000000000000000000000600082015250565b60006137d4600e836133da565b91506137df8261379e565b602082019050919050565b60006020820190508181036000830152613803816137c7565b9050919050565b60008151905061381981612fac565b92915050565b60006020828403121561383557613834612e1f565b5b60006138438482850161380a565b91505092915050565b61385581612e24565b82525050565b61386481612f72565b82525050565b61387381612fd8565b82525050565b600060808201905061388e600083018761384c565b61389b602083018661385b565b6138a8604083018561385b565b6138b5606083018461386a565b95945050505050565b6000815190506138cd81612e2e565b92915050565b6000602082840312156138e9576138e8612e1f565b5b60006138f7848285016138be565b91505092915050565b6000604082019050613915600083018561309f565b6139226020830184612e87565b9392505050565b600061393482612e24565b91507fffffffffffffffffffffffffffffffffffffffffffffffffffffffffffffffff82141561396757613966613457565b5b600182019050919050565b600061397d82612f72565b915061398883612f72565b92508282101561399b5761399a613457565b5b828203905092915050565b7f4e487b7100000000000000000000000000000000000000000000000000000000600052601260045260246000fd5b60006139e082612f72565b91506139eb83612f72565b9250826139fb576139fa6139a6565b5b828204905092915050565b6000613a1182612f72565b9150613a1c83612f72565b92508163ffffffff0483118215151615613a3957613a38613457565b5b828202905092915050565b7f4c6f616e206d7573742062652070656e64696e67000000000000000000000000600082015250565b6000613a7a6014836133da565b9150613a8582613a44565b602082019050919050565b60006020820190508181036000830152613aa981613a6d565b9050919050565b7f4e6f74207665726966696564206c656e64657200000000000000000000000000600082015250565b6000613ae66013836133da565b9150613af182613ab0565b602082019050919050565b60006020820190508181036000830152613b1581613ad9565b9050919050565b7f4c6f616e20686173206578706972656400000000000000000000000000000000600082015250565b6000613b526010836133da565b9150613b5d82613b1c565b602082019050919050565b60006020820190508181036000830152613b8181613b45565b9050919050565b600081519050613b9781612fe6565b92915050565b600060208284031215613bb357613bb2612e1f565b5b6000613bc184828501613b88565b91505092915050565b6000604082019050613bdf600083018561384c565b613bec602083018461386a565b9392505050565b6000613bfe82612e24565b9150613c0983612e24565b925082821015613c1c57613c1b613457565b5b828203905092915050565b600081519050613c3681612f19565b92915050565b600060208284031215613c5257613c51612e1f565b5b6000613c6084828501613c27565b91505092915050565b6000606082019050613c7e600083018661309f565b613c8b602083018561309f565b613c986040830184612e87565b949350505050565b7f4e6f742061626c6520746f2074616e7366657220746f2061636f6e6f6d79206660008201527f6565206164647265737300000000000000000000000000000000000000000000602082015250565b6000613cfc602a836133da565b9150613d0782613ca0565b604082019050919050565b60006020820190508181036000830152613d2b81613cef565b9050919050565b7f4e6f742061626c6520746f2074616e7366657220746f20706f6f6c206f776e6560008201527f7200000000000000000000000000000000000000000000000000000000000000602082015250565b6000613d8e6021836133da565b9150613d9982613d32565b604082019050919050565b60006020820190508181036000830152613dbd81613d81565b9050919050565b7f4e6f742061626c6520746f2074616e7366657220746f20626f72726f77657200600082015250565b6000613dfa601f836133da565b9150613e0582613dc4565b602082019050919050565b60006020820190508181036000830152613e2981613ded565b9050919050565b7f616363657074206c6f616e206661696c65642c2061646420746f20626f72727760008201527f65726163746976656c6f616e7300000000000000000000000000000000000000602082015250565b6000613e8c602d836133da565b9150613e9782613e30565b604082019050919050565b60006020820190508181036000830152613ebb81613e7f565b9050919050565b600081905092915050565b7f70726f746f636f6c000000000000000000000000000000000000000000000000600082015250565b6000613f03600883613ec2565b9150613f0e82613ecd565b600882019050919050565b6000613f2482613ef6565b9150819050919050565b7f506f6f6c00000000000000000000000000000000000000000000000000000000600082015250565b6000613f64600483613ec2565b9150613f6f82613f2e565b600482019050919050565b6000613f8582613f57565b9150819050919050565b7f426f72726f776572000000000000000000000000000000000000000000000000600082015250565b6000613fc5600883613ec2565b9150613fd082613f8f565b600882019050919050565b6000613fe682613fb8565b9150819050919050565b7f5265656e7472616e637947756172643a207265656e7472616e742063616c6c00600082015250565b6000614026601f836133da565b915061403182613ff0565b602082019050919050565b6000602082019050818103600083015261405581614019565b9050919050565b7f6e6f742061626c6520746f2072657061792c2072656d6f7665206c6f616e496460008201527f206661696c656400000000000000000000000000000000000000000000000000602082015250565b60006140b86027836133da565b91506140c38261405c565b604082019050919050565b600060208201905081810360008301526140e7816140ab565b9050919050565b7f756e61626c6520746f207472616e7366657220746f206c656e64657200000000600082015250565b6000614124601c836133da565b915061412f826140ee565b602082019050919050565b6000602082019050818103600083015261415381614117565b9050919050565b600061416582612e24565b915061417083612e24565b9250817fffffffffffffffffffffffffffffffffffffffffffffffffffffffffffffffff04831182151516156141a9576141a8613457565b5b828202905092915050565b60006141bf82612e24565b91506141ca83612e24565b9250826141da576141d96139a6565b5b828204905092915050565b6000819050919050565b60006141fa826141e5565b9150614205836141e5565b9250827f8000000000000000000000000000000000000000000000000000000000000000018212600084121516156142405761423f613457565b5b827f7fffffffffffffffffffffffffffffffffffffffffffffffffffffffffffffff01821360008412161561427857614277613457565b5b828203905092915050565b7f4e487b7100000000000000000000000000000000000000000000000000000000600052603260045260246000fd5b7f4e487b7100000000000000000000000000000000000000000000000000000000600052603160045260246000fd5b60008160011c9050919050565b6000808291508390505b60018511156143385780860481111561431457614313613457565b5b60018516156143235780820291505b8081029050614331856142e1565b94506142f8565b94509492505050565b600082614351576001905061440d565b8161435f576000905061440d565b8160018114614375576002811461437f576143ae565b600191505061440d565b60ff84111561439157614390613457565b5b8360020a9150848211156143a8576143a7613457565b5b5061440d565b5060208310610133831016604e8410600b84101617156143e35782820a9050838111156143de576143dd613457565b5b61440d565b6143f084848460016142ee565b9250905081840481111561440757614406613457565b5b81810290505b9392505050565b600061441f82612e24565b915061442a83612e24565b92506144577fffffffffffffffffffffffffffffffffffffffffffffffffffffffffffffffff8484614341565b90509291505056fea26469706673582212201f8059d4aeb533169ae9ba95469991251f9527e6320d92f3385ed4c6b622ca6264736f6c634300080a0033",
  "linkReferences": {
    "contracts/Libraries/LibCalculations.sol": {
      "LibCalculations": [
        {
          "length": 20,
          "start": 4711
        },
        {
          "length": 20,
          "start": 7310
        },
        {
          "length": 20,
          "start": 7585
        }
      ]
    }
  },
  "deployedLinkReferences": {
    "contracts/Libraries/LibCalculations.sol": {
      "LibCalculations": [
        {
          "length": 20,
          "start": 4313
        },
        {
          "length": 20,
          "start": 6912
        },
        {
          "length": 20,
          "start": 7187
        }
      ]
    }
  }
}